:020000040002F8
:1060000048510020C1630200C9630200CB63020053
:10601000CD630200CF630200D163020000000000E4
:10602000000000000000000000000000D363020038
:10603000D563020000000000D7630200D9630200AC
:1060400091670200DB630200F1690200DB6302007A
:10605000DB630200DB63020079650200DB630200A0
:10606000DB630200DB630200DB630200DB63020030
:10607000DB630200DB630200DB630200DB63020020
:10608000DB630200E9670200DB630200DB630200FE
:106090000D680200DB63020011680200DB6302008E
:1060A000DB630200DB630200DB630200DB630200F0
:1060B000DB630200DB630200000000000000000060
:1060C000DB630200DB630200DB630200DB630200D0
:1060D000DB630200DB630200DB630200DB630200C0
:1060E000DB630200DB630200DB63020000000000F0
:1060F00000000000DB63020000000000DB63020020
:10610000000000000000000000000000000000008F
:10611000000000000000000000000000000000007F
:10612000000000000000000000000000000000006F
:10613000000000000000000000000000000000005F
:10614000000000000000000000000000000000004F
:10615000000000000000000000000000000000003F
:10616000000000000000000000000000000000002F
:10617000000000000000000000000000000000001F
:10618000000000000000000000000000000000000F
:1061900000000000000000000000000000000000FF
:1061A00000000000000000000000000000000000EF
:1061B00000000000000000000000000000000000DF
:1061C00000000000000000000000000000000000CF
:1061D00000000000000000000000000000000000BF
:1061E00000000000000000000000000000000000AF
:1061F000000000000000000000000000000000009F
:10620000DFF80CD000F07AF900480047C19D020089
:106210004851002030B450E8012F93B2C489234480
:106220008489A34228BF1B1B0489A34202BFBFF37A
:106230002F8F002007E0C3EA020340E80134002C5E
:10624000E9D14FF001000A6030BC704750E8012FDF
:10625000C2EA024240E801210029F7D1704730B478
:1062600050E8022F1FFAA2F3C488A34202BFBFF373
:106270002F8F00200DE0C48923448489A34228BFC6
:106280001B1BC2EA034340E80234002CE8D14FF064
:1062900001000A6030BC704750E8022FC2EA224277
:1062A00040E802210029F7D17047034653E8022F46
:1062B000D988B2EB324F4FF0000017BF92B241EADB
:1062C000014142EA014104E05A68B2EB324F08BF93
:1062D000012043E80212002AE8D1704730B4044696
:1062E00054E8000F0D4644E80053002BF8D1156028
:1062F00030BC704730B4044654E8000F40EA010552
:1063000044E80053002BF7D1156030BC704730B41F
:10631000044654E8000F00EA010544E80053002B4E
:10632000F7D1156030BC704730B4044654E8000F14
:1063300080EA010544E80053002BF7D1156030BC1A
:10634000704730B4044654E8000F00EB010544E800
:106350000053002BF7D1156030BC704730B40446B1
:1063600054E8000FA0EB010544E80053002BF7D1DF
:10637000156030BC704770B404464FF0000054E81C
:10638000006F0D68AE4207BF44E80023012044E8D7
:1063900000630E60002B1CBF0020F0E770BC70474C
:1063A00030B4044654E8000F88422CBF451A054615
:1063B00044E80053002BF5D1156030BC7047000055
:1063C0000648804706480047FEE7FEE7FEE7FEE78F
:1063D000FEE7FEE7FEE7FEE7FEE7FEE715680200E0
:1063E000016202002DE9F05F0546002092469B46BF
:1063F00088460646814640241BE0284641464746DB
:10640000224600F06BF853465A46C01A914110D309
:1064100011461846224600F016F82D1A67EB0108BF
:106420004F4622460120002100F00DF817EB00092D
:106430004E41201EA4F10104DFDC484631462A46C5
:106440004346BDE8F09F202A04DB203A00FA02F11F
:10645000002070479140C2F1200320FA03F3194352
:106460009040704700487047C4F5020040EA0103BD
:106470009B0703D009E008C9121F08C0042AFAD2FA
:1064800003E011F8013B00F8013B521EF9D27047BE
:10649000D2B201E000F8012B491EFBD27047002266
:1064A000F6E710B513460A4604461946FFF7F0FF13
:1064B000204610BD421C10F8011B0029FBD1801A98
:1064C000704730B504460020034600E05B1C934251
:1064D00003D2E05CCD5C401BF8D030BD202A04DB49
:1064E000203A21FA02F00021704721FA02F3D0404D
:1064F000C2F120029140084319467047064C074DEF
:1065000006E0E06840F0010394E807009847103483
:10651000AC42F6D3FFF778FE48FD020068FD0200AA
:1065200070B58C1810F8015B15F0070301D110F855
:10653000013B2A1106D110F8012B03E010F8016B82
:1065400001F8016B5B1EF9D12B0705D40023521E05
:106550000DD401F8013BFAE710F8013BCB1A921C6D
:1065600003E013F8015B01F8015B521EF9D5A1426B
:10657000D8D3002070BD00002DE9F04F00268DB06B
:10658000DFF8A081B14604964FF4807501243746A8
:106590000596284604F078FD38B1D8F80403204267
:1065A00003D0284604F066FD26432D1D64007F1CA1
:1065B000ADB2082FEDD34FF4BE74204604F064FD55
:1065C00048B1204604F056FD46F0004604AA0221D8
:1065D000002004F039FD544C16F0FF0F15D00127B0
:1065E000002537420DD008EB8501D1F81005D1F810
:1065F0001015C0F3052054F82520C1F3014102B164
:1066000090477F006D1C082DEBD3002E7EDA002012
:10661000CDF82890411E0DF1100B07AACDF82C9053
:1066200042F82010401C91460228F9D300252E463E
:10663000A11911F8607F91F9000027F0C008401CF3
:1066400040D007A9404603F0CAFE40B34FEA971A6C
:10665000404601F063FD54F820701FB1BAF1030FFA
:1066600003D006E0BAF1030F2CD10AA9404603F08B
:10667000BEFE02A8CDF8088004F08AFC029900EB67
:106680008100D0F8000704A9C0F301400290404601
:1066900003F0A5FE0028029802D0022802D011E0E3
:1066A00003280FD1BAF1030F08D10298022833D082
:1066B0000221404604F046FC6D1CEDB217B1514674
:1066C0004046B847761C042EB2D3002D21D001AA33
:1066D0000221002004F0B8FC00205A460DF104010C
:1066E00052F8206051F82030B34217D000200AAE93
:1066F0004FEA090351F8207042F8207056F82070D4
:1067000043F82070401C0228F4D300E001E0002D83
:106710008CD10DB0BDE8F08F0321CAE7401C0228E0
:10672000DED3F6E700600040A028002000F01F0242
:10673000012191404009800000F1E020C0F8801262
:10674000704700F01F02012191404009800000F1D4
:10675000E020C0F80011704700F01F0201219140B5
:106760004009800000F1E020C0F80012704749079E
:10677000090E002806DA00F00F0000F1E02080F892
:10678000141D704700F1E02080F8001470470000ED
:1067900070B54FF48076304603F060FF114CB505BC
:1067A00060B1304603F061FF0120C5F8080360794D
:1067B00020B9012060712168002088474FF482765B
:1067C000304603F04BFF00280AD0304603F04DFF5F
:1067D0000220C5F808032168BDE870400120084781
:1067E00070BD0000A422002007480021C0F840111D
:1067F000C0F84411C0F84811C0F84C11C0F800119D
:10680000C0F8041107F05EBF0010014007F0A8BEF9
:1068100005F0A8B930B54FF0805000228300D0F8C1
:106820003011C3F80C21C3F81021624B1A60624B7F
:106830001B68624C2360604B1B1D1B68241D23607A
:106840005D4B08331B68241D23605B4B0C331B68B6
:10685000241D2360584B10331B68241D2360564BA6
:1068600014331B68241D2360534B18331B68534C8F
:1068700020342360504B1C331B68241D23604E4B77
:1068800020331B68241D23604B4B24331B68241DBD
:106890002360494B28331B68241D2360464B2C334F
:1068A0001B68241D2360444B30331B68434C403429
:1068B0002360414B34331B68241D23603E4B383327
:1068C0001B68241D23603C4B3C331B68241D236044
:1068D000394B40331B68241D23600124082902D151
:1068E000D0F8343113B1082904D006E0354B3449CF
:1068F000196005E0D0F8343113B1082904D006E05E
:10690000314BFB21196005E0D0F8343113B108296F
:1069100008D00EE090F858322C48016863F3030168
:10692000016002E0D0F834311BB929494FF40070FE
:10693000086028480168C90702D06FF001010160B2
:106940002548016841F470010160BFF34F8FBFF328
:106950006F8F4FF01021D1F80002002803DBD1F82F
:106960000402002822DA1D4B1C601D480468002C1C
:10697000FCD01224C1F800420568002DFCD0C1F8FB
:10698000044201680029FCD01A6001680029FCD08B
:10699000BFF34F8F10487C380168124A01F4E06160
:1069A00011430160BFF34F8F00BFFDE70F490E4851
:1069B000086030BD380500400404001020C50040C8
:1069C000488103008C56004018F50040E40E00405A
:1069D000409602400004004088ED00E004E50140DC
:1069E00000E401400400FA050090D003CC2300200D
:1069F0000148006800470000AC22002002E008C8FF
:106A0000121F08C1002AFAD170477047002001E028
:106A100001C1121F002AFBD170470000012120286C
:106A200003DA81400548014003E0402802DA2038BB
:106A3000814009B10120704700207047FC06FFBD6E
:106A400010B560B159B102780B785208B2EB530F10
:106A500005D10622401C491CFFF733FD08B1002078
:106A600010BD012010BD800701D00020704701201B
:106A70007047C3688B4206D811440069491E8142A1
:106A800001D8012070470020704710B50122022173
:106A9000002001F057F908B1072818D10722022178
:106AA000012001F04FF908B1072810D100210A2276
:106AB000084601F047F908B1072808D10B22012147
:106AC000002001F03FF908B1072800D1002010BDD7
:106AD00010B550B10A480321008801EB004009A11C
:106AE00004F0C2FC06F0B2FC03E00321094800F008
:106AF0005AFC002803D0BDE8104000F0CBB810BD10
:106B000014240020457261736520626F6E647321E6
:106B1000000000004424002070B58CB015460E46DD
:106B200000236C46C3F10F01415CE1545B1C102B48
:106B3000F8D30D2104F11000FFF7B1FC0020C0F1E3
:106B40000F02315C2244401C11740328F7D36846BD
:106B500046DF0020C0F10F01214491F82010295494
:106B6000401C0328F6D30CB070BD022001F002B81F
:106B70000149097900F0AABD7022002070B50024F7
:106B8000064D06E06868012110F8340005F0D4F8DD
:106B9000641C28788442F5D3002070BDB822002000
:106BA000F8B515460C460646052A01D20720F8BD61
:106BB00005F0BAF918B905F07DF90028F7D11249A6
:106BC00000224E600C708D60C1E90422C1E90622EA
:106BD0000E4D0DE006EBC4002968009181788DF818
:106BE000011000780A4A694605F0F2F80028DED163
:106BF000641EE4B2EED2BDE8F84004480021054A24
:106C0000001D00F053B80000B822002044F202003A
:106C1000599102006985020072B604F0DBFC00BFE6
:106C200004F012FB0028FBD1104C0121208801EB5D
:106C300000400FA104F018FC10480068C00700D005
:106C400000BE2088022101EB00400DA104F00CFCE5
:106C5000BFF34F8F0948E43801680D4A01F4E06141
:106C600011430160BFF34F8F00BFFDE714240020E4
:106C7000466174616C206572726F7200F0ED00E025
:106C800053797374656D207265736574000000003C
:106C90000400FA050EB500210091CDE901106A4605
:106CA00044F20100FFF7B8FF0EBD0000074B9B78D0
:106CB00023B12AB120B10068037C1BB108207047C2
:106CC0000720704741744261002070477C290020F2
:106CD00070B506F0ADFE104800240B21047044701E
:106CE0000E4D817014206C602C706C70FFF71EFDCF
:106CF00007211420FFF73BFD1420FFF722FD084871
:106D0000046007211120FFF732FD0548001F0068CD
:106D1000A860002070BD00007C290020D82200203F
:106D2000081501402DE9FC47DFF8789099F802300A
:106D300073B368B3052902D20720BDE8FC87436915
:106D400033B3437C012B25D0002704460025884619
:106D500016468DF80050684600F038F801A807F094
:106D600047FFC8B1012101700F4944600968C0E9BB
:106D70000218C0E904769DF8040089F801009DF826
:106D8000000000F047F81420FFF7E6FC2846D4E79F
:106D90000820D2E70F46D8E704259DF8000000F050
:106DA00039F8F3E77C290020041501400649897869
:106DB00039B130B1416921B100210174022107F0DC
:106DC0005DBC0820704700007C29002030B5EFF33F
:106DD000108172B60D4A9468012324B10370002912
:106DE00000D162B630BD93604FF0E023D3F88051FC
:106DF000074C25401560C3F88041D3F884415460A6
:106E00005A17C3F8842100220270E8E7882A00207C
:106E1000FC06FFBD0B498A68002A11D000280FD15B
:106E2000EFF3108072B60B684FF0E022C2F8003129
:106E30004B68C2F8043100228A60002800D162B693
:106E400070470000882A002070B5054608680C4687
:106E5000411C04D004F0D1F8206804F05FF86068A9
:106E6000411C02D0002104F047F82968A069C1F84C
:106E70002405607D227D29681043C1F86C05D4E9A2
:106E800000122868C0F81425C0F80C15207D0128D0
:106E900014D1A068411C02D0002104F02DF8E06854
:106EA000411C04D004F0A9F8E06804F037F8D4E9F4
:106EB00002122868C0F80825C0F8101570BD70B51A
:106EC000054608680C46411C04D004F0A0F8206870
:106ED00004F02EF86068411C02D0002104F015F87F
:106EE0002968A069C1F82405607D217D2A680843CE
:106EF000C2F86C05D4E900122868C0F80C15C0F877
:106F00001425207D012814D1A068411C02D0002145
:106F100003F0FBFFE068411C04D004F078F8E0685F
:106F200004F006F8D4E902122868C0F80825C0F871
:106F3000101570BD02F0A0BE2DE9F047074600888D
:106F40008EB0804602F08EFB824604462D48002516
:106F50002A460178404600F0D1FB7879400734D5C5
:106F600001254FF6FF7603AB2A460721504605F070
:106F7000CBFC010004D0404606F052FF00252BE078
:106F8000B1463146049802F0C1FA064648450FD092
:106F900004460146404602F04FFB4046FFF7E8FD3D
:106FA00030B9404606F00EFF4046FFF7E1FD48B11C
:106FB00022460721504605F01DFD010003D0404642
:106FC00006F02EFF00254E4506D0404605F080FE17
:106FD00010B1504602F032FB02208DF81800ADF8D7
:106FE0001A807879400701D5012000E002208DF851
:106FF00020008DF8215006A801F02AFC0EB0BDE853
:10700000F0870000702200202DE9FC47002517883A
:107010000646158090F82D001446894630B13A4650
:107020002146484600F094FB051E09D1B0784FF088
:107030000C0A18B32088C846001DB84202D9504631
:10704000BDE8FC87684679DF0028F9D12088032154
:1070500008F8001020881921401C80B2208008F810
:1070600000102088401C80B2208000EB0801BDF891
:10707000000007F0EBFC218808442080F078022211
:10708000C8B1218896F9033001F1030C4846BC458C
:10709000D5D8425421884FF0010C491C89B2218077
:1070A00000F801C02188491C89B2218009F801300B
:1070B0002088401C20807068B8B1218890F9003089
:1070C00001F1030C4846BC45B9D8425421880A2234
:1070D000491C89B2218042542188491C89B22180EF
:1070E00009F801302088401C2080308950B1CDE95A
:1070F00000474B460622022106F1080007F090FDEA
:10710000051E9DD1308A50B1CDE900474B4607227C
:10711000032106F1100007F083FD051E90D1308B8E
:1071200050B1CDE900474B461522142106F1180055
:1071300007F076FD051E83D1306A30B13B4622460A
:10714000494601F0A6F8051EDBD1706A30B13B4616
:107150002246494602F0FEFE051ED2D196F82C00CA
:1071600038B13B4622464946304606F0FFFE051E32
:10717000C7D1307838B13B4622464946304602F006
:107180006FFF051EBDD128465AE718B504460020FA
:10719000ADF8000013466A46204600F006F80028C5
:1071A00002D0BDF80000204418BD70B588B182B18E
:1071B0000024158803E0065D641C3444A4B2A54293
:1071C00003D8061976789E4201D08C42F3D38C42C4
:1071D00001D3002070BDA11C1180005D401E80B253
:1071E00070BD80F8301070472DE9F0410E00044664
:1071F00006D02CB196F87A000025012803D006E0CD
:107200000E20BDE8F08196F89800012821D04FF0BB
:107210000108A5702C2206F17801201DFFF726F940
:1072200084F83050D6F8A4006063D6F8A800A063B4
:107230004FF6FF70A4F8A80004F19400C4F8A4006D
:10724000C4F8AA50A4F8AE5084F8B050207810B119
:1072500004E00720D5E7FF2084F8540004F155012D
:107260001F27C4F89410A4F8987004F198023046CF
:10727000FFF7CAFE0028C4D116F13C0F0ED004F16E
:107280007401C4F89C10A4F8A07004F1A00206F1E7
:107290003C00FFF7B9FE0028B3D103E0C4F89C50CE
:1072A000A4F8A05084F85180208BA4F8480084F8FA
:1072B0003C80256484F8505060696064464604F15F
:1072C0003C02002104F1540072DF002899D126709D
:1072D00097E710B50288102A1BD0112A20D0262A41
:1072E0001DD1007A0C46012801D0022817D1A078C0
:1072F0000521401CB0FBF1F201FB1201204600F019
:1073000052F800280BD0A16B002908D0BDE810402E
:107310000847C27B012A02D18088A1F8A80010BDCD
:107320000C46002184F8B2108088B4F8A810884276
:10733000F5D120790028F2D10121DFE710B50C4604
:10734000022801D0032810D1607800280DD0002039
:107350006070A178204600F026F8002805D0A16BC7
:10736000002902D0BDE81040084710BD10B5044602
:1073700090F8540074DF012084F8B200002084F8F3
:10738000B40084F850000621204601F067FC002874
:1073900008D1A178204600F006F810B1A16B01B128
:1073A0008847002010BD2DE9F05F044600780F46A5
:1073B00038B1A770002003F0A9FB012620B1667048
:1073C00007E10820BDE8F09F0025C4F8AA50A4F802
:1073D000AE5084F8B050A07910B1A078012806D042
:1073E000E07968B1A078012801D0022808D1616B4A
:1073F00021B184F8B1600820884701E084F8B150D9
:1074000004F1AB0100200A5C0AB1304603E0401CE5
:107410000628F8D300204FF002084FF0030B012F8D
:1074200006D0022F0CD0032F0FD0042F15D110E05F
:10743000A17929B194F8241011B908B130460DE0B2
:10744000E17911B108B1404608E0207A08B1584608
:1074500004E0607A08B1042000E02846A070616B67
:1074600041B1032801D0042804D1607910B194F807
:10747000B200A0B184F8B35004F13C0018210746D3
:10748000FFF70DF804F12C0084F83C60814605F00C
:107490004BFD58B194F82C0084F8510008E084F8B2
:1074A000B45084F8B36007208847E5E784F851605A
:1074B00094F8240050B1484605F036FD20B194F808
:1074C000280084F8520001E084F8526084F850509B
:1074D000A27804F1AA0104F194094FF0060A052AE2
:1074E00060D2DFE802F078030F223F0084F83160B9
:1074F000C4F8A450C4E9101584F83C808020A4F896
:10750000480051E084F8318094F82420384612B1C4
:107510000722027001E080F800B0228A8281C4F85C
:10752000A4504160E168B9603EE06069B860208BBA
:10753000B88194F824003D4610B184F83CA001E0E5
:1075400084F83C60204607F02FFB40B185F814809A
:107550000421204601F082FB20BB05211EE084F8B7
:1075600031B01DE0E069B860208CB88194F8240047
:107570003D4610B184F83CA001E084F83C60204610
:1075800007F012FB48B185F814800421204601F071
:1075900065FB38B984F831A002E0042184F8311089
:1075A000C4F8A490A07878B13A4604F15400D4F815
:1075B000A41072DF00287FF405AF94F8301094F81F
:1075C000540073DF0028F6D1616B11B194F83100DB
:1075D00088470020F6E684F83150F5E770B50400DE
:1075E00012D001461C221448FEF740FF1248134DEA
:1075F0000560206850B17ADF002806D12068016854
:1076000029604068686005E00E2070BD0B487BDF94
:107610000028FAD108484FF6FF711438084A20F8BC
:10762000041B0549343901600021FFF73FFB0028A6
:10763000EBD0032070BD00009C25002030220020EC
:1076400041EB020010B5044600F078F8002805D0A0
:107650002146BDE81040024802F025BE10BD0000E2
:10766000C825002070B515460E46044607F0A8FA56
:10767000002809D0054800EB840080692A4631467D
:10768000BDE8704001F028BB70BD0000B8250020A7
:1076900070B50546002400F051F838B12946044879
:1076A00002F001FE08B1022400E00124204670BD72
:1076B000C425002010B51821034802F0CFFD18287A
:1076C00000D0C0B210BD0000B825002070B505463E
:1076D0000C46084607F074FA60B1284600F02EF810
:1076E00040B10548294600EB8400BDE870401830E1
:1076F00002F0D9BD002070BDB825002070B5054648
:1077000014460E46084607F05BFA002812D02846B9
:1077100000F014F800280DD00748294600EB860039
:1077200018301CB1BDE8704002F0C8BDBDE8704023
:1077300002F079BD70BD0000B8250020142801D3E7
:10774000002070470146014802F0ADBDBC25002075
:107750007CB5054608880C460930904201D90C20BA
:107760007CBD68466DDF0028FAD121880820685466
:1077700020881B21401C80B2208029542088401C76
:1077800080B220802844DDF801100160BDF80510AA
:1077900081802088801D80B220809DF800104908DB
:1077A00000D0012129542088401C208000207CBD6D
:1077B00038B502880446212A2CD00EDC1C484FF034
:1077C0000301102A008801EB00400ED0112A2AD1B3
:1077D000BDE8384017A103F047BE3B2A24D0562A03
:1077E00021D18088132176DF0EE016A103F03CFE44
:1077F000072000F0C9FA08B1FFF74CFA1448A18835
:107800000180144802F0B2FE00280CD0BDE83840D8
:10781000FFF740BA00200090A08869468FDF00285B
:1078200001D0FFF737FA38BD8088132176DFEBE708
:1078300014240020446973636F6E6E65637465641D
:107840002E000000436F6E6E65637465642E000049
:10785000102200203824002010B51A4C01886068DE
:1078600010290ED011292BD1401E606028D1FFF7BE
:107870000CF9002824D02168002921D0BDE810404F
:107880000847D0B900210122084600F05BFA08B190
:1078900007280FD107220221012000F053FA08B176
:1078A000072807D104220221002000F04BFA20B162
:1078B000072802D0216801B188476068401C6060D9
:1078C00010BD0000282200202DE9F04701883B4E22
:1078D00040F2F3194FF6FF7510291BD011293ED045
:1078E000122954D0502946D1C188F289841D914271
:1078F00041D1618902293ED18688304601F05EFF80
:10790000050038D004F10C0000F0F2F8A8B32946C5
:1079100030464EE0C17B8788044601292BD1A8461A
:10792000284601F04BFF050017D02F800020287259
:10793000234843464A460168C5F80A104068C5F81E
:107940000E0004F1100105F10A0002F003F868725C
:10795000F08900280FD129462AE0042013E080880E
:1079600001F02CFF040006D06068FFF71FFA08B191
:1079700006F03AFA2580BDE8F087FFE76868FFF770
:1079800015FA0028F7D0BDE8F04706F02DBA878831
:107990000646384601F012FF0400ECD02B464A465A
:1079A00006F1080104F10A0001F0D4FF60722146DB
:1079B0003846BDE8F04700F0B3BC00009C2500202D
:1079C000302200202DE9F04F0746858802883D4887
:1079D000012197B08346102A09D0112A49D01A2ACA
:1079E0006CD1387AB1EB101F45D2012244E0354CFE
:1079F000083CA068C0430B9061680BA802F077FCBC
:107A00000B990CA800F026FC2C220CA96846FEF766
:107A10002DFD0026E946A04610E000BF09EB460018
:107A20005FF00004B0F804A008EB84005146001D8C
:107A300002F0F9FB641C1D2CF6D3761C0098B042B2
:107A4000ECD8142D05D317B00420BDE8F04FFFF794
:107A500021B92946584602F031FC294608F10400B4
:107A600002F02CFCF87B012828D016482946001D7E
:107A700015E029461AE000220221B1EB101F01D2C5
:107A8000012600E000260F49083901F11000041D0D
:107A9000294682B102F012FC36B12946204617B0C1
:107AA000BDE8F04F02F00ABC2946204617B0BDE8F9
:107AB000F04F02F0B8BB02F0B6FBF5E717B0BDE837
:107AC000F08F0000C025002010B50446074800785C
:107AD00000280AD0204601F09FFC204606F09AFAC2
:107AE0002046BDE8104001F039BA10BD60220020E8
:107AF000007800F001007047084908B5085C009064
:107B0000684603F037FAD0F810050099C84010F025
:107B1000010000D0012080F0010008BDE9F0020062
:107B20002DE9FC410646C0074FF000050ED0104F6E
:107B300000240122385D009500231146019503F0D1
:107B400065F9641C042CF4D300F04EF8B0070DD591
:107B5000074E0024361D0022305D03230095114698
:107B6000019503F053F9641C042CF4D3BDE8FC81A7
:107B7000E5F00200094908B5085C0090684603F08A
:107B8000F9F9D0F80425009B0121994021EA02036C
:107B9000C0F808351140C0F80C1508BDE5F002002A
:107BA0000249085C012103F03CBA0000E5F0020044
:107BB0000249085C002103F034BA0000E5F002003D
:107BC000084908B5085C0090684603F0D3F9D0F87E
:107BD00004050099C84010F0010000D0012080F099
:107BE000010008BDE5F0020010B500242046FFF7B3
:107BF000D7FF641C042CF9D310BD10B50024204617
:107C0000FFF7D6FF641C042CF9D310BD10B5024653
:107C1000064B4FF0FF3000215C5C944201D10846D6
:107C200010BD491C0429F7D310BD0000E9F0020083
:107C300070B5094E0C004FF00005306005D00120F2
:107C400000F054F808B102202070706810B9FEF7F7
:107C50001CFF0546284670BD282200202DE9F0476C
:107C60000D468146FFF7D2FF0446042836D2DFF8DE
:107C700074801B481C4EA8F10C0725B3012D0ED0B3
:107C8000022D2BD104EB440030444578002D25D043
:107C9000B968002922D02846BDE8F047084704EB20
:107CA0004401755C0E44717849B10E4A4FF40041AD
:107CB000093A8068FFF736F808B987F80390B17879
:107CC00008F80410E2E78068FFF770F804EB44015D
:107CD000314418F804008D78A842D7D0BDE8F08769
:107CE000F0F00200242200203C250020042801D2CC
:107CF000FFF702BF002070470146104810B500880A
:107D0000042907D007290ED00A2915D1BDE8104053
:107D100006F070B9132176DF0CE000280CD0BDE826
:107D20001040FEF7B7BFA0F57F41FF3904D10448EA
:107D3000FFF71CFB0828F0D110BD00001022002026
:107D40004424002070B50023042810D20D4D00EB10
:107D50004004012A02D101290CD00022094E00EB77
:107D60004000304461B1012906D0022906D0072322
:107D7000184670BD0E30C2B22A55F9E74270F7E7D7
:107D80008270F5E73C250020044A01460020127964
:107D9000D20702D0084600F04DB8704718220020E4
:107DA00070B506461E480024C0E90161B00720D521
:107DB0000025012211462846FFF7C4FF6D1C04462A
:107DC000042D02D2002CF4D013E094B940F2666284
:107DD00004211448FEF7E4FE04000AD1FEF7CEFEAB
:107DE000040006D10F48104A0021001FFEF75EFF75
:107DF0000446F00712D00120FFF792FE74B909483B
:107E00000A4A00210C38FEF751FF040006D105484C
:107E1000074A01210838FEF749FF0446204670BD95
:107E200018220020FCF00200B1800200E999020053
:107E30006B6B02002DE9F05F6A4C05460026607806
:107E4000B34618B184F801B001F0B6FD664F4FF4A7
:107E50007A694FF4C87A4FF00108182D62D2DFE832
:107E600005F0AC0C0C31404D62676B746B74BE7DD9
:107E70007D7D7D7DACAFB2B5BEBE0020FFF7A0FE1C
:107E800000284FF0000008D0FFF78AFE022D02D133
:107E90004FF4E16008E0484606E0FFF789FE022D56
:107EA00001D1C82000E05046410CC0034FF4FA72E3
:107EB000801841F10001257052000023FEF792FA6C
:107EC00001462AE00020FFF77BFE00284FF000006B
:107ED00004D0FFF765FE4FF44870E5E7FFF768FE52
:107EE000DFE70020FFF76CFE00284FF0000002D013
:107EF000FFF756FECFE7FFF75BFED4E70020FFF762
:107F00005FFE00284FF0000002D0FFF749FE01E0BD
:107F1000FFF74EFE257041F69A1100223868FEF7F1
:107F200001FF064646E00020FFF724FE257008E02A
:107F3000002051E025703DE084F801800120FFF72A
:107F400019FE002240F6CD41E8E784F801800120C7
:107F5000FFF710FE00224FF48041DFE77868FEF75C
:107F600025FF0646D5F1110000D02EB10220FFF703
:107F700017FE84F802B01DE0012816D980B2C8218E
:107F80004843C117C90341EA5041C0034FF4FA7294
:107F9000801841F1000152000023FEF723FA014648
:107FA00000227868FEF7BEFE06460220FFF700FEBC
:107FB00084F802803046BDE8F09F01F0FDFCB9E78F
:107FC00001F0FAFCB4E701F0F7FC04E001F0F4FC86
:107FD0000020FFF7EDFD0120FFF7EAFDAAE7FFF71C
:107FE0000CFEA7E718220020F0F002002DE9F8436C
:107FF0000546861C00208DF8000090460F464FF085
:1080000001096846FEF7E2FE1B4C20683860D4E99F
:108010000001401AA16804F21C47081A0EE0012171
:10802000384602F05EF901F07DFE0146384602F066
:1080300058F9D4E90001401AA168081A401C864288
:10804000EDD8B8F1000F03D0052065F3891002E0E8
:10805000062065F39F50A2682168114004EB81015E
:10806000C8602068304420609DF80000FEF7D2FE12
:108070004846BDE8F8830000202D002030B4826817
:108080000468531C8360A154D0E901128A4202D3D0
:1080900030BC02F068BB30BC70470000034803C826
:1080A000814201D10120704700207047202D00201F
:1080B00000780221FFF7D2BD05494FF0FF320828B2
:1080C00041F8202002D3084480F85820704700006F
:1080D000A0280020F0B54FF0FF3512B1002308268C
:1080E00001E008230C260C4C05E000BF54F8237077
:1080F0007F1C04D05B1CB342F8D32846F0BD261881
:108100005DB286F8305044F82310002AF5D1E1180A
:1081100081F85800F1E70000A02800200249084437
:1081200090F9300070470000A028002070B5044688
:108130004FF6FF750A462846AC4208D14FF48074CA
:108140002146104605F04CF8A04209D070BDFF2C26
:10815000FCD82146104605F036F808B1204670BD1F
:10816000284670BD70B5084C050009D01034216850
:10817000002907D008682060496828468847F6E744
:108180000834F4E770BD00008C280020054A012166
:1081900020B1012805D19170FFF7E4BF5170002094
:1081A000FAE770478C2800202DE9F05F26484168E7
:1081B000F1B3DFF898B00E688146DBF800408768BD
:1081C0008078E11B21F07F45ED1CB0B9DFF880809D
:1081D0004FF48030C8F84403C8F804031120FEF7B8
:1081E000A5FA1120FEF7ADFA4FF0010AC8F800A079
:1081F0002F2003F099FD89F802A0B54200D2354640
:10820000124BE8193C3320F07F401860DBF8001077
:108210005A46091B21F07F41001B20F07F40C91CFA
:1082200081420FD9106818602F2003F07DFD00E017
:1082300004E0BDE8F05F1120FEF78EBABDE8F05F04
:1082400005F0F6BBBDE8F09FD822002004150140E0
:108250000010014073B58CB00646002000900D98C8
:1082600080B100246D4621460DA802F01CF830B103
:10827000009805EB400084800098401C0090641C2E
:10828000142CF0D32C2269463046FEF7EFF80EB0DE
:1082900070BD2DE9F04117880646B81D14460D46FD
:1082A000984202D90C20BDE8F081318807220629C6
:1082B0000AD34FF4486C4FF6FF73614501D99942D8
:1082C00002D17088062801D21046ECE7604501D93A
:1082D0009842F9D1994203D0984201D08142F3D813
:1082E0000520E85520881221401C80B220802954A6
:1082F0002088401C80B220804119308806F0A6FBFF
:108300002188084480B220804119708806F09EFBC5
:108310002188084420800020C5E7FEF7BBBC000090
:1083200038B54A7A0F4B62B100220A7259690029A6
:1083300006D001228DF80020ADF80200684688477B
:1083400038BD0A7A62B19B684C68024619462046DD
:10835000FEF7E8FC0028F3D0BDE8384005F044BD46
:108360005B68F1E79C250020F0B585B016460F4606
:1083700004461D4614220B496846FEF777F80A4862
:108380008DF80870ADF80240ADF80A608DF80C5019
:10839000017800222046FFF7B1F9684600F058FA4C
:1083A00005B0F0BD08F2020070220020F0B587B0E1
:1083B000074600200490ADF810100590ADF812109B
:1083C0000190029001AA04A9384690DF060022D04D
:1083D00003F050FC114C0346012520883A4605EB7A
:1083E00000400F4903F04BF8BDF8042012B9BDF866
:1083F000060038B12088BDF8063005EB004009A121
:1084000003F03DF8BDF808202AB12088154905EB96
:10841000004003F02DF807B03046F0BDE423002003
:10842000C8F50200546865207265717565737465DE
:10843000642054582F5258207061636B6574206C0F
:10844000656E67746820697320746F6F206C6F6E3F
:10845000672062792025752F2575206F63746574F8
:10846000732E000014F6020030B5044685B00021DA
:108470001B4804F0A8FE00282FD00025204600F05D
:10848000FAFE68B1112812D086281BD0A0F5405101
:10849000023903D00146204605F0AEFC294607E02C
:1084A00005B029462046BDE8304001F019BC012145
:1084B000204601F015FC05B00021BDE83040084819
:1084C00004F0B5BE142207496846FDF7CFFFADF8AA
:1084D0000240684600F098F9E0E705B030BD0000C2
:1084E0003922002030F102007FB50C4610B1012086
:1084F00004B070BD2079002638B141F61D55012821
:108500001BD0022826D00F20F2E70220207102960D
:108510000396E0680190694601A805F0E5F950B1BD
:1085200002988188E18000882081BDF800100298BF
:1085300005F058FADCE70A20DAE70A4B6A46002120
:10854000A01D05F08DF938B1064918398E61CE614C
:108550000A28CDD12846CBE702488188019805F04A
:1085600041FAF5E7182300202DE9F0470025DFF850
:108570008C803CE06068002100EBC5060120327869
:108580009146FDF760FFD4E9062300EA020701EAFD
:10859000030C57EA0C0728D082438B434846C4E9B2
:1085A000062303F07FFC32788246914601200021A9
:1085B000FDF749FFD4E9042300EA020401EA0307B6
:1085C0004A4650460021FDF73EFF44404F403C43A1
:1085D0000BD17078012801D0012100E000217268E0
:1085E00081EA0A010AB1484690476D1CEDB298F83D
:1085F000000044468542BDD3BDE8F087B822002084
:1086000010B50021024801F087FE80F3100010BD74
:108610003C3100200E4910B50A784C780023A24264
:1086200012D0521CD2B20A70022A00D10B70084A32
:108630000B780C3252F8232002608868104420F036
:108640007F408860012010BD0360002010BD000045
:10865000D822002013460A460021FFF785BE0000FD
:108660002DE9F843104D0F4680461E469146694657
:10867000286801F0ACFD040014D01C21FDF70FFFA9
:1086800001202071C4F81490380BC4F80080C4E9AC
:1086900002606946286801F0BBFD05F075F800200E
:1086A000BDE8F8830420FBE7E0F2020010B5037890
:1086B0000022072B06D2DFE803F00504061020296C
:1086C00030000A7010BD01230B7003898B818388F1
:1086D000CB81C06888600A7410BD02220A700289CA
:1086E0008A818288CA81C2688A60807D062802D019
:1086F0000020087410BD0120FBE703220A70C28825
:108700008A810289CA81C068886010BD04230B7009
:10871000C0888881CA818A6010BD0520087010BD9C
:1087200070B5064D0646002455F8241009B13046B0
:108730008847641C042CF7D370BD0000A02A0020D9
:1087400030B50446006887B00D46806800281FD009
:1087500018216846FDF7A3FE0195A06805902079D1
:1087600010B1012810D107E001208DF80000206928
:108770000290E068039005E002208DF80000E068B8
:108780000003029060690490206881686846884709
:1087900007B030BD70B586B015460C00064619D03E
:1087A000112C17D0082C15D014216846FDF777FE40
:1087B000ADF80260304600F055FFADF804000D2C16
:1087C0000AD0862C1CD007208DF800000294684641
:1087D00000F04CF806B070BD03208DF8000025B104
:1087E0002878C00701D0012000E002208DF80800A1
:1087F00000208DF80C0041F20110ADF80A00E6E708
:1088000006208DF80000E2E710B50446408800F02D
:1088100029FFA080024801682046BDE810400847B3
:10882000402200202DE9F04107460024064E074D66
:1088300005E000BF56F8241038468847641CE878E5
:108840008442F7DBBDE8F081402800206022002050
:1088500010B50446408800F005FFA080024801687A
:108860002046BDE810400847DCF1020001490968D4
:108870000847000030F2020070B586B004461421AB
:108880006846FDF70CFEA0890125A0F54040ADF833
:10889000040020782A4E062833D2DFE800F03203A5
:1088A00003032C48A08900F0BDF930B9E08943F6F4
:1088B000FE71A0F54040884223D8A07B8DF80800C7
:1088C000207803280FD000208DF80900A0680390BD
:1088D000606850B109208DF8000060680490684617
:1088E00004F0D0F80DE00120EEE708208DF800003C
:1088F0008DF81050F3E7A08900F094F908B1E089F1
:1089000030B17078002801D004F0ECF906B070BDE9
:10891000606820B10B208DF800007570DFE70A2039
:108920008DF80000BDF8040004F066FAF5E71320A6
:108930008DF800004FF6FF70ADF80400CFE700009F
:108940005022002038B504460E480078A8B1A4F59E
:108950007F40FF380FD0684604F048FE78B105210B
:10896000017001210171C480684604F04DFE04F0DD
:10897000FDFE002038BD042038BD022038BD08208F
:1089800038BD0000202300200C4808B5007888B1CD
:10899000684604F02BFE78B106210170684604F0A9
:1089A00033FE0748017809B10121017304F0DEFEAE
:1089B000002008BD022008BD082008BD202300209B
:1089C000642B0020F0B587B014216846FDF767FDE1
:1089D0002B4C207818B16846FFF7A2FE4EE0201D10
:1089E00001F07CFCB8BB4FF0102041690004026923
:1089F00040694B1C01D100FB02F1224800220161B9
:108A0000A1F54051C160204902F03CF8002820D176
:108A10001F481C238C221D49006801F0C5FB03F090
:108A200021FE051E14D0022812D000270126062D93
:108A300012D005A804F0DAFD88B106700C2D18D20A
:108A4000DFE805F0170F170F171617161711131178
:108A50000B2007B0F0BD11E026706760BBE708206F
:108A6000F7E7077105E0032100E00221017100E052
:108A7000067105A804F0C8FD04F078FE0020E8E7C0
:108A800020230020D0230020F0F20200B02A002092
:108A900058F2020038B5040014D0694604F024FFEF
:108AA000A0B1BDF8000000EB8001094800EB810097
:108AB000C16849B1A17A39B1C168491EC1600020BD
:108AC000A07238BD052038BD062038BD0A2038BD4B
:108AD0003C2B00201FB501A9684604F0C1FE04B07C
:108AE00010BD07B513460A466946002004F0B8FEDB
:108AF0000EBD07B513460A460021684604F0B0FED5
:108B00000EBD20B119B10068086000207047052033
:108B100070470000F8B50D46040018D0BDB1694695
:108B200004F0E2FEA8B1BDF800000B4900EB8000A4
:108B300001EB800001210C30666801F0D2FB2E6051
:108B400060680C3068600120A0720020F8BD05202C
:108B5000F8BD0A20F8BD00003C2B002018B103230B
:108B6000002206F097B9052070470223002206F084
:108B700091B912B1022306F08DB9052070470000AB
:108B8000084910B50A69042A0AD0074A096942F857
:108B9000210004480121103001F0A3FB002010BD8A
:108BA0000C2010BD00230020A02A002038B5044668
:108BB00009480D46007858B164B16946284606F068
:108BC00063FA002803D1BDF800102180658038BD0C
:108BD000022038BD052038BD2023002010B50446F2
:108BE0000E48007898B1A4B12188022913D80C4A04
:108BF00001EB810002EB800260885289C31C934222
:108C000009D806F035FA00202080608010BD0220CF
:108C100010BD052010BD042010BD00002023002041
:108C20003C2B002043F6FE71A0F54040884201D85D
:108C3000012070470020704710B5044600781828BE
:108C400002D1FEF737FD207010BD10B50446007844
:108C5000182802D1FEF72EFD207010BD70B50D460C
:108C60000446B0F89810D0F894000122FEF78DFA6F
:108C700000B1057004F13C0204F1940104F15400C8
:108C800072DF70BD70B51346002206461546862970
:108C900002D0112902D002E0012200E001250D4C92
:108CA00073B1A179FEF72AFD2A4661793046FEF7B5
:108CB00025FD0022A1783046FEF720FD002203E0CA
:108CC000A178FEF71BFD2A4661783046BDE870406A
:108CD000FEF714BD78220020F7B517460E0011D01C
:108CE0000098002560B100242146684601F0DBFAB7
:108CF00018B1A0B23946B0476D1C641C142CF3D3D4
:108D00002846FEBD0020FEBD406804F08FBC000078
:108D10000EB516A19DF8080020F00F00401C20F0B1
:108D2000F00010308DF808000F2202A87CDF08B197
:108D3000FDF7B0FF40F2C33078DF08B1FDF7AAFFBE
:108D40000020009001905021ADF80400ADF8001013
:108D50004FF4C870A021ADF80600ADF802106846C7
:108D60007ADF002801D0FDF795FF0EBD4E6F7264CB
:108D700069635F54656D706C6174650070B508B1AE
:108D8000012070BD194C0025207B08B1257301E03E
:108D900000F0A0F82078082826D2DFE800F02504AB
:108DA000080C10251420BDE8704000F021B8BDE883
:108DB000704000F07DB8BDE8704000F05FB8BDE8DD
:108DC000704000F03BB86088084900EB800028390B
:108DD00001EB80004068BDE8704003F023BC656093
:108DE000BDE8704003F02CBC0F2070BD642B002048
:108DF0001149F0B48A1C00200346A1F128050C1883
:108E0000A67A4EB1A37200EB800405EB8404E668F9
:108E100016B9247C012C0AD0401C80B20228EED363
:108E20000B704B804B60F0BC41F61D5070471080BA
:108E3000F0BC00F03DB80000642B00200C484188D5
:108E400001EB8102A0F1280101EB8201CA6852B155
:108E50000521017007480221818001680023012259
:108E6000054801F079BD042202704968F6E7000068
:108E7000642B002028230020D023002038B50A4985
:108E8000084803240B684268898803EB81015388F2
:108E90000470DB1C00201B0400909B0B034801F0B6
:108EA000CBFE38BD642B002028230020D0230020D7
:108EB000074910B54888091D04F066FD18B1BDE8E2
:108EC0001040FFF7DBBFBDE81040FFF7B7BF000061
:108ED000642B0020F0B51F481F49012506780224A5
:108EE0008B88A0F12802082E19D2DFE806F00418BA
:108EF000181B222F2F170189491C01810021418055
:108F000080F80C1001EB810312F8233043B10023E9
:108F10004418491C89B2A3720229F3D30570F0BD2D
:108F20000123F5E742685288D21C1A448A800470F3
:108F3000F0BD46880D6806EB860602EB8602566891
:108F40000E60556013818C80062100E007210170BE
:108F5000F0BD0000642B00202823002030B50188DC
:108F60008488224D85B0502924D0522902D054291A
:108F700031D103E0204600F07FFE2CE014221C4992
:108F80006846FDF773FAADF80240204600F06AFB30
:108F9000ADF8040000F022F9002269792046FEF7BE
:108FA000ADFB002229792046FEF7A8FB6846FFF7B3
:108FB0002BFC10E0017B01290DD1817A01290AD116
:108FC0000089A0F52451023905D10121204600F085
:108FD00087FE05F0ABFD00220649E878FEF742FB6C
:108FE00005B0BDE8304004F04FBF0000382200203B
:108FF00058F10200356F020010B5044600780028D1
:109000000FD1608800F038FE608800F081F90028F8
:1090100007D00449608801220979BDE81040FEF7B5
:109020006DBB10BD3822002010B5124C00202070FE
:10903000FEF740FBA070FEF73DFBE070FEF73AFB49
:109040002071FEF737FB6071A17818290FD0E17805
:1090500018290CD02179182909D0182807D0012106
:10906000601C04F0A9F801202070002010BD03202E
:1090700010BD0000382200207CB504460078082886
:109080002FD1607A38BB207A4FF6FF7501280DD0BA
:10909000072802D0082824D11EE0A08800F020FA7A
:1090A000A8421ED0012100F01BFE1AE0A0886A46EB
:1090B000012103F0FFFB70B90198007858B1A08836
:1090C00000F00EFAA8420CD0084901220979FEF7F7
:1090D00015FB04F0D9FE04E004480021401C04F014
:1090E000A6F8BDE87C4005F021BD00003822002034
:1090F00010B504460A4841782046FEF7E7FA68B101
:109100000848002101EB410200EB82025288A24292
:1091100001D1C8B210BD491C1429F3D3FF2010BDE2
:109120004A2200203026002070B5094D094E002447
:1091300004EB440005EB800071784088FEF7C6FA26
:1091400020B1641C142CF3D3FF2070BDE0B270BDBD
:10915000302600204A2200202DE9F04180460246B8
:1091600001200021FDF76FF91A4F05460E46786879
:10917000FDF71CFE00280CD1174CD4E9062110463F
:109180002A4001EA06031A4305D0A843B143C4E9C3
:109190000601BDE8F081404602F084FE30B1D4E91A
:1091A000040128433143C4E9040105E0D4E9041073
:1091B000A943B043C4E90410D4E90601284331436C
:1091C000C4E90601A1687868BDE8F0410022FDF716
:1091D000A9BD000044F20200B82200201CB5054AD7
:1091E000D2E90212CDE900120022694603F087FBA2
:1091F0001CBD000070F1020003484FF6FF71818032
:109200000121017000207047442200202DE9FC411B
:10921000804600F027FA002403250127A0F57F41AE
:109220002646FF3908D06A46082103F043FB18B9E7
:109230000198841D8688056832462B4621464046A3
:10924000B1DF042804D0082804D00B2808D002E09D
:10925000112000E00020002F00D10B20BDE8FC8190
:109260000027A80701D50125E6E73443F5D00024FF
:1092700026460325E0E72DE9FC41804600F0F2F99F
:109280000646A0F57F40FF380ED001252A466D1C0A
:109290000027ADB26B460821304603F035FB0400D1
:1092A00006D0072C25D025E043F20200BDE8FC8162
:1092B000019903230A1D0B604046891DB2DF04009B
:1092C00004D00C2C09D0052C09D009E03246082125
:1092D000104603F08FFB04460CE0012700E0002459
:1092E0000821304603F072FB00B10324002FCDD1DA
:1092F00000E00C242046D9E704488088A0F57F418F
:10930000FF3901D004F0CABD70470000442200209C
:109310000EB502A9019100F0A5F96A46012103F0FA
:10932000C9FA08B100200EBD019800780EBD0000FA
:109330002DE9F04107464FF6FF760A48B3DF10B13A
:109340000320BDE8F081074C43F20305A41E32461A
:1093500061883846AFDFA842F3D16088401C608046
:10936000F5E7000046220020428800EB82020C3222
:109370008A4201D9022070478188A1F57F42FF3AD5
:1093800003D0008808B10020704701207047884250
:1093900004D20068401C01D00120704700207047B3
:1093A0003EB5027802230C46B3EB520F17D1B0F84A
:1093B0000110ADF80010C1788DF802108188ADF869
:1093C000041080798DF8060002AA01A92046FDF755
:1093D000A3FB032202A96846FDF773F808B1002039
:1093E0003EBD01203EBD000010B50C46FFF780FEDB
:1093F000FF280CD0074900EB400001EB80004168DA
:1094000021600189A180807AA071002010BD052013
:1094100010BD00003026002070B5018890B01029E2
:1094200059D1011D2C226846FDF720F89DF8040053
:109430004FF6FF76032134466D46B1EB500F2AD02C
:1094400003F08EFB9DF8040040080ED001280CD0DC
:10945000022820D118E00D99281D1131FDF7F0FAEE
:1094600018B100BFBDF82C4015E00CAA0BA90720CD
:1094700003F04AFB0028EED10DE00D99281D491C90
:10948000FFF78EFF0028EDD10CAA0BA9072003F0EF
:109490003BFB0028F1D1BDF80000291D00F02EFE95
:1094A000B44218D0BDF80000214600F0C5F8BDF860
:1094B0000000ADF82E000020ADF83040074E8DF8CA
:1094C0002C000BAD044600BF56F8241028468847F0
:1094D000641C022CF8D310B070BD000084F10200AF
:1094E000094A002101EB410332F82330834205D1C0
:1094F00001EB410002EB800040887047491C1429B1
:10950000F0D34FF6FF707047302600203EB50C4672
:10951000054603F025FB0BE0BDF80000A04207D094
:109520002846029900F02EF810B1BDF800003EBDAB
:1095300001AA6946072003F0E7FA0028ECD14FF6AC
:10954000FF703EBD10B50D4C18200D4A6070002014
:109550004FF6FF7100EB400302EB8303401C598080
:109560001428F7D3FEF7A6F86070182803D001205E
:109570002070002010BD032010BD00004A220020F2
:10958000302600202DE9F0410C46054600F1110778
:1095900001F111061022491C401CFCF792FF48B94A
:1095A000681C00F0F9F928B1601C00F0F5F908B169
:1095B000012400E0002431463846FDF741FA3B78AB
:1095C0000222B2EB530F0CD00321B1EB530F08D0A2
:1095D0003378B2EB530F04D0B1EB530F01D001211C
:1095E00000E00021084201D18C4302D00120BDE8F7
:1095F000F0810020FBE7018811B9421892780AB186
:1096000001207047491C0829F7D30020704710B586
:109610000C460346FFF7EFFF00280AD01888218880
:10962000884205D10822A11C981CFCF74AFF08B10A
:10963000002010BD012010BD03F032BC70B50446FF
:10964000FFF74EFF0546204603F037F94FF6FF714E
:1096500004468D4203D014B9284603F021FC20466D
:1096600070BD000010B5FFF743FDFF2805D0044989
:1096700000EB400031F8200010BD4FF6FF7010BD28
:10968000302600203EB5044603F06AFA0EE0019948
:1096900020464631FFF7BBFF28B9019920462A3101
:1096A000FFF7B5FF10B1BDF808003EBD6A4602A93C
:1096B000072003F029FA0028E9D14FF6FF703EBDDC
:1096C00010B50A4941600A4800F008FE58B902F096
:1096D0005BFA07491C238C22087404488C39001F4C
:1096E000006800F061FD002010BD0000E4F20200FF
:1096F000002C00202DE9F0412D4F002518B17D6090
:109700000120BDE8F0810879012258B1294E0128D5
:109710000CD0274C4FF002080834022821D003282F
:1097200042D128E00A7102F08BFF3BE05FF00000BD
:1097300000EB800116F82110022908D0401C80B2ED
:109740000228F5D33A707D6041F61D50D9E700EB51
:10975000800006F8205006EB8000406802F062FFAF
:1097600020E00D71A4F80480002301221248216832
:1097700001F0F2F816E00D71206802F053FF0D4978
:1097800023682831498801EB810206EB8201D1F878
:1097900004C0C4F800C04B60A3880B81A4F8048007
:1097A00006F822500028ACD07D600E20A9E700000A
:1097B000202300203C2B0020D0230020014603481A
:1097C00002888A4200D000207047000088250020CF
:1097D0002DE9FC5F0E008346DDE90C47C6F1000071
:1097E00098469246814600D40846012503E000BF12
:1097F00090FBFAF06D1C5045FADAA84500D94546B1
:1098000024B1002E01DB780700D5641EB80702D50D
:10981000B8F1000F0AD0F80708D13CB1A54205D233
:1098200020215846641EFEF729FCF6E7002E02DAD6
:109830004E462D2102E0780703D52B215846FEF72E
:109840001DFC07F0030002280BD1B8F1000F08D16E
:109850003CB1A54205D230215846641EFEF70EFCED
:10986000F6E7CDE90047434652463146584605F0F3
:1098700003F9BDE8FC9F000070B50D460446006882
:109880004FF4887102F016FA4FF49071206802F0DC
:1098900011FA4FF49271206802F00CFA4FF4A271A1
:1098A000206802F007FA20681249C0F80413206803
:1098B0006907000B40B2090E002806DA00F00F001D
:1098C00000F1E02080F8141D03E000F1E02080F8B2
:1098D000001420680121000B40B200F01F029140EB
:1098E0004009800000F1E020C0F88012C0F80011AB
:1098F00070BD0000100302000246002012689307AA
:1099000002D0530702D47047500714D502F0030069
:10991000012802D002280CD105E0C2F383100B68A5
:10992000801C184404E00223086803EB92521044A0
:10993000086001207047086800EB9253C2F3891059
:10994000401CEEE70248007A002800D00120704752
:10995000002C0020F0B58488A518944200D8224637
:10996000A41AC288D6189A4200D81346D21A4B8835
:109970000788BB420CD34088834209D88888A0421C
:1099800006D3A84204D8C888904201D3B04201D976
:109990000020F0BD0120F0BD0021425C0AB1012091
:1099A0007047491C1029F8D300207047800701D068
:1099B00000207047012070470A4810B5807860B1D8
:1099C000002401E0022C06D02046FEF7E9F8641CD2
:1099D000042CF7D310BD0324F6E7BDE81040FEF7D2
:1099E00003B900001822002003480179C90702D0FA
:1099F0000078FEF71FBA7047182200201721018057
:109A000041800021017141711B218171C171704739
:109A10002DE9FE4F2B4D984691460F00824601D00E
:109A200000260DE0684600F095FB6A46002150468E
:109A300002F0AFFE2878009E10B99DF8090098B199
:109A40004A463146504604F041FC04460146002295
:109A50005046FFF717F90D2C32D008DC84B3082CE0
:109A60002ED00B2C0BD12BE00520BDE8FE8F112C46
:109A700010D0862C1AD0A4F54050023820D00325EF
:109A8000B8F1000F04D0324621465046FEF782FE60
:109A90002846EAE73A4629795046FDF72FFE4A461E
:109AA000E9785046FDF72AFE0025E9E73A4629798C
:109AB0005046FDF723FE4A46E9785046FDF71EFE64
:109AC0002546DDE7782200202DE9F041204F0E46A3
:109AD000154604463978FDF7F9FD002835D02046B3
:109AE00002F04EFE50B32046FFF7BCFD80462046F4
:109AF000B978FDF7EBFD08B1012700E00227204609
:109B000003F0E6F80028404602D0FFF797FD0DE08D
:109B1000A8F57F41FF3909D0072102F057FF010066
:109B200004D0052902D0204604F07AF92B463246AB
:109B300039462046BDE8F041FEF716BC2A463146BC
:109B40002046BDE8F041FEF785BDBDE8F08100008C
:109B50007022002070B5094D0646E978FDF7B6FD84
:109B6000044629793046FDF7B1FD014622463046CC
:109B7000BDE870400123FFF74BBF000078220020B2
:109B80002DE9F047394E002780463D46DFF8E0904A
:109B9000D6F804A057E003D00446D0F81C8035E086
:109BA00099F8002002EB4201521CD2B289F8002041
:109BB00009EBC10199F80230091D9A4201D189F8D7
:109BC000005048680A780446012A12D0022A02D0BE
:109BD000032A3BD108E004F021FD00B101272574E0
:109BE00034E00574C06900E070680028F9D1706045
:109BF0002CE0207C50BB88686060C868A060086961
:109C0000E0604869A061F07800B165606268B168A1
:109C1000184B501A20F07F40984202D2A1680844A5
:109C200006E0881AA16820F07F40814202D9081A14
:109C3000206000E0256065600120A560207420465A
:109C4000E56104F0CDFCB8F10000A4D199F8001052
:109C500099F801008142A3D117B97168514502D02A
:109C60000120BDE8F0870020FBE70000D82200209B
:109C70007C290020FFFF7F0030B585B00546002419
:109C800014216846FCF70BFCA5F57F40ADF80250A7
:109C9000FF3815D02846FFF7B9FA98B10B2815D030
:109CA000112811D0A0F54051023903D001462846B1
:109CB00004F0A2F809482246C1782846FDF71EFDA7
:109CC00005B030BD0E2002E00124F3E70F208DF82F
:109CD00000006846FEF798FDECE7000038220020FF
:109CE0000A4602498978FDF709BD000038220020A4
:109CF000F8B5054600780C46002620420FD100201A
:109D00008DF800006846FDF761F82878204202D1FE
:109D10002043287001269DF80000FDF77BF83046AF
:109D2000F8BD00002DE9FF410026234800F0D3FADA
:109D30002148001F074600F0CEFA204C60680090D2
:109D4000A56800E000986946284004EB80000C30CC
:109D5000FFF7D2FD0028F5D101AA009901EA050319
:109D600004EB8303491CDB6842F82030401C00915F
:109D70000228F2D3019800F0030001280BD002283A
:109D800010D10198032101EB90500099BDF80A60B1
:109D900001EB900005E00198BDF80A60C0F3831064
:109DA00008440090384600F093FA08B100986060CB
:109DB00004B03046BDE8F08138310020202D00206D
:109DC000ACB04FF40041002001F0C0FB08B1FCF73B
:109DD00061FF01F02BFAFCF77BFF08B1FCF75AFF9B
:109DE0004D490320FDF7DCFF08B1FCF753FF69463E
:109DF0000020FDF71DFF08B1FCF74CFF9DF80000A7
:109E000002287CD05FF0000501F0BEFC08B1FCF731
:109E100041FF01F06DFE08B1FCF73CFF00246946EC
:109E20000120009401F0F2FC08B1FCF733FF684612
:109E300001F070FD08B1FCF72DFFFEF769FF00216E
:109E4000364800F0DEFA08B1FCF724FFAC21684682
:109E5000FCF725FB02208DF8000001208DF80200A0
:109E60000621ADF810008DF87C008DF803104FF43A
:109E700096702B492290059144F250602390294816
:109E80002990264869462030FDF7AEF908B1FCF765
:109E900001FF224801212030FDF7A3F9224800905C
:109EA0001E486946143000F06CFB08B1FCF7F2FE66
:109EB0001C216846FCF7F3FA4FF42030CDE900404E
:109EC0004FF47020029019480590032618488DF829
:109ED0000C600690ADF80E408DF810406846FDF716
:109EE0007DFB08B1FCF7D6FE02F0E8FF114812A195
:109EF000008806EB004001F0B7FA284600E008E0D1
:109F0000FCF7E6FD01F0A0F90028FBD101F050FCC0
:109F1000F8E7012578E70000F97C020024240020FE
:109F200012220020CDC30200F5B7020019C40200BE
:109F30001B8302001424002054656D706C617465ED
:109F4000206578616D706C652073746172746564EE
:109F50002E00000070B5144682880E460546208803
:109F6000111D0144921C994201D8FE2A01D90C20EE
:109F700070BD521C32542088FF21401C80B22080CA
:109F800031542088401C80B220808119288804F038
:109F90005DFD2188084480B22080AA8842B1A9686A
:109FA00041B13044FCF762FA2088A9880844208037
:109FB000002070BD072070BD2DE9F047C78804461A
:109FC000181D16468946B0FBF7F1B0FBF7F207FB08
:109FD00012009A193A44D21CB2FBF7F2DDF820A025
:109FE00001E02468491E0029FBD13D1A8846B5428C
:109FF00016D818E0BAF1000F05D0211809EB0800B7
:10A000002A46091D04E0204409EB08012A46001DE8
:10A01000FCF72CFA00202468761BA844B74201D92B
:10A02000354600E03D46002EE4D1BDE8F087000053
:10A0300030B5024659B101F0B5FA0021074C09E0EC
:10A0400004EB810315685B88AB4202D111600020EC
:10A0500030BD491C8142F3D3052030BDE4230020EC
:10A06000F8B50F46017814460546012901D16878F4
:10A0700030B12088821C9A422DD8012902D006E0F6
:10A080000720F8BD69780144891C994223D8181A21
:10A09000801E86B2ADF800602188B81C084469466D
:10A0A0007DDF0028EDD12878022805D1BDF8001009
:10A0B000B14201D809210AE00821012805D16878B8
:10A0C000B04202D8ADF8000001E0ADF80060BDF884
:10A0D0000000FE2801D90C20F8BD2288401CB8548D
:10A0E0002088401C80B2208039542088401C208069
:10A0F000BDF80010084420800020F8BD70B505466A
:10A100000C004FF0FF0020D04FF6FF76B5421CD078
:10A110000E48012241782846FDF7F0FA2846FEF75E
:10A12000E7FFFF2803D1FEF7FFFFFF280DD0084B04
:10A1300000EB400203EB82014D8023F8226022688D
:10A140004A60A2880A81A2798A7270BD4A220020E0
:10A1500030260020034A00219268C0E90021816076
:10A16000704700007822002070B54FF6FF750E464C
:10A17000A84201D1002000E0401C84B208E0214642
:10A18000304603F048F808B1204670BD641CA4B204
:10A19000FF2CF4D9284670BD10B5FCF786F808B13D
:10A1A000002010BD112010BD10B531B1B2FBF3F489
:10A1B00003FB14241CB1092010BD0E2010BD01604A
:10A1C0000021416081608281C381084610BD70B565
:10A1D0000C460546FCF71EF8002802D021882868A6
:10A1E000084470BD10B50A8849888A4203D1FCF73B
:10A1F00053F8012010BD002010BD70B50C46054677
:10A20000FCF72DF8002802D061882868084470BD4A
:10A2100010B50A8849888A4203D1FCF717F8012053
:10A2200010BD002010BD01F01F0301229A40D2434F
:10A23000490900EB8100114600F059B80A4601F0C7
:10A240001F030121994010B552090C4600EB820012
:10A2500000F05DF8204000D0012010BD2DE9F04154
:10A2600080460D460024481E012101EB501716E0E0
:10A2700058F82400C04390FAA0F0B0FA80F02028EB
:10A280000CD200EB4416AE4208D231464046FFF7EE
:10A29000D5FF0028ECD13046BDE8F081641CA74210
:10A2A000E6D82846F8E74A0950F8220001F01F02D4
:10A2B00001219140084000D00120704701F01F03A8
:10A2C00001229A40490900EB8100114600F029B8AB
:10A2D000002100F017B8012100F023B8012100F09F
:10A2E00016B808B56A46FCF72CF8009808BD08B502
:10A2F0006A46FCF70CF8009808BD08B56A46FCF7FA
:10A3000020F808BD08B56A46FCF701F808BD08B595
:10A310006A46FBF7EFFF08BD08B56A46FBF7DEFFAC
:10A3200008BD08B56A46FBF7E5FF009808BD08B50B
:10A330006A46FCF713F8009808BD38B504460025B6
:10A340008DF800506846FCF741FD21686268086896
:10A3500090420ED9401E08600178A38AE26801FB92
:10A360000325227A2168101AC0B20A79824200D2EB
:10A3700008719DF80000FCF74DFD284638BD38B542
:10A38000054600208DF800000C466846FCF71EFDCF
:10A39000E868A98A201AB0FBF1F12A681068431C0A
:10A3A000136001709DF80000FCF734FD38BD10B556
:10A3B00030B1017A42680368891AC9B21A6006E0AE
:10A3C0000E2010BD03681A68541C1C601170491ED1
:10A3D000C9B2F7D2006800210171084610BDC20859
:10A3E00000F007030120895C98400840704710B5D1
:10A3F000C20800F00703885C01249C402043885475
:10A4000010BD10B560B10161172120F8021B20F8C2
:10A41000021B1B2100F8021BFFF7F0FA002010BD01
:10A420000E2010BDF0B5858893B00C46002D39D1B3
:10A43000018800263E4F24293BD006DC102909D094
:10A4400011290CD0232958D14FE03A290BD0552996
:10A4500053D129E00146204601F0ECFF4DE0A01D5C
:10A46000FFF7CCFA49E02246408934F8061F8142C2
:10A4700000D808466080172800D217206080106935
:10A4800070B1607960B1D7E90001CDE90301ADF8A1
:10A490000E506088ADF81000136903A91046984764
:10A4A0006671267113B0F0BD0146204602F012F825
:10A4B00023E0011D2C2206A8FBF7D8FFBDF81800E9
:10A4C000BDF81C2004EBC0014A732269AAB1D7E988
:10A4D0000423CDE90423ADF81200487B8DF8140065
:10A4E0002269204604A9904707E0017A207B884230
:10A4F00000D201462846FDF759FFA07A0028D1D0A6
:10A50000E1882846A5DF012570B11128CAD001F0E5
:10A51000B1FB0246074808A1008813B005EB0040D4
:10A52000BDE8F04000F0A4BFA672E572BAE70000F3
:10A530008CF10200E423002073645F626C655F6746
:10A54000617474635F65786368616E67655F6D747D
:10A55000755F7265717565737428292072657475ED
:10A56000726E65642025732E0000000020B1027811
:10A57000DE2A03D0082070470E207047418000205B
:10A58000704760B159B10278DE2A0AD0096841608B
:10A59000DE2101704FF6FF714180002070470E20D0
:10A5A0007047082070477FB5054600294DD0002D23
:10A5B0004BD008780C46DE2847D1A88861888842AD
:10A5C00002D1204604F002FB2888012825D0022869
:10A5D0003BD011283AD0512837D135F8040F618883
:10A5E000884232D1A978A81C02292ED1017A0429E7
:10A5F00003D0062901D0052927D10021009102228C
:10A600008DF8002001914FF4C07202910391ADF8D2
:10A610000420007A05280FD010E0297A204601296D
:10A6200013D1A988428891420FD10121017204B04F
:10A63000BDE8704004F0CABAADF804102888694635
:10A64000B0DF002801D0616888477FBDA888618895
:10A650008842FAD14FF6FF7060807FBD00F18040E4
:10A660000068002800D00120704708B500F1804044
:10A67000002101600068009008BD000070B50B4C1F
:10A68000207808B185250FE00020A060606020617F
:10A69000E060074801F02AFB054601F075FA08B9A9
:10A6A00001F00EFB01202070284670BD8C28002090
:10A6B0008D81020038B500258DF800506846FCF702
:10A6C00085FB074CE068401EE060E06810B901F0CF
:10A6D0001DFBA5709DF80000FCF79CFB38BD000039
:10A6E0008C280020F0B505460478154889B0164638
:10A6F00040F82420124A08690832A2F10C0742F8F7
:10A700002400487F385520226846FBF7AFFE0494AA
:10A710002878385C48B10EB10A4A00E00022694648
:10A72000281D01F06FFD09B0F0BD0EB1064A00E032
:10A730000022694605F10C0001F036FCF3E7000049
:10A740009422002029E9020075E702000FB408B541
:10A750000399002904D004AA00926A4600F00FF879
:10A7600001B05DF814FB10B582680446002A05D0DC
:10A77000D4E90403216898470020A06010BD2DE9AA
:10A78000FC4791460C00804676D014F8011B39B185
:10A7900025290ED04046FDF771FC20780028F4D121
:10A7A00098F80C00002867D04046BDE8FC47FFF74A
:10A7B000DABF0020012221782B291BD02D2902D0BD
:10A7C000302908D102E040F0010001E040F0020031
:10A7D000641C002AEFD100252A290ED02178A1F18E
:10A7E00030020A2A11D205EB850201EB4205641CF6
:10A7F000303DF1E740F00400EAE7D9F800100B1D06
:10A80000C9F800300968641C0D44217800232E2902
:10A810000BD114F8011FA1F130020A2A05D203EB73
:10A82000830201EB4203303BF3E76C290DD068292A
:10A830000BD0692921D00BDC252918D0582931D01B
:10A8400063290ED0642915D117E014F8011FECE735
:10A85000702969D0732932D075291BD0782909D184
:10A8600020E0D9F80000011DC9F800100178404629
:10A87000FDF704FC641C90E76CE0D9F800100A1D99
:10A88000C9F800200968CDE900500A224046FEF7C9
:10A890009FFFEFE7D9F800100A1DC9F800200968EA
:10A8A0000A2206E0D9F800100A1DC9F8002009683C
:10A8B0001022CDE90050404604F0DEF8DAE7D9F87E
:10A8C000001000270A1DC9F800200E68C00705D136
:10A8D00012E04046761C7F1CFDF7D0FB3178002942
:10A8E000F7D104E0202140466D1EFDF7C7FBBD42B5
:10A8F000C0D9002DF6D1BDE74EB13046FBF7DAFDE9
:10A90000074604E0202140466D1EFDF7B7FBBD421F
:10A9100006D9002DF6D103E04046761CFDF7AEFBCC
:10A9200031780029F8D1A5E7D9F80000011DC9F850
:10A930000010056830214046FDF7A0FB7821404615
:10A94000FDF79CFB08200021CDE900010346102201
:10A950002946B0E7BDE8FC872DE9F84F2B4E0400EF
:10A960009A4630884FF001031546894603EB0040B4
:10A9700024D0216800292BD0002D32D062684946AE
:10A980004FF010071268A2F1010C1CEA090F11D157
:10A9900098466A432046FCF76CF800282AD02068C5
:10A9A00053462A46066901B049462046B446BDE8EA
:10A9B000F04F6047164B17A2009721E00E2100913F
:10A9C000134B1EA21FA100F062FD0E20BDE8F88F00
:10A9D000082100910E4B26A21AA100F058FD082074
:10A9E000F4E7092100910A4B24A216A100F04FFDC3
:10A9F0000920EBE700973188054B214A08EB01401D
:10AA000010A100F044FD1020E0E700000424002025
:10AA1000CBF20200616464725F69735F70616765A5
:10AA20005F616C69676E656428705F66732C207067
:10AA30006167655F6164647229000000705F66731E
:10AA400000000000257320636865636B2066616900
:10AA50006C656420696E20257328292077697468E5
:10AA60002076616C756520307825782E0000000016
:10AA7000705F66732D3E705F617069006C656E007B
:10AA80006CF6020038B503000F484FF001054FF097
:10AA90000E04008805EB004009D061B119600C6814
:10AAA00001B0A446BDE83040114618466047074B48
:10AAB00007A2009402E0054B07A2009408A100F051
:10AAC000E6FC0E2038BD00000424002080F20200C5
:10AAD000705F667300000000705F617069000000C5
:10AAE000257320636865636B206661696C6564200B
:10AAF000696E202573282920776974682076616C37
:10AB0000756520307825782E000000002DE9F04191
:10AB100028B1016819B1C969BDE8F04108470D4D78
:10AB20000D480024461B14270DE000BF04EB8400F1
:10AB300005EB8000016829B1C969884710B101207F
:10AB4000BDE8F081641CB6FBF7F0A042EED800200F
:10AB5000F6E70000D0230020E42300200448012170
:10AB60004174007A08B1002070470120704700004E
:10AB7000002C0020012801D0032808D1044900221C
:10AB800001284A7400D00020087402F09FBD70476D
:10AB9000002C002070B50246022801D0032A45D1BE
:10ABA000234C207A002841D0012833D0022831D10B
:10ABB00020480023022A006802D0032A2AD11BE081
:10ABC000E360017911B1012924D10DE0D0E90565D7
:10ABD000711B4FF48056B14200D331462944816144
:10ABE0004569A9420ED015E00169491C016142691D
:10ABF00091420FD1237213E0E168491CE1600829FA
:10AC000008D9E3602372022A0AD00D21FDF798FDCE
:10AC100002F002FD607C28B1BDE8704000F0BABFD0
:10AC20000021F3E7BDE8704002F050BD70BD0000A8
:10AC3000002C0020442300202DE9F84F3A4D040059
:10AC40008B4628884FF00106DDF828A098469146EB
:10AC50004FF00E0106EB00401AD0B9F1000F1BD0E7
:10AC60002168002920D00921B8F1000F25D06268A1
:10AC70005368B8FBF3F703FB1782002A21D02B4B54
:10AC80002BA2009135A100F002FC0920BDE8F88F4D
:10AC9000264B3DA2009102E0244B3DA200912FA142
:10ACA00000F0F5FB0E20F1E7082100911F4B3AA2BE
:10ACB0002AA100F0ECFB0820E8E71C4B39A2009128
:10ACC000E0E75846FBF7CFFE102798B14846FBF760
:10ACD000CAFEB0B1424659462046FBF7CAFEB8B19B
:10ACE000CDF800A0206843464A46C568594620462C
:10ACF000A847CBE7009728880C4B06EB00402AA218
:10AD00000CE000972888094B06EB00402CA205E0D8
:10AD100000972888054B06EB004032A20FA100F0F7
:10AD2000B6FB1020B2E7000004240020B8F20200B5
:10AD300021286C656E202520705F66732D3E705F44
:10AD4000666C6173685F696E666F2D3E70726F67C7
:10AD500072616D5F756E6974290000002573206350
:10AD60006865636B206661696C656420696E202587
:10AD700073282920776974682076616C75652030A6
:10AD80007825782E00000000705F667300000000D8
:10AD9000705F737263000000705F66732D3E705FBA
:10ADA000617069006C656E00616464725F69735FF5
:10ADB000616C69676E656433322864657374290059
:10ADC000616464725F69735F616C69676E65643347
:10ADD00032282875696E7433325F7429705F73721C
:10ADE00063290000616464725F69735F77697468E6
:10ADF000696E5F626F756E647328705F66732C2076
:10AE0000646573742C206C656E2900002DE9FF4188
:10AE10001C46DDE90A7815460E46684600F0AAF899
:10AE200046EA450141EA840141EA072242EA084133
:10AE3000009A00EB8200C0F80017BDE8FF812DE901
:10AE4000FF411C46DDE90A7815460E46684600F0CB
:10AE50009FF846EA450141EA840141EA072242EAB5
:10AE60000841009A00EB8200C0F80017BDE8FF819E
:10AE70002DE9FF411C46DDE90A7815460E46684675
:10AE800000F094F846EA450141EA840141EA0722CC
:10AE900042EA0841009A00EB8200C0F80017BDE8C2
:10AEA000FF812DE9FF411C46DDE90A7815460E4673
:10AEB000684600F089F846EA450141EA840141EA22
:10AEC000072242EA0841009A00EB8200C0F800170E
:10AED000BDE8FF811CB5002100910B4601220191C4
:10AEE000FFF7C6FF1CBD1CB5002100910B460122D7
:10AEF0000191FFF7D6FF1CBD1CB500220B46009246
:10AF000011460192FFF7B4FF1CBD1CB500220B4691
:10AF1000009211460192FFF7C4FF1CBD1CB5002131
:10AF200000910B46012201911146FFF7A1FF1CBDC4
:10AF30001CB5002100910B46012201911146FFF73B
:10AF4000B0FF1CBD13B50C46684600F021F800990F
:10AF500000EB8101D1F8002722F44032C1F800272C
:10AF6000009900EB8100D0F8001741EA0441C0F8D5
:10AF700000171CBD0168202902D24FF0A040704785
:10AF800001F01F01016001487047000000030050FC
:10AF90000168202902D24FF0A040704701F01F0144
:10AFA000016001487047000000030050016820293B
:10AFB00002D24FF0A040704701F01F01016001482C
:10AFC00070470000000300500168202902D24FF0B2
:10AFD000A040704701F01F01016001487047000068
:10AFE0000003005001B56846FFF7D2FFD0F8100506
:10AFF0000099C84000F0010008BD01B56846FFF7A0
:10B00000D5FF009A01219140C0F8081508BD01B58F
:10B010006846FFF7D9FF009A01219140C0F8081552
:10B0200008BD38B501240090684631B1FFF7A2FF92
:10B0300000998C40C0F8084538BDFFF79BFF009988
:10B040008C40C0F80C4538BD1CB5094C0144D4E90E
:10B050000034CDE900346C4606E000BF54F82030DF
:10B06000D3F81035401C08C28142F7D81CBD00003F
:10B0700034F20200034908B5084400210160006869
:10B08000009008BD0060004002494058012800D0EF
:10B09000002070470060004030B5124B0146002090
:10B0A000D3F81044224609E0157A854205D1401CA8
:10B0B0000A28F7DB4FF0FF3030BD5268002AF3D189
:10B0C000421CF9D00872D3F810242AB152684A60A1
:10B0D000D3F81024516030BD0022C3F810144A6028
:10B0E00030BD0000202D0020F0B595B01C4615465F
:10B0F0000F4608461A9E00F025FB182109A8FBF709
:10B10000CEF90E96CDE909540023082203A938464A
:10B1100000F02DFB05980690BDF81000ADF81C005E
:10B12000BDF81200ADF81E0000208DF82100039834
:10B13000082600F00300012802D0022818D032E0CF
:10B1400003983346850AC0F3C2008DF820000398A7
:10B150000FA9C0F38314A200384600F008FB09A829
:10B16000009006AB22460FA9284600F047FA1AE0E5
:10B170000398840DC0F3C2008DF82000082C01D282
:10B18000254600E0082533462A460FA9384600F038
:10B19000EEFA2E44641B09AB06AA29460FA800F05C
:10B1A0007FF9002CEAD1384600F0D2FA15B0F0BD94
:10B1B0007047012003F0FCBA084810B50178084A2E
:10B1C000515C19B1001D01F0A9F802E00C3000F04B
:10B1D000B7FFBDE81040002003F0EABA5823002072
:10B1E0009022002008B5034A00924023024AFFF74C
:10B1F0007BFF08BD49DE0200202C00200A4A0129FD
:10B2000002EBC00007D0022907D0032907D0042988
:10B2100007D0002070470220704704207047007953
:10B22000704740797047000068FD020010B5FFF7D5
:10B23000C0FF04210348FFF72FFF02490120487295
:10B2400010BD00006C2300202DE9F04F8DB0FCF7FD
:10B2500025FF18B100200DB0BDE8F08F7A4C4FF0FB
:10B26000000BC4F818B4BFF34F8F60680290A56854
:10B27000D846284004EB800008E02168029881420B
:10B2800001D86160E6E7284004EB80000C3002A999
:10B29000FEF732FB0028F0D105AA029901EA050366
:10B2A00004EB8303491CDB6842F82030401C029108
:10B2B0000228F2D3059800F00300022802D00128EA
:10B2C0004ED0A9E005985022810D8946B2EB905FDF
:10B2D00000D850210E4666F39F50059008315B4818
:10B2E00000F0E7F9070079D000F02CFA4346082275
:10B2F00005A9384600F041FA029908F1080A2940E8
:10B30000681A8000001D864223D94F4D0C3530B19C
:10B31000C2B204EB8101301A90460C3104E0294698
:10B32000F2B2002590462846C6B25346384600F091
:10B3300024FA0AEB08032DB1324629464FEA0700EA
:10B3400000F01BFA029909F1030001EB9000029052
:10B350003BE004EB81015346324638460C31EFE7BF
:10B360000598C0F38310062800D30620059960F3E2
:10B370008911C1F38310801C05918100334800F0CE
:10B3800098F9070048D000F0DDF94346082205A9E6
:10B39000384600F0F2F908F1080800260FE002989C
:10B3A000434600EA0501401C04EB8101029004229F
:10B3B00038460C3100F0E1F908F10408761C0598D4
:10B3C000C0F38310B042EAD847B1D4F81054D4F88F
:10B3D000180468B1384600F0BBF92FE01CE0687A29
:10B3E000012804D12A6828463946126890476D68BA
:10B3F000002DF4D1384600F0ABF98DF800B0684666
:10B40000FBF7E4FCD4F8180408B9029860609DF8D2
:10B410000000FBF7FFFC11E0D4F8104404E02168C1
:10B420002046896888476468002CF8D108480221C2
:10B43000008801EB004007A100F016F8FCF72EFE93
:10B4400080F0010007E70000202D0020E8FD020049
:10B45000142400204261636B656E647320666C7512
:10B46000736865640000000000231A4603F032B8D8
:10B4700008B5012300926A4603F02CF808BD1CB5FC
:10B48000CDE9002302236A4603F024F81CBD3EB533
:10B49000069C8DE81C0003236A4603F01BF83EBDA2
:10B4A0002DE9F0470E4680461C46924608293ED8B4
:10B4B00094F80C90002020731946104602F03EF8D4
:10B4C0000025B54206D218F805201AA12046FFF73C
:10B4D0003DF903E019A12046FFF738F96D1C082D4E
:10B4E000EFD317A12046FFF731F90025B54210D25E
:10B4F00018F80570FAF7B6FF0068C05D10F03E0F4F
:10B5000001D03A4600E02E220EA12046FFF71EF998
:10B5100003E00DA12046FFF719F96D1C082DE5D3B6
:10B5200001222146504601F0EBFF84F80C90BDE863
:10B53000F087000020253032780000002020200015
:10B540007C0000002563000020000000104810B5BA
:10B55000FF218160002101604160C0F81814C0F82B
:10B56000141480F820140B4800F0F0F800280DD1D6
:10B5700009480A490A4B401AC108002003E000BFED
:10B5800023F82000401C8842FAD3002010BD0000A0
:10B59000202D0020E8FD0200E8FD020068FD020009
:10B5A000E423002002480349401AC0087047000005
:10B5B000E8FD020068FD020013B56846FEF738FD9D
:10B5C00008B100201CBD0248009950F831001CBD94
:10B5D00068FD020070B508480125D0F8104480F8D5
:10B5E000205405E0657221682046496888476468F0
:10B5F000002CF7D170BD0000202D00202DE9FF4761
:10B6000081460C9D00200C462F7B287398461646D9
:10B610002946184601F092FF072E42D2DFE806F0D5
:10B6200004090F161F2A360049462846FFF78EF8F0
:10B6300037E0494628462268FFF788F831E0D4E928
:10B64000002349462846FFF781F82AE0A0680090C9
:10B65000D4E9002349462846FFF778F821E0D4E9E9
:10B660000201CDE90001D4E9002349462846FFF74D
:10B670006DF816E004F1080007C88DE80700D4E96A
:10B68000002349462846FFF761F80AE004F1080064
:10B690000FC88DE80F00D4E9002349462846FFF77C
:10B6A00055F800222946404601F02AFF2F73BDE8D5
:10B6B000FF872DE9F041858A80462D1F4819C01C5F
:10B6C000B0FBF5F0C6B24046FEF737FE041E19D0B7
:10B6D0000020207101206071E58000272546761E3C
:10B6E000C4F800800BE04046FEF727FE60B16179A8
:10B6F000491C6171286005467F1CC0F80080B74274
:10B70000F1D32046BDE8F081204600F002F8002089
:10B71000F8E72DE9F041457901466B1E002201E072
:10B720000968521C9A42FBD30F680146002605E0C7
:10B7300038460C68FEF723FE2146761CAE42F7D34E
:10B74000BDE8F0810121001DFEF7CBBDFEF72FBE45
:10B7500010B504460121001DFEF7E9FD10F0FF0FB2
:10B7600004D12046BDE81040FFF7D3BF10BD38B567
:10B7700001240094FEF720FC38BD38B50024009465
:10B78000FEF71AFC38BD0000064910B500204870CD
:10B79000091D0860BFF35F8F0349044800F026FAD3
:10B7A000002010BD4C23002028F30200142C0020A0
:10B7B00008B500208DF800006846FBF707FBF1EEA6
:10B7C000100A20F09F00E1EE100ABFF35F8F0849D6
:10B7D0004020C1F880029DF80000FBF71BFB00F041
:10B7E000D3F908B141DF08BD20BF40BF20BF08BD6D
:10B7F00004E000E0FBF74EBA20B10349096801609C
:10B80000002070470E20704714F50200FEB5024676
:10B810000E460846FFF7F0FF00286ED10024009482
:10B820000194012506208DF80020ADF80400029453
:10B830008DF8025069462020326869DF2F4F48B1E9
:10B8400000F018FA3988024605EB01432C491846E6
:10B85000FFF70EFE00948DF801508DF80240019420
:10B8600002948DF8034069464020326869DF40B198
:10B8700000F000FA02463888224905EB0040FFF745
:10B88000F7FD0094019402948DF800406946012070
:10B89000326869DF48B100F0EDF93988024605EBFE
:10B8A000014319491846FFF7E3FD4FF4B0600090DB
:10B8B000019402946946A120326869DF48B100F022
:10B8C000D9F93988024605EB014310491846FFF7BC
:10B8D000CFFD0094019402948DF800506946A02099
:10B8E000326869DF40B100F0C5F90246388808497E
:10B8F00005EB0040FFF7BCFD0020FEBD1C2400202E
:10B9000004FC02004CFC020064FB0200B0FB0200DD
:10B9100010FB02002DE9F0410446D0F8008060DF02
:10B920002168194D074641451CD92888022606EB97
:10B93000004016A1FFF798FD2888424606EB00401C
:10B940001EA12368FFF79BFDF006D0F80C012168CB
:10B95000800200F10050421A288825A106EB004021
:10B96000FFF786FD012467B1384600F083F90246EF
:10B9700028882AA104EB0040FFF77AFD3846BDE88D
:10B98000F0812E480470F9E71C240020496E73757D
:10B990006666696369656E742052414D20616C6C06
:10B9A0006F636174656420666F72207468652053EC
:10B9B0006F66744465766963652E00004368616E46
:10B9C0006765207468652052414D207374617274FC
:10B9D000206C6F636174696F6E2066726F6D2030CA
:10B9E00078257820746F20307825782E00000000AC
:10B9F0004D6178696D756D2052414D2073697A658E
:10BA000020666F72206170706C69636174696F6E1B
:10BA100020697320307825782E00000073645F62FF
:10BA20006C655F656E61626C65282920726574754E
:10BA3000726E65642025732E00000000CB23002069
:10BA400030B5144891B00078002820D05FF034055C
:10BA5000ADF8405010A903A861DF30B1052816D019
:10BA600011B0BDE83040FBF715B903AC0A49684690
:10BA700000F0BCF807E000BFD0E900212046904765
:10BA8000684600F0CAF802980028E1D0F4E711B047
:10BA900030BD0000CB23002018F50200F8B5134C90
:10BAA0002078C0B10120A07002F04AF8112814D00B
:10BAB000022002F05DF800258DF800506846FBF783
:10BAC00085F911DF064625709DF80000FBF7A2F905
:10BAD0002EB13046F8BD0820F8BD0020F8BDA57095
