:020000041FFFDC
:100800000000000011CF002078E800209CE80020C4
:10081000D8EC0020000000000000000000000000F4
:1008200000000000000000000000000000000000C8
:1008300000000000000000000000000000000000B8
:1008400000000000000000000000000000000000A8
:100850000000000000000000000000000000000098
:100860000000000000000000000000000000000088
:100870000000000000000000000000000000000078
:100880000000000000000000000000000000000068
:100890000000000000000000000000000000000058
:1008A0000000000000000000000000000000000048
:1008B0000000000000000000000000000000000038
:1008C0000000000000000000000000000000000028
:1008D0000000000000000000000000000000000018
:1008E0000000000000000000000000000000000008
:1008F00000000000000000000000000000000000F8
:1009000000000000000000000000000000000000E7
:1009100000000000000000000000000000000000D7
:1009200000000000000000000000000000000000C7
:1009300000000000000000000000000000000000B7
:1009400000000000000000000000000000000000A7
:100950000000000000000000000000000000000097
:100960000000000000000000000000000000000087
:100970000000000000000000000000000000000077
:100980000000000000000000000000000000000067
:1009900081BC002015BD00204DE1002000000000BA
:1009A0000000000000000000000000000000000047
:1009B0000000000000000000000000000000000037
:1009C0000000000000000000000000000000000027
:1009D0000000000000000000000000000000000017
:1009E0000000000000000000000000000000000007
:1009F00000000000000000000000000000000000F7
:100A000000000000000000000000000000000000E6
:100A100000000000000000000000000000000000D6
:100A200000000000000000000000000000000000C6
:100A300000000000000000000000000000000000B6
:100A400000000000000000000000000000000000A6
:100A50000000000000000000000000000000000096
:100A60000000000000000000000000000000000086
:100A70000000000000000000000000000000000076
:100A80000000000000000000000000000000000066
:100A90000000000000000000000000000000000056
:100AA0000000000000000000000000000000000046
:100AB0000000000000000000000000000000000036
:100AC0000000000000000000000000000000000026
:100AD0000000000000000000000000000000000016
:100AE0000000000000000000000000000000000006
:100AF00000000000000000000000000000000000F6
:100B000000000000000000000000000000000000E5
:100B100000000000000000000000000000000000D5
:100B200000000000000000000000000000000000C5
:100B300000000000000000000000000000000000B5
:100B400000000000000000000000000000000000A5
:100B50000000000000000000000000000000000095
:100B60000000000000000000000000000000000085
:100B7000C1C1002000000000E3800020E5800020CB
:100B80000000000000000000000000000000000065
:100B90000000000000000000000000000000000055
:100BA000000000000000000000000000D5B8002098
:100BB0000000000000000000000000000000000035
:100BC000BDB8002000000000000000000000000090
:100BD0000000000000000000000000000000000015
:100BE0000000000000000000000000000000000005
:100BF00000000000000000000000000000000000F5
:0C0C000001FF01FF01FF01FF41000000A7
:020000041FFFDC
:1050000001FF01FF01FF01FF01FF01FF01FF01FFA0
:1050100001FF01FF01FF01FF01FF01FF01FF01FF90
:1050200001FF01FF01FF01FF01FF01FF01FF01FF80
:1050300001FF01FF01FF01FF01FF01FF01FF01FF70
:1050400001FF01FF01FF01FF01FF01FF01FF01FF60
:1050500001FF01FF01FF01FF01FF01FF01FF01FF50
:1050600001FF01FF01FF01FF01FF01FF01FF01FF40
:1050700001FF01FF01FF01FF01FF01FF01FF01FF30
:1050800001FF01FF01FF01FF01FF01FF01FF01FF20
:1050900001FF01FF01FF01FF01FF01FF01FF01FF10
:1050A00001FF01FF01FF01FF01FF01FF01FF01FF00
:1050B00001FF01FF01FF01FF01FF01FF01FF01FFF0
:1050C00001FF01FF01FF01FF01FF01FF01FF01FFE0
:1050D00001FF01FF01FF01FF01FF01FF01FF01FFD0
:1050E00001FF01FF01FF01FF01FF01FF01FF01FFC0
:1050F00001FF01FF01FF01FF01FF01FF01FF01FFB0
:1051000001FF01FF01FF01FF01FF01FF01FF01FF9F
:1051100001FF01FF01FF01FF01FF01FF01FF01FF8F
:1051200001FF01FF01FF01FF01FF01FF01FF01FF7F
:1051300001FF01FF01FF01FF01FF01FF01FF01FF6F
:1051400001FF01FF01FF01FF01FF01FF01FF01FF5F
:1051500001FF01FF01FF01FF01FF01FF01FF01FF4F
:1051600001FF01FF01FF01FF01FF01FF01FF01FF3F
:1051700001FF01FF01FF01FF01FF01FF01FF01FF2F
:1051800001FF01FF01FF01FF01FF01FF01FF01FF1F
:1051900001FF01FF01FF01FF01FF01FF01FF01FF0F
:1051A00001FF01FF01FF01FF01FF01FF01FF01FFFF
:1051B00001FF01FF01FF01FF01FF01FF01FF01FFEF
:1051C00001FF01FF01FF01FF01FF01FF01FF01FFDF
:1051D00001FF01FF01FF01FF01FF01FF01FF01FFCF
:1051E00001FF01FF01FF01FF01FF01FF01FF01FFBF
:1051F00001FF01FF01FF01FF01FF01FF01FF01FFAF
:0452000001FF011198
:020000042000DA
:1058000001FF01FF01FF01FF01FF01FF01FF01FF98
:1058100001FF01FF01FF01FF01FF01FF01FF01FF88
:1058200001FF01FF01FF01FF01FF01FF01FF01FF78
:1058300001FF01FF01FF01FF01FF01FF01FF01FF68
:1058400001FF01FF01FF01FF01FF01FF01FF01FF58
:04585000012800002B
:020000042000DA
:1080000040250120D5800020DD800020DF80002079
:108010000000000000000000000000000000000060
:10802000000000000000000000000000E1800020CF
:108030000000000000000000E3800020E580002038
:10804000E7800020E7800020E7800020E780002014
:10805000E7800020E7800020E7800020E780002004
:10806000E7800020E7800020E7800020E7800020F4
:10807000E7800020E7800020E7800020E7800020E4
:10808000E7800020E7800020E7800020E7800020D4
:1080900000000000000000000000000000000000E0
:1080A00000000000000000000000000000000000D0
:1080B000E780002000000000E7800020E78000202B
:1080C0000348854600F042F80048004771CD002083
:1080D000402501200448804704480047FEE7FEE7AA
:1080E000FEE7FEE7FEE7FEE731A40020C1800020A6
:1080F00003460B439B0703D009E008C9121F08C0C1
:10810000042AFAD203E00B780370401C491C521E6B
:10811000F9D27047D2B201E00270401C491EFBD276
:1081200070470022F6E710B513460A460446194682
:10813000FFF7F0FF204610BD0321001D401E03780D
:1081400012021A43491EF9D510467047064C012504
:10815000064E05E0E36807CC2B430C3C98471034EF
:10816000B442F7D3FFF7B0FF10E90020B0E90020D8
:1081700070B58C180578401C6B075B0F01D1037834
:10818000401C2A1106D10278401C03E006780E70CC
:10819000401C491C5B1EF9D12B0705D40023521E3D
:1081A0000DD40B70491CFAE70378401CCB1A921CC3
:1081B00003E01D780D70491C5B1C521EF9D5A142CD
:1081C000D8D3002070BD000003B40148019001BD68
:1081D000C13C010003B40148019001BD7181000060
:1081E00003B40148019001BD3914000003B40148F3
:1081F000019001BD1117000003B40148019001BDB9
:10820000ED3C010003B40148019001BDF13E0100C5
:1082100003B40148019001BD1B3D010003B40148B6
:10822000019001BD7114000003B40148019001BD2B
:10823000C131000003B40148019001BDB142010009
:1082400003B40148019001BDD542010003B40148C7
:10825000019001BDC912000003B40148019001BDA5
:108260003D42010003B40148019001BD5D190000C9
:1082700003B40148019001BD593A010003B401481B
:10828000019001BD3518000003B40148019001BD03
:10829000C118000003B40148019001BD351500006C
:1082A00003B40148019001BD4117000003B4014827
:1082B000019001BDE915000003B40148019001BD22
:1082C000897B000003B40148019001BDD520000066
:1082D00003B40148019001BDA5E5000003B40148C5
:1082E000019001BD3D1C000003B40148019001BD97
:1082F0000D1D000003B40148019001BD830600007C
:1083000003B40148019001BD0143010003B40148D9
:10831000019001BDE120000003B40148019001BDBE
:10832000ED3A010003B40148019001BDF53C0100A4
:1083300003B40148019001BD5D3F010003B4014851
:10834000019001BD8D44010003B40148019001BDBD
:108350009D19010003B40148019001BDE11B01001A
:1083600003B40148019001BDCD1C010003B40148D4
:10837000019001BD351B010003B40148019001BD0E
:108380005D1E010003B40148019001BD351C0100D0
:1083900003B40148019001BD7921010003B40148F3
:1083A000019001BDA522010003B40148019001BD67
:1083B000E91C010003B40148019001BD1120010036
:1083C00003B40148019001BD4920010003B40148F4
:1083D000019001BD9124010003B40148019001BD49
:1083E0006D2C010003B40148019001BDA5250100D9
:1083F00003B40148019001BD6548000003B4014881
:10840000019001BD6902000003B40148019001BD63
:108410005171000003B40148019001BDE139000031
:1084200003B40148019001BDB922010003B4014821
:10843000019001BD3921010003B40148019001BD43
:108440009122010003B40148019001BDE91D010022
:1084500003B40148019001BD852B010003B401481C
:10846000019001BD150E010003B40148019001BD4A
:108470000D1C010003B40148019001BDC51B0100A2
:1084800003B40148019001BD0519010003B401487E
:10849000019001BDDD1C010003B40148019001BD44
:1084A000A523010003B40148019001BD251C010072
:1084B00003B40148019001BD751C010003B40148DB
:1084C000019001BDF51D010003B40148019001BDFB
:1084D0006D1F010003B40148019001BD0D2501008D
:1084E00003B40148019001BD1515010003B4014812
:1084F000019001BDFDEC000003B40148019001BDF5
:10850000E10F010003B40148019001BDC110010059
:1085100003B40148019001BD3902010003B40148D0
:10852000019001BD7503010003B40148019001BD34
:108530001590000003B40148019001BD5590000062
:1085400003B40148019001BDD136000003B40148D5
:10855000019001BD01E6000003B40148019001BD96
:10856000BD07000003B40148019001BD891C000053
:1085700003B40148019001BDA53C010003B40148CA
:10858000019001BDE907000003B40148019001BD5D
:108590006D07000003B40148019001BDFD0E00000D
:1085A00003B40148019001BD2D0E000003B4014841
:1085B000019001BD3D07000003B40148019001BDD9
:1085C000211A000003B40148019001BD050E00000E
:1085D00003B40148019001BD8922000003B40148A1
:1085E000019001BD610E000003B40148019001BD7E
:1085F0009D0E000003B40148019001BDD50E00009E
:1086000003B40148019001BD610F000003B40148AB
:10861000019001BDE997000003B40148019001BD3C
:108620003D98000003B40148019001BDE58D0000B4
:1086300003B40148019001BD4977010003B401482A
:10864000019001BDCDEA000003B40148019001BDD5
:10865000E1EA000003B40148019001BD09F0000007
:1086600003B40148019001BDA5EB000003B401482B
:10867000019001BD05BF000003B40148019001BD98
:1086800095E8000003B40148019001BD8DE90000A8
:1086900003B40148019001BDF53B000003B401485B
:1086A000019001BDA5E6000003B40148019001BDA1
:1086B00071E9000003B40148019001BD51E80000D8
:1086C00003B40148019001BDFD02010003B401485B
:1086D000019001BDD1EF000003B40148019001BD3C
:1086E0001DE9000003B40148019001BDC9BE0000AE
:1086F00003B40148019001BD55F7000003B40148DF
:10870000019001BD51FD000003B40148019001BD7D
:108710003D00010003B40148019001BDA9E0000043
:1087200003B40148019001BD9509010003B401485B
:10873000019001BD4956010003B40148019001BDFB
:108740008D3C010003B40148019001BDE55B0000D0
:1087500003B40148019001BDE129000003B40148C0
:10876000019001BD9937000003B40148019001BD9B
:108770005114000003B40148019001BD091F00001D
:1087800003B40148019001BDA579000003B401487C
:10879000019001BD61EC000003B40148019001BDEE
:1087A000B1EC000003B40148019001BDC91F0000F5
:1087B00003B40148019001BD7D3A010003B40148B2
:1087C000019001BD913F010003B40148019001BD3A
:1087D000A942010003B40148019001BD113A010012
:1087E00010B5034A1321034800F056FC10BD0000E9
:1087F000F0E70020C4E9002010B50024134600284B
:1088000002D00224204610BD0A4619460148FFF74F
:10881000DBFCF7E7BBE900200020704770B50C4691
:108820000146032000020A1A002534481300FFF70E
:10883000D1FC1D1012151C1F2326282C3032343871
:108840003A3C3E40424446484A4E50525A5456588A
:108850005A00C07911E01022294902E0284910226B
:1088600010312046FFF7B0FC45E0C06A206042E0CE
:10887000224906223C31F4E7007820703BE08089F1
:1088800036E01E4942784231EBE71D4982781F39B4
:10889000E7E7007AF1E7407AEFE71849062230313E
:1088A000DFE7807AE9E7C07AE7E7C08920E0808ADD
:1088B0001EE0C0781CE0C08A1AE0008B18E0408BF4
:1088C00016E0808B14E00D4906223631C9E7C08BD3
:1088D0000EE0008C0CE0408C0AE08079CDE7008A45
:1088E00006E0408A04E0272904D20846FFF778FC16
:1088F000208000E00225284670BD0000E0EB00204B
:10890000E5F0002070B50E4C00256071A571691E60
:10891000E181FFF76BFC0420E0711022002109487F
:10892000FFF76AFC0748102200211030FFF764FCB3
:10893000E562257265720120A072E57270BD0000CB
:10894000E0EB0020E5F00020FEB53B4D0C460804AE
:108950000CD56879FFF756FC050004D002F004F945
:108960002846FFF755FC0120C00360E0600403D5F2
:10897000012080034840FEBD2F48E1070126807991
:1089800000292AD02978002920D0052821D0297A49
:1089900068460170697A4170274906223031801C8F
:1089A000FFF712FCA97A68460172E97A41726946BA
:1089B0006879FFF733FC002808D00720A871696A9E
:1089C000002903D00968002900D08847204670405C
:1089D000FEBD032069460870E4E7A1070DD5052810
:1089E00009D1E889FFF720FCAA8A002A03D00221D6
:1089F0006879FFF71FFC022019E0600704D500200A
:108A000002F00AF9042012E0200712D52879012883
:108A100002D002280AD107E00096AB8B6A8B298B23
:108A2000E88A00F00BF801E000F05AF908206040F5
:108A3000FEBD0020FEBD0000E0EB0020F8B5134CA9
:108A4000069EA579052D01D01420F8BD104F851F75
:108A5000BD4219D2062917D3BD1DA94214D2FF2742
:108A6000F537BA4210D20A2B0ED3AB420CD2E082B9
:108A700021836283A383304602F0CEF8042160791B
:108A8000FFF7DEFB0020F8BD1820F8BDE0EB00206A
:108A90007A0C0000F7B50D4680490098164642183A
:108AA0007F4F00247879B9791300FFF793FB190EF3
:108AB000141BE92040455970777E888FE996A2A95A
:108AC000B4BFC8E9E9E9E9D3E900102D76D1102255
:108AD000314674486FE0102D70D172481022314633
:108AE000103068E0042D69D13068F862CEE0012DC5
:108AF00064D13B7832783A70002B0AD0002A07D133
:108B0000022903D0062901D0042901D1FFF79EFBD9
:108B1000BCE0002A0AD0012905D0032903D0052989
:108B200001D0042902D10121FFF796FBAEE0022D0E
:108B300044D13088B881A9E01F2D3FD858481F2262
:108B400000214230FFF758FB55482A463146423053
:108B5000FFF73AFB524B7D7042332A46012112E067
:108B60001F2D7CD84F481F2200211F38FFF744FBE0
:108B70004C482A4631461F38FFF726FB494B2A4608
:108B80001F3BBD7000217879FFF76CFB83E0012D5E
:108B900065D13078042862D8387277E0012D5ED133
:108BA000307803285BD8787270E0062D57D13C48A6
:108BB000062231463030FFF707FB67E04FE0012D1A
:108BC0004DD1307807284AD8B8725FE0012D46D1E0
:108BD0003078032843D8F87258E0022D3FD132880C
:108BE000BA82002A52D0052950D10221FFF722FB78
:108BF0004CE0012D33D13078012830D8F87045E0B1
:108C00003088022D2BD1062829D31921C901884289
:108C100025D8F8823AE03088022D20D106281ED3CC
:108C20001921C90188421AD838832FE03088022DD3
:108C300015D1FF21F531884211D2788326E03088A2
:108C4000022D0CD10A280AD31921C901884206D85D
:108C5000B8831BE03178012D01D1012901D01824FE
:108C600014E00821FFF704FB002801D016240DE0D2
:108C7000002001F0D1FF04217879FFF7E1FA05E047
:108C80000098272801D2022D02D002242046FEBDE2
:108C90003188FFF7F3FA0446F8E70000FFFCFFFF16
:108CA000E0EB0020E5F000201CB50B4CA179002979
:108CB00001D011201CBD002800D060620649074881
:108CC0002C31034601910090103B0022E17960793C
:108CD00000F016F800201CBDE0EB0020F5F00020AD
:108CE00010B506488179052901D0122010BDC1892F
:108CF00013224079FFF7C8FA10BD0000E0EB002016
:108D0000F8B51D460224069F079E0B00FFF762FA86
:108D10000511041111041100FFF7BCFA040008D179
:108D2000324639462846FFF7BBFAFFF7BFFAFFF78E
:108D3000C3FA2046F8BD0000014610B50020C9075F
:108D400004D0034A0421034800F0A6F910BD000036
:108D500004E8002018EB002070B50F4D0F4CA870F0
:108D600029461431204600F01DF8002128460B4604
:108D70000C30CA0084521218491C09065360090EAF
:108D8000F7D0012002F07AFBA878FFF79BFA04489D
:108D9000FFF79EFA70BD0000FCEA0020FFFF000014
:108DA000E5AC002070B50A4C0025A04209D1002096
:108DB00082008C525218401CC0B295700228F7D322
:108DC00070BD01F05EFF0028FAD00480857070BD90
:108DD000FFFF0000F8B50E460746069900240798E5
:108DE000002902D00B242046F8BD022B01D00D240F
:108DF000F9E711785278120289188DB22946814319
:108E000001D08024EFE73846F16800F03DF9A84230
:108E1000E9D02A463846F16800F0A8F90400E2D10A
:108E200071892A46384600F065F9DCE770B50C46D2
:108E3000080412D50A488078FFF7E4F9050008D045
:108E40002878B02802D1284602F036F82846FFF7E5
:108E5000DFF90120C003604070BD002070BD00003C
:108E6000FCEA0020FFB587B0087A0025109E1C465A
:108E70000F46C0060DD5099801F0FCFE030006D090
:108E80000A22394607989847050035D101E00E259A
:108E900032E0387802281DD178682922017840789C
:108EA00012020002081880B2811A90427ED009DCBA
:108EB0007249401A23D0012821D0022851D003281A
:108EC00008D125E0012972D0022971D003296DD083
:108ED00004296ED0099801F0F5FE0028D7D0056866
:108EE000002DD4D01299119801910090334622465A
:108EF00039460798A847054628460BB0F0BD11989B
:108F0000002873D1F868017831700278416897E0E1
:108F1000119800286AD101203070F868002100788B
:108F200020707889401C80B2FFF7D8F900280FD054
:108F3000317802788918891C3170817A6170418991
:108F4000090AA17002784168E01CFFF73DF9D3E7F8
:108F500030780422001D30700021601CFFF74CF9AE
:108F6000CAE71198002872D1F86804A90088009017
:108F700004203070009820700098000A60700098FB
:108F8000FFF7ACF9070028D0F86805906846028A18
:108F900003AB3B493846FFF7A7F900280FD13B78D0
:108FA000022138487A68FFF7A5F903E027E031E0AD
:108FB0001DE049E0002802D13148694688810598C2
:108FC000007802280CD1059802224168201DFFF785
:108FD000FBF83078801C307002E069460098888188
:108FE00068468089A070000AE07085E72FE011983C
:108FF00000282CD1F968079800F046F804E0119891
:10900000002824D1F8680088022131702070000AFD
:10901000607071E7F868FFF773F91199C0B2814287
:1090200010D8814201D1002206E0129A89188142AB
:1090300002D31199401AC2B23270F9681198091816
:10904000204682E7072557E71198002801D00B2515
:1090500052E70721F868317001782170417861701A
:109060008178A1704188090AE170017921718179C3
:109070006171C088000AA0713EE70000002800006E
:10908000FFFF00001E7C010010B501F0FAFD002872
:1090900000D0807810BD00007CB51446050019D0C2
:1090A000684601950180FFF731F903001DD1002CBE
:1090B0001BD06D89002D0DD00C20FFF72DF9002855
:1090C0000AD0002303608580094A84605168002922
:1090D00004D006E0022308E0132306E0506004E019
:1090E00011460A68002AFBD1086018467CBD0000C2
:1090F000FCEA0020F8B50C4C0746207815460E46D1
:10910000FF280FD00A20FFF70DF901000AD0B12087
:1091100008700020487008714F80CE800D81207843
:10912000FFF706F9F8BD0000FCEA0020FFB583B0A8
:1091300008461E4601A90C9FFFF7D0F8050012D083
:109140006846808801F0BEFD00280AD04468002CE3
:1091500007D00097F3B22946059A0398A04707B0B5
:10916000F0BD0E20FBE70120F9E7000070B51446C2
:109170000E46054601F085FD002806D1314605481A
:1091800001F07FFD002803D005808470002070BDB1
:10919000112070BDFFFF0000014610B50020C90777
:1091A00004D0034A07210348FFF776FF10BD0000F3
:1091B00018E800206CEB002070B50D461646002420
:1091C0001D490300FFF706F808051234341934224C
:1091D0002934152D23D8162200211848FFF70CF842
:1091E0002A4631461548FEF7EFFF22E0022D16D140
:1091F00011491088103908801BE0082D0FD10E4846
:10920000082231460838FEF773FF12E0012D06D11F
:10921000CA6909493078283107E0012D01D01824A6
:1092200007E0CA6B04493078483102F0DCF900E00D
:109230000224204670BD00006CEB0020B0F000203E
:10924000F0B58DB0FFF77AF8FE4908600420FFF70B
:109250007BF8FFF77FF80546C0071DD0FA480024C9
:10926000046072B6FFF77CF8F84EFA4F3146FF31D2
:109270000D310691891C0291891D0391FF36F44935
:10928000013602280CD001287ED0F34A0892052826
:109290007BD004287AD099E2FFF768F80DB0F0BDD2
:1092A0006A0507D5EA490A78012A07D0032A05D0BA
:1092B000022A03D00978052969D0ECE70720FFF7D7
:1092C00043F807AB0AAA05A90698FFF755F8054623
:1092D000FFF758F8002805DD7868401C786068467C
:1092E00000258482317B08074906000FC90F002D35
:1092F00001D0032806D00528D54874D0007801286D
:1093000072D069E3D2480078012801D00328F8D14F
:10931000D0488038026A521C0262D04A337DD0792C
:109320008342EED1707D137A9842EAD1B07D537AB0
:109330009842E6D1F07D937A9842E2D1307ED37A9A
:109340009842DED1707E137B9842DAD1C44B002064
:109350009B689B8D1B072DD5D27B012A01D0032A48
:1093600028D1C04BC200121A9D5C8D421DD1D2186B
:10937000B57B5778BD4218D1F57B9778BD4214D1A3
:10938000357CD778BD4203E09BE1BCE3FDE3F3E02D
:109390000BD1757C1779BD4207D1B57C5779BD4299
:1093A00003D1F57C9279954202D0401C0828D9DB84
:1093B00008281AD0A74D803DA86E401CA866AA4870
:1093C0000068002802D0804700289AD0FEF7E0FF0E
:1093D000A64F01263E70FEF7B1FF9A490968884200
:1093E00009D9401A0AE02EE0B4E09A488038C16AF0
:1093F000491CC16285E79E4A511A0818984976238C
:109400008968181A0A79801A4A6C096CD2B2C9B2F2
:10941000C0B2FEF7C3FFFEF7C7FF8B4806603C7083
:10942000FEF7C8FFFEF7CCFF9248808A010A9148F8
:10943000891C1430FEF7CAFF0E20FEF785FF686A0C
:10944000401C68625DE70478012C01D0022CD1D168
:1094500080488038826A521C8262804A307DD3798B
:109460009842C7D1707D137A9842C3D1B07D537AA8
:109470009842BFD1F07D937A9842BBD1307ED37AA7
:109480009842B7D1707E137B9842B3D1744B0020C1
:109490009B689B8D1B0728D5012C26D1D27B022AE5
:1094A00001D0032A41D16F4BC200121A9D5C8D423C
:1094B00018D1D218B57B5778BD4213D1F57B977878
:1094C000BD420FD1357CD778BD420BD1757C177961
:1094D000BD4207D1B57C5779BD4203D1F57C927965
:1094E000954202D0401C0828DEDB022C1BD1624AC8
:1094F00014788C4228D1B37B5478A34224D1F37BD7
:109500009478A34220D1337CD478A3421CD1737CBD
:109510001479A34218D1B37C5479A34214D1F37CBB
:109520009279934210D108280ED04A488038826E32
:10953000521C8266504806220170401C0299FEF7B8
:1095400043FEFEF749FFDCE642488038016B491CC8
:109550000163D6E64148417BCA0701D0252104E0DA
:10956000890701D5262100E02721007D8842EAD91C
:109570003220FEF737FF2FE20720FEF7E5FE3148E5
:109580003E4900680968884201D9411A02E0384A18
:10959000511A09183A48026889180160680518D5F7
:1095A00008AB0AAA07A90698FEF7E6FE0490307BEE
:1095B00005072D0FFEF7E6FE002805DD7868401C44
:1095C00078606846848304E00498002801D0042D64
:1095D00021D002F075FF2B4D288A012867D0FEF7B5
:1095E00007FF298AFEF70AFF491CE982244EA98950
:1095F0002548326848439042A87C72D8401CC0B2CB
:10960000A874272800D92520A8746889814251D1DF
:10961000FEF7FAFE53E0307B039A4006C10F68461E
:10962000808B00920838C3B20898029A000E40421C
:1096300045B204200195FEF7EDFE06488038816BA7
:10964000491C23E05C12FF1F5812FF1FE81EFF1F7A
:109650001D12FF1F503CFF1F6832FF1F2C1DFF1FF4
:109660002CED0020AD1EFF1F8012FF1F5312FF1FA5
:1096700040420F00E820FF1F4412FF1F8412FF1F0B
:109680007812FF1F421DFF1F710200008163FA481C
:109690000475C17C491CC9B2C17402299BD1018ADD
:1096A0004908018201D101210182C47493E701209C
:1096B000E8829BE7401AF1494843FEF793FE346085
:1096C0008AE1EF490978052901D006297ED10620D3
:1096D000FEF73AFEEA480178052903D0062976D03C
:1096E0007AE10DE200200490A80514D5680512D592
:1096F00008AB0BAA07A90698FEF73EFE0090307B48
:1097000005072D0FFEF73EFE002805DD7868401C9A
:10971000786068468483E1E00098002839D0002D05
:1097200005D0012D03D0022D01D0062D31D1317B82
:1097300000204906C90F0591D2498968898D09071A
:109740002AD5CD49897B012926D1C1000B1ACE49E2
:10975000CA5C05998A4219D1CB49B27B59184B781A
:109760009A4213D1F27B8B789A420FD1327CCB781C
:109770009A420BD1727C0B799A4207D1B27C4B7919
:109780009A4203D1F27C89798A4203D0401C08288E
:10979000DBDBA3E0082879DAB748BC49827C0A60A1
:1097A000417A012971D1002D01D0062D6DD1C18AD8
:1097B000002900D0491E0904AF48090CC18264D1B8
:1097C000B3480068002805D0804701E01CE2AEE005
:1097D00000285AD0AF49012008700A20FEF720FE69
:1097E0009E20FEF723FEFEF7A9FDAB4909688842DB
:1097F00001D9401A02E0A94A511A08187621091A1B
:10980000A04880688030007F081A0090FEF714FEA0
:1098100000983422C0B20821FEF7C0FDFEF7C4FD57
:1098200038699F49401C386101200860FEF7C2FD7D
:10983000FEF7C6FD0320FEF705FEB0894021084073
:109840008D4940000A78974FD207520E1043BA88CC
:10985000491C1043B88006223846FEF7B5FCB07BA1
:109860003873F07B7873307CB873707CF873B07C9D
:109870003874F07C7874B888010A381D891CFEF7AA
:10988000A5FD012004908348047000E026E02B0031
:10989000FEF7A0FC0705090B050D050705000020D4
:1098A00006E0022004E0012002E0032000E0FF20A7
:1098B0000899039A090E494249B2019100926946FA
:1098C000898B029A0839CBB20599FEF7A3FD764839
:1098D000416B491C4163049800287DD16E480168A2
:1098E00072480068814201D9081A02E06B4A101AD6
:1098F00040186F4D614B296841185F482960828983
:1099000053438B4211D8817C491CC9B281742729E9
:1099100000D925218174EBE0FEF776FDEDE0574993
:10992000801A4843FEF75EFDE7E0807CE8E0A8058A
:1099300066D5680564D505AB04AA03A90698FEF7A9
:109940001BFD0290307B05072D0FFEF71BFD002845
:1099500005DD7868401C78606846848150E0029894
:1099600000284DD0002D4BD1307B4006C30F51480D
:10997000C07B002802D001281DD041E04E4801786C
:1099800099423DD1B17B4278914239D1F17B8278C5
:10999000914235D1317CC278914231D1717C0279CA
:1099A00091422DD1B17C4279914229D1F17C8079CB
:1099B000814225D130E0344A0020C100091A555CAB
:1099C0009D421AD18918B57B4F78BD4215D1F57BE0
:1099D0008F78BD4211D100E0AEE2357CCF78BD4238
:1099E0000BD1757C0F79BD4207D1B57C4F79BD4253
:1099F00003D1F57C89798D420ED0401C0828DCDB30
:109A00002C48017A002959D02349284A096812684C
:109A1000914259D9891A5AE01E4E01253570FEF738
:109A20008DFC1D490968884201D9401A02E01B4A91
:109A3000511A08187621091A124834228068803099
:109A4000008C081AC0B20821FEF7A8FCFEF7B2FC91
:109A5000FEF7B6FCFEF79CFCFEF7A6FC104805607E
:109A600010488188001D090A891CFEF7AFFCFEF72B
:109A7000EFFC34701AE30000421DFF1F710200006A
:109A80001D12FF1F2CED0020AD1EFF1F8812FF1FAF
:109A90007C12FF1F5312FF1F5C12FF1F40420F007A
:109AA0005812FF1FE81EFF1FD03BFF1F8412FF1F2D
:109AB0007812FF1F5A1DFF1F4412FF1FFE4810217E
:109AC0000470FE48007835E2FD4B9A1A5118FD4D9E
:109AD000FD4B2A6889182960828953438B420ED82E
:109AE000817B491CC9B28173272900D92521817343
:109AF0004089824200D012E70EE72C60D6E2807BDC
:109B0000FEF7ACFCD2E2097807297DD10B20FEF7E5
:109B10001BFCEE48FF22007839325043EC4A00210A
:109B200083185970EB4E11543068002804D0FEF7AA
:109B30009BFC3178C84005E0FEF796FCE6490968D1
:109B4000FEF75CFC0590E80535D53068002804D0A8
:109B5000FEF790FC3178C84005E0FEF78BFCDE494B
:109B60000968FEF74BFCD94904460878FF223932D0
:109B7000D74E504380190279002A01D00022027189
:109B800002467832911E753000E0E4E004F0C6FA37
:109B90000598011BD1488068C0680918D048016049
:109BA000680528D5C948FF22007839320121504381
:109BB000801941701FE0C54801220178FF2039302B
:109BC0004143C3484254C74A0818536E20305B1CB7
:109BD0005366C24A92681369059AFF3A0F3A9B1876
:109BE000BF4A1360407F4100BF480818FF30013072
:109BF000018D491C018521462846FEF741FCFEF7F0
:109C000045FC0446B94900E0A8E00870002008724D
:109C100048728872C872B648054205D0B148026ED3
:109C2000521C026601200872A848FF2200783932CF
:109C30005043A74AAD4983181846FF3021300679B2
:109C40008A1DFF334079491C2533FEF725FC024667
:109C50009E48FF210078393148439D49401801460C
:109C6000FF3121314A710279002A0BD10222097990
:109C7000164011408E4205D09C494A78002A01D1F5
:109C800001224A709B49496896230904090E0291F2
:109C90001B5C8E4A002B02D0FB681B19FB60203036
:109CA000407F914E40008019C030C18B1746091982
:109CB000C183FEF7F7FB01463A78FF203930424373
:109CC000834810182030407F400080198030828AFD
:109CD000891881820AAA07A906A8FEF7E9FB387845
:109CE000FF21393148437A4940182030407F694686
:109CF0004000325A097F511831528019403069466C
:109D00004289097E51184181680705D5029884422D
:109D100002D22046FEF7D2FBFEF7D6FB73480022A4
:109D2000754982700B78012B0DD1002C0BD0089B4C
:109D30009B69002B04D0089B1B7FDB439B0702D051
:109D4000012383700A708079002801D0FEF7C2FBDE
:109D5000FEF7C6FBE8E00978082906D0674F3A7895
:109D6000022A7DD0052A7BD0E9E00920FEF7ECFA33
:109D7000564FFF2039783930554E4143002288191B
:109D800042707254AA0510D5024678323C46911EA4
:109D9000753004F0C3F9680513D52178FF223932F4
:109DA00001205143891948700BE001227254203080
:109DB000407F41004C480818FF300130018D491C9C
:109DC00001854B48054206D04648016E491C016694
:109DD000464901200872FEF759FB04464348FF211B
:109DE00004703878393148433949404A4318FF20D4
:109DF0002630C05C921DFF33511F25330290FEF7C1
:109E00004BFB01463878FF2239325043304A364EF8
:109E10008018FF22263211542030407F40008119E3
:109E2000C031C88B0019C883FEF73CFB01463A7865
:109E3000FF2039304243264810182030407F400030
:109E400080198030828A8918818206AA05A904A80F
:109E5000FEF72EFB3878FF21393148431C4900E0DA
:109E60006BE040182030407F69464000325A097D3F
:109E7000511831528019403069464289097C511885
:109E800041811C4840680004010E0298222801D13B
:109E9000012906D0680704D58C4202D22046FEF77D
:109EA0000DFBFEF711FB11480022134982700B785D
:109EB000012B32D1002C23E01D12FF1F1C12FF1FAB
:109EC00040420F007812FF1F710200004D12FF1F69
:109ED0006C1DFF1F2410FF1F2010FF1F2CED002002
:109EE0006012FF1FD03BFF1F203DFF1F9C3CFF1F48
:109EF00002080000001003404B12FF1F2312FF1F37
:109F00000BD0089B9B69002B04D0089B1B7FDB4375
:109F10009B0702D0012383700A708079002801D04A
:109F2000FEF7D8FAFEF7E2FA70480078002803D06E
:109F30006F490988FEF790F9B8E0002802D001289F
:109F400024D0B3E06B49002001264D7B01E0401C8A
:109F5000C0B2334683401D42F9D00B7D2530834289
:109F600002D0FEF7C9FA0BE0052A0DD0488881001F
:109F70004018C2086048012149030078FEF75AF9E9
:109F80000520FEF7E1F991E03C70F9E7012A7DD167
:109F9000A80556D5680554D507AB08AA05A90698A3
:109FA000FEF7EAF9B1890A07120F002849D0022A00
:109FB00047D1524A490692680020928DC90F120774
:109FC00028D54F4A927B012A24D14E4BC200121A47
:109FD0009D5C8D4218D1D218B57B5778BD4213D104
:109FE000F57B9778BD420FD1357CD778BD420BD138
:109FF000757C1779BD4207D1B57C5779BD4203D135
:10A00000F57C9279954203D0401C0828DEDB18E0ED
:10A01000082816DA3A48827C3B480260079A039B7C
:10A02000120E524252B2019200936A46928A032063
:10A03000083AD3B2029AFEF7EDF93448416B491C55
:10A0400041633348016833480068814201D9081AE6
:10A0500002E0314A101A4018304D314B296841183E
:10A0600027482960828953438B421CD8817C491C34
:10A07000C9B28174272900D9252181744089012121
:10A080000903824206D11C48007800E00EE0FEF78A
:10A09000E3F832E5801A82008018C2101648007872
:10A0A000FEF7C8F829E5807CFEF72CFA1D4C2078D5
:10A0B000042802D0032809D00CE0FEF729FA002872
:10A0C00008D0FEF719FA0220207003E00C48807CCB
:10A0D000FEF718FA14480068002801D1FEF746F987
:10A0E00062B60320FEF730F90DB0F0BD5112FF1F2C
:10A0F0005612FF1F2C1DFF1F1C12FF1F2CED0020EE
:10A10000421DFF1FAD1EFF1F8812FF1FD03BFF1F08
:10A110005C12FF1F8412FF1F40420F007812FF1FC6
:10A12000710200002312FF1F5812FF1FF8B50246EC
:10A130004348017809294BD00A2949D00B2947D037
:10A140000C2945D00D2943D03E4FB87B002807D0BD
:10A15000012805D0032803D0022801D0042814D1F7
:10A16000BB79002B01D0012B0FD1032801D002288D
:10A1700002D17888A02808D3334D344E287833781C
:10A180000024002A34D0012A01D01220F8BDBA8858
:10A19000012A1DD0282201290AD0022908D0042929
:10A1A00006D0032904D007290BD0082909D00FE0D5
:10A1B000274804603A75FEF7B1F9002815D0BC8035
:10A1C00006E024498968898D890601D5002B01D0D4
:10A1D0002120F8BD022131700C033A752146FEF7AB
:10A1E0002FF821462878FEF737F80120B88025E0BF
:10A1F00072B6BC80124A072908D0082906D014700C
:10A20000FEF792F91E20FEF79FF816E000217A7BF8
:10A2100001E0491CC9B201258D402A42F9D0022B28
:10A2200006D13A7D25318A4202D00520307004E003
:10A23000012134704903FEF703F862B60020F8BD2F
:10A240001D12FF1F2C1DFF1F1C12FF1F2312FF1FBB
:10A250002812FF1F2CED0020F8B5434F84463A78B2
:10A26000092A45D00A2A43D00B2A41D00C2A3FD0D4
:10A270000D2A3DD03D4C607A002801D001281AD12A
:10A280002078002801D0012815D1658938482B1F76
:10A29000834210D2A3891E1F86420CD2AB420AD839
:10A2A000002901D0012906D16046324B324D0028E9
:10A2B0002AD0012801D01220F8BD207A012817D019
:10A2C00025200126002A04D0072A0AD0082A08D00F
:10A2D0000EE0E671E173A07405203870FEF794F883
:10A2E00010E0A968898D490602D51978002901D0A6
:10A2F0002120F8BDA07421481E70012109030078B7
:10A30000FDF7AAFF26722CE072B60026052A04D0BB
:10A31000072A07D0082A05D005E03E701E20FEF768
:10A3200013F800E01E7026725820FEF77FF862B620
:10A33000FEF704F8124E134CE8600FE0FDF7FEFF45
:10A34000E968884201D3401A01E0711A08182861AF
:10A350007D22A969D2005143814202D3206801289D
:10A36000ECD00020F8BD00001D12FF1F421DFF1F92
:10A37000FD3F00002312FF1F2CED00201C12FF1FC9
:10A3800040420F005812FF1FF8B504460020034654
:10A390000A5C8507ED0EAA401343401C0428F7DB36
:10A3A00000F026F90028FBD100F03AFA210220043F
:10A3B000090E0843FF273F0221463940084372B681
:10A3C00000211A4DA960194E0002803E801C3060A9
:10A3D000336062B600F00CF90028FBD100F010FAEF
:10A3E00011200006201869462A695207FCD572B66A
:10A3F0000422AA6004020204240E224338400243CD
:10A400001002C01C306062B628694007FCD5307865
:10A41000087030784870307888703078C87000984C
:10A42000984201D00020F8BD0120F8BD800008113D
:10A43000024901480860704740787D0128ED0020FE
:10A44000F8B506460024FEF775F805460648471B92
:10A4500006E0FEF76FF8A84201D3441B00E03C1869
:10A46000B442F6D3F8BD0000FFFFFF0008B50002BC
:10A470000091000A04226946FFF786FF002800D0F9
:10A48000012008BD002805DBC106C90E0120884057
:10A49000014908607047000000E100E08307FF22E7
:10A4A000DB0E9A408907090E9940002808DB8308D3
:10A4B00009489B001B1818689043084318607047B0
:10A4C0000007000F0838830804489B001B18D86950
:10A4D00090430843D861704700E400E000ED00E0DD
:10A4E0008307FF22DB0E9A408907090E9940002856
:10A4F00008DB830809489B001B1818689043084331
:10A50000186070470007000F0838830804489B0054
:10A510001B18D86990430843D861704700E400E0F5
:10A5200000ED00E0BFF34F8F04490348C860BFF35C
:10A530004F8F00BFFDE700000400FA0500ED00E0CA
:10A54000BFF34F8F04490348C860BFF34F8F00BF6C
:10A55000FDE700000400FA0500ED00E002E008C895
:10A56000121F08C1002AFAD170477047002001E08D
:10A5700001C1121F002AFBD17047F0B500248E469E
:10A580004A1E12E0714600230D1B6D1E0AE09E005C
:10A5900031188C46875949688F4202D981516146EA
:10A5A0004F605B1C9D42F2D8641C9442EAD3F0BD1C
:10A5B00010B50020054CFF212218401C5170402886
:10A5C000FADB03F0FBFB207010BD0000ECF4002070
:10A5D00010B50020054CFF212218401C51700628A0
:10A5E000FADB03F009FC207010BD000048ED0020EC
:10A5F000084801694907FCD5012181600549052208
:10A6000080390A7002695207FCD50878C007C00F6C
:10A610007047000080000811F0B58646080CFF2640
:10A620008446002388B237461C46194601228A40D8
:10A6300005461540CD402C19A4B2FF2F02D1012CA4
:10A6400000D18FB265462A40CA40D21893B2FF2E7D
:10A6500002D1012B00D18EB2491C1029E6DB012C5E
:10A6600002D0102C08D009E0012B07D13001C0190D
:10A67000714608700220F0BD102B01D00320F0BD00
:10A680000120F0BD10B50120800780690107034853
:10A69000090F0068491CFDF7B1FE10BD1810FF1F1F
:10A6A000032806D3012189078A68012383401A43BE
:10A6B0008A607047012189070B6801228240934319
:10A6C0000B6008681043086070470000F8B54968DF
:10A6D00094460A784978069C090251188EB2444A79
:10A6E000112100250798B71A091B964243D009DCAF
:10A6F000404AB21813D0012A1CD0022A25D0032ABE
:10A7000008D12EE0012F40D0022F48D0032F50D087
:10A71000292F5AD0002018700A252846F8BD082C89
:10A7200055D20821091B814200D80846C2B21A70CE
:10A73000314857E00C2C4AD20C21091B814200D829
:10A740000846C2B21A702D484CE00D2C3FD20D21A4
:10A75000091B814200D80846C2B228481A700D3041
:10A7600040E0112C33D2814200D80846C2B22348BF
:10A770001A701B3036E0112C29D2814200D80846CD
:10A78000C2B21E481A702D302CE0112C1FD281420B
:10A7900000D80846C2B219481A703F3022E0112C86
:10A7A00015D2814200D80846C2B214481A705130FE
:10A7B00018E00E2C0BD20E21091B814200D808464E
:10A7C000C2B20E481A7063300CE0072C01D3072583
:10A7D000A3E70721091B814200D80846C2B20648F8
:10A7E0001A70C01F01196046FDF7EEFC95E70000E6
:10A7F000272A0000DDD5FFFFBBE900207CE7002011
:10A80000064801694907FCD500218160034A0421FB
:10A81000803A117001694907FCD570478000081122
:10A82000064801694907FCD500218160034A0621D9
:10A83000803A117001694907FCD570478000081102
:10A8400070B50021040000D11E4C1F4D28681F4B1D
:10A8500080B20022984222D001281CD0830B460BE4
:10A860007340DB07DB0F400018434004400C030A31
:10A8700043409B069B0E9A18521C92B293089B0071
:10A880005B199B689607F60EF3406354491C0D292B
:10A89000E4DB012070BD03F091FA022801D0002012
:10A8A00070BD0A220A492046FDF78EFC08480F3881
:10A8B000C17EA172007FE0720548113000782073DC
:10A8C000E7E70000E027012000230011FFFF000060
:10A8D0001BF5002003460002012100B5000A09040F
:10A8E00088421BD3FFF784FE0028FBD1FFF798FFB7
:10A8F0000B490020886019021804090E0843FF2143
:10A9000009020B401843064900028039D83008601C
:10A91000FFF76EFE0028FBD1FFF772FF00BD0000BD
:10A920008000081103460002012100B5000A490316
:10A9300088421BD3FFF75CFE0028FBD1FFF770FFB6
:10A940000B490020886019021804090E0843FF21F2
:10A9500009020B4018430649000280392030086084
:10A96000FFF746FE0028FBD1FFF74AFF00BD0000BD
:10A9700080000811F8B57A4C877801460025072633
:10A980006079A2793B00FDF725FC0805361A3737B8
:10A990005F9ACD36487800285CD1714806223C3059
:10A9A000C91CFDF711FC0120A0716D4B014642331B
:10A9B00062786079FDF756FC00284BD1A8E00F467D
:10A9C0004978002946D1F978002906D0654BA2784C
:10A9D0000021FDF747FC78700AE0022A0BD0012124
:10A9E000FDF746FC002803D101216079FDF734FC16
:10A9F000787800282ED1F8BD497800292AD1032F74
:10AA000009D0A289002A0CD0217800290AD001217E
:10AA1000FDF710FC06E0052A01D0022012E0062016
:10AA200010E02570A079062802D0042802D008E0A2
:10AA3000052007E00120207001466079FDF70CFC3D
:10AA400066E00320A07163E048780F46002803D039
:10AA5000312832D0A6715BE041480622391D3630DC
:10AA6000FDF7B2FB7889E081B8892082F88960829D
:10AA70000520A071A28A002A03D002216079FDF787
:10AA8000D9FBB889E083F8892084388A6084E0782B
:10AA900001280AD11F20FDF7A3FB7D21C9004843EF
:10AAA000024604216079FDF7C5FB7A89F878042312
:10AAB000391DFDF7B1FE25702AE02570C1E7284851
:10AAC0000E46062200213630FDF796FBE5832584ED
:10AAD000658404216079FDF7B3FB08216079FDF7F7
:10AAE000AFFBB079082808D00320A0712078002897
:10AAF00005D06079FDF7AAFB07E00420F5E7012007
:10AB0000207001466079FDF7A7FB0020C043E0817B
:10AB1000606A002800D16EE701680029FBD0A079A7
:10AB20008847F8BD0D460821FDF78AFB687829465D
:10AB30000028F6D1E888E083288920844889608449
:10AB400004216079FDF794FB0028EAD1A06A00286F
:10AB5000E7D00368628C218CE08B9847F8BD000039
:10AB6000E0EB0020C6F0002010B50178224C9129BE
:10AB700006D0A22926D0D02901D1FFF7FBFE10BDB7
:10AB800041780E29FBD181881C4A91420FD18168FE
:10AB900003200856A1790529F1D17F28EFD0616AF9
:10ABA0000029ECD049680029E9D0884710BD144A33
:10ABB0009142FBD1806883784278017811A002F03D
:10ABC00015FE10BD41791329FBD10089012802D15E
:10ABD0002079022808D00520FDF702FB0246082153
:10ABE0006079FDF727FB10BD08216079FDF728FB90
:10ABF000FEF776F810BD0000E0EB00200514000021
:10AC0000222000005B48434920444C455D256420D8
:10AC100025642025640A00007CB5154C0546E08BB0
:10AC2000E18A88420AD3218B884207D8208C618B25
:10AC3000884203D1608CA18B884217D00520FDF794
:10AC4000CFFA0646E18A68460180218B4180618BFC
:10AC50008180A18BC18062796946E089FDF770FC33
:10AC60002571324608216079FDF7E4FA7CBD0000C9
:10AC7000E0EB002010B500F025F8002800D0806837
:10AC800010BD00229300CB5A834202D1900040189D
:10AC90007047521CD2B2022AF4D300207047000041
:10ACA000074A0021CB00D35A834202D1C800801842
:10ACB0007047491C0906090EF4D0002070470000B7
:10ACC00008EB00200649496805E08A88824201D1E4
:10ACD0008868704709680029F7D100207047000094
:10ACE000FCEA0020F8B50746012906D0022924D144
:10ACF0000121FDF72BFC00281FD13846FFF7D0FFBC
:10AD0000050015D000240D4E0CE0F8206968604362
:10AD100008180188002908D0F8220021FDF76CFAF4
:10AD2000641CE4B270788442EFD30020C0432880D2
:10AD3000024938461431FEF735F8F8BDFCEA002028
:10AD4000F3B5064683B0083001900020009070886B
:10AD5000FFF7A6FF07002FD0002523E0F820796831
:10AD600068430C182188002920D001980078012818
:10AD70000FD16088009023797088621DFEF7D6F9A4
:10AD80000090002805D001990020087004982188BF
:10AD90000180F82200212046FDF72EFA00206D1CCC
:10ADA0002080EDB2074840788542D7D30020C043C9
:10ADB00038800098002802D17088FDF7CDFB0098FC
:10ADC00005B0F0BDFCEA0020F3B50546364C06465A
:10ADD00085B00835162200212046FDF70DFA03A89C
:10ADE00000902B79698828886A1DFDF7BBFB074610
:10ADF00044E02E482E4900780022C01FC0B20091C6
:10AE000001920290284B69468A897088F63B394640
:10AE1000FEF728F8002812D12548E979C01EC2782B
:10AE200091420CD120492846F6390830FDF7A0FBA5
:10AE3000002804D02178788989000919488068465B
:10AE40008289698804AB3846FDF74EFA07462078B8
:10AE5000810009194A88002A10D0002F05D06A46BF
:10AE6000128A401C20708A800AE002060021920D9E
:10AE7000C9431219401C2070918006E0002F04D0B5
:10AE80000C48217800888142B3D32078002806D06E
:10AE900070882146FDF772FB002007B0F0BD0698D0
:10AEA000298801800A20F8E7B6EF0020EC10FF1F88
:10AEB000FFEA0020F410FF1FF0B585B0044600271C
:10AEC0006846878120790E2867D00EDC082822D0BA
:10AED00004DC022812D0062817D117E025460835D1
:10AEE0000A281DD00C287FD137E010285AD012280C
:10AEF0005DD0162860D0182876D162E041484049DC
:10AF0000008808806088FDF73FFB6DE003A92046BC
:10AF1000FFF75AFF59E003A9204600F075F954E005
:10AF2000288804A9FDF7DAF9010014D03648344E18
:10AF300000780197401EC0B2009602906A46608871
:10AF4000731C128AFDF78EFF00281DD160883146E0
:10AF5000FDF720FB48E0012016E0288804A9FDF752
:10AF6000BDF90100F7D028486A880078244E401EB9
:10AF7000C0B20192009602906A466088128A731CE1
:10AF8000FDF770FF002803D029886A4691811CE0F4
:10AF900060883146FDF704FB26E003A9204600F057
:10AFA000C7F912E003A9204600F082F80DE003A9DA
:10AFB000204600F01FFA08E003A9204600F028F818
:10AFC00003E003A92046FFF7BBFE00280CD0617800
:10AFD000142909D00A4922790A706A4692894A805E
:10AFE00008716088FDF7E2FA2046FDF7E5FA0748A8
:10AFF0008168002901D02046884705B0F0BD0000D7
:10B00000B6EF0020EE10FF1FEC10FF1FFCEA00203F
:10B01000F8B504460F460546083400896946FDF731
:10B020005DF906003AD0307A80060ED56846008871
:10B03000FFF720FE030006D06888122231469847A9
:10B04000060002D02BE00E2629E06E883046FFF77E
:10B0500027FE010005D11448FFF722FE01000ED0A3
:10B060000E80124A0020527807E0F8264B684643CB
:10B070009B5B002B05D0401CC0B29042F5D3092643
:10B080000DE04968F822504308182146FDF79CF866
:10B09000002668882146FDF795FA02E001262088FF
:10B0A00038803046F8BD0000FFFF0000FCEA0020B9
:10B0B000F3B58BB000200B9E0746039004A80090C8
:10B0C0003246337B718930894C4C0D320836FDF79E
:10B0D00049FA054678E00B98297A4088FDF778FA16
:10B0E000070003D00C98698901806FE04448002173
:10B0F00000780191801FC0B2424A029000920B98E2
:10B100003E4B69460A8A4088F63B2946FDF7AAFE6F
:10B110000700E7D10398002834D03A486278C01E6F
:10B12000C178081D824254D10398411834480088E0
:10B13000801F81424DDC0398A97A20188170039802
:10B140006989401CC0B22218090A401C9170C0B223
:10B1500003906846028A718807AB2846FDF7C4F859
:10B16000050015D06946888B03996118887003988B
:10B170006946401C898BC0B2090A2218401C917094
:10B18000C0B210E01F48C01EC078001D6070D2E73A
:10B190000399FF20611888700399491CC9B262188D
:10B1A0009070491CC8B217490390C91ECA78134948
:10B1B0002018F639801CFDF707F812490398C91EBC
:10B1C000C9784018C0B20390002D84D1039800289C
:10B1D0000CD061780398FDF711F920700B98214687
:10B1E0004088FDF7FBF900200DB0F0BD002F00D125
:10B1F0000A270C99308808803846F5E7B6EF00201A
:10B20000EC10FF1FFFEA0020F3B587B0079F002472
:10B210003889434D26460837059064E003A800901E
:10B220003B7979887A1D0598FDF79CF904900028F0
:10B230004DD0408905900498017A07984088FDF721
:10B24000C7F9060054D1374800210078364A001F5C
:10B25000C0B20191029000920798314B69468A89E9
:10B260004088F63B0499FDF7FDFD060040D1002C17
:10B2700030D02D486978C01EC078801C814239D1F9
:10B28000294BDB1ED878211826480088001F8142F0
:10B290001DDC04982919807A8870641CE0B2049936
:10B2A0002A184989401C090A91701946CA78C4B203
:10B2B0001B492819F639801CFCF786FF1A481B49E0
:10B2C000C01EC0782018C4B20598884208D1002C4E
:10B2D00010D11EE01448C01EC078801C6870CFE7F3
:10B2E000401C80B205900F480088001F844295DD05
:10B2F000002C0CD069782046FDF780F8287007985C
:10B3000029464088FDF770F9002009B0F0BD002EF5
:10B3100000D10A260898059901803046F5E700001B
:10B32000B6EF0020EC10FF1FFFEA0020FFFF000037
:10B33000F3B585B000272C4C059E27703D46083696
:10B3400041E06800305A03A9FCF7C8FF010017D09C
:10B350002648274B00780093401EC0B2002201927D
:10B3600002900598204B6A464088F63B9289FDF78B
:10B3700079FD070006D06800315A0698018030E058
:10B380000127F8E71A482178C01EC0780A18174824
:10B390000088431E9A4204DD401A1549C91E401E0A
:10B3A000C8702178601C08181149C91ECA780E4956
:10B3B000F639FCF709FF0E482178C01EC07808183E
:10B3C0006D1C2070EDB2B07DA84205D907482178E8
:10B3D0000088401E8142B4DB059821464088FDF775
:10B3E00009F9384607B0F0BDB6EF0020EC10FF1F9A
:10B3F000FFEA0020F3B5054683B00446083500890E
:10B4000001A9FCF76BFF2746E8370646002822D043
:10B41000307A80060ED568468088FFF72BFC030043
:10B4200006D06088122231469847060002D013E009
:10B430000E2611E000200090AB7829886088EA1C75
:10B44000FDF774FE060007D1387E002807D160881A
:10B45000FDF7D6F803E00126049829880180387E9C
:10B46000002802D0002005B0F0BD3046FBE7000008
:10B470000149886000207047FCEA0020F8B50446C6
:10B480000246F820424319480025074645700C370C
:10B490007868002807D00020C100C919401C0006A8
:10B4A0004D60000EF8D0124E00213046FCF7A4FE8D
:10B4B000002001466143C9B2F82251438B190B4960
:10B4C000C2000C3152180021536005E0F8274F43A9
:10B4D0005368491CDD53C9B2A142F7D3401C000692
:10B4E000000EE6D0014844700020F8BDFCEA0020C0
:10B4F000C8ED00207CB50C78069D022C0ED14C685E
:10B500002678647824023419054EA4B2F44205D199
:10B51000022400950194FDF75DFC7CBD01207CBDFB
:10B52000FED6FFFFF8B5069800271D4614460E46C6
:10B53000002801D00B20F8BD30780021022801D06E
:10B5400019704DE0706802784078000210181522DA
:10B5500080B25202801A0300FCF73CFE0504121F61
:10B560001A254100F068FCF7CBFEC2B20798824270
:10B5700000D902462A70F1682046FCF725FE30E02B
:10B58000F0680221008829702070000A607028E0AD
:10B59000062028700246F168EEE701202870F06866
:10B5A000007820701DE0F068002816D0082129706E
:10B5B000017821700188090A61708178A170418841
:10B5C000090AE170017921718188090A6171817923
:10B5D000A171C088000AE07103E0297001E02970C0
:10B5E00001273846F8BD10B50B78840702D5022430
:10B5F000234301E0FD2423400B7003070B7802D5A1
:10B600000824234301E0F72423400B7083060B78C2
:10B6100002D52024234301E0DF2423400B700A21BC
:10B62000084201D1810603D510780C21084304E0BB
:10B63000002803D11078F3210840107010BD0000DD
:10B64000FFB581B0087800240A9E1F460D460228E7
:10B650000FD168680178407800020818152180B27F
:10B660004902401A09D0012829D0022848D00328CD
:10B670003CD00124204605B0F0BDE868FCF740FE50
:10B68000C0B2864205D8F0190090152803D90D24C0
:10B69000F0E70724EEE7E8683A4680190399FCF7DB
:10B6A00093FD0098EA6880B2002111541C4840685C
:10B6B0000028DFD001680029DCD0002012E0002E35
:10B6C00012D1022BE3D10399E8680A78497809027C
:10B6D00051180180124840680028CBD00168002929
:10B6E000C8D001208847C5E70B24C3E7002EFBD153
:10B6F000062BCCD10622E8680399FCF765FDB9E773
:10B70000002EF1D1012BC2D103980078002803D07C
:10B71000012801D08024ADE7E9680870AAE700009D
:10B720005CEB002010B5122801D3052010BD0C4B96
:10B730009C6B01228240104620439863586B9043D3
:10B740005863DC6B002907D020469043D863186B00
:10B7500002431A63002010BD10462043F6E70000A4
:10B7600000800040084A042807D2012307E018435C
:10B7700000E0984350610020704701231238834055
:10B7800050690029F5D0F2E70038004070B50F4D40
:10B7900000242E197078022807D9E0B200F05AF977
:10B7A000E2B20146104600F071F9232C0ADA7078F3
:10B7B000022807D9E0B200F04DF90C216143491984
:10B7C00020314871641C232CE3DB70BD28F200207B
:10B7D00070B502211020FEF783FE1020FEF752FE06
:10B7E000114E00240C20604380192030007900287D
:10B7F00013D0E0B200F072F9E5B2284600F02AF961
:10B8000000280ED000210C226A439219203252796E
:10B81000824202D0284600F03FF8641C232CE1DB72
:10B8200070BD0121EFE7000028F20020F3B5194EAA
:10B83000002481B0074601252846A040384225D083
:10B840000299084201D1012000E000200090E0B2FE
:10B85000009900F021F80C2060438019416880684D
:10B8600000290ED0002807D00098002802D000211F
:10B87000E0B203E00121FBE7E0B20021FFF752FF55
:10B8800004E0002802D0E0B20121F7E7641C122C8A
:10B89000D2DBFEBD4CF20020074A0C2343439B1829
:10B8A0005A68002A01D0002904D09A68002A02D0E0
:10B8B000012900D1104770474CF2002010B5044810
:10B8C000C16B034A40321068D060FFF7AFFF10BD74
:10B8D0000080004010B50E4880680007000F062861
:10B8E00007D007DC02280BD0042802D1012000F089
:10B8F00081FD10BD072806D00C28FAD10220F6E7FA
:10B9000000F09EFD10BD02484030C06B10BD00002D
:10B9100000400040C306DB0E01229A40064B40095E
:10B920008000C0180029C16801D0114300E0914394
:10B93000C1600020704700000038004030B50C4660
:10B9400005460121FFF7E6FFA90807488900091805
:10B950008869AA07D20EFF2393409843944020435E
:10B960008861002030BD00000038004010B5114C47
:10B970002078002801D0072010BDFF21C9310D48D3
:10B98000FCF7CFFB012020700B49002008634863BF
:10B990000A490862486202211020FEF7A1FD10202A
:10B9A000FEF770FD064A07490D2000F04BF9002014
:10B9B00010BD000028F200200080004080F0004010
:10B9C000D1B700208DB7002030B50D4604460428BD
:10B9D00003D320461F38032803D801212046FFF750
:10B9E000C1FE00212046FFF795FF01230B4A122CD0
:10B9F00008D2A3405068002D01D0184300E09843BE
:10BA0000506008E0123CA3401069002D01D018439B
:10BA100000E098431061002030BD0000008000402D
:10BA200070B50C460A21FCF7E9FC4A00891801228E
:10BA30001346491C8B404D1CAA4013438200044806
:10BA4000121890688C40984304439460002070BDA5
:10BA500000F000400C4A0C4B0121403A122807D25A
:10BA600081405068084201D0106809E0186907E079
:10BA7000123881401069084201D0D06800E058694E
:10BA8000084000D00120704740800040F8B50E46C5
:10BA900005460A21FCF7B2FC48000918EA06012411
:10BAA000D20E204690406A0993000B4A9A18136AF6
:10BAB000034313628C40084F2846803F0A21FCF75D
:10BAC0009DFC8000C0198168002E01D0214300E058
:10BAD000A14381600020F8BD80F0004070B50446AD
:10BAE00018480C226243151869680126002902D102
:10BAF000A968002906D0134924390919122C03D347
:10BB0000032302E0122070BD04234B7001218154F5
:10BB100000212046FFF758FF6868002810D0A86869
:10BB200000280CD02046FFF795FF002801D0012106
:10BB300000E000212046FFF7F5FD002070BD002643
:10BB40003146F7E74CF20020F8B50C48F0C80C4835
:10BB5000007800F0B5F9012000F06CF9FFF706FF5E
:10BB60003B4632462946204600F012FA7821054825
:10BB700000F0B2FA04A000F03FFAF8BD50E7002050
:10BB8000E312FF1F50ED0020426F6F742064726952
:10BB900076657220696E6974204F4B210A0000009F
:10BBA00010B50448112243681521034802F068FCCF
:10BBB000002010BD20ED00201CF0004010B57821C1
:10BBC0000948FCF7AEFA09480078012805D0022898
:10BBD00006D0032806D0042804D1FCF717FD01E0A5
:10BBE000FCF71AFD002010BD10F4002020ED00200D
:10BBF00010B51249034609781220012914D00429EE
:10BC000012D072B600210E4A0C244C43145D002C55
:10BC100011D09C420CD10C23594301208918487043
:10BC2000FCF7F4FC002006E0FCF7F0FC002010BD5F
:10BC3000491C0A29E8DB62B610BD000020ED002097
:10BC400010F4002030B50D4C00230C255D43655DDC
:10BC5000854201D1072030BD002D04D05B1C0A2B8A
:10BC6000F3DB032030BD0C256B431B19F9D00024F6
:10BC70005C7018709A602046596030BD10F4002046
:10BC800070B5FFF78DFF0A4D002420460C21484374
:10BC9000295C002909D040194068002800D080475D
:10BCA000641C0A2CF1DB002070BD122070BD000066
:10BCB00010F4002070B515490023097801290FD030
:10BCC00004290DD072B60021114A0D460C244C43B4
:10BCD000165D002E0FD0864205D1A418657007E0CE
:10BCE000FCF794FC0CE0A4186478002C00D05B1CDA
:10BCF000491C0A29EADB002B04D0FCF787FC62B65A
:10BD0000002070BDFCF788FCF9E7000020ED002062
:10BD100010F4002070B50A4D002420460C21484341
:10BD2000295C002909D040198068002800D080478C
:10BD3000641C0A2CF1DB002070BD122070BD0000D5
:10BD400010F4002070B51A49082009684865886514
:10BD500018490A200870184901200870174C00255E
:10BD6000257000F035F816488068411C01D020701D
:10BD700000E0257013480421C16113498160C1604E
:10BD800001611249416101210A20FFF749FE0D4876
:10BD90000D230F221221143002F072FB0021042027
:10BDA000FEF77CFB01210220FEF778FB70BD00004E
:10BDB00034ED0020E112FF1FE212FF1F0013FF1FEE
:10BDC0000040001100F00040B66DDB36B6EDC3B0A8
:10BDD00070B51548002280680424866B102513482E
:10BDE00013493300FCF7F6F9070808050C0E130891
:10BDF000050005600C600DE020220260052004E0D3
:10BE0000302305E0402202600620086002E0602343
:10BE100003600A60FCF706FCFCF70AFC02F096F9E6
:10BE200002F046F870BD00002CED00202010FF1F2E
:10BE30002410FF1FF8B51F4D1E4F08351E4C11264C
:10BE4000012820D000281DD100211020FFF7E8FD97
:10BE500000211120FFF7E4FD0323082209212846D1
:10BE600002F00EFB062200231146284602F008FBD2
:10BE700016231B221F21384602F002FB2068C16AEC
:10BE8000B143C162F8BD05231B221F21384602F0D1
:10BE9000F7FA0A4B07221021284602F0F1FA06228F
:10BEA00001231146284602F0EBFA2068C16A3143AB
:10BEB000E7E7000014F0004034ED0020FB03000031
:10BEC000F8B5FF222D322A4E2A4C002832D0012309
:10BED00029499B0402282FD08025012831D00E68E3
:10BEE0001E430E604B6806460B360127B7403B43A6
:10BEF0004B604B682B434B60032832D0042832D070
:10BF00001E492160521E1204120CFBD103461A482E
:10BF10000321001F02F0B4FA01208007C169184D07
:10BF2000890722D580690005010E491C2068FCF7AD
:10BF300065FA1BE02660E5E70D681D430D601149B9
:10BF4000DFE70F681F430F604B6801277F05BB4386
:10BF50004B604B683F123B434B604B682B434B603D
:10BF6000E8E70949CDE70949CBE720682860F8BD33
:10BF70000048E8011810FF1F40F0004000D8B80545
:10BF80001010FF1F0024F400006CDC020090D003AE
:10BF90001FB5104C2078002802D0112004B010BD2D
:10BFA00020210C48FCF7BDF86846407A002801D0F3
:10BFB0000520F3E768460FC810340FC4203C02F098
:10BFC000E5FA01202070044A00210820FFF73AFE1C
:10BFD0000020E3E7F0F300208DE5002010B5054ACE
:10BFE000927E002A02D002F091FA10BD02F05AFAB5
:10BFF00010BD0000F0F3002010B5044602E000F090
:10C0000005F8641C20780028F9D110BD38B500244B
:10C010000D4B0E49009404E0009A551C00959A427D
:10C020000ADC0A7D9206F7D50870009406E00098B5
:10C03000421C0092984201DD0D2038BD087D40066B
:10C04000F5D5002038BD000010270000004000405A
:10C050007CB504460A206A46507101462046FCF72A
:10C06000CDF96A463031117164212046FCF7C6F9DA
:10C0700008460A21FCF7C2F96A4630307D25D070A7
:10C08000ED0029462046FCF7B9F908466421FCF783
:10C09000B5F96A4630300E4E907031462046FCF7B6
:10C0A000ADF908462946FCF7A9F96A4630305070C8
:10C0B00008492046FCF7A2F908463146FCF79EF9EC
:10C0C0006A463030107006216846FFF787FF7CBD56
:10C0D00010270000A086010010B50D4B1C781A1D1A
:10C0E000002C05D09B7E002B04D01378002B03D0AE
:10C0F000072010BD052010BD72B69060D1800020D1
:10C10000508090800120107062B6002010BD0000A9
:10C11000F0F300201CB504460F4884421AD00129D0
:10C1200007D0022916D101212046FCF70FFA00287A
:10C1300010D10A492046FCF735FE0848001F016867
:10C14000002907D004206A4610700020507001902A
:10C15000684688471CBD0000FEFF00004CEC002034
:10C1600010B501F093FE0848017A002908D001219A
:10C17000017000214172FF3004490130C16110BDDE
:10C1800001F05AFE10BD000008F100200050FF1F12
:10C1900010B5642001F07AFE0748017A002908D022
:10C1A0000121017000214172FF3004490130C16159
:10C1B00010BD01F041FE10BD08F100200050FF1F2E
:10C1C0000020401C1028FCDBFEE70000F8B5724997
:10C1D000704A734B71488A60D8610020054683001D
:10C1E000401CD550FF28FADD88686E4A0146803130
:10C1F0008A60FF226F320A260665C2626A4A137895
:10C2000083636A4BC3611378022B06D01378032B28
:10C2100005D01378042B04D005E0102302E014238A
:10C2200000E018230362624B4361604B3424963371
:10C2300083613C23CB603623C363082344643A27DD
:10C2400003644F6031270F603B27CF634627CF64DD
:10C250003927403198C132274F6002274F6142276A
:10C26000083198C11E274F60CC608B6005244C615B
:10C2700042240C615A2460390C614B613C238B6170
:10C28000AF23DB0003601378022B06D01378032B57
:10C2900005D01378042B04D005E0152302E0466096
:10C2A00001E009234360FF232D338360C360A02393
:10C2B0000361404B83647D23DB003F4CCB67C46448
:10C2C00043623E4B83627323C365062343658365E4
:10C2D000C31D0824F93302271C6047664B27FF0063
:10C2E00087660927C766364F0767BF107430B0C02E
:10C2F000344F314838601078022806D0107803286F
:10C3000007D01078042807D009E01220C861202047
:10C3100004E00F20CE6101E00D20CC6108622548C9
:10C3200088627D20C0008867642048620520C8625A
:10C3300002200863C8208D63486338205860224873
:10C340001864AF20C00098614B20C000D8611F481E
:10C3500018627D20000158621E491D4888601D49F1
:10C360001D48803188621B491C48C031086119484A
:10C370001B4AC038094B82621A4A803B1A611A4A2A
:10C38000C2621A4A82601A480863FEF711F9FEF782
:10C390001FF9F8BD000CFF1F2CED0020000CFF1F43
:10C3A0000010FF1F40250120E312FF1F460500007B
:10C3B00040787D0150C30000F81100006A180000A9
:10C3C000204E00009412FF1F00400011C40900001D
:10C3D00091C900200009FF1FB1DE002059A20020F2
:10C3E00075C700204192002025C600202DA1002005
:10C3F000F9C4002070B5104C8AB0227E0F496D46FA
:10C40000002A0BD00D4A80325268D3B2002202E0DB
:10C410000E78AE54521C9A42FADB03E00A7D0123E7
:10C4200009782970E169002904D0287506952B77D1
:10C4300005A888470AB070BDF0F300200040004016
:10C440003EB51C490A78081D002A31D00A46097EEB
:10C4500000292DD0917E00292AD00178022927D1E8
:10C46000818844888368091B89B2102901D9102169
:10C4700001E000290BD0104D0A46491E89B2002A5E
:10C4800016D04288541C44809A5C2A70F4E701213B
:10C490000170002141808180D169002905D0074ABF
:10C4A0006C460DCA0DC4684688470820FFF702FC99
:10C4B0003EBD0000F0F3002000400040A0E8002056
:10C4C0000B480021C174027D521CD2B20275022AAF
:10C4D00009D1028AFF235204120C013302829A42CC
:10C4E00000D90382017503484169491C41617047C5
:10C4F000421DFF1F503CFF1F10B5002072B61049AF
:10C50000104C8968FF3119310CC96168062902D3C2
:10C510002469E40701D0002100E08908D2188A428A
:10C5200003D209490968002908D0084A042111707A
:10C5300007498A69521C8A6162B610BD0120FBE777
:10C540002CED0020001002405812FF1F2312FF1F85
:10C55000D03BFF1FF8B5074604462037387F787771
:10C56000E1882089FCF76AF8264680360090B07C86
:10C57000294D012830D1B28A2189E088FCF764F87E
:10C58000002829D0B18A2089FCF758F803281DD942
:10C59000224801220178342041434B192E20C254F5
:10C5A000B28A9A85B87F68541846214626300522FB
:10C5B0006431FBF709FE19483421007825224843ED
:10C5C000401921463F31401CFBF7FEFD144920462F
:10C5D000FCF740F80020B074104E34213078484306
:10C5E00040192E21095C012910D1E188808DFCF7CA
:10C5F00025F80121C903884208D9307834225043F4
:10C60000002140192E221154E188418620460099CC
:10C61000FCF726F87877F8BD88F400204D12FF1F4C
:10C620002C12FF1FF8B5504CFCF720F82646354673
:10C63000002780352036002815D1E06E002812D161
:10C640004A48806900280ED14948007800280AD15C
:10C650002078002807D13078002804D07A21095D9D
:10C66000002902D010E067840EE0297900290BD15F
:10C67000A97C002908D1FF212131095D002903D1BE
:10C68000012801D1E08C6084E088618C4018401C56
:10C6900020812046FBF7F0FF012803D16784E08862
:10C6A000401C20812879012843D1EA882189E0882B
:10C6B000FBF7CAFF00283CD0E8882081214688315A
:10C6C0002046FBF7DFFFE889E084002030706084BB
:10C6D000012020712089E1894018A081E188E88843
:10C6E000FBF7ACFFE18E6A8948438718A889884226
:10C6F00007D1298A628F914203D1E989228F914221
:10C7000006D0298AEA890B094108E078FBF7C0FFC7
:10C71000297AB174A889E086E8892087288A608709
:10C720002046FBF7BBFF2046FBF7BEFF0020287129
:10C7300000E0E78EE069B84203D13079618C88422D
:10C7400006D02346327C618C14333846FBF7B2FFA7
:10C75000E761608C30712046FFF7FCFE2046FBF756
:10C76000AFFF0020F8BD00006C1DFF1F6832FF1FE7
:10C77000C83BFF1FF8B56C48FF21027839314A43A6
:10C780006A495418A278002A4DD02189E1800078A6
:10C79000FF2339335843664E644BB279C0180025E5
:10C7A0002030002A0BD1727A002A08D1B27A002AEE
:10C7B00005D1F27A002A02D16278002A12D0E289E9
:10C7C0008918A18125710078012801D1E08C60844D
:10C7D0005848817C01292FD1857400212046FBF720
:10C7E00075FF29E02178002906D0E01DF930018B82
:10C7F000491C0183658405E025710078012801D179
:10C80000E08C6084A189E088814215D121794A4D6C
:10C81000002901D0052807D008212046FBF75CFF3E
:10C82000286C401C2864F8BD3E212046FBF754FFCD
:10C83000686C401C6864F8BD707800281AD03F48C6
:10C840008068808D800702D50121202001557A2043
:10C85000005D00280ED1204680300179002909D1E1
:10C86000807C002806D1FF202130005D002801D106
:10C87000E08C60842079002800D06584FBF732FFCB
:10C8800007000AD020200555002604E0FBF730FF02
:10C89000002802D0761CBE42F8DBA0780028CAD05F
:10C8A0002046FBF72BFF0128C5D002212046FBF7CD
:10C8B0002BFFE078FBF72EFF2078002804D0616979
:10C8C000A0694018A06100E0A561FBF729FF0128DD
:10C8D000B1D0FBF733FD1A490968884201D9451ADE
:10C8E00002E0184A511A0D180F480178FF2039301C
:10C8F00041430E480818C469203000791249401C91
:10C9000048434443204600F023F81048006840198B
:10C91000FF307330844201D8002801DA201A00E089
:10C92000C820FBF75FFDF8BD4D12FF1F6C1DFF1FF8
:10C930009C3CFF1F843CFF1FD03BFF1F2CED0020C1
:10C940005C12FF1F40420F00710200006012FF1FC7
:10C950000B4802780B48002A80680CD0C36C016F2A
:10C960008B4200D9C164012A04D107480168FF3114
:10C970002D310160704705490968C16470470000A6
:10C980005212FF1F2CED00206012FF1F9412FF1F98
:10C9900070B54A484A4D00684A4C01280FD14A4EAA
:10C9A000B06F401CB067FBF7DBFC6178474A0901B8
:10C9B0000843B16F0907090F5054A86A60614448E1
:10C9C00068610120E86028602078424B424A0128D3
:10C9D00005D11878022809D0012080041061506B1D
:10C9E000C1B23E480078002803D01AE00120C004FC
:10C9F000F4E73B4800254557002D3A4D455706DBE7
:10CA00002D040026865730022818401808E0FF350C
:10CA10002D040026865730022818334D401840193F
:10CA200050633248FF22007839325043304A801830
:10CA30002030007F6080022901D2022102E05029CB
:10CA400000D950211A7824481430022A11D0294ADA
:10CA50001578294B1E78B5420FD915781B78EB1A3B
:10CA6000891E49104B4311784901C91A10314B11E5
:10CA700004E0224A1578224BECE7137800220721C4
:10CA800001F0FEFCFBF76CFC607002280BD005285F
:10CA900001D0042806D1FF20FBF748FEFF200D300F
:10CAA000FBF7C4FC70BD17480078052802D0582059
:10CAB000FBF7BCFC2820FBF739FE70BD5812FF1FA6
:10CAC000001003402CED0020D03BFF1FBCF40020E1
:10CAD000FF3F0000E212FF1F800003405312FF1FC0
:10CAE0000013FF1F00000000FFFE00004D12FF1F9B
:10CAF0006C1DFF1FDD12FF1FDE12FF1FDF12FF1F65
:10CB0000E012FF1F1D12FF1FF7B5064686B000207A
:10CB100004900390079810E125290AD00499002970
:10CB200001D0039802E0049000200390401C039081
:10CB300000E10398002805D081B20498B047002096
:10CB40000490039000250422082310210798401C1C
:10CB5000079000782B2819D004DC202818D023282F
:10CB600004D117E02D280FD0302815D0079A0027C0
:10CB70001078FF430346303B3C46092B0FD807A8EB
:10CB800001F064FC044615E00D43DFE71543DDE7E3
:10CB90001D43DBE7202000E001200543D6E72A28DB
:10CBA00008D1521C0898079210C80890002C01DA8E
:10CBB00064420D43079938460A782E2A14D1491C3D
:10CBC000079108780246303A092A03D807A801F0ED
:10CBD0003DFC06E02A2806D1491C0791089901C9A5
:10CBE0000891002800DA0020079A39461778682F44
:10CBF00003D06C2F01D04C2F02D1521C3946079222
:10CC0000079B0A221B786E2B2CD00CDC632B2AD0BE
:10CC100004DC412B26D0582B11D19BE0642B01D092
:10CC2000692B0CD19AE0732B3DD004DC6F2B77D0AD
:10CC3000702B04D164E0752B73D0782B6FD0252B2B
:10CC400009D0252069460872012102A8B04707983B
:10CC50000178002975D0079869460078087201218B
:10CC600002A8B04766E0E80609D42025641E002C1F
:10CC700005DD68460572012102A8B047F6E708986D
:10CC80006A4601781172001D0890012102A8B04780
:10CC9000202504E068460572012102A8B047641E01
:10CCA000002CF7DC46E0089A02CA0892009100299D
:10CCB00001D12DA100910A4600E0491C0B78002B00
:10CCC00001D0401EF9D28F1AE8060AD4202520464A
:10CCD000641EB84205DD68460572012102A8B0470E
:10CCE000F5E7B9B20098B047202504E06846057220
:10CCF000012102A8B0472046641EB842F6DC19E0C4
:10CD0000611C02D1082401210D430090089801956F
:10CD100002C823461022089009E001E001E01BE070
:10CD20000822089B02CB08930195009023463046C9
:10CD300000F03AF80798401C07900178002901D0CC
:10CD4000EAE60EE00398002802D081B20498B047CA
:10CD500009B0F0BD402215431022E2E702231D4333
:10CD6000DFE7401E0790E5E73C4E554C4C3E000087
:10CD700010B50B49022008700521C9020948FBF7CC
:10CD8000DBFCFFF723FAFEF719FFFEF7DBFFFEF7E8
:10CD9000DBFE00F0BBF900F0D6FC002010BD000067
:10CDA000E312FF1F00580020FFB50746574897B011
:10CDB000219D006815901E460A46680602D5534814
:10CDC00040681590E80601D56D086D001998801E21
:10CDD000232870D2E80701D0302100E0202110A8DC
:10CDE000017300210172A80710D5002A04DA2D2052
:10CDF00010A90872524208E0680701D52B2002E012
:10CE0000280703D5202010A908725E1EA80608D5A1
:10CE10001998102802D0082802D002E0B61E00E0BF
:10CE2000761E0024002A14D010461999FBF7E6FA62
:10CE3000159A525C01A90A55641C0200F4D120988D
:10CE4000844200DD20942098361A112005420BD030
:10CE50000EE03020694608710124F0E72020694681
:10CE6000087001216846B8473046761E0028F5DC78
:10CE700010A8007A002802D0012112A8B847A806FD
:10CE800016D51998082802D0102802D010E03020BA
:10CE900009E030206946087001216846B8471B4800
:10CEA0000068203040786946087001216846B8471C
:10CEB000E80604D507E027E0012113A8B84730466B
:10CEC000761E0028F8DC30252099481E2090A142CB
:10CED0000BDD684605700121B847F5E7285D694616
:10CEE000087001216846B84700E001AD2046641E85
:10CEF0000028F3DC20243046761E002804DD684636
:10CF000004700121B847F6E71BB0F0BD18ED002012
:10CF100070B500241220FBF7FFF9154912220860B2
:10CF20000021FBF769F920460124FBF70BFC0225E1
:10CF30002046FBF70DFC03242846FBF70FFC0425D5
:10CF40002046FBF711FC05242846FBF713FC0625B9
:10CF50002046FBF715FC07242846FBF7D3FC0825E1
:10CF60002046FBF7F9FE284600F004F870BD0000EB
:10CF7000D8EC002030B5474D89B068700121684673
:10CF80000171072202720022828101740C218182C8
:10CF900001838283FF21F5310184C3203E4C02AA24
:10CFA00001218000FBF776FD01AA01213B48FBF738
:10CFB00071FD3A4803AA0221401CFBF76BFD00F00B
:10CFC000DFF8002802D02078401C2070314806226B
:10CFD0001D302146FBF7F8F82E4A30480C32192153
:10CFE000801CFBF757FD312004AA01210001FBF74B
:10CFF00051FD2A4805AA02210C30FBF74BFD2748BA
:10D0000006AA02210D30FBF745FD244807AA02219C
:10D010000E30FBF73FFDC52008AA02218000FBF778
:10D0200039FD1C4A152125320020FCF7C5F80121E5
:10D030001F20FBF723F9FF24913421460620FBF73C
:10D040001DF921460720FBF719F921460820FBF7B7
:10D0500015F921460920FBF711F90024E443204685
:10D06000FCF79AF82046FBF767FEFBF7B9FB0221B5
:10D07000687800F08BF80A48FEF7FAF90120FBF710
:10D0800085FB0120FBF788FB01216878FBF7E4F8BA
:10D0900009B030BDDCEC00203112FF1F0503000099
:10D0A00071D3002010B50C4611A0FEF7A5FF204655
:10D0B000FEF7CEFF20040AD513484078FBF7A2F80C
:10D0C000002801D0FBF7A4F80120C0030CE0E00722
:10D0D00005D00D48001DFBF7E7FD012004E0A00787
:10D0E00004D500F041F80220604010BD002010BDC2
:10D0F0006F74614170705F50726F636573734576D2
:10D10000656E743A00000000DCEC002010B5114898
:10D11000416B0C07240F8921490141630EA0FEF7E2
:10D120006BFF2046FEF794FF002C09D0012C0AD09B
:10D130000C48032C0AD0062C01D10021417010BDEF
:10D1400004F00EFF10BD01F04DF910BD012101707A
:10D1500010BD000000F000406F74615F6D6F64658A
:10D160000A000000D4EC002010B504488169416138
:10D170006821872000F078FE10BD000008F2002032
:10D180000148407870470000D4EC002010B5084AF0
:10D190005070518000F050FE06A0FEF72DFF0448AD
:10D1A0000C3000F01FFA074800F014F8002010BD02
:10D1B00008F100206F74615F4164645365727669A1
:10D1C00063650A0089DB00200149C01EC8807047E2
:10D1D00008F1002070B505460B48FBF779F80B49BC
:10D1E0000B48FBF7DFFD09480A4A08210830FBF726
:10D1F00053FF040002D008A000F0F8FA0348001F13
:10D200000560204670BD000015C100204CEC0020D8
:10D21000FFFF00006CE80020416464204F5441206F
:10D2200073657276696365206661696C6564210A5D
:10D2300000000000FEB5044625A0FEF7DDFE2046F6
:10D24000FEF706FF274D052C07D028780126264F2C
:10D25000052813D0022807D008E022492248891C5B
:10D260000930FBF7DBFA30E0032C02D0012C19D097
:10D270002BE00820FAF7B4FF202826D16846067074
:10D2800020210820FAF7FAFF20210920FAF7F6FFFB
:10D2900000210846FAF7F2FF6A4601213846FBF7FB
:10D2A000F9FB12E0C12069468000FBF7B7FA694636
:10D2B0004879C87108798871C87848710020087168
:10D2C000C8706A460821FBF797FA2C70FEBD000073
:10D2D0006F74615F476170537461746543423A0AC9
:10D2E00000000000DCEC00200503000038B5044617
:10D2F00069461448FBF792FA6A4613491088FBF70F
:10D30000C3FE6A461188114A914218D0C00716D050
:10D310000FA0FEF771FEE078FEF79AFE10A0FEF770
:10D320006BFE2079FEF794FE0748002248304089C2
:10D330002080684621460088FBF734FA38BD122069
:10D3400038BD00000E0300004CEC0020FFFF000081
:10D350004E6F7469662056616C7565310A00000075
:10D360004E6F7469662056616C7565320A00000064
:10D3700070B5054640782979172814D0022911D1B3
:10D380000B482C890088844200D904462046FFF7C8
:10D390001BFF08A0FEF730FE2889FEF759FE204645
:10D3A000FEF756FE70BD09A000F020FA70BD000027
:10D3B000EE10FF1F4D54552073697A652072657118
:10D3C0003A207C207365743A0A0000005B474154A0
:10D3D0005420544F5D2025780A00000070B50C469B
:10D3E000022505A000F002FA207AC00601D5082027
:10D3F00070BD284670BD000052656164417474724E
:10D4000043420A00FFB583B016460D46002730A000
:10D41000FEF7F2FD287A800602D5082007B0F0BD9D
:10D42000297801202F4C022922D022460C3269890A
:10D43000528D914209D12168002906D06A461070A8
:10D4400006985070684601968847264869894C308E
:10D45000408F81420AD12168002907D002206A4604
