:020000041FFFDC
:100800000000000005BBFF1F38D6FF1F68D6FF1F82
:10081000D4DBFF1F0000000000000000000000000B
:1008200000000000000000000000000000000000C8
:1008300000000000000000000000000000000000B8
:1008400000000000000000000000000000000000A8
:100850000000000000000000000000000000000098
:100860000000000000000000000000000000000088
:100870000000000000000000000000000000000078
:100880000000000000000000000000000000000068
:100890000000000000000000000000000000000058
:1008A0000000000000000000000000000000000048
:1008B0000000000000000000000000000000000038
:1008C0000000000000000000000000000000000028
:1008D0000000000000000000000000000000000018
:1008E0000000000000000000000000000000000008
:1008F00000000000000000000000000000000000F8
:1009000000000000000000000000000000000000E7
:1009100000000000000000000000000000000000D7
:1009200000000000000000000000000000000000C7
:1009300000000000000000000000000000000000B7
:1009400000000000000000000000000000000000A7
:100950000000000000000000000000000000000097
:100960000000000000000000000000000000000087
:100970000000000000000000000000000000000077
:100980000000000000000000000000000000000067
:10099000EDA8FF1F81A9FF1F05C4FF1F0000000075
:1009A0000000000000000000000000000000000047
:1009B0000000000000000000000000000000000037
:1009C0000000000000000000000000000000000027
:1009D0000000000000000000000000000000000017
:1009E0000000000000000000000000000000000007
:1009F00000000000000000000000000000000000F7
:100A000000000000000000000000000000000000E6
:100A100000000000000000000000000000000000D6
:100A200000000000000000000000000000000000C6
:100A300000000000000000000000000000000000B6
:100A400000000000000000000000000000000000A6
:100A50000000000000000000000000000000000096
:100A60000000000000000000000000000000000086
:100A70000000000000000000000000000000000076
:100A80000000000000000000000000000000000066
:100A90000000000000000000000000000000000056
:100AA0000000000000000000000000000000000046
:100AB0000000000000000000000000000000000036
:100AC0000000000000000000000000000000000026
:100AD0000000000000000000000000000000000016
:100AE0000000000000000000000000000000000006
:100AF00000000000000000000000000000000000F6
:100B000000000000000000000000000000000000E5
:100B100000000000000000000000000000000000D5
:100B200000000000000000000000000000000000C5
:100B300000000000000000000000000000000000B5
:100B400000000000000000000000000000000000A5
:100B50000000000000000000000000000000000095
:100B60000000000000000000000000000000000085
:100B700079ACFF1F00000000E348FF1FE548FF1F9E
:100B80000000000000000000000000000000000065
:100B90000000000000000000000000000000000055
:100BA000000000007151FF1F0000000031A4FF1F72
:100BB0000000000000000000D9A3FF1F05A4FF1FD4
:100BC000C1A3FF1F000000000000000000000000A3
:100BD0000000000000000000000000000000000015
:100BE0000000000000000000000000000000000005
:100BF00000000000000000000000000000000000F5
:0C0C000001FF01FF01FF01FF41000000A7
:020000041FFFDC
:10480000180D0020D548FF1FDD48FF1FDF48FF1FA0
:104810000000000000000000000000000000000098
:10482000000000000000000000000000E148FF1F41
:104830000000000000000000E348FF1FE548FF1FE4
:10484000E748FF1FE748FF1FE748FF1FE748FF1F34
:10485000E748FF1FE748FF1FE748FF1FE748FF1F24
:10486000E748FF1FE748FF1FE748FF1FE748FF1F14
:10487000E748FF1FE748FF1FE748FF1FE748FF1F04
:10488000E748FF1FE748FF1FE748FF1FE748FF1FF4
:104890000000000000000000000000000000000018
:1048A0000000000000000000000000000000000008
:1048B000E748FF1F00000000E748FF1FE748FF1F11
:1048C0000348854600F038F800480047EDB8FF1F60
:1048D000180D00200448804704480047FEE7FEE723
:1048E000FEE7FEE7FEE7FEE75581FF1FC148FF1F19
:1048F00003460B439B0703D009E008C9121F08C0F9
:10490000042AFAD203E00B780370401C491C521EA3
:10491000F9D27047D2B201E00270401C491EFBD2AE
:1049200070470022F6E710B513460A4604461946BA
:10493000FFF7F0FF204610BD064C0125064E05E0AE
:10494000E36807CC2B430C3C98471034B442F7D3B0
:10495000FFF7BAFFCCD8FF1F1CD9FF1F70B58C180A
:104960000578401C6B075B0F01D10378401C2A11AE
:1049700006D10278401C03E006780E70401C491CEA
:104980005B1EF9D12B0705D40023521E0DD40B70EA
:10499000491CFAE70378401CCB1A921C03E01D78EF
:1049A0000D70491C5B1C521EF9D5A142D8D30020C2
:1049B00070BD000003B40148019001BDF98F0000F3
:1049C00003B40148019001BDC13C010003B401489A
:1049D000019001BDED3C010003B40148019001BD0F
:1049E0001910000003B40148019001BDC93A01004B
:1049F00003B40148019001BD5518000003B40148FB
:104A0000019001BD8117000003B40148019001BD70
:104A10006902000003B40148019001BD6D1500005A
:104A200003B40148019001BDA118000003B401487E
:104A3000019001BDF13E010003B40148019001BDA8
:104A40001B3D010003B40148019001BD3D4201003E
:104A500003B40148019001BD7181000003B4014815
:104A6000019001BDB9E4000003B40148019001BD0B
:104A70002D15000003B40148019001BD3518000058
:104A800003B40148019001BDA53C010003B40148F5
:104A9000019001BD3917000003B40148019001BD28
:104AA00079E5000003B40148019001BD69410100AE
:104AB00003B40148019001BD3914000003B401485A
:104AC000019001BD1117000003B40148019001BD20
:104AD0007114000003B40148019001BDC131000010
:104AE00003B40148019001BDB142010003B4014883
:104AF000019001BDD542010003B40148019001BD00
:104B0000C912000003B40148019001BD5D19000005
:104B100003B40148019001BD593A010003B40148B2
:104B2000019001BDC118000003B40148019001BD0E
:104B30003515000003B40148019001BD4117000084
:104B400003B40148019001BDE915000003B4014818
:104B5000019001BD897B000003B40148019001BDB3
:104B6000D520000003B40148019001BDA5E5000077
:104B700003B40148019001BDC91F000003B40148FE
:104B8000019001BDB51E000003B40148019001BDB4
:104B90003D1C000003B40148019001BD0D1D000043
:104BA00003B40148019001BD8306000003B401482D
:104BB000019001BD0143010003B40148019001BD12
:104BC000E120000003B40148019001BDED3A01006D
:104BD00003B40148019001BDF53C010003B4014854
:104BE000019001BD5D3F010003B40148019001BD8A
:104BF000DD21000003B40148019001BD01E6000081
:104C000003B40148019001BD8D44010003B4014883
:104C1000019001BD9D19010003B40148019001BD3F
:104C2000E11B010003B40148019001BDCD1C01004E
:104C300003B40148019001BD351B010003B40148D4
:104C4000019001BD5D1E010003B40148019001BD4A
:104C5000351C010003B40148019001BD7921010018
:104C600003B40148019001BDA522010003B401482D
:104C7000019001BDE91C010003B40148019001BD90
:104C80001120010003B40148019001BD4920010039
:104C900003B40148019001BD9124010003B401480F
:104CA000019001BD6D2C010003B40148019001BDCC
:104CB000A525010003B40148019001BD654800002D
:104CC00003B40148019001BD5171000003B40148D3
:104CD000019001BDE139000003B40148019001BD1C
:104CE000B922010003B40148019001BD392101003E
:104CF00003B40148019001BD9122010003B40148B1
:104D0000019001BDE91D010003B40148019001BDFE
:104D1000852B010003B40148019001BD150E01006F
:104D200003B40148019001BD0D1C010003B401480A
:104D3000019001BDC51B010003B40148019001BDF4
:104D40000519010003B40148019001BDDD1C0100FB
:104D500003B40148019001BDA523010003B401483B
:104D6000019001BD251C010003B40148019001BD63
:104D7000751C010003B40148019001BDF51D01003F
:104D800003B40148019001BD6D1F010003B4014847
:104D9000019001BD0D25010003B40148019001BD42
:104DA0001515010003B40148019001BDFDEC0000A0
:104DB00003B40148019001BDE10F010003B40148B3
:104DC000019001BDC110010003B40148019001BD73
:104DD0003902010003B40148019001BD75030100CF
:104DE00003B40148019001BD1590000003B40148CF
:104DF000019001BD295E000003B40148019001BD8E
:104E000061EC000003B40148019001BDB1EC000069
:104E100003B40148019001BD2D64000003B40148B2
:104E2000019001BD6162000003B40148019001BD21
:104E30001562000003B40148019001BD4108000063
:104E400003B40148019001BD7942010003B4014857
:104E5000019001BD5590000003B40148019001BDCF
:104E60007D3A010003B40148019001BD913F01006A
:104E700003B40148019001BDA942010003B40148F7
:104E8000019001BDAD5D000003B40148019001BD7A
:104E9000E15D000003B40148019001BD710F000005
:104EA00003B40148019001BD113A010003B4014867
:104EB000019001BD891C000003B40148019001BDAF
:104EC0004D2A000003B40148019001BD292A0000C9
:104ED00003B40148019001BDD136000003B401487C
:104EE000019001BDBD07000003B40148019001BD60
:104EF000E907000003B40148019001BD6D070000FF
:104F000003B40148019001BDFD0E000003B4014847
:104F1000019001BD2D0E000003B40148019001BDB8
:104F20003D07000003B40148019001BD211A0000B3
:104F300003B40148019001BD050E000003B401480F
:104F4000019001BD8922000003B40148019001BD18
:104F5000610E000003B40148019001BD9D0E0000E8
:104F600003B40148019001BDD50E000003B401480F
:104F7000019001BD610F000003B40148019001BD23
:104F8000E997000003B40148019001BD3D9800007D
:104F900003B40148019001BDE58D000003B4014850
:104FA000019001BD4977010003B40148019001BDA2
:104FB000CDEA000003B40148019001BDE1EA000020
:104FC00003B40148019001BD09F0000003B4014899
:104FD000019001BDA5EB000003B40148019001BDA3
:104FE00005BF000003B40148019001BD95E8000031
:104FF00003B40148019001BD8DE9000003B40148EC
:10500000019001BDF53B000003B40148019001BDD2
:10501000A5E6000003B40148019001BD71E900005C
:1050200003B40148019001BD51E8000003B40148F8
:10503000019001BDFD02010003B40148019001BDD2
:10504000D1EF000003B40148019001BD1DE900004B
:1050500003B40148019001BDC9BE000003B401487A
:10506000019001BD55F7000003B40148019001BD56
:1050700051FD000003B40148019001BD3D00010055
:1050800003B40148019001BDA9E0000003B4014848
:10509000019001BD9509010003B40148019001BDD3
:1050A0004956010003B40148019001BD8D3C010047
:1050B00003B40148019001BDE55B000003B4014861
:1050C000019001BDE129000003B40148019001BD38
:1050D0009937000003B40148019001BD511400004C
:1050E00003B40148019001BD091F000003B4014849
:1050F000019001BDA579000003B40148019001BDF4
:10510000C53F010003B40148019001BDED2F00002F
:1051100003B40148019001BD615D000003B4014882
:10512000019001BD615E000003B40148019001BD22
:10513000915D000003B40148019001BDA12D000064
:1051400003B40148019001BD1D30000003B40148C3
:10515000019001BDC52D000003B40148019001BDBF
:10516000352E000003B40148019001BD69300000F4
:1051700070B51A4D28691A4CC00707D02846FFF7AA
:1051800019FC2168002901D001208847686AC007FE
:1051900008D012481430FFF70DFC2168002901D017
:1051A00002208847A86BC00708D00C482830FFF7BA
:1051B00001FC2168002901D00320884707484030BE
:1051C000C068C00708D005483C30FFF7F3FB2168F2
:1051D000002901D00420884770BD00000010004065
:1051E00030DEFF1FF8B5234E0546376810280CD077
:1051F00006DC022D0BD0042D0FD0082D10D10EE0AF
:10520000202D06D0402D0BD105E0012408E002241A
:1052100006E0042404E0062402E0032400E0052460
:105220000146602000F034F91EE0642008F01EF80A
:1052300000F0C4F8A04215D0402D02D0082D13D1A3
:1052400008E0642008F012F86A2000F012F9000764
:105250000AD507E0642008F009F86D2000F009F98C
:10526000C00701D00120F8BD3068C01B0A28DCD37C
:105270000020F8BDC0E2FF1FF8B500273D463C46C0
:10528000662000F0F6F88006C10F6D20009100F056
:10529000F0F806466A2000F0ECF80099002903D0E7
:1052A000F143C043CEB2C0B2F10900D0202572064E
:1052B0000121002A00DA0D43B20600D50D43F206A3
:1052C00002D5102215431446320702D50822154391
:1052D0001443720702D5042215431443B307022274
:1052E000002B01DA15431443F20701D00D430C43A0
:1052F000820602D5022780221443C20602D50F433C
:1053000040210C43000703D5042007432020044319
:1053100039466A2000F0BCF829466B2000F0B8F846
:105320000098002801D0E043C4B22046F8BD10B573
:105330000146652000F0ACF810BDF8B515460E46E4
:105340000746002406E0E019315DC0B200F0A0F885
:10535000641CE4B2AC42F6D30120F8BD10B504469B
:10536000692000F086F89F2108402043014669200B
:1053700000F08EF810BD10B504460D2000F079F84D
:10538000002C02D0E021084303E04006400E9F219C
:10539000084001460D2000F07BF810BD10B5044612
:1053A000692000F066F8002C02D08021014301E062
:1053B0004106490E692000F06BF810BD10B5612060
:1053C00000F057F80007000F10BD10B50820FFF7D8
:1053D00009FF10BD10B51020FFF704FF10BD10B578
:1053E0000220FFF7FFFE10BD10B54020FFF7FAFEC8
:1053F00010BD10B500F046F8142007F02CFF022075
:10540000FFF7F0FE612000F034F810210843DF219F
:105410000140612000F03CF8622000F02AF82021D1
:105420000143622000F034F80020FFF7A4FFFFF7EB
:1054300023FF10BD10B500210E2005F093F803F0F6
:1054400011FC10BD70B5482000F013F804465A2135
:10545000482000F01DF8482000F00BF805462146D2
:10546000482000F015F85A2D01D0002070BD012011
:1054700070BD08B5FF2269460A7003F0C5F9694698
:10548000087808BD10B5FF217F2000F001F810BD9D
:1054900010B503F059FA10BD10B5034A13210348A3
:1054A00001F032F810BD000004D6FF1F30D9FF1FF5
:1054B00010B500241346002802D00224204610BD57
:1054C0000A4619460148FFF77BFAF7E727D9FF1F7D
:1054D00010B50249087003F0A9FE10BD68DAFF1F7D
:1054E000FFB599B00026079607AA089600F0F6F9CE
:1054F00005460A287CD20446062044432046203034
:10550000C0B26A460E2106F05BFB002802D1684655
:105510008089C6B21B984149099049781C98022994
:1055200013D000211791082811D020462130C7B28E
:105530001C2200216846FFF749FA6A461C213846BA
:1055400006F03EFB002805D010E00121EAE72046E6
:105550002230ECE76846807EC01F092806D8F10794
:10556000C90F6A46179B0998FFF736FA14220021E3
:105570000BA8FFF72BFA20462430C0B20BAA10214B
:1055800006F01EFB002812D11022FF210BA8FFF706
:1055900029FA00280BD12534E0B20FAA042106F025
:1055A0000FFBF107C90F0BAA1B98FFF721FA703503
:1055B000E8B210AA102106F003FB002811D110A8B0
:1055C00003F025FE002410ADA00040190188002939
:1055D00003D082781B9800F0F3FF641CE4B2042C23
:1055E000F2D3B00704D50D4801781B9800F0D6FF20
:1055F0001C9804280FD10949487802280BD14A7910
:105600001B98002A00D001228978002900D00421AB
:105610001143FFF7F3F900201DB0F0BD68DAFF1F5A
:1056200070B50024054600290BD108491046FFF744
:10563000EBF908462946FFF7EDF9040003D00121F4
:105640002846FFF7EDF9204670BD000040420F00EC
:1056500070B52A4D0C46080426D52878FFF7E6F9E0
:1056600005001ED00178B02908D0B1290ED0D0296C
:1056700014D100F045F8002810D112E001791E295C
:105680000CD16888002100F085F907E00179002934
:1056900004D10289C188688800F064FA2846FFF7BF
:1056A000CBF90120C00325E0A0070DD50021084655
:1056B00003F09AFB002805D001212878FFF7C2F9F2
:1056C000022017E0022070BDE007FCD0E869808866
:1056D00003F03AFE00280FD0A869002807D04368DD
:1056E000002B04D0E869002280880121984703F04C
:1056F0006DFB0120604070BD012070BD68DAFF1FA6
:105700007FB582786B4C921FA1691300FFF7A0F957
:105710000AACD0D0631B06D0D05A75D005460029FC
:1057200008D00E68002E05D06B7B2A7B6989E81CA7
:10573000B047BDE069896069FFF76CF90028F8D0CF
:10574000688901218AE005464078002829D1A87996
:10575000C00726D0E069002823D10E220021684628
:10576000FFF734F96969002903D006226846103131
:1057700007E0A888FFF772F900283DD0811D0622B6
:105780006846FFF71DF969468889A9794907C90F55
:105790000843694688812946684603F025FB0028AE
:1057A00009D0A069002827D04368002B24D06A784C
:1057B000A88801214FE002212078FFF743F900205B
:1057C00004B070BD002973D04B68002B70D04278B4
:1057D000808802213FE00446C0780022211D00F0AD
:1057E0007DF80A2864D20621484325302246C0B2FB
:1057F0000C32042106F00CFA5AE00546A079002884
:1058000002D0A888E17929E060780028A88824D00F
:10581000FFF724F90646A87AC0070DD0002E47D01E
:105820007079002808D0A989890505D46A46B11D78
:1058300000F054F8002814D02A467179A88808325C
:1058400003F06EFBA069002832D04368002B2FD0F4
:105850000022A888114698472AE00521FFF7E0F8C2
:1058600026E0A8880321F9E7FFF7FEF800281FD1FA
:10587000E07A0026012805D00F4D0024285D01287C
:1058800009D00CE003F004FCE6720A2200210A4869
:10589000FFF79CF807E0204603F006FC2E55641C39
:1058A000E4B20A2CEAD3502006F088F903F0BEFCDB
:1058B000012085E768DAFF1F24F4FF1F10B5064CAE
:1058C000A0612178FF2905D02620FFF7D3F82078A2
:1058D00000F014FE10BD000068DAFF1FF0B50A24C6
:1058E00085B016460F46002807D0012805D00A25A6
:1058F000022810D0032847D11FE0084603F046FCD9
:1059000004460A2840D2002E3ED0062239463046B0
:10591000FFF756F838E01E4F002400910E20604338
:10592000C0190622801D0099FFF7AAF8002823D18C
:10593000641CE4B20A2CF1D31CE0002420460621AA
:1059400048432330C0B26A46102106F039F90028D6
:105950000CD11022FF216846FFF744F8002805D13A
:1059600039466846FFF792F8002805D0641CE4B277
:105970000A2CE3D32C4607E00A2C05D2002E03D0D4
:105980003146204603F028FC204605B0F0BD00005B
:1059900098F3FF1F70B50E4617491525884212D19E
:1059A000002432460221204603F046FB002800D0A6
:1059B0000025641CE4B20A2CF3D3002E1AD00F4841
:1059C000FFF76AF816E0FFF749F8040011D0607994
:1059D0000022A11DFFF782FF0A2804D232460221CD
:1059E00003F02AFB0025002E04D0204603F04CFCD7
:1059F00000E01425284670BDFFFF00008992FF1FBC
:105A0000FEB5154601229202821A00240127524E49
:105A10001300FFF71DF8110A11161D242B333A3F0E
:105A20004772798189979752970001297ED128780A
:105A300002287BD870708DE0022977D12888F08108
:105A400088E0012972D1287801286FD8B07081E0F0
:105A500001296BD12878042868D8F0707AE00129F0
:105A600064D12878012861D8307173E010295DD1A4
:105A7000102229463948FEF7A3FF6BE0012955D1D2
:105A80002878012852D8707164E001294ED1287815
:105A900030725FE0042949D131492868884245D8ED
:105AA000706157E0002941D1FEF7DEFF002801D0E8
:105AB000F7724FE003F0ECFA19E0072936D106221D
:105AC000691C6846FEF7EEFF287800226946FFF75A
:105AD00005FF05460A280ED2FEF7C6FF002803D0B0
:105AE0001E489C30475535E0284603F0DDFA50202B
:105AF00006F064F823E002242CE0012916D128786E
:105B0000012813D8B07125E001290FD12878092880
:105B10000CD8F0711EE009E0012907D12878C11FD7
:105B2000092903D8707215E0012901D0182411E069
:105B3000B17A2878B07200290CD101280AD103F07B
:105B400075FB07E02728D6D20229D4D12988FEF791
:105B500091FF04462046FEBD68DAFF1F88F3FF1F51
:105B60003F420F00F8B50F461349152516468842E7
:105B70000DD1002432463946204603F08FFB002821
:105B800000D00025641CE4B20A2CF3D312E0FEF727
:105B900065FF00280DD04379811D00221846FFF7CC
:105BA0009DFE0A2806D23246394603F077FB0025CF
:105BB00000E014252846F8BDFFFF000070B50C4634
:105BC0000146032000020A1A002534481300FEF79C
:105BD0003FFF1D1012151C1F2326282C303234388D
:105BE0003A3C3E40424446484A4E50525A54565817
:105BF0005A00C07911E01022294902E028491022F8
:105C000010312046FEF7DCFE45E0C06A206042E02D
:105C1000224906223C31F4E7007820703BE080897D
:105C200036E01E4942784231EBE71D4982781F3940
:105C3000E7E7007AF1E7407AEFE7184906223031CA
:105C4000DFE7807AE9E7C07AE7E7C08920E0808A69
:105C50001EE0C0781CE0808B1AE0C08A18E0008B40
:105C600016E0408B14E00D4906223631C9E7C08B9F
:105C70000EE0008C0CE0408C0AE08079CDE7008AD1
:105C800006E0408A04E0272904D20846FEF710FF08
:105C9000208000E00225284670BD000010DBFF1FB9
:105CA00063F4FF1F70B50E4C00256071A571691E6D
:105CB000E181FEF703FF0420E07110220021094872
:105CC000FEF784FE0748102200211030FEF77EFE0A
:105CD000E562257265720120A072E57270BD000058
:105CE00010DBFF1F63F4FF1FFEB53B4D0C4608049D
:105CF0000CD56879FEF79AFE050004D003F098FCF5
:105D00002846FEF799FE0120C00360E0600403D539
:105D1000012080034840FEBD2F48E107012680791D
:105D200000292AD02978002920D0052821D0297AD5
:105D300068460170697A4170274906223031801C1B
:105D4000FEF73EFEA97A68460172E97A4172694619
:105D50006879FEF7B9FE002808D00720A871696AA3
:105D6000002903D00968002900D0884720467040E8
:105D7000FEBD032069460870E4E7A1070DD505289C
:105D800009D1E889FEF7A6FEAA8A002A03D00221DB
:105D90006879FEF7A5FE022019E0600704D500200F
:105DA00003F0B2FC042012E0200712D52879012864
:105DB00002D002280AD107E000966B8B2A8BE98A71
:105DC000A88B00F00BF801E000F05AF908206040C1
:105DD000FEBD0020FEBD000010DBFF1FF8B5134C18
:105DE000069EA579052D01D01420F8BD104F851F02
:105DF000BD4219D2062917D3BD1DA94214D2FF27CF
:105E0000F537BA4210D20A2B0ED3AB420CD2A08384
:105E1000E18222836383304603F076FC04216079BB
:105E2000FEF764FE0020F8BD1820F8BD10DBFF1F50
:105E30007A0C0000F7B50D468049009816464218C6
:105E40007F4F00247879B9791300FEF701FE190E0F
:105E5000141BE92040455970777E888FE996A2A9E6
:105E6000B4BFC8E9E9E9E9D3E900102D76D11022E1
:105E7000314674486FE0102D70D1724810223146BF
:105E8000103068E0042D69D13068F862CEE0012D51
:105E900064D13B7832783A70002B0AD0002A07D1BF
:105EA000022903D0062901D0042901D1FEF724FEDE
:105EB000BCE0002A0AD0012905D0032903D0052916
:105EC00001D0042902D10121FEF7BCFDAEE0022D74
:105ED00044D13088B881A9E01F2D3FD858481F22EF
:105EE00000214230FEF772FD55482A4631464230C5
:105EF000FEF766FD524B7D7042332A46012112E0C7
:105F00001F2D7CD84F481F2200211F38FEF75EFD51
:105F10004C482A4631461F38FEF752FD494B2A4667
:105F20001F3BBD7000217879FEF7ECFD83E0012D69
:105F300065D13078042862D8387277E0012D5ED1BF
:105F4000307803285BD8787270E0062D57D13C4832
:105F5000062231463030FEF733FD67E04FE0012D79
:105F60004DD1307807284AD8B8725FE0012D46D16C
:105F70003078032843D8F87258E0022D3FD1328898
:105F8000BA82002A52D0052950D10221FEF7A8FD7D
:105F90004CE0012D33D13078012830D8F87045E03D
:105FA0003088022D2BD1062829D31921C901884216
:105FB00025D8B8833AE03088022D20D106281ED398
:105FC0001921C90188421AD8F8822FE03088022DA1
:105FD00015D1FF21F531884211D2388326E030886F
:105FE000022D0CD10A280AD31921C901884206D8EA
:105FF00078831BE03178012D01D1012901D01824CB
:1060000014E00821FEF784FD002801D016240DE0DD
:10601000002003F079FB04217879FEF767FD05E0A5
:106020000098272801D2022D02D002242046FEBD6E
:106030003188FEF71FFD0446F8E70000FFFCFFFF74
:1060400010DBFF1F63F4FF1F1CB50B4CA179002967
:1060500001D011201CBD002800D06062064907480D
:106060002C31034601910090103B0022E1796079C8
:1060700000F016F800201CBD10DBFF1F73F4FF1F9B
:1060800010B506488179052901D0122010BDC189BB
:1060900013224079FEF742FD10BD000010DBFF1F08
:1060A000F8B51D460224069F079E0B00FEF7D0FCA4
:1060B0000511041111041100FEF736FD040008D18A
:1060C000324639462846FEF735FDFEF739FDFEF724
:1060D0003DFD2046F8BD0000014610B50020C9076F
:1060E00004D0034A0421034800F00EFA10BD00005A
:1060F0002CD6FF1F90DBFF1F10B5002309E01C0109
:106100002418E468944202D11901081810BD5B1CE0
:106110009BB28B42F3D3002010BD000070B50F4D31
:106120000F4CA87029461431204600F01DF80021BC
:1061300028460B460C30CA0084521218491C090626
:106140005360090EF7D0012003F01AFFA878FEF77C
:1061500003FD0448FEF706FD70BD000074DBFF1F61
:10616000FFFF0000D597FF1F70B50A4C0025A04225
:1061700009D1002082008C525218401CC0B2957088
:106180000228F7D370BD03F0F4FA0028FAD0048097
:10619000857070BDFFFF0000F8B50E4607460699F2
:1061A00000240798002902D00B242046F8BD022BBA
:1061B00001D00D24F9E711785278120289188DB2B6
:1061C0002946814301D08024EFE73846F16800F08A
:1061D0008DF9A842E9D02A463846F16800F01CFA49
:1061E0000400E2D171892A46384600F0BBF9DCE7A9
:1061F000FFB506460020C3B0234F05460490A80013
:1062000084192088B84238D0A078002835D0449A24
:106210004C994698FFF770FF039000282DD01B483B
:1062200005A900780231C01EC0B200910290002280
:106230004698019242894B1C2088039900F044F84B
:1062400000281AD10398694640898882A078C0073F
:1062500007D0208805A9459AFEF78AFC04990843CF
:106260000490A078800708D5208805A94D9B459A01
:10627000FEF784FC0499084304906D1CEDB2022DD6
:10628000BDD3049847B0F0BDFFFF0000EC10FF1F26
:1062900070B50C46080412D50A488078FEF7C6FB94
:1062A000050008D02878B02802D1284603F07CFBEE
:1062B0002846FEF7C1FB0120C003604070BD0020EE
:1062C00070BD000074DBFF1FFFB587B0087A0025A2
:1062D000109E1C460F46C0060DD5099803F042FAE1
:1062E000030006D00A22394607989847050035D1A1
:1062F00001E00E2532E0387802281DD17868292285
:106300000178407812020002081880B2811A904287
:106310007ED009DC7249401A23D0012821D00228FE
:1063200051D0032808D125E0012972D0022971D06B
:1063300003296DD004296ED0099803F03BFA002898
:10634000D7D00568002DD4D01299119801910090F2
:106350003346224639460798A847054628460BB0DB
:10636000F0BD1198002873D1F86801783170027877
:10637000416897E0119800286AD101203070F868D0
:106380000021007820707889401C80B2FEF7FCFB69
:1063900000280FD0317802788918891C3170817AF1
:1063A00061704189090AA17002784168E01CFEF71A
:1063B00007FBD3E730780422001D30700021601CF9
:1063C000FEF704FBCAE71198002872D1F86804A907
:1063D0000088009004203070009820700098000A17
:1063E00060700098FEF7D0FB070028D0F868059091
:1063F0006846028A03AB3B493846FEF7CBFB0028D0
:106400000FD13B78022138487A68FEF7C9FB03E0D8
:1064100027E031E01DE049E0002802D1314869461B
:1064200088810598007802280CD1059802224168DD
:10643000201DFEF7C5FA3078801C307002E06946F6
:106440000098888168468089A070000AE07085E71E
:106450002FE0119800282CD1F968079800F046F831
:1064600004E01198002824D1F868008802213170D6
:106470002070000A607071E7F868FEF797FB1199C9
:10648000C0B2814210D8814201D1002206E0129AA6
:106490008918814202D31199401AC2B23270F96848
:1064A00011980918204682E7072557E71198002818
:1064B00001D00B2552E70721F8683170017821706F
:1064C000417861708178A1704188090AE170017991
:1064D000217181796171C088000AA0713EE70000D6
:1064E00000280000FFFF00001E7C010010B503F033
:1064F00040F9002800D0807810BD000001490870E4
:106500007047000074DBFF1F7CB51446050019D0EE
:10651000684601950180FEF74FFB03001DD1002C5A
:106520001BD06D89002D0DD00C20FEF74BFB0028F1
:106530000AD0002303608580094A846051680029DD
:1065400004D006E0022308E0132306E0506004E0D4
:1065500011460A68002AFBD1086018467CBD00007D
:1065600074DBFF1FF8B50C4C0746207815460E4625
:10657000FF280FD00A20FEF72BFB01000AD0B12024
:1065800008700020487008714F80CE800D812078FF
:10659000FEF724FBF8BD000074DBFF1F70B50C464E
:1065A00005460649FFF7A2FF800704D52146284685
:1065B000FEF71AFB70BD012070BD000088DBFF1FD5
:1065C0001CB56B461A71120A5A71002200920223FE
:1065D00001AA00F001F81CBDFFB583B008461E46B5
:1065E00001A90C9FFEF7D0FA050012D068468088FA
:1065F00003F0E0F800280AD04468002C07D0009788
:10660000F3B22946059A0398A04707B0F0BD0E20C3
:10661000FBE70120F9E7000070B514460E46054679
:1066200003F0A7F8002806D13146054803F0A1F889
:10663000002803D005808470002070BD112070BD3B
:10664000FFFF0000014610B50020C90704D0034A2F
:1066500007210348FFF758FF10BD000018D6FF1FA1
:106660009CDAFF1F70B50D46164600241D49030035
:10667000FEF7EEF908051234341934222934152DA9
:1066800023D8162200211848FEF7A0F92A463146E1
:106690001548FEF795F922E0022D16D11149108810
:1066A000103908801BE0082D0FD10E480822314612
:1066B0000838FEF71DF912E0012D06D1CA69094913
:1066C0003078283107E0012D01D0182407E0CA6B8B
:1066D00004493078483103F008FD00E002242046E8
:1066E00070BD00009CDAFF1F2EF4FF1F70B5224C16
:1066F000607800282CD02078002829D1E0783B2829
:1067000026D861790025002908D0207901F0BEFA49
:1067100021791E291DD3FF3186311CE001F0B6FA24
:10672000E1781E2902D3FF31863101E0FF312E319D
:1067300012A005F07BFBE0783B2801D3E57001E077
:10674000401CE070E0780D38042801D3012060710E
:1067500070BDFF312E3109A005F068FB20792E288D
:1067600005D0102805D0401C2071657170BD0D202A
:10677000FAE72B20F8E7000038DEFF1F0D0A204A59
:10678000756D70204672657175656E6379206F66F0
:10679000202564200D0A000010B507490748FFF7BF
:1067A000E3FC0748FEF7DEF90348064A07210830F4
:1067B000FFF7AAFE10BD0000D8E2FF1FFFFF000098
:1067C000C967FF1F58D7FF1F10B504460848844209
:1067D0000DD0012907D0022909D101212046FEF759
:1067E00009FA002803D103492046FFF7BDFC10BD7C
:1067F000FEFF0000D8E2FF1F30B5039C0020002CF4
:1068000001D00B2030BD4C682578647824022C1907
:10681000054DA4B2AC4205D101241C70C9680978A9
:10682000117030BD0A2030BDF2360000F8B548685E
:10683000174601784078284A00020818002680B2DE
:1068400026491D46904245D0884243D1244C208899
:106850004119FF2909D823491A4608183946FEF775
:1068600047F82088401920800AE0FF2101311D48A7
:10687000FEF757F82A4639461A48FEF739F82580B8
:1068800078192038817F792924D1C07F7E2821D1B1
:10689000608800280BD1FF2101311348FEF741F831
:1068A000228810491048FEF723F8208860800025D0
:1068B0000D4F04E0795D0DA005F0B8FA6D1C6288FB
:1068C0009542F7DB0025FF21658001310548FEF781
:1068D00028F825803046F8BD02290000F136000076
:1068E000D4E2FF1F70040020700500207056616C18
:1068F00075653A2523782C206C656E3A25640D0A5F
:1069000000000000F0B58DB0FEF77AF9FE4908608E
:106910000420FEF77BF9FEF77FF90546C0071DD07E
:10692000FA480024046072B6FEF77CF9F84EFA4F7C
:106930003146FF310D310691891C0291891D039169
:10694000FF36F449013602280CD001287ED0F34AE4
:10695000089205287BD004287AD09BE2FEF768F9DC
:106960000DB0F0BD6A0507D5EA490A78012A07D0BB
:10697000032A05D0022A03D00978052969D0ECE75B
:106980000720FEF743F908AB0AAA07A90698FEF705
:1069900055F90546FEF758F9002805DD7868401CD2
:1069A0007860684600258483317B08074906000F1C
:1069B000C90F002D01D0032806D00528D54874D072
:1069C0000078012872D05EE3D2480078012801D017
:1069D0000328F8D1D0488038026A521C0262D0489D
:1069E000327DC3799A42EED1727D037A9A42EAD11E
:1069F000B27D437A9A42E6D1F27D837A9A42E2D11D
:106A0000327EC37A9A42DED1727E037B9A42DAD119
:106A1000C44B0022DB689B8D1B072DD5C07B012852
:106A200001D0032828D1C04BD000801A1D5C8D42B4
:106A30001DD1C018B57B4778BD4218D1F57B87784A
:106A4000BD4214D1357CC778BD4203E09DE1C2E36D
:106A5000FEE3F3E00BD1757C0779BD4207D1B57C2D
:106A60004779BD4203D1F57C8079854202D0521C22
:106A7000082AD9DB082A1AD0A74D803DA86E401CF1
:106A8000A866AA480068002802D0804700289AD04B
:106A9000FEF7E0F8A64F01263E70FEF7B1F89A49DE
:106AA0000968884209D9401A0AE02EE0B4E09A4801
:106AB0008038C16A491CC16285E79E4A511A08188C
:106AC00098497623C968181A0A79801A4A6C096CA1
:106AD000D2B2C9B2C0B2FEF7C3F8FEF7C7F88B480E
:106AE00006603C70FEF7C8F8FEF7CCF89248808A42
:106AF000010A9148891C1430FEF7CAF80E20FEF7EF
:106B000085F8686A401C68625DE70478012C01D052
:106B1000022CD1D180488038826A521C8262804A1D
:106B2000307DD3799842C7D1707D137A9842C3D112
:106B3000B07D537A9842BFD1F07D937A9842BBD111
:106B4000307ED37A9842B7D1707E137B9842B3D10E
:106B5000744B0020DB689B8D1B0728D5012C26D1A8
:106B6000D27B022A01D0032A41D16F4BC200121AF4
:106B70009D5C8D4218D1D218B57B5778BD4213D198
:106B8000F57B9778BD420FD1357CD778BD420BD1CC
:106B9000757C1779BD4207D1B57C5779BD4203D1C9
:106BA000F57C9279954202D0401C0828DEDB022C4D
:106BB0001BD1624A14788C4228D1B37B5478A3420B
:106BC00024D1F37B9478A34220D1337CD478A342A0
:106BD0001CD1737C1479A34218D1B37C5479A3429D
:106BE00014D1F37C9279934210D108280ED04A48F0
:106BF0008038826E521C8266504806220170401C0A
:106C00000299FDF7DDFEFEF749F8DCE642488038E0
:106C1000016B491C0163D6E64148417BCA0701D09C
:106C2000252104E0890701D5262100E02721007DE8
:106C30008842EAD93220FEF737F824E20720FDF730
:106C4000E5FF31483E4900680968884201D9411A88
:106C500002E0384A511A09183A4802688918016056
:106C6000680518D508AB0AAA05A90698FDF7E6FF3E
:106C70000490307B05072D0FFDF7E6FF002805DDAA
:106C80007868401C78606846848204E00498002894
:106C900001D0042D21D004F0B3F92B4D288A01280E
:106CA00067D0FEF707F8298AFDF7AEFE491CE98296
:106CB000244EA889254932684143914263D8A97C72
:106CC000491CC9B2A974272900D92521A974698949
:106CD000884251D1FDF7F4FF53E0307B039A400620
:106CE000C10F6846808A00920838C3B20898029A99
:106CF000000E404245B204200195FDF7E7FF06482B
:106D00008038816B491C23E05C12FF1F5812FF1F63
:106D1000E81EFF1F1D12FF1F503CFF1F6832FF1FA0
:106D20002C1DFF1F60E3FF1FAD1EFF1F8012FF1F02
:106D30005312FF1F40420F00E820FF1F4412FF1FA5
:106D40008412FF1F7812FF1F421DFF1F71020000F7
:106D50008163FC480475C17C491CC9B2C174022915
:106D60009BD1018A4908018201D101210182C474A9
:106D700093E70120E8829BE7081AF3494843FDF7AF
:106D800093FF34607FE1A87C22E2F049097805296D
:106D900001D006297ED10620FDF738FFEB480178A7
:106DA000052902D0062976D06DE100200590A805BE
:106DB00014D5680512D508AB0BAA07A90698FDF7EC
:106DC0003DFF0190307B05072D0FFDF73DFF0028AB
:106DD00005DD7868401C786068468483E4E00198AB
:106DE000002839D0002D05D0012D03D0022D01D06F
:106DF000062D31D1317B00204906C90F0491D449B9
:106E0000C968898D09072AD5CE49897B012926D1F0
:106E1000C100D04A091A535C049A934219D1CD4B50
:106E2000B27BC9184B789A4213D1F27B8B789A4285
:106E30000FD1327CCB789A420BD1727C0B799A427B
:106E400007D1B27C4B799A4203D1F27C89798A428C
:106E500003D0401C0828DBDBA6E008287CDAB94810
:106E6000BD49827C0A60417A012974D1002D01D08C
:106E7000062D70D1C18A002900D0491E0904B148ED
:106E8000090CC18267D1B648B4498180B548006811
:106E9000002801E020E2B0E002D0804700285AD06C
:106EA000B149012008700A20FDF716FF9E20FDF76A
:106EB00019FFFDF7A5FEAD490968884201D9401ABE
:106EC00002E0AB4A511A08187621091AA048C06896
:106ED0008030007F081A0590FDF70AFF05983422DC
:106EE000C0B20821FDF7BCFEFDF7C0FE3869A1491C
:106EF000401C386101200860FDF7BEFEFDF7C2FEB0
:106F00000320FDF7FBFEB089402108408D49400079
:106F10000A78934FD207520E1043BA88491C104387
:106F2000B8800622B81DFDF74BFDB07B3873F07BAF
:106F30007873307CB873707CF873B07C3874F07CF4
:106F40007874B888010A381D891CFDF7A1FE01205C
:106F500005908548047000E026E02B00FDF778FDE1
:106F60000705090B050D05070500002006E00220B6
:106F700004E0012002E0032000E0FF200899039ACA
:106F8000090E494249B2019100926946898B029AE1
:106F90000839CBB20499FDF799FE7748416B491C3B
:106FA0004163059800286ED17048016873480068F5
:106FB000814201D9081A02E06D4A101A4018704D3A
:106FC000614B296841185F482960828953438B428D
:106FD00011D8817C491CC9B28174272900D9252187
:106FE0008174EDE0FDF76CFEEFE05749801A4843ED
:106FF000FDF75AFEE9E0807CEAE0A80567D5680560
:1070000065D507AB04AA03A90698FDF717FE029001
:10701000307B05072D0FFDF717FE002805DD78688A
:10702000401C78606846848151E0029800284ED068
:10703000002D01D0012D4AD1307B4006C30F5148AD
:10704000C07B002802D001281ED040E04E480178C5
:1070500099423CD1B17B4278914238D1F17B827820
:10706000914234D1317CC278914230D1717C027925
:1070700091422CD1B17C4279914228D1F17C807926
:10708000814224D12FE0BFE2324A0020C100091A18
:10709000555C9D4218D18918B57B4F78BD4213D1FC
:1070A000F57B8F78BD420FD1357CCF78BD420BD1B7
:1070B000757C0F79BD4207D1B57C4F79BD4203D1B4
:1070C000F57C89798D420ED0401C0828DEDB2D48E6
:1070D000017A00295AD025490A68284909688A4254
:1070E0005AD9511A5BE0204E01253570FDF788FD15
:1070F0001E490968884201D9401A02E01C4A511A07
:1071000008187621091A12482822C0688030008C9D
:10711000081AC0B20821FDF7A3FDFDF7ADFDFDF78C
:10712000B1FDFDF797FDFDF7A1FD124805600C4884
:107130008188001D090A891CFDF7AAFDFDF7E4FD01
:1071400034701BE3421DFF1F710200001D12FF1F60
:1071500060E3FF1FAD1EFF1F8812FF1F030C00001E
:10716000E81EFF1F7C12FF1F5312FF1F5C12FF1F40
:1071700040420F005812FF1FD03BFF1F8412FF1F19
:107180007812FF1F5A1DFF1F4412FF1FFE481021D7
:107190000470FE48007835E2FD4B591A8918FD4D00
:1071A000FD4B2A6889182960828953438B420ED887
:1071B000817B491CC9B28173272900D9252181739C
:1071C0004089824200D010E70CE72C60D6E2807B39
:1071D000FDF7A0FDD2E2097807297DD10B20FDF74C
:1071E00015FDEE49FF22097839325143EC4A00205F
:1071F0008B185870EB4E50543068002804D0FDF7BF
:107200008FFD3178C84005E0FDF78AFDE649096841
:10721000FDF7FAFB0590E80535D53068002804D065
:10722000FDF784FD3178C84005E0FDF77FFDDE49BC
:107230000968FDF7E9FBD94904460878FF2239328D
:10724000D74E504380190279002A03D0002200E073
:10725000E9E0027102467832911E753005F0BAF805
:107260000598011BD148C068C0680918D048016062
:10727000680528D5C949FF220978393201205143D0
:10728000891948701FE0C54801210278FF20393074
:107290004243C3488154C74910184B6E20305B1CD1
:1072A0004B66C249C9680B690599FF390F395B18EC
:1072B000BF490B60407F4100BF480818FF300130D4
:1072C000018D491C018521462846FDF735FDFDF756
:1072D00039FD0446B94900E0A8E0087000200872B2
:1072E00048728872C872B648054205D0B148026E2D
:1072F000521C026601200872A848FF220078393229
:107300005043A74AAD4983181846FF30213006790B
:107310008A1DFF334079491C2533FDF719FD0246CC
:107320009E48FF210078393148439D494018014665
:10733000FF3121314A710279002A0BD102220979E9
:10734000164011408E4205D09C494A78002A01D14E
:1073500001224A709B49496896230904090E03914A
:107360001B5C8E4A002B02D0FB681B19FB6020308F
:10737000407F914E40008019C030C18B17460919DB
:10738000C183FDF7EBFC01463878FF2239325043C8
:10739000834A80182030407F400080198030828AE4
:1073A000891881820AAA07A906A8FDF7DDFC3878AA
:1073B000FF21393148437A4940182030407F6946DF
:1073C0004000325A097F51183152801940306946C5
:1073D0004289097E51184181680705D50398844286
:1073E00002D22046FDF7C6FCFDF7CAFC7348002117
:1073F000754A81701378012B0DD1002C0BD0089B9E
:107400009B69002B04D0089B1B7FDB439B0702D0AA
:107410000123837011708079002801D0FDF7B6FC3C
:10742000FDF7BAFCE8E00978082906D0674F3A78FA
:10743000022A7DD0052A7BD0E9E00920FDF7E6FB92
:10744000564FFF2039783930554E41430022881974
:1074500042707254AA0510D5024678323C46911EFD
:10746000753004F0B7FF680513D52178FF22393253
:1074700001205143891948700BE0012272542030D9
:10748000407F41004C480818FF300130018D491CF5
:1074900001854B48054206D04648016E491C0166ED
:1074A000464901200872FDF74DFC04464348FF2180
:1074B00004703878393148433949404A4318FF202D
:1074C0002630C05C921DFF33511F25330390FDF71A
:1074D0003FFC01463878FF2239325043304A364E5D
:1074E0008018FF22263211542030407F400081193D
:1074F000C031C88B0019C883FDF730FC01463878CD
:10750000FF2239325043264A80182030407F400005
:1075100080198030828A8918818207AA06A905A865
:10752000FDF722FC3978FF20393041431C4800E048
:107530006BE008182030407F69464000325A097ECF
:10754000511831528019403069464289097D5118DD
:1075500041811C4840680004010E0398222801D193
:10756000012906D0680704D58C4202D22046FDF7D7
:1075700001FCFDF705FC11480022134982700B78CD
:10758000012B32D1002C23E01D12FF1F1C12FF1F04
:1075900040420F007812FF1F710200004D12FF1FC2
:1075A0006C1DFF1F2410FF1F2010FF1F60E3FF1F33
:1075B0006012FF1FD03BFF1F203DFF1F9C3CFF1FA1
:1075C00002080000001003404B12FF1F2312FF1F90
:1075D0000BD0089B9B69002B04D0089B1B7FDB43CF
:1075E0009B0702D0012383700A708079002801D0A4
:1075F000FDF7CCFBFDF7D6FB70480078002803D0E0
:107600006F490988FDF71EFAB8E0002802D001286A
:1076100024D0B3E06B49002001264D7B01E0401CE3
:10762000C0B2334683401D42F9D00B7D25308342E2
:1076300002D0FDF7BDFB0BE0052A0DD04888810084
:107640004018C2086048012149030078FDF748FA54
:107650000520FDF7DBFA91E03C70F9E7012A7DD1C6
:10766000A80556D5680554D507AB08AA04A90698FD
:10767000FDF7E4FAB1890A07120F002849D0022A5F
:1076800047D1524A4906D2680020928DC90F12078D
:1076900028D54F4A927B012A24D14E4BC200121AA0
:1076A0009D5C8D4218D1D218B57B5778BD4213D15D
:1076B000F57B9778BD420FD1357CD778BD420BD191
:1076C000757C1779BD4207D1B57C5779BD4203D18E
:1076D000F57C9279954203D0401C0828DEDB18E047
:1076E000082816DA3A48827C3B480260079A039BD6
:1076F000120E524252B2019200936A46128A03203D
:10770000083AD3B2029AFDF7E1FA3448416B491CBA
:1077100041633348016833480068814201D9081A3F
:1077200002E0314A101A4018304D314B2968411897
:1077300027482960828953438B421CD8817C491C8D
:10774000C9B28174272900D925218174408901217A
:107750000903824206D11C48007800E00EE0FDF7E4
:1077600071F932E5801A82008018C210164800783C
:10777000FDF7B6F929E5807CFDF720FB1D4C20784C
:10778000042802D0032809D00CE0FDF71DFB0028D7
:1077900008D0FDF70DFB0220207003E00C48807C30
:1077A000FDF70CFB14480068002801D1FDF740FAF2
:1077B00062B60320FDF72AFA0DB0F0BD5112FF1F8B
:1077C0005612FF1F2C1DFF1F1C12FF1F60E3FF1F1F
:1077D000421DFF1FAD1EFF1F8812FF1FD03BFF1F62
:1077E0005C12FF1F8412FF1F40420F007812FF1F20
:1077F000710200002312FF1F5812FF1FF8B5024646
:107800004348017809294BD00A2949D00B2947D090
:107810000C2945D00D2943D03E4FB87B002807D016
:10782000012805D0032803D0022801D0042814D150
:10783000BB79002B01D0012B0FD1032801D00228E6
:1078400002D17888A02808D3334D344E2878337875
:107850000024002A34D0012A01D01220F8BDBA88B1
:10786000012A1DD0282201290AD0022908D0042982
:1078700006D0032904D007290BD0082909D00FE02E
:10788000274804603A75FDF7A5FA002815D0BC809A
:1078900006E02449C968898D890601D5002B01D0ED
:1078A0002120F8BD022131700C033A752146FDF705
:1078B0001DF921462878FDF7C5F80120B88025E09C
:1078C00072B6BC80124A072908D0082906D0147065
:1078D000FDF786FA1E20FDF799F916E000217A7B64
:1078E00001E0491CC9B201258D402A42F9D0022B82
:1078F00006D13A7D25318A4202D00520307004E05D
:10790000012134704903FDF7F1F862B60020F8BD9B
:107910001D12FF1F2C1DFF1F1C12FF1F2312FF1F14
:107920002812FF1F60E3FF1FF8B5434F84463A78E3
:10793000092A45D00A2A43D00B2A41D00C2A3FD02D
:107940000D2A3DD03D4C607A002801D001281AD183
:107950002078002801D0012815D1658938482B1FCF
:10796000834210D2A3891E1F86420CD2AB420AD892
:10797000002901D0012906D16046324B324D002842
:107980002AD0012801D01220F8BD207A012817D072
:1079900025200126002A04D0072A0AD0082A08D068
:1079A0000EE0E671E173A07405203870FDF788F9E8
:1079B00010E0E968898D490602D51978002901D0BF
:1079C0002120F8BDA07421481E7001210903007810
:1079D000FDF738F826722CE072B60026052A04D08E
:1079E000072A07D0082A05D005E03E701E20FDF7C3
:1079F0000DF900E01E7026725820FDF773F962B68B
:107A0000FDF7FEF8124E134C28610FE0FDF7F8F871
:107A10002969884201D3401A01E0711A0818686187
:107A20007D22E969D2005143814202D320680128B6
:107A3000ECD00020F8BD00001D12FF1F421DFF1FEB
:107A4000FD3F00002312FF1F60E3FF1F1C12FF1FFA
:107A500040420F005812FF1F0A4991B008780128D0
:107A60000ED003280CD002280AD100206A460B1839
:107A70005B781354401C4028F9DB002010A90870E3
:107A800011B07047D408002005480078012806D0BE
:107A9000032804D0022802D1401C0628FCDB7047D2
:107AA00080E3FF1F70470000F8B50178012901D07D
:107AB00002294AD14068284C05782649E0780D54BF
:107AC000401CC0B2E070A278002A3ED10027234EAD
:107AD000012802D002280BD105E01E480078412879
:107AE0001FD0E7701DE01B484078542800D0E77095
:107AF000E078091820398A7F0D2A02D1CA7F0A2A24
:107B000007D03C280DD940220021124803F012F87A
:107B1000E7E7401E20708F77E77004213078FCF78C
:107B200091FF312D09D0322D09D0332D0ED0342DB7
:107B30000ED0352D09D1052002E0012000E0022001
:107B4000607004213078FCF77DFFF8BD0320F7E773
:107B50000420F5E7ECFDFF1F24DEFF1F35DEFF1FCD
:107B6000F8B50446002003460A5C8507ED0EAA40DE
:107B70001343401C0428F7DB00F078FD0028FBD1FC
:107B800001F0A4F821022004090E0843FF273F0258
:107B900021463940084372B600211A4DA960194E9A
:107BA0000002803E801C3060336062B600F05EFDF3
:107BB0000028FBD100F0AEFF112000062018694616
:107BC0002A695207FCD572B60422AA600402020494
:107BD000240E2243384002431002C01C306062B6BB
:107BE00028694007FCD530780870307848703078C4
:107BF00088703078C8700098984201D00020F8BD95
:107C00000120F8BD8000081110B51020FDF78FFB92
:107C1000FDF7DBFB0020FDF7AEFBFDF7DBFB10BD46
:107C200010B5FDF707FCFDF7E4FB0C221649002018
:107C3000FDF783FB14490C220C311046FDF77DFB48
:107C40001149082208391820FDF777FB0E49182240
:107C500018312020FDF771FB0B491D2230313820EF
:107C6000FDF76BFB08490B224D315520FDF765FBF5
:107C70000920FDF7FEFBC108C900022001430920CD
:107C8000FDF706FC10BD0000F0D6FF1F10B503F095
:107C9000A5F9084C082218206168FDF74EFB0B225D
:107CA0005520A168FDF749FBFDF794FBFDF78DFB1F
:107CB00010BD000064040020F0B57F4DC7B06872AD
:107CC0007E48FDF793F806211F20FCF7D3FE002421
:107CD00068460472072101730482182181831927E1
:107CE0007F010784FF218484F531018574A103C9D4
:107CF00000907548019101786846017505AA012137
:107D00007248FEF797F871486A460621801CFEF714
:107D100091F8C32003AA01218000FEF78BF8012609
:107D200068460676694806AA3146001FFEF782F8C3
:107D3000664804AA0221C01EFEF77CF82A4661208C
:107D400024321421C000FEF775F860482A46383204
:107D50001E21801EFEF76EF8312002AA01210001CB
:107D6000FEF768F8594807AA02210830FEF762F8C2
:107D7000564808AA02210930FEF75CF8534809AAC0
:107D800002210A30FEF756F8C5200AAA0221800017
:107D9000FEF750F82A46563215210020FEF762FC05
:107DA00039460620FCF766FE39460720FCF762FEDE
:107DB00039460820FCF75EFE39460920FCF75AFEDA
:107DC00043480090022168460171067204730674EC
:107DD00081206A460421C000FDF712FE012101AA9C
:107DE0008802FDF70DFE3A4802AA0121D038FDF7BE
:107DF00007FE374803AA0121CF38FDF701FE3448BA
:107E000004AA0121CC38FDF7FBFD641E2046FEF7D5
:107E100019FC2046FEF760F9FDF73EFB204600F016
:107E2000FDF82046FEF7B8FC2AA00FC86C460FC428
:107E30002C49684601822C4981820F21017600205D
:107E400007A901E0062801D2002200E002460A54F8
:107E5000401CC0B2FB28F5D36A461021002000F078
:107E600035F904AA0221012000F030F9022105AA07
:107E7000084600F02BF906AA0121032000F026F99C
:107E800007AAFB21042000F021F91849002008541A
:107E9000401CFF28FBDB0848103000F00DF90120E2
:107EA000FCF7AAFF0120FCF7ADFF0121687AFCF77F
:107EB000C9FD47B0F0BD0000D8DBFF1F15C8FF1F8C
:107EC00001020304050600001CD9FF1F090300007E
:107ED000D2040000FDA50693A4E24FB1AFCFC6EBDC
:107EE0000764782574270000ED6B00007BF7FF1F07
:107EF000F0B5464D85B00C4608040AD5687AFCF703
:107F000095FD002801D0FCF797FD01212046C9030B
:107F100024E0E0070126002810D03C481430FEF78A
:107F200093F83A481C30FDF7C9FC394A0221687AB7
:107F3000FCF7D6FD2046704005B0F0BD200708D5FF
:107F4000684606706A4601213248FDF773FF082033
:107F500057E0A00504D50846012149024840EBE757
:107F6000A00750D500272C4E36E0A889010A3170B1
:107F70007070002F22D1274803A91130FDF71EFE93
:107F8000244804A91230FDF719FE69460020FCF7C9
:107F90003FFF01A90020FCF741FF02A90020FCF7E8
:107FA00043FF68460078707468468088FF38FF3861
:107FB00002388010B0746846007AF074FCF73AFF1B
:107FC000C01EC1B2144A052004F022FE002806D1CA
:107FD000A889401CA8817F1C68788742C5DB6A8914
:107FE000002A07D0A87800280AD10221687AFCF775
:107FF00077FD05E00221687AFCF778FD0020A88172
:108000000220604098E7002096E70000D8DBFF1FC1
:1080100088130000050300007BF7FF1F70B50546BD
:10802000002409490948FEF79FF80948FCF79AFD22
:10803000E80706D00448074A18210830FEF764FA1A
:108040000446204670BD000058DCFF1FFFFF000003
:10805000E1CBFF1F84D6FF1F70B50C4601460025FB
:1080600012480B00FCF7F4FC0705080A0D101E1956
:108070001E0010220E490CE0408800E0808820801D
:1080800011E0007820700EE0FCF7D4FE0849C21E13
:1080900010312046FCF794FC05E0FCF7CBFEC21E35
:1080A0000449F6E70225284670BD000044DCFF1FA6
:1080B0007CF8FF1F82FAFF1F002803D00249886066
:1080C000002070471120704744DCFF1F70B5154633
:1080D000024600241C481300FCF7BAFC07050B14E9
:1080E0001D2233293300102929D80A46294617486A
:1080F00022E0022923D169782A780902114349BA7A
:1081000041801FE002291AD169782A7809021143B7
:1081100049BA818016E0012911D12978017011E056
:10812000FB290CD809480A462946103004E0FB29EF
:1081300005D80A4629460648FCF742FC02E0182406
:1081400000E00224204670BD44DCFF1F7CF8FF1FC6
:1081500082FAFF1F024901480860704740787D019C
:108160005CE3FF1F10B5054C607005A003F05EFED8
:10817000FA2202216078FCF763FE10BD34DEFF1F97
:1081800055736572207461736B203220696E697457
:10819000696C6973652066696E6973686564200D32
:1081A0000A000000F8B500240D46880703D5FEF745
:1081B0009DFA022049E0680749D526480121264F4B
:1081C00001703878254E0300FCF742FC060C0408C9
:1081D00022262A0C00210846B26802E000217269BA
:1081E000012090471E481F4902781F48FCF7E8FB12
:1081F0000C20604331581C4802F0D0FA002813D0FC
:108200000C206043801982680021204690470FE0CF
:1082100000210220326AE4E700210320F26AE0E74D
:1082200000210420B26BDCE7641CE4B2052CDFD330
:1082300040210C48FCF775FB40210B48FCF771FB13
:10824000002004493870087004206840F8BD002000
:10825000F8BD000026DEFF1F25DEFF1F9CD6FF1F96
:1082600024DEFF1FECFDFF1F84FEFF1F10B5064933
:10827000087000F0ADFA00F067FA0A2002F044FE40
:1082800002A003F0D3FD10BD34DEFF1F55736572ED
:10829000207461736B20696E6974696C6973652001
:1082A00066696E6973686564200D0A0010B50C4636
:1082B000C80703D003F0EAFD0120604010BD10B5EF
:1082C0007D21C003C900FCF79FFB00F001F810BD41
:1082D000F8B506460024FCF7B9FD05460648471BDD
:1082E00006E0FCF7B3FDA84201D3441B00E03C18B4
:1082F000B442F6D3F8BD0000FFFFFF0010B50446FE
:1083000002F056FB064902468B1A02F051FB9042DE
:1083100001D3801A00E01818A042F6D910BD000061
:1083200040420F00002805DBC106C90E012088402D
:10833000014908607047000000E100E08307FF2268
:10834000DB0E9A408907090E9940002808DB830854
:1083500009489B001B181868904308431860704731
:108360000007000F0838830804489B001B18D869D1
:1083700090430843D861704700E400E000ED00E05E
:108380008307FF22DB0E9A408907090E99400028D7
:1083900008DB830809489B001B18186890430843B2
:1083A000186070470007000F0838830804489B00D6
:1083B0001B18D86990430843D861704700E400E077
:1083C00000ED00E002E008C8121F08C1002AFAD13F
:1083D00070477047002001E001C1121F002AFBD145
:1083E000704710B5FCF738FD0120FCF73BFDFCF7AA
:1083F0003FFD002010BDF0B500248E464A1E12E05D
:10840000714600230D1B6D1E0AE09E0031188C463C
:10841000875949688F4202D9815161464F605B1C80
:108420009D42F2D8641C9442EAD3F0BD0C2148432B
:1084300010B512494418606802F0C0F981B2606852
:1084400002F00CFC0E480078002810D00D4801788E
:108450001E2902D3FF31863101E0FF312E310A4857
:1084600001800A4802680A4803F0E0FC03E0162194
:1084700008A002F0F3FB002010BD00009CD6FF1FF7
:108480003ADEFF1F64040020BCE2FF1FF40100205D
:10849000ACD7FF1F0D0AC3BBD3D0BBF1C8A1B9FD38
:1084A000C8CEBACEC3DCD4BF0D0A00000C214843AD
:1084B00010B506494418606802F080F981B260681E
:1084C00002F0CCFB02490020087010BD9CD6FF1FB3
:1084D00039DEFF1F0C21484310B507494418606876
:1084E00002F06CF981B2606802F0B8FB0349012028
:1084F0000870002010BD00009CD6FF1F39DEFF1F52
:108500000C21484310B50C494418606802F056F934
:1085100081B2606802F0A2FB08480078002804D00D
:108520000021032004F0C4F803E0162104A002F0A7
:1085300095FB002010BD00009CD6FF1F3ADEFF1FF8
:108540000D0AC3BBD3D0BBF1C8A1B9FDC8CEBACE0A
:10855000C3DCD4BF0D0A00000C21484310B51049FC
:108560004418606802F02AF981B2606802F076FB74
:108570000CA002F023F981B20AA002F06FFB0AA05E
:1085800002F01CF981B208A002F068FB05A002F01D
:1085900015F981B203A002F061FB002010BD0000BC
:1085A0009CD6FF1F0D0A000056332E312E310000DD
:1085B00010B586B0044614220FA16846FCF798F95E
:1085C000124930200870782048700620891C6A46BD
:1085D000A41D641E2378401E1B09D35C0B702378F6
:1085E00000061B071B0FD35C4B70891C000EF0D1DB
:1085F0000870064806B010BD303132333435363796
:108600003839414243444546000000006CF7FF1FE3
:108610003EB5002469462046FCF730FC641CE4B2F9
:10862000252CF7D3FCF730FC3EBD000010B5002030
:10863000054CFF212218401C51704028FADB03F042
:1086400055FD207010BD0000D408002010B500209A
:10865000054CFF212218401C51700628FADB03F05C
:1086600063FD207010BD000080E3FF1F0848016912
:108670004907FCD5012181600549052280390A702E
:1086800002695207FCD50878C007C00F7047000088
:1086900080000811F0B58646080CFF2684460023AA
:1086A00088B237461C46194601228A4005461540C5
:1086B000CD402C19A4B2FF2F02D1012C00D18FB2D2
:1086C00065462A40CA40D21893B2FF2E02D1012B30
:1086D00000D18EB2491C1029E6DB012C02D0102CEF
:1086E00008D009E0012B07D13001C019714608708C
:1086F0000220F0BD102B01D00320F0BD0120F0BD01
:1087000010B501208007806901070348090F006840
:10871000491CFCF779F910BD1810FF1F032806D378
:10872000012189078A68012383401A438A607047C0
:10873000012189070B680122824093430B6008687E
:10874000104308607047000010B5FCF77BFE00285E
:108750000CD008A003F06AFBFFF762FAFFF754FAA7
:108760000AA003F063FBFCF730FE10BD12A003F07B
:108770005DFBF5E7434D5432333030412072656183
:108780006479206F6B200D0A00000000434D5432C5
:108790003330304120436F6E6669672066696E69C9
:1087A0007368656420696E746F205278206D6F6401
:1087B00065200D0A00000000434D54323330304133
:1087C000206E6F7420666F756E64210D0A000000C4
:1087D00010B50021102001F04BFE0021102001F007
:1087E00067FE0121102001F0E9FE034A0349102031
:1087F00001F0BCFF10BD0000358BFF1FC58BFF1FB4
:108800000720401EFDD2704770B50C460546012179
:108810000F2001F031FF01210F2001F0A3FE002104
:10882000182001F029FF0121182001F09BFE0021F2
:10883000182001F021FF0121222001F01DFF01215C
:10884000222001F08FFE0121222001F015FF0021DE
:10885000172001F011FFFFF7D3FFFFF7D1FF8020B2
:10886000284300F041F800210F2001F07BFE00F0CA
:108870001AF820700021182001F0FEFEFFF7C0FF5B
:10888000FFF7BEFF0121172001F0F6FE01210F20A6
:1088900001F0F2FE00210F2001F064FE01212220F0
:1088A00001F0EAFE70BD70B5FF240025012600210D
:1088B000182001F0E1FEFFF7A3FF6006040E01217E
:1088C000182001F0D9FE0F2001F092FE002801D0FF
:1088D000344301E064086400FFF792FF6D1CEDB2C1
:1088E000082DE4D3204670BD70B504460025002154
:1088F000182001F0C1FE200601D5012100E0002171
:108900000F2001F0B9FEFFF77BFF6006040E012186
:10891000182001F0B1FEFFF773FF6D1CEDB2082DBA
:10892000E5D370BD70B50D46144601210E2001F04F
:10893000A3FE284602F0E8FA00210E2001F09CFE7A
:10894000204602F0E1FA70BD70B50D4604460121E3
:108950000F2001F091FE01210F2001F003FE002104
:10896000182001F089FE0121182001F0FBFD0021F3
:10897000182001F081FE0121222001F07DFE01215D
:10898000222001F0EFFD0121222001F075FE0021DF
:10899000172001F071FEFFF733FFFFF731FF60068C
:1089A000400EFFF7A1FF2846FFF79EFF0021182089
:1089B00001F062FEFFF724FFFFF722FF01211720DD
:1089C00001F05AFE01210F2001F056FE00210F2078
:1089D00001F0C8FD0121222001F04EFE70BD000013
:1089E000F8B5496894460A784978069C09025118F6
:1089F0008EB2444A112100250798B71A091B9642E6
:108A000043D009DC404AB21813D0012A1CD0022AF4
:108A100025D0032A08D12EE0012F40D0022F48D0C4
:108A2000032F50D0292F5AD0002018700A2528462D
:108A3000F8BD082C55D20821091B814200D80846F0
:108A4000C2B21A70314857E00C2C4AD20C21091BD3
:108A5000814200D80846C2B21A702D484CE00D2C55
:108A60003FD20D21091B814200D80846C2B22848D6
:108A70001A700D3040E0112C33D2814200D80846E4
:108A8000C2B223481A701B3036E0112C29D2814221
:108A900000D80846C2B21E481A702D302CE0112CA6
:108AA0001FD2814200D80846C2B219481A703F301E
:108AB00022E0112C15D2814200D80846C2B21448D7
:108AC0001A70513018E00E2C0BD20E21091B814276
:108AD00000D80846C2B20E481A7063300CE0072C6A
:108AE00001D30725A3E70721091B814200D80846C7
:108AF000C2B206481A70C01F01196046FBF760FF3A
:108B000095E70000272A0000DDD5FFFF27D9FF1FCA
:108B100090D5FF1F064801694907FCD500218160F7
:108B2000034A0421803A117001694907FCD5704756
:108B30008000081110B51F4C607800282FD001F07C
:108B400037FFA0602078002829D11B4841790029EF
:108B500025D0A168E2689142A168E26801D98A1A29
:108B600002E0891A154A8A18017D0029017917D077
:108B70008B001B18491C0171E0331A6001793129FF
:108B80000DD1037D00210122002B0FD04275017110
:108B9000417122700A4801210078FBF753FF10BD94
:108BA0008B001B18491C01719A61E7E7027541713E
:108BB000017110BD38DEFF1FF401002040420F009C
:108BC00034DEFF1F10B5224C6078002820D001F061
:108BD000EFFEE060207800281AD11E4842791E4935
:108BE000002AE268A3681AD09A4203D9E168A26811
:108BF0008A1A03E0E268A368D21A5218017D00299C
:108C0000017906D08B001B18491C0171E0331A60F2
:108C100010BD8B001B18491C01719A6110BD9A424E
:108C200003D9E168A268891A03E0E268A368D21A4E
:108C300051180A4A0A4B8A189A42EFD2037D012240
:108C4000002B427101D0C16010BD816010BD0000D9
:108C500038DEFF1FF401002040420F009BE6FFFFBB
:108C60006319000010B50121172001F005FD012155
:108C7000172001F077FC0121172001F0FDFC0021F5
:108C8000182001F0F9FC0121182001F06BFC0021F3
:108C9000182001F0F1FC01210F2001F0EDFC012171
:108CA0000F2001F05FFC01210F2001F0E5FC012104
:108CB000222001F0E1FC0121222001F053FC0121DE
:108CC000222001F0D9FCFFF79BFD10BD0648016989
:108CD0004907FCD500218160034A0621803A1170C2
:108CE00001694907FCD57047800008110E4910B58D
:108CF000884201D90A2010BD0C49884201D20C4893
:108D00000EE00C49884201D20B4809E00B49884229
:108D100001D20B4804E00449C91C884202D2094828
:108D200000F012F8002010BDFC3F0000FF0F000013
:108D300000500011FF1F000000600011FF2F000015
:108D4000007000110080001103460002012100B5EF
:108D5000000A490388421BD3FFF788FC0028FBD197
:108D6000FFF7B4FF0B490020886019021804090EB0
:108D70000843FF2109020B401843064900028039CD
:108D800020300860FFF772FC0028FBD1FFF7C2FE1D
:108D900000BD0000800008110B4A08B5904201D8C0
:108DA000820701D00A2008BD00910521090340185F
:108DB0000002000A04226946FEF7D2FE002801D014
:108DC000002008BD012008BDFC3F000010B5054C87
:108DD000E069002803D0FBF72FFE0020E0610A20A5
:108DE000207310BD68DAFF1FF3B54B4C4B4FE069A1
:108DF00085B00E46002819D1059800287ED0002E97
:108E00007CD000F0C3F920730A2812D300250E206D
:108E10006843C0190622FF21FBF7E4FD002804D1B6
:108E20006D1CEDB20A2DF2D30A252573207B0A288A
:108E300070D2E06900280ED082680025002A29D06F
:108E4000207B062148432130C0B21C2102F0E0FE05
:108E5000E069856054E0207B062148432030C0B2A1
:108E60000E21059A02F0D4FE1022FF216846FBF77E
:108E7000ADFD207B6A467030C0B2102102F0C8FE02
:108E8000207B0E2148430A46C0190599FBF798FD3F
:108E9000E66135E00269002A0AD0207B06214843BA
:108EA0002230C0B21C2102F0B3FEE069056127E068
:108EB0004269002A0AD0207B062148432330C0B2F1
:108EC000102102F0A5FEE069456119E0C268002AA0
:108ED00019D0207B062148432430C0B2102102F073
:108EE00097FEE0690621C268207B10324843253096
:108EF000C0B2042102F08CFEE06900E00AE0C56027
:108F0000002007B0F0BDA07A002801D000F060FA80
:108F100000F078FA0120F4E768DAFF1F98F3FF1FEA
:108F2000F0B589B017460E46044620220021684657
:108F3000FBF74CFD684604802E4C0225E178017158
:108F400022794271617A017706984108207A4900B6
:108F5000C307DB0F1943069181070029069901DA3F
:108F6000294300E0A94306910107234B069901D547
:108F7000194300E099430691C106204B069901D59B
:108F8000194300E09943069181061D4B069901D5CE
:108F9000194300E0994306914007042100280698F0
:108FA00001DA084300E088430690002A05D001A8B2
:108FB000102214490230FBF703FD6079002804D029
:108FC000002E02D00699294306916946897D002822
:108FD00000D00120014368468175A078002800D0A8
:108FE00004200143684681753946FBF753FF09B0F9
:108FF000F0BD000068DAFF1F000100000002000061
:109000000004000088F3FF1F70B50025094E2C46B0
:109010000E20604380190622FF21FBF7E3FC0028A5
:1090200001D16D1CEDB2641CE4B20A2CF0D32846C9
:1090300070BD000098F3FF1F7FB50C460621484322
:10904000064615462036F0B26A460E2102F0B8FDFB
:10905000002806D10622FF216846FBF7C3FC002842
:1090600002D0002004B070BD68468189002DC8B2CE
:1090700002D02043C0B200E0A043814206D069463E
:109080008881F0B26A460E2102F0C2FD0120E9E7B4
:1090900010B50024204600F007F8641CE4B20A2C46
:1090A00001D20028F6D010BDF0B5374C0546207B24
:1090B0008FB0854209D101212078FBF7F1FE022112
:1090C0002078FBF7EDFEFFF781FE2C460620444397
:1090D00026462036F0B207AA0E2102F071FD0028C4
:1090E00006D10622FF2107A8FBF77CFC002803D04D
:1090F000002108460FB0F0BD0E22FF2107A8FBF7A4
:1091000065FC1C22FF216846FBF760FC1022FF2152
:109110000BA8FBF75BFCF0B207AA0E2102F078FD6A
:10912000064620462130C0B26A461C2102F070FD7E
:109130003043074620462230C0B26A461C2102F066
:1091400067FD0646204623303E43C0B26A461021E2
:1091500002F05EFD064320462430C0B26A4610216C
:1091600002F056FD06432534E0B26A46042102F0BF
:109170004FFD304304467035E8B20BAA102102F0CF
:1091800047FD01462143B4E768DAFF1F70B50A4D79
:10919000064600240E206043401906223146FBF7A4
:1091A0006FFC002801D0204670BD641CE4B20A2C7C
:1091B000F0D30A2070BD000098F3FF1F0022930037
:1091C000CB5A834202D1900040187047521CD2B251
:1091D000042AF4D3002070477FB50C460A280CD22D
:1091E000002C0AD0062148432030C0B26A460E2126
:1091F00002F0E6FC050003D007E0022004B070BDD9
:10920000062269462046FBF7DBFB2846F6E70021ED
:109210008A00835A491CDB43835212189378C9B2DF
:10922000DB4393700429F3D37047000070B5144EEC
:1092300000240E2060438219204606214843203036
:109240001546C0B20E2102F0BBFC00280BD0284608
:109250000622FF21FBF7BAFBA81D0622FF21FBF720
:10926000B5FB0020A881641CE4B20A2CE1D30548B8
:10927000807A002801D000F0ABF800F0C3F870BD90
:1092800098F3FF1F68DAFF1F10B50349408809787B
:10929000FDF784F910BD000068DAFF1F70B50E46B7
:1092A00004460621484388B015462030C0B204AABF
:1092B0000E2102F085FC002843D10622FF2104A8DC
:1092C000FBF790FB00283CD17034E0B26A461021D5
:1092D00002F076FC002831D16846FFF798FF002E97
:1092E00006D069463046FFF769FF00280DD015E02B
:1092F000102200216846FBF775FB00281ED11022C2
:1093000000216846FBF762FB10E0002D19D069468A
:109310000020FFF753FF002813D006808178A94270
:109320000CD08570002D01D1002101806846FFF727
:109330006EFFE0B26A46102102F06AFC012008B01C
:1093400070BD0020FBE7000070B51E4C0646206A89
:109350001D4D86B000280BD120461030009002230E
:109360001A4A29460120FBF7A1FD2062002826D0D9
:1093700004A80222002100900292019103AB228AEC
:109380003046216AFCF7A0FF00280CD16846017B1B
:10939000407B000208180204120C04D0206A4189A4
:1093A0003046FCF7DFFB0023228A2946206AFBF7C0
:1093B000F1FB2062002802D0002006B070BD012021
:1093C000FBE7000068DAFF1FFFFF0000287C0100B8
:1093D00070B5FBF771FD0A4E00240E206043801922
:1093E00005460622FF21FBF7FDFA002802D1294697
:1093F000FBF768FD641CE4B20A2CEED370BD0000DC
:1094000098F3FF1F08B5FFF7FFFD012801D90220DF
:1094100000E00A20694608706A4601210520FDF730
:1094200021F908BDF8B57B4C877801460025072651
:109430006079A2793B00FBF70BFB0805361A37373A
:109440005F9AD036487800285CD1724806223C30BA
:10945000C91CFBF7B5FA0120A0716E4B01464233DF
:1094600062786079FBF74EFB00284BD1ABE00F46EA
:109470004978002946D1F978002906D0664BA278B0
:109480000021FBF73FFB78700AE0022A0BD0012194
:10949000FBF73EFB002803D101216079FBF7D2FAEC
:1094A000787800282ED1F8BD497800292AD1032FD9
:1094B00009D0A289002A0CD0217800290AD00121E4
:1094C000FBF70EFB06E0052A01D0022012E0062081
:1094D00010E02570A079062802D0042802D008E008
:1094E000052007E00120207001466079FBF7AAFA09
:1094F00069E00320A07166E048780F46002803D099
:10950000312832D0A6715EE042480622391D36303D
:10951000FBF756FA7889E081B8892082F889608261
:109520000520A071A28A002A03D002216079FBF7EE
:10953000D7FAB889E083F8892084388A6084E07893
:1095400001280AD11F20FBF7B3FA7D21C900484347
:10955000024604216079FBF7C3FA7A89F87804237C
:10956000391DFBF7BDFF25702DE02570C1E72948A7
:109570000E46062200213630FBF728FAE5832584C3
:10958000658404216079FBF7B1FA08216079FBF763
:10959000ADFAB17908290BD00320A0711FA002F009
:1095A00045FC2078002805D06079FBF7A5FA07E094
:1095B0000420F2E70120207001466079FBF742FAAF
:1095C0000020C043E081606A002800D16BE7016899
:1095D0000029FBD0A0798847F8BD0D460821FBF78C
:1095E00085FA687829460028F6D1E888E08328893A
:1095F00020844889608404216079FBF789FA002877
:10960000EAD1A06A0028E7D00368628C218CE08B45
:109610009847F8BD10DBFF1F44F4FF1F5B4449531C
:10962000435D2E726561736F6E20253032780A00BB
:1096300010B50178284C912906D0A22932D0D02922
:1096400001D1FFF7EFFE10BD41780E290AD00F2996
:10965000F9D18188214A9142F5D1817820A002F088
:10966000E5FB10BD8188224A91420FD18168032019
:109670000856A1790529F4D17F28F2D0616A002922
:10968000EFD049680029ECD0884710BD134A103A42
:109690009142FAD1806883784278017815A002F06F
:1096A000C5FB10BD41791329FBD10089012802D1E6
:1096B0002079022808D00520FBF7FAF90246082194
:1096C0006079FBF70DFA10BD08216079FBF70EFAFF
:1096D000FCF7D6FC10BD000010DBFF1F322000009D
:1096E0005B484349205048595D20253278200A00C4
:1096F000051400005B48434920444C455D25642027
:1097000025642025640A00007CB5154C0546E08BD5
:10971000A18B88420AD3E18A884207D8208C218B0A
:10972000884203D1608C618B884217D00520FBF7FB
:10973000BFF90646A18B68460180E18A4180218BF2
:109740008180618BC18062796946E089FBF7C0FB4B
:109750002571324608216079FBF7C2F97CBD000013
:1097600010DBFF1F10B500F025F8002800D080683E
:1097700010BD00229300CB5A834202D190004018C2
:109780007047521CD2B2022AF4D300207047000066
:10979000074A0021CB00D35A834202D1C800801867
:1097A0007047491C0906090EF4D0002070470000DC
:1097B00080DBFF1F0649496805E08A88824201D1A3
:1097C0008868704709680029F7D1002070470000B9
:1097D00074DBFF1FF8B50746012906D0022924D102
:1097E0000121FBF707FA00281FD13846FFF7D0FF09
:1097F000050015D000240D4E0CE0F8206968604388
:1098000008180188002908D0F8220021FBF7DEF8AB
:10981000641CE4B270788442EFD30020C0432880F7
:10982000024938461431FCF79FFCF8BD74DBFF1F7A
:10983000F3B5064683B00830019000200090708890
:10984000FFF7A6FF07002FD0002523E0F820796856
:1098500068430C182188002920D00198007801283D
:109860000FD16088009023797088621DFCF7B4FEE8
:109870000090002805D001990020087004982188E4
:109880000180F82200212046FBF7A0F800206D1C83
:109890002080EDB2074840788542D7D30020C043EE
:1098A00038800098002802D17088FBF717FB0098D9
:1098B00005B0F0BD74DBFF1FF3B50546364C064618
:1098C00085B00835162200212046FBF77FF803A853
:1098D00000902B79698828886A1DFBF7E7FA07460C
:1098E00044E02E482E4900780022C01FC0B20091EB
:1098F00001920290284B69468A897088F63B394666
:10990000FCF7E2FC002812D12548E979C01EC27894
:1099100091420CD120492846F6390830FBF7B0F8BF
:10992000002804D021787889890009194880684680
:109930008289698804AB3846FBF72CF90746207802
:10994000810009194A88002A10D0002F05D06A46E4
:10995000128A401C20708A800AE002060021920DC3
:10996000C9431219401C2070918006E0002F04D0DA
:109970000C48217800888142B3D32078002806D093
:1099800070882146FBF7B0FA002007B0F0BD0698BA
:10999000298801800A20F8E772F6FF1FEC10FF1FEC
:1099A00077DBFF1FF410FF1FF0B585B004460027DA
:1099B00068468781217950A002F038FA20790E2874
:1099C00067D00EDC082822D004DC022812D006283A
:1099D00017D117E0254608350A281DD00C287FD15D
:1099E00037E010285AD012285DD0162860D01828E9
:1099F00076D162E047484649008808806088FBF7D6
:109A000079FA6DE003A92046FFF756FF59E003A954
:109A1000204600F081F954E0288804A9FBF7B4F847
:109A2000010014D03C483A4E00780197401EC0B265
:109A3000009602906A466088731C128AFCF744FC08
:109A400000281DD160883146FBF75AFA48E0012012
:109A500016E0288804A9FBF797F80100F7D02E48F4
:109A60006A8800782A4E401EC0B201920096029089
:109A70006A466088128A731CFCF726FC002803D013
:109A800029886A4691811CE060883146FBF73EFADE
:109A900026E003A9204600F0D3F912E003A92046EE
:109AA00000F08EF80DE003A9204600F02BFA08E044
:109AB00003A9204600F034F803E003A92046FFF78D
:109AC000B7FE00280CD06178142909D010492279FA
:109AD0000A706A4692894A8008716088FBF71CFA0E
:109AE0002046FBF71FFA0D488168002901D0204667
:109AF000884705B0F0BD00005B47415454204D73CA
:109B0000672050726F635D203A202564200D0A00A3
:109B100072F6FF1FEE10FF1FEC10FF1F74DBFF1F1C
:109B2000F8B504460F460546083400896946FBF738
:109B30002BF806003AD0307A80060ED568460088A9
:109B4000FFF710FE030006D06888122231469847BE
:109B5000060002D02BE00E2629E06E883046FFF783
:109B600017FE010005D11448FFF712FE01000ED0C8
:109B70000E80124A0020527807E0F8264B684643D0
:109B80009B5B002B05D0401CC0B29042F5D3092648
:109B90000DE04968F822504308182146FAF710FFF3
:109BA000002668882146FBF7C3F902E001262088D9
:109BB00038803046F8BD0000FFFF000074DBFF1F57
:109BC000F3B58BB000200B9E0746039004A80090CD
:109BD0003246337B718930894C4C0D320836FBF7A5
:109BE00065F9054678E00B98297A4088FBF7A6F9D5
:109BF000070003D00C98698901806FE04448002178
:109C000000780191801FC0B2424A029000920B98E6
:109C10003E4B69460A8A4088F63B2946FCF754FBCE
:109C20000700E7D10398002834D03A486278C01E74
:109C3000C178081D824254D10398411834480088E5
:109C4000801F81424DDC0398A97A20188170039807
:109C50006989401CC0B22218090A401C9170C0B228
:109C600003906846028A718807AB2846FAF792FF8C
:109C7000050015D06946888B039961188870039890
:109C80006946401C898BC0B2090A2218401C917099
:109C9000C0B210E01F48C01EC078001D6070D2E73F
:109CA0000399FF20611888700399491CC9B2621892
:109CB0009070491CC8B217490390C91ECA7813494D
:109CC0002018F639801CFAF77BFE12490398C91E4A
:109CD000C9784018C0B20390002D84D103980028A1
:109CE0000CD061780398FAF78FFE20700B9821460C
:109CF0004088FBF729F900200DB0F0BD002F00D1FE
:109D00000A270C99308808803846F5E772F6FF1F5D
:109D1000EC10FF1F77DBFF1FF3B587B0079F002410
:109D20003889434D26460837059064E003A8009023
:109D30003B7979887A1D0598FBF7B8F804900028DC
:109D40004DD0408905900498017A07984088FBF728
:109D5000F5F8060054D1374800210078364A001F34
:109D6000C0B20191029000920798314B69468A89EE
:109D70004088F63B0499FCF7A7FA060040D1002C76
:109D800030D02D486978C01EC078801C814239D1FE
:109D9000294BDB1ED878211826480088001F8142F5
:109DA0001DDC04982919807A8870641CE0B204993B
:109DB0002A184989401C090A91701946CA78C4B208
:109DC0001B492819F639801CFAF7FAFD1A481B4975
:109DD000C01EC0782018C4B20598884208D1002C53
:109DE00010D11EE01448C01EC078801C6870CFE7F8
:109DF000401C80B205900F480088001F844295DD0A
:109E0000002C0CD069782046FAF7FEFD28700798E0
:109E100029464088FBF79EF8002009B0F0BD002ECF
:109E200000D10A260898059901803046F5E7000020
:109E300072F6FF1FEC10FF1F77DBFF1FFFFF000014
:109E4000F3B585B000272C4C059E27703D4608369B
:109E500041E06800305A03A9FAF796FE010017D0D6
:109E60002648274B00780093401EC0B20022019282
:109E700002900598204B6A464088F63B9289FCF791
:109E800023FA070006D06800315A0698018030E0B6
:109E90000127F8E71A482178C01EC0780A18174829
:109EA0000088431E9A4204DD401A1549C91E401E0F
:109EB000C8702178601C08181149C91ECA780E495B
:109EC000F639FAF77DFD0E482178C01EC0780818D3
