:020000040002F8
:10600000885F0020C5630200CD630200CF630200F9
:10601000D1630200D3630200D563020000000000D8
:10602000000000000000000000000000D763020034
:10603000D963020000000000DB630200DD630200A0
:1060400059670200DF630200596B0200DF63020040
:10605000DF630200DF63020091650200DF6302007C
:10606000DF630200DF630200DF630200DF63020020
:10607000DF630200DF630200DF630200DF63020010
:10608000DF630200B1670200DF630200DF6302002A
:1060900035680200DF63020039680200DF63020036
:1060A000DF630200DF630200DF630200DF630200E0
:1060B000DF630200DF630200000000000000000058
:1060C000DF630200DF630200DF630200DF630200C0
:1060D000DF630200DF630200DF63020000000000F4
:1060E00000000000000000000000000000000000B0
:1060F00000000000000000000000000000000000A0
:10610000000000000000000000000000000000008F
:10611000000000000000000000000000000000007F
:10612000000000000000000000000000000000006F
:10613000000000000000000000000000000000005F
:10614000000000000000000000000000000000004F
:10615000000000000000000000000000000000003F
:10616000000000000000000000000000000000002F
:10617000000000000000000000000000000000001F
:10618000000000000000000000000000000000000F
:1061900000000000000000000000000000000000FF
:1061A00000000000000000000000000000000000EF
:1061B00000000000000000000000000000000000DF
:1061C00000000000000000000000000000000000CF
:1061D00000000000000000000000000000000000BF
:1061E00000000000000000000000000000000000AF
:1061F000000000000000000000000000000000009F
:10620000DFF810D000F086F90048004769A40200CA
:10621000AFF30080885F002030B450E8012F93B2C4
:10622000C48923448489A34228BF1B1B0489A34239
:1062300002BFBFF32F8F002007E0C3EA020340E84C
:106240000134002CE9D14FF001000A6030BC7047E6
:1062500050E8012FC2EA024240E801210029F7D1AB
:10626000704730B450E8022F1FFAA2F3C488A3424B
:1062700002BFBFF32F8F00200DE0C489234484891F
:10628000A34228BF1B1BC2EA034340E80234002C90
:10629000E8D14FF001000A6030BC704750E8022F8F
:1062A000C2EA224240E802210029F7D170470346A2
:1062B00053E8022FD988B2EB324F4FF0000017BFDE
:1062C00092B241EA014142EA014104E05A68B2EB6C
:1062D000324F08BF012043E80212002AE8D170477C
:1062E00030B4044654E8000F0D4644E80053002B38
:1062F000F8D1156030BC704730B4044654E8000F44
:1063000040EA010544E80053002BF7D1156030BC8A
:10631000704730B4044654E8000F00EA010544E831
:106320000053002BF7D1156030BC704730B40446E1
:1063300054E8000F80EA010544E80053002BF7D130
:10634000156030BC704730B4044654E8000F00EBD1
:10635000010544E80053002BF7D1156030BC7047AD
:1063600030B4044654E8000FA0EB010544E80053A4
:10637000002BF7D1156030BC704770B404464FF065
:10638000000054E8006F0D68AE4207BF44E80023E8
:10639000012044E800630E60002B1CBF0020F0E7E2
:1063A00070BC704730B4044654E8000F88422CBFDC
:1063B000451A054644E80053002BF5D1156030BC62
:1063C000704700000648804706480047FEE7FEE7A2
:1063D000FEE7FEE7FEE7FEE7FEE7FEE7FEE7FEE795
:1063E0003D680200016202002DE9F05F05460020D1
:1063F00092469B4688460646814640241BE0284636
:1064000041464746224600F074F853465A46C01AA1
:10641000914110D311461846224600F016F82D1A65
:1064200067EB01084F4622460120002100F00DF8DD
:1064300017EB00094E41201EA4F10104DFDC4846A1
:1064400031462A464346BDE8F09F202A04DB203A25
:1064500000FA02F1002070479140C2F1200320FAB7
:1064600003F319439040704700487047F00403005D
:1064700040EA01039B0703D009E008C9121F08C0C6
:10648000042AFAD203E011F8013B00F8013B521E46
:10649000F9D27047D2B201E000F8012B491EFBD2BD
:1064A00070470022F6E710B513460A46044619461F
:1064B000FFF7F0FF204610BD421C10F8011B002919
:1064C000FBD1801A704730B504460020034600E037
:1064D0005B1C934203D2E05CCD5C401BF8D030BD26
:1064E000034611F8012B00F8012B002AF9D11846B8
:1064F0007047202A04DB203A21FA02F0002170477D
:1065000021FA02F3D040C2F120029140084319461B
:1065100070470000064C074D06E0E06840F00103BC
:1065200094E8070098471034AC42F6D3FFF76CFEAE
:10653000600D0300800D030070B58C1810F8015B2E
:1065400015F0070301D110F8013B2A1106D110F80C
:10655000012B03E010F8016B01F8016B5B1EF9D110
:106560002B0705D40023521E0DD401F8013BFAE796
:1065700010F8013BCB1A921C03E013F8015B01F801
:10658000015B521EF9D5A142D8D3002070BD000096
:106590002DE9F04700268AB0DFF85091B0464FF45D
:1065A0008075012437460696284605F077F838B1FD
:1065B000D9F80403204203D0284605F065F82643A5
:1065C0002D1D64007F1CADB2082FEDD34FF4BE74B7
:1065D000204605F063F848B1204605F055F846F02E
:1065E000004606AA0121002005F03AF8404D16F0B9
:1065F000FF0F15D00127002437420DD009EB84018D
:10660000D1F81005D1F81015C0F3042055F8242056
:10661000C1F3014102B190477F00641C082CEBD309
:10662000002E5FDA4FF0FF30CDF8108054E02819CB
:1066300010F8507F90F9000027F0C008401C3BD0B4
:1066400007A9404604F047FA10B34FEA97194046AD
:1066500002F07CF855F820701FB1B9F1030F03D098
:1066600006E0B9F1030F27D104A9404604F03BFA34
:106670004FF0A04101EB8800D0F8000706A9C0F355
:10668000014A404604F027FA18B1BAF1020F03D0CC
:1066900012E0BAF1030F0FD1B9F1030F08D1BAF12B
:1066A000020F1DD00221404604F0BEFF761CF6B258
:1066B00017B149464046B847641C042CB7D3002E96
:1066C00010D06A460121002004F0CAFF0699009804
:1066D000884207D006900498002634460790A6E723
:1066E0000321E0E70AB0BDE8F08700000060004049
:1066F0004834002000F01F02012191404009800031
:1067000000F1E020C0F88012704700F01F02012164
:1067100091404009800000F1E020C0F8001170476E
:1067200000F01F02012191404009800000F1E020AB
:10673000C0F8001270474907090E002806DA00F079
:106740000F0000F1E02080F8141D704700F1E020F8
:1067500080F800147047000070B54FF48076304622
:1067600004F0FCFA114CB50560B1304604F0FDFAB6
:106770000120C5F80803607920B901206071216803
:10678000002088474FF48276304604F0E7FA00286C
:106790000AD0304604F0E9FA0220C5F8080321685F
:1067A000BDE870400120084770BD0000502B00205C
:1067B00007480021C0F84011C0F84411C0F8481142
:1067C000C0F84C11C0F80011C0F8041108F00CBE5C
:1067D0000010014000F0C6B970B50E46144900EB38
:1067E000400001EBC0051446E86A183520B10128C5
:1067F0000FD0022805D113E0284600F0E7F9A042A7
:1068000001D2002411E022463146284600F016FA53
:106810000BE0284600F0DAF9A042F4D20446F2E791
:106820003146284600F0DDF90446204670BD0000E0
:10683000FC3C002008F026BD05F00CBDF0B5B548C5
:106840000023021D0178101D01254FF080540629F8
:106850000BD11678360708D10678C6F30316032E37
:1068600006D0042E04D0052E02D0062907D00EE053
:10687000B4F82463A84FC6F304263E6002E01678FD
:10688000360704D10678C6F30316032E02D0062974
:1068900004D00FE0A24FA14E7E670EE016783607B7
:1068A00008D10678C6F30316032E06D0042E04D0B2
:1068B000052E02D0062907D00EE0D4F84462994F85
:1068C000C6F342363E6002E01678360704D10678F9
:1068D000C6F30316032E02D0062906D011E0924E0D
:1068E000376827F0807737600EE01678360708D1D2
:1068F0000678C6F30316032E06D0042E04D0052E08
:1069000002D006290AD011E04FF08046C6F80C31BB
:10691000C6F81031834E361F336002E01678360712
:1069200004D10678C6F30316032E02D0062905D03B
:106930000CE07C4F032664373E600AE01678360789
:1069400004D10678C6F30316032E02D006290DD013
:1069500014E0764F05263E60744E78363560734EEF
:10696000083633603F263F1D3E6002E0167836074A
:1069700004D10678C6F30316052E02D0062957D097
:1069800062E06B4E36686B4F3E60694E361D36686E
:106990003F1D3E60664E083636683F1D3E60644EC1
:1069A0000C3636683F1D3E60614E103636683F1D1E
:1069B0003E605F4E143636683F1D3E605C4E1836B2
:1069C00036685C4F20373E60594E1C3636683F1D96
:1069D0003E60574E203636683F1D3E60544E24368A
:1069E00036683F1D3E60524E283636683F1D3E6079
:1069F0004F4E2C3636683F1D3E604D4E3036366861
:106A00004C4F40373E604A4E343636683F1D3E603C
:106A1000474E383636683F1D3E60454E3C36366838
:106A20003F1D3E60424E403636683F1D3E6002E0EC
:106A30001678360708D10678C6F30316032E06D05B
:106A4000042E04D0052E02D0062907D019E0D4F870
:106A50005812394A01F04F01116002E0117809071C
:106A60000FD10078C0F30310032803D0042801D00D
:106A7000052806D131480168C90702D06FF001012D
:106A80000160D4F83001062808D1D4F83401062872
:106A900004D12B48016841F48061016022487438B8
:106AA000016841F470010160BFF34F8FBFF36F8F36
:106AB0004FF01021D1F80002002803DBD1F80402C6
:106AC000002822DA1F4A15601F480468002CFCD0F9
:106AD0001524C1F800420568002DFCD0C1F804421D
:106AE00001680029FCD0136001680029FCD0BFF3C5
:106AF0004F8F0D48F0380168144A01F4E0611143EA
:106B00000160BFF34F8F00BFFDE7124910480860D6
:106B1000F0BD0000E00F00F0403501400DF0ADBACF
:106B200000C007403C050040FCED00E0105600406E
:106B30000404001020C50040E40E004000040040A2
:106B40003C17004004E5014000E401400400FA0560
:106B50000090D0037C2C0020014800680047000012
:106B6000582B002010B5124C02202061606111A04A
:106B7000A06104F17800E0614FF400702062002011
:106B8000A06260620BA1A164E06204F51E71E16481
:106B90001021A065C4E91410E06509A1E01DFFF70C
:106BA0009FFC08A12046FFF79BFC2020A07110BD90
:106BB000FC3C00205465726D696E616C0000000041
:106BC0005254540053454747455200000269C1687A
:106BD0008A4203D88068401A104400E0501A401ED0
:106BE00070472DE9F047C4681746894606464FF0BE
:106BF00000083069A04201D9051B02E0B168201AE3
:106C00000D1AB0686D1E001BA84200D80546BD4293
:106C100000D33D4670682A4620444946FFF728FCC9
:106C2000B0687F1B2C44A844A944A04200D1002492
:106C3000F460002FDDD14046BDE8F0872DE9F0413A
:106C400004468846D4E90207C51BE1686068164619
:106C50000844B54206D94146FFF70AFCB819E0607E
:106C6000BDE8F0812A464146FFF702FC761B08EB9F
:106C7000050132466068FFF7FBFBE660F0E702E0E3
:106C800008C8121F08C1002AFAD1704770470020B7
:106C900001E001C1121F002AFBD170470121202809
:106CA00003DA81400548014003E0402802DA203839
:106CB000814009B10120704700207047FC06FFBDEC
:106CC000082806D228B1012803D0042801D00120C9
:106CD00070470020704710B560B159B102780B7849
:106CE0005208B2EB530F05D10622401C491CFFF796
:106CF000EAFB08B1002010BD012010BD800701D0C3
:106D00000020704701207047C3688B4206D81144A9
:106D10000069491E814201D8012070470020704758
:106D200010B501220221002001F024FB08B1072840
:106D300018D107220221012001F01CFB08B107280D
:106D400010D100210A22084601F014FB08B10728DF
:106D500008D10B220121002001F00CFB08B107280B
:106D600000D1002010BD000010B550B10A48032129
:106D7000008801EB004009A104F0B8FE07F070F9AB
:106D800003E00321094800F058FD002803D0BDE8C6
:106D9000104000F0CBB810BDC82C002045726173C4
:106DA0006520626F6E64732100000000EC2F0020EC
:106DB00070B58CB015460E4600236C46C3F10F012A
:106DC000415CE1545B1C102BF8D30D2104F1100041
:106DD000FFF767FB0020C0F10F02315C2244401C2A
:106DE00011740328F7D3684646DF0020C0F10F0175
:106DF000214491F820102954401C0328F6D30CB0EC
:106E000070BD022001F0D6B90149097900F0B2BE87
:106E1000242B002070B50024064D06E0686801218F
:106E200010F8340005F000FB641C28788442F5D388
:106E3000002070BD602B0020F8B515460C460646B4
:106E4000052A01D20720F8BD05F0EAFB18B905F0C4
:106E5000AFFB0028F7D1124900224E600C708D6004
:106E6000C1E90422C1E906220E4D0DE006EBC40083
:106E70002968009181788DF8011000780A4A6946E6
:106E800005F024FB0028DED1641EE4B2EED2BDE89A
:106E9000F84004480021054A001D00F07BB80000BE
:106EA000602B00205C010300FD970200DD8B0200D7
:106EB00010B572B604F0D0FE04F0B8FC0028FBD187
:106EC000104C0121208801EB00400FA104F00EFEC0
:106ED00010480068C00700D000BE2088022101EBE6
:106EE00000400DA104F002FEBFF34F8F0948E438C3
:106EF00001680D4A01F4E06111430160BFF34F8F57
:106F000000BFFDE7C82C0020466174616C206572EB
:106F1000726F7200F0ED00E053797374656D20724A
:106F200065736574000000000400FA050EB50021C9
:106F30000091CDE901106A4644F20100FFF7B8FF65
:106F40000EBD10B58268C368934203D002F0A4F965
:106F5000002010BD052010BD29B112B1531E1342EF
:106F600003D0092070470E20704701608380002104
:106F70008160C1600846704710B58268C3689A1A7C
:106F800083889A4203D802F091F9002010BD0420B2
:106F900010BD0000084B9B7823B12AB120B10068D6
:106FA000037C1BB10820704707207047002303743F
:106FB00041744261184670471435002070B507F0DF
:106FC00041FB104800240B21047044700E4D817069
:106FD00014206C602C706C70FFF78CFB0721142060
:106FE000FFF7A9FB1420FFF790FB08480460072176
:106FF0001120FFF7A0FB0548001F0068A8600020D3
:1070000070BD000014350020802B002008150140C1
:107010002DE9FC47DFF8789099F8023073B368B334
:10702000052902D20720BDE8FC87436933B3437CBE
:10703000012B25D0002704460025884616468DF8EA
:107040000050684600F0CEF801A808F04BFDC8B12A
:10705000012101700F4944600968C0E90218C0E9C4
:1070600004769DF8040089F801009DF8000000F006
:10707000DDF81420FFF754FB2846D4E70820D2E7B8
:107080000F46D8E704259DF8000000F0CFF8F3E79D
:1070900014350020041501400649897839B130B112
:1070A000416921B100210174022108F079B9082059
:1070B000704700001435002070B50A4E01460A489A
:1070C000B578FFF73EFF04464DB10020B070711C4B
:1070D0000122C81D03F0BAFE08B1FFF727FF2046C2
:1070E00070BD0000FC2B0020B8370020F0B5244E06
:1070F00089B01F460D00044672603FD0A8882968F9
:1071000082B22048FFF728FF002835D1A889A96856
:1071100082B21C481030FFF71FFF00282CD120221C
:1071200019496846FFF7A4F960690690207C00B110
:1071300001208DF814008DF81C70607C00B10E20C9
:107140008DF81500E0680290A06803902068019017
:10715000606800900A480D4A6946083003F042FE14
:10716000002809D1B0702068401C05D004490122D4
:10717000491CC81D03F06AFE09B0F0BD0720FBE7FB
:10718000FC2B0020B83700209003030025F60200F6
:1071900010B501461048FFF7EFFE040019D10F4863
:1071A0000F4A0178515C19B1001D05F0BBFC02E0EB
:1071B0000C3005F09FFB60B9084907480839FFF714
:1071C000C0FE30B9054901220839044803F04EFEDB
:1071D0000446204610BD0000C8370020042C0020C3
:1071E000442B002030B5EFF3108172B60D4A94683D
:1071F000012324B10370002900D162B630BD936031
:107200004FF0E023D3F88051074C25401560C3F8B8
:107210008041D3F8844154605A17C3F88421002276
:107220000270E8E720360020FC06FFBD0B498A68A3
:10723000002A11D000280FD1EFF3108072B60B682E
:107240004FF0E022C2F800314B68C2F8043100224E
:107250008A60002800D162B6704700002036002006
:107260002DE9F041064608680C46411C4FF0A04746
:107270004FF0010506D005FA00F1C7F8081520689F
:1072800004F0BEF96068411C02D0002104F0A6F9A8
:107290003168A069C1F82405607D227D3168104302
:1072A000C1F86C05D4E900123068C0F81425C0F8A4
:1072B0000C15207D012815D1A068411C02D00021A9
:1072C00004F08CF9E068411C05D08540C7F80855EA
:1072D000E06804F095F9D4E902123068C0F8082596
:1072E000C0F81015BDE8F0812DE9F04106460868A8
:1072F0000C46411C4FF0A0474FF0010506D005FA9F
:1073000000F1C7F80815206804F084F96068411C92
:1073100002D0002104F06BF93168A069C1F824059E
:10732000607D217D32680843C2F86C05D4E9001203
:107330003068C0F80C15C0F81425207D012815D13F
:10734000A068411C02D0002104F051F9E068411C02
:1073500005D08540C7F80855E06804F05BF9D4E92A
:1073600002123068C0F80825C0F81015BDE8F08199
:1073700002F0D6BF2DE9F047074600888EB0804660
:1073800002F0C2FC824604462D4800252A460178B8
:10739000404600F007FC7879400734D501254FF6C8
:1073A000FF7603AB2A460721504606F0B9F80100E4
:1073B00004D0404607F0C2FB00252BE0B146314621
:1073C000049802F0F5FB064648450FD004460146F6
:1073D000404602F083FC4046FFF716FD30B94046B8
:1073E00007F07EFB4046FFF70FFD48B1224607211C
:1073F000504606F00BF9010003D0404607F09EFB13
:1074000000254E4506D0404606F06EFA10B15046B3
:1074100002F066FC02208DF81800ADF81A80787929
:10742000400701D5012000E002208DF820008DF8F2
:10743000215006A801F046FD0EB0BDE8F08700001F
:10744000242B002070B51500044609D000202860C8
:1074500034B1206820B1A079800703D0072070BD27
:107460000E2070BD084600F037FBC0B2142804D0CF
:107470002179814203D8042070BD052070BDE288C7
:10748000216800FB02102860002070BD2DE9FC4738
:10749000002517880646158090F82D001446894669
:1074A00030B13A462146484600F0A6FB051E09D1F8
:1074B000B0784FF00C0A18B32088C846001DB842B7
:1074C00002D95046BDE8FC87684679DF0028F9D12B
:1074D0002088032108F8001020881921401C80B260
:1074E000208008F800102088401C80B2208000EB2B
:1074F0000801BDF8000008F023FA21880844208024
:10750000F0780222C8B1218896F9033001F1030C0A
:107510004846BC45D5D8425421884FF0010C491C3F
:1075200089B2218000F801C02188491C89B22180DC
:1075300009F801302088401C20807068B8B121888B
:1075400090F9003001F1030C4846BC45B9D84254CB
:1075500021880A22491C89B2218042542188491C71
:1075600089B2218009F801302088401C20803089B0
:1075700050B1CDE900474B460622022106F1080032
:1075800008F0C8FA051E9DD1308A50B1CDE90047F8
:107590004B460722032106F1100008F0BBFA051E36
:1075A00090D1308B50B1CDE900474B4615221421C4
:1075B00006F1180008F0AEFA051E83D1306A30B12A
:1075C0003B462246494601F07CF9051EDBD1706A34
:1075D00030B13B462246494603F038F8051ED2D169
:1075E00096F82C0038B13B4622464946304607F013
:1075F00053FB051EC7D1307838B13B462246494679
:10760000304603F0A9F8051EBDD128465AE718B543
:1076100004460020ADF8000013466A46204600F0FC
:1076200006F8002802D0BDF80000204418BD70B54F
:1076300088B182B10024158803E0065D641C3444DF
:10764000A4B2A54203D8061976789E4201D08C4296
:10765000F3D38C4201D3002070BDA11C1180005DCA
:10766000401E80B270BD80F8301070472DE9F041A7
:107670000D00044606D02CB195F87A0000260128AA
:1076800003D006E00E20BDE8F08195F898000128AF
:1076900029D0D5F8A000042825D0D5F89C000428CE
:1076A00021D04FF00108A6702C2205F17801201D91
:1076B000FEF7DEFE84F83060D5F8A4006063D5F8EC
:1076C000A800A0634FF6FF70A4F8A80004F194008E
:1076D000C4F8A400C4F8AA60A4F8AE6084F8B0604E
:1076E000207810B104E00720CDE7FF2084F8540093
:1076F00004F155011F27C4F89410A4F8987004F100
:1077000098022846FFF7C2FE0028BCD115F13C0FB5
:107710000ED004F17401C4F89C10A4F8A07004F118
:10772000A00205F13C00FFF7B1FE0028ABD103E059
:10773000C4F89C60A4F8A06084F85180208BA4F861
:10774000480084F83C80266484F850606069606476
:10775000454604F13C02002104F1540072DF002888
:1077600091D125708FE710B50288102A1BD0112AFD
:1077700020D0262A1DD1007A0C46012801D00228EB
:1077800017D1A0780521401CB0FBF1F201FB1201DA
:10779000204600F052F800280BD0A16B002908D039
:1077A000BDE810400847C27B012A02D18088A1F8B9
:1077B000A80010BD0C46002184F8B2108088B4F8EF
:1077C000A8108842F5D120790028F2D10121DFE705
:1077D00010B50C46022801D0032810D1607800288B
:1077E0000DD000206070A178204600F026F8002817
:1077F00005D0A16B002902D0BDE81040084710BD9C
:1078000010B5044690F8540074DF012084F8B200EB
:10781000002084F8B40084F850000621204601F0CE
:107820006AFD002808D1A178204600F006F810B1C2
:10783000A16B01B18847002010BD2DE9F05F04461F
:1078400000780F4638B1A770002003F0FFFC012636
:1078500020B1667007E10820BDE8F09F0025C4F85C
:10786000AA50A4F8AE5084F8B050A07910B1A07816
:10787000012806D0E07968B1A078012801D002285B
:1078800008D1616B21B184F8B1600820884701E01C
:1078900084F8B15004F1AB0100200A5C0AB1304613
:1078A00003E0401C0628F8D300204FF002084FF0F8
:1078B000030B012F06D0022F0CD0032F0FD0042F63
:1078C00015D110E0A17929B194F8241011B908B1AB
:1078D00030460DE0E17911B108B1404608E0207A68
:1078E00008B1584604E0607A08B1042000E0284658
:1078F000A070616B41B1032801D0042804D16079E4
:1079000010B194F8B200A0B184F8B35004F13C0077
:1079100018210746FEF7C5FD04F12C0084F83C60F1
:10792000814606F00DF958B194F82C0084F8510006
:1079300008E084F8B45084F8B36007208847E5E78E
:1079400084F8516094F8240050B1484606F0F8F8E5
:1079500020B194F8280084F8520001E084F85260C5
:1079600084F85050A27804F1AA0104F194094FF070
:10797000060A052A60D2DFE802F078030F223F00F2
:1079800084F83160C4F8A450C4E9101584F83C8030
:107990008020A4F8480051E084F8318094F8242035
:1079A000384612B10722027001E080F800B0228A46
:1079B0008281C4F8A4504160E168B9603EE060692A
:1079C000B860208BB88194F824003D4610B184F84B
:1079D0003CA001E084F83C60204608F05FF840B12C
:1079E00085F814800421204601F085FC20BB052188
:1079F0001EE084F831B01DE0E069B860208CB881E9
:107A000094F824003D4610B184F83CA001E084F8CD
:107A10003C60204608F042F848B185F81480042103
:107A2000204601F068FC38B984F831A002E0042156
:107A300084F83110C4F8A490A07878B13A4604F1E3
:107A40005400D4F8A41072DF00287FF405AF94F836
:107A5000301094F8540073DF0028F6D1616B11B137
:107A600094F8310088470020F6E684F83150F5E7B5
:107A700070B5040012D001461C221448FEF7F8FC31
:107A80001248134D0560206850B17ADF002806D1F6
:107A90002068016829604068686005E00E2070BDBC
:107AA0000B487BDF0028FAD108484FF6FF711438E5
:107AB000084A20F8041B0549343901600021FFF70A
:107AC00069FA0028EBD0032070BD0000443100208B
:107AD000E42A002035FA020010B5044600F082F8CE
:107AE00008B1204610BD142010BD000010B504469A
:107AF00000F078F8002805D02146BDE81040024883
:107B000002F04DBF10BD00007031002070B5154669
:107B10000E46044607F0CEFF002809D0054800EBCA
:107B2000840080692A463146BDE8704001F022BCDD
:107B300070BD00006031002070B50546002400F0E3
:107B400051F838B12946044802F029FF08B102244F
:107B500000E00124204670BD6C31002010B51821D2
:107B6000034802F0F7FE182800D0C0B210BD000094
:107B70006031002070B505460C46084607F09AFFB4
:107B800060B1284600F02EF840B10548294600EBC8
:107B90008400BDE87040183002F001BF002070BDC5
:107BA0006031002070B5054614460E46084607F0C1
:107BB00081FF002812D0284600F014F800280DD0CC
:107BC0000748294600EB860018301CB1BDE870401C
:107BD00002F0F0BEBDE8704002F0A1BE70BD000032
:107BE00060310020142801D300207047014601486D
:107BF00002F0D5BE643100207CB5054608880C46ED
:107C00000930904201D90C207CBD68466DDF002808
:107C1000FAD121880820685420881B21401C80B29A
:107C2000208029542088401C80B220802844DDF820
:107C300001100160BDF8051081802088801D80B290
:107C400020809DF80010490800D001212954208887
:107C5000401C208000207CBD38B50446028828499D
:107C60000420212A34D00EDC25494FF00300102ACD
:107C7000098800EB014016D0112A38D1BDE8384000
:107C800020A103F033BF1E4804213B2A008801EBEA
:107C900000402DD0562A2AD11EA103F027FFA0882C
:107CA000132176DF0EE021A103F020FF072000F072
:107CB00083FB08B1FFF73AF91F48A18841801F48AC
:107CC00002F0D4FF002812D0BDE83840FFF72EB9EB
:107CD000098800EB01401AA103F008FF0020009082
:107CE000A08869468FDF002801D0FFF71FF938BD53
:107CF00018A103F0FBFEA088132176DFE2E7000065
:107D0000C82C0020446973636F6E6E65637465648C
:107D10002E0000004741545420536572766572204E
:107D200054696D656F75742E00000000436F6E6EB0
:107D300065637465642E0000A02A0020E02F0020F7
:107D4000504859207570646174652072657175655D
:107D500073742E004741545420436C69656E74203F
:107D600054696D656F75742E0000000010B51A4CD3
:107D70000188606810290ED011292BD1401E606047
:107D800028D1FEF7CDFF002824D02168002921D07A
:107D9000BDE810400847D0B900210122084600F094
:107DA000E9FA08B107280FD107220221012000F0CB
:107DB000E1FA08B1072807D104220221002000F0CF
:107DC000D9FA20B1072802D0216801B1884760683C
:107DD000401C606010BD0000DC2A00202DE9F04747
:107DE00001883B4E40F2F3194FF6FF7510291BD066
:107DF00011293ED0122954D0502946D1C188F28988
:107E0000841D914241D1618902293ED18688304644
:107E100002F026F8050038D004F10C0000F08BF9D0
:107E2000A8B3294630464EE0C17B87880446012925
:107E30002BD1A846284602F013F8050017D02F8052
:107E400000202872234843464A460168C5F80A10B4
:107E50004068C5F80E0004F1100105F10A0002F0B7
:107E6000CBF86872F08900280FD129462AE0042057
:107E700013E0808801F0F4FF040006D06068FFF78B
:107E80000BF908B106F03EFE2580BDE8F087FFE75C
:107E90006868FFF701F90028F7D0BDE8F04706F061
:107EA00031BE87880646384601F0DAFF0400ECD080
:107EB0002B464A4606F1080104F10A0002F09CF83C
:107EC000607221463846BDE8F04700F041BD000031
:107ED00044310020E42A00202DE9F04F0746858830
:107EE00002883D48012197B08346102A09D0112A03
:107EF00049D01A2A6CD1387AB1EB101F45D2012231
:107F000044E0354C083CA068C0430B9061680BA866
:107F100002F069FD0B990CA800F0B4FC2C220CA90E
:107F20006846FEF7A5FA0026E946A04610E000BF25
:107F300009EB46005FF00004B0F804A008EB8400F1
:107F40005146001D02F0EBFC641C1D2CF6D3761C80
:107F50000098B042ECD8142D05D317B00420BDE82A
:107F6000F04FFEF7E3BF2946584602F023FD2946AD
:107F700008F1040002F01EFDF87B012828D0164805
:107F80002946001D15E029461AE000220221B1EB26
:107F9000101F01D2012600E000260F49083901F127
:107FA0001000041D294682B102F004FD36B12946B5
:107FB000204617B0BDE8F04F02F0FCBC2946204631
:107FC00017B0BDE8F04F02F0AABC02F0A8FCF5E73C
:107FD00017B0BDE8F08F00006831002010B50446EE
:107FE0000748007800280AD0204601F067FD2046A7
:107FF00006F0A6FE2046BDE8104001F001BB10BD12
:10800000142B0020F0B585B016460F4604001D461F
:1080100014D004AA19466069FFF714FA00280BD19E
:10802000A5F57F40FF380BD0049848B1007848B1DF
:108030003088F42808D9072005B0F0BD0E20FBE7F2
:108040000520F9E70820F7E7002000900190029052
:108050000390A088ADF8000001208DF80200CDE962
:10806000026769462846AEDFE6E7000030B5144BEC
:108070000D4604000FCB85B08DE80F001ED0EDB18A
:108080002868A0612146684662DF002814D1207864
:108090008DF812000120ADF81000A21C04A9A8DF81
:1080A000002809D12946204606F003FB002803D109
:1080B0002946204607F0E2F905B030BD0E20FBE767
:1080C0004001030030B587B00446002925D0002CBC
:1080D00023D008462188102921D0502925D057299E
:1080E0001BD10546A18840696A46FFF7ABF9002815
:1080F00013D10098007800280FD0182101A8FEF7AE
:10810000D0F901208DF804000295A088ADF80C008C
:1081100000980490A96901A8884707B030BD07B04E
:108120002146BDE8304004F0AFBD07B02146BDE8B0
:10813000304004F0EBBF007800F001007047000011
:108140000649095C4FF0A040D0F81005C84010F077
:10815000010000D0012080F001007047F8FF02000C
:108160002DE9FC410646C0074FF000050ED0104F28
:1081700000240122385D009500231146019503F08B
:10818000E5F9641C042CF4D300F046F8B0070DD5D3
:10819000074E0024361D0022305D03230095114652
:1081A000019503F0D3F9641C042CF4D3BDE8FC81E1
:1081B000F4FF020007490B5C4FF0A041D1F8042501
:1081C0000120984020EA0203C1F808351040C1F8A8
:1081D0000C057047F4FF02000249085C012103F01E
:1081E00034BA0000F4FF02000249085C002103F0E9
:1081F0002CBA0000F4FF02000649095C4FF0A040D1
:10820000D0F80405C84010F0010000D0012080F033
:1082100001007047F4FF020010B500242046FFF76C
:10822000DBFF641C042CF9D310BD10B500242046DC
:10823000FFF7DAFF641C042CF9D310BD10B5024619
:10824000064B4FF0FF3000215C5C944201D10846A0
:1082500010BD491C0429F7D310BD0000F8FF02002F
:1082600070B5094E0C004FF00005306005D00120BC
:1082700000F054F808B102202070706810B9FEF7C1
:108280004FFD0546284670BDDC2A00202DE9F04749
:108290000D468146FFF7D2FF0446042836D2DFF8A8
:1082A00074801B481C4EA8F10C0725B3012D0ED07D
:1082B000022D2BD104EB440030444578002D25D00D
:1082C000B968002922D02846BDE8F047084704EBEA
:1082D0004401755C0E44717849B10E4A4FF4004177
:1082E000093A8068FEF794FE08B987F80390B178E0
:1082F00008F80410E2E78068FEF7CEFE04EB4401C4
:10830000314418F804008D78A842D7D0BDE8F08732
:10831000FCFF0200D82A0020E4300020042801D20B
:10832000FFF70EBF002070470146104810B5408887
:10833000042907D007290ED00A2915D1BDE810401D
:1083400006F0EEBC132176DF0CE000280CD0BDE86F
:108350001040FEF7EBBDA0F57F41FF3904D1044882
:10836000FFF74EFA0828F0D110BD0000A02A002027
:10837000EC2F002070B50023042810D20D4D00EB27
:108380004004012A02D101290CD00022094E00EB41
:108390004000304461B1012906D0022906D00723EC
:1083A000184670BD0E30C2B22A55F9E74270F7E7A1
:1083B0008270F5E7E4300020044A0146002012797B
:1083C000D20702D0084600F04DB87047CC2A0020F2
:1083D00070B506461E480024C0E90161B00720D5EB
:1083E0000025012211462846FFF7C4FF6D1C0446F4
:1083F000042D02D2002CF4D013E094B940F266624E
:1084000004211448FEF718FD04000AD1FEF702FD0E
:10841000040006D10F48104A0021001FFEF7BAFDE4
:108420000446F00712D00120FFF79AFE74B90948FC
:108430000A4A00210C38FEF7ADFD040006D10548BC
:10844000074A01210838FEF7A5FD0446204670BD05
:10845000CC2A002008000300E18602008DA0020063
:10846000036E02002DE9F05F6A4C05460026607835
:10847000B34618B184F801B001F0F0FD664F4FF437
:108480007A694FF4C87A4FF00108182D62D2DFE8FC
:1084900005F0AC0C0C31404D62676B746B74BE7DA3
:1084A0007D7D7D7DACAFB2B5BEBE0020FFF7A4FEE2
:1084B00000284FF0000008D0FFF78EFE022D02D1F9
:1084C0004FF4E16008E0484606E0FFF78DFE022D1C
:1084D00001D1C82000E05046410CC0034FF4FA72AD
:1084E000801841F10001257052000023FDF77CFF48
:1084F00001462AE00020FFF77FFE00284FF0000031
:1085000004D0FFF769FE4FF44870E5E7FFF76CFE13
:10851000DFE70020FFF770FE00284FF0000002D0D8
:10852000FFF75AFECFE7FFF75FFED4E70020FFF723
:1085300063FE00284FF0000002D0FFF74DFE01E07F
:10854000FFF752FE257041F69A1100223868FEF7B7
:108550005FFD064646E00020FFF72CFE257008E090
:10856000002051E025703DE084F801800120FFF7F4
:1085700021FE002240F6CD41E8E784F80180012089
:10858000FFF718FE00224FF48041DFE77868FEF71E
:1085900083FD0646D5F1110000D02EB10220FFF771
:1085A0001BFE84F802B01DE0012816D980B2C82154
:1085B0004843C117C90341EA5041C0034FF4FA725E
:1085C000801841F1000152000023FDF70DFF014624
:1085D00000227868FEF71CFD06460220FFF704FE25
:1085E00084F802803046BDE8F09F01F037FDB9E71E
:1085F00001F034FDB4E701F031FD04E001F02EFD9F
:108600000020FFF7F1FD0120FFF7EEFDAAE7FFF7DD
:108610000CFEA7E7CC2A0020FCFF02002DE9F8435E
:108620000546861C00208DF8000090460F464FF04E
:1086300001096846FEF7D6FD1B4C20683860D4E976
:108640000001401AA16804F21C47081A0EE001213B
:10865000384602F0C2F901F0B9FE0146384602F090
:10866000BCF9D4E90001401AA168081A401C8642EE
:10867000EDD8B8F1000F03D0052065F3891002E0B2
:10868000062065F39F50A2682168114004EB810128
:10869000C8602068304420609DF80000FEF7C6FDE9
:1086A0004846BDE8F8830000D838002030B482681E
:1086B0000468531C8360A154D0E901128A4202D39A
:1086C00030BC02F0F0BB30BC70470000034803C868
:1086D000814201D10120704700207047D838002026
:1086E00000780221FFF7D2BD05494FF0FF3208287C
:1086F00041F8202002D3084480F848207047000049
:1087000048340020F0B54FF0FF3512B100230826A1
:1087100001E008230C260C4C05E000BF54F8237040
:108720007F1C04D05B1CB342F8D32846F0BD26184A
:108730005DB286F8305044F82310002AF5D1E118D4
:1087400081F84800F1E7000048340020024908445D
:1087500090F93000704700004834002070B504469E
:108760004FF6FF750A462846AC4208D14FF4807494
:108770002146104605F03EFBA04209D070BDFF2CFB
:10878000FCD82146104605F028FB08B1204670BDF4
:10879000284670BD70B5084C050009D0103421681A
:1087A000002907D008682060496828468847F6E70E
:1087B0000834F4E770BD000034340020054A01217C
:1087C00020B1012805D19170FFF7E4BF517000205E
:1087D000FAE77047343400202DE9F05F26484168FD
:1087E000F1B3DFF898B00E688146DBF80040876887
:1087F0008078E11B21F07F45ED1CB0B9DFF8808067
:108800004FF48030C8F84403C8F804031120FDF782
:1088100071FF1120FDF779FF4FF0010AC8F800A0A1
:108820002F2003F0F9FD89F802A0B54200D23546A9
:10883000124BE8193C3320F07F401860DBF8001041
:108840005A46091B21F07F41001B20F07F40C91CC4
:1088500081420FD9106818602F2003F0DDFD00E081
:1088600004E0BDE8F05F1120FDF75ABFBDE8F05FFE
:1088700005F0E8BEBDE8F09F802B00200415014004
:108880000010014073B58CB00646002000900D9892
:1088900080B100246D4621460DA802F080F830B169
:1088A000009805EB400084800098401C0090641CF8
:1088B000142CF0D32C2269463046FDF7D9FD0EB0BA
:1088C00070BD2DE9F04117880646B81D14460D46C7
:1088D000984202D90C20BDE8F08131880722062990
:1088E0000AD34FF4486C4FF6FF73614501D99942A2
:1088F00002D17088062801D21046ECE7604501D904
:108900009842F9D1994203D0984201D08142F3D8DC
:108910000520E85520881221401C80B2208029546F
:108920002088401C80B220804119308807F008F868
:108930002188084480B220804119708807F000F82F
:108940002188084420800020C5E7FEF7EFBA000028
:1089500038B54A7A0F4B62B100220A725969002970
:1089600006D001228DF80020ADF802006846884745
:1089700038BD0A7A62B19B684C68024619462046A7
:10898000FEF746FB0028F3D0BDE8384006F0BAB841
:108990005B68F1E744310020F0B585B016460F461C
:1089A00004461D4614220B496846FDF761FD0A483E
:1089B0008DF80870ADF80240ADF80A608DF80C50E3
:1089C000017800222046FFF7EDF8684600F07AFAB9
:1089D00005B0F0BD14010300242B0020F0B5204C9D
:1089E0000D4606462088042101EB004087B033463F
:1089F0002A461CA103F085F8002004900590ADF8EC
:108A0000105001900290ADF8125001AA04A930460E
:108A100090DF070021D003F0A5FC03462088012544
:108A200005EB004032461B4903F06BF8BDF804200B
:108A300012B9BDF8060038B12088BDF8063005EB44
:108A4000004015A103F05DF8BDF808202AB1208888
:108A5000214905EB004003F04DF807B03846F0BD62
:108A6000942C00205570646174696E672064617491
:108A700061206C656E67746820746F202575206FA7
:108A80006E20636F6E6E656374696F6E203078253B
:108A9000782E00003C0503005468652072657175EE
:108AA00065737465642054582F5258207061636B4D
:108AB0006574206C656E67746820697320746F6FCD
:108AC000206C6F6E672062792025752F2575206FC9
:108AD00063746574732E00008805030030B5044686
:108AE00085B000211B4805F078F900282FD000251B
:108AF000204600F012FF68B1112812D086281BD042
:108B0000A0F54051023903D00146204606F002F894
:108B1000294607E005B029462046BDE8304001F06F
:108B200033BC0121204601F02FFC05B00021BDE837
:108B30003040084805F085B9142207496846FDF71A
:108B400097FCADF80240684600F098F9E0E705B000
:108B500030BD0000ED2A00203C0003007FB50C462C
:108B600010B1012004B070BD2079002638B141F663
:108B70001D5501281BD0022826D00F20F2E7022025
:108B8000207102960396E0680190694601A805F0FD
:108B9000B5FC50B102988188E18000882081BDF841
:108BA0000010029805F028FDDCE70A20DAE70A4BFE
:108BB0006A460021A01D05F05DFC38B10649183950
:108BC0008E61CE610A28CDD12846CBE70248818844
:108BD000019805F011FDF5E7C02B00202DE9F047C5
:108BE0000025DFF88C803CE06068002100EBC506C2
:108BF000012032789146FDF728FCD4E9062300EAEB
:108C0000020701EA030C57EA0C0728D082438B4382
:108C10004846C4E9062303F0C1FC327882469146F7
:108C200001200021FDF711FCD4E9042300EA02042D
:108C300001EA03074A4650460021FDF706FC44407E
:108C40004F403C430BD17078012801D0012100E056
:108C50000021726881EA0A010AB1484690476D1CFA
:108C6000EDB298F8000044468542BDD3BDE8F087D8
:108C7000602B002010B50021024801F0C9FE80F3EE
:108C8000100010BDF43C00200E4910B50A784C7855
:108C90000023A24212D0521CD2B20A70022A00D182
:108CA0000B70084A0B780C3252F823200260886857
:108CB000104420F07F408860012010BD0360002038
:108CC00010BD0000802B002013460A460021FFF74C
:108CD00063BE00002DE9F843104D0F4680461E4646
:108CE00091466946286801F0EEFD040014D01C216D
:108CF000FDF7D7FB01202071C4F81490380BC4F89D
:108D00000080C4E902606946286801F0FDFD05F0B5
:108D100045FB0020BDE8F8830420FBE700020300C8
:108D200010B503780022072B06D2DFE803F0050414
:108D30000610202930000A7010BD01230B70038932
:108D40008B818388CB81C06888600A7410BD022241
:108D50000A7002898A818288CA81C2688A60807D9D
:108D6000062802D00020087410BD0120FBE7032272
:108D70000A70C2888A810289CA81C068886010BD71
:108D800004230B70C0888881CA818A6010BD0520C9
:108D9000087010BD70B5064D0646002455F8241025
:108DA00009B130468847641C042CF7D370BD00001D
:108DB0003836002030B50446006887B00D4680681C
:108DC00000281FD018216846FDF76BFB0195A068AD
:108DD0000590207910B1012810D107E001208DF80D
:108DE000000020690290E068039005E002208DF801
:108DF0000000E068000302906069049020688168C8
:108E00006846884707B030BD70B586B015460C007F
:108E1000064619D0112C17D0082C15D014216846FD
:108E2000FDF73FFBADF80260304600F06DFFADF896
:108E300004000D2C0AD0862C1CD007208DF80000D1
:108E40000294684600F04CF806B070BD03208DF81F
:108E5000000025B12878C00701D0012000E00220E1
:108E60008DF8080000208DF80C0041F20110ADF8DB
:108E70000A00E6E706208DF80000E2E710B5044698
:108E8000408800F041FFA080024801682046BDE80C
:108E900010400847F42A00202DE9F041074600243D
:108EA000064E074D05E000BF56F8241038468847A7
:108EB000641CE8788442F7DBBDE8F081E8330020E9
:108EC000142B002010B50446408800F01DFFA08040
:108ED000024801682046BDE810400847E80003004A
:108EE00001490968084700003C01030070B586B0DD
:108EF000044614216846FDF7D4FAA0890125A0F59F
:108F00004040ADF8040020782A4E062833D2DFE82E
:108F100000F0320303032C48A08900F0D0F930B9E7
:108F2000E08943F6FE71A0F54040884223D8A07B3B
:108F30008DF80800207803280FD000208DF8090054
:108F4000A0680390606850B109208DF80000606847
:108F50000490684604F0A2FB0DE00120EEE7082033
:108F60008DF800008DF81050F3E7A08900F0A7F904
:108F700008B1E08930B17078002801D004F0BEFC5F
:108F800006B070BD606820B10B208DF800007570D0
:108F9000DFE70A208DF80000BDF8040004F038FD7A
:108FA000F5E713208DF800004FF6FF70ADF80400D0
:108FB000CFE70000042B002038B504460E480078A7
:108FC000A8B1A4F57F40FF380FD0684605F018F926
:108FD00078B10521017001210171C480684605F056
:108FE0001DF905F0CDF9002038BD042038BD022060
:108FF00038BD082038BD0000C82B00200C4808B53B
:10900000007888B1684605F0FBF878B10621017058
:10901000684605F003F90748017809B10121017399
:1090200005F0AEF9002008BD022008BD082008BDEB
:10903000C82B0020FC360020F0B587B0142168460C
:10904000FDF72FFA2B4C207818B16846FFF7A2FEE7
:109050004EE0201D01F0BEFCB8BB4FF0102041696E
:109060000004026940694B1C01D100FB02F1224857
:1090700000220161A1F54051C160204902F0A2F82F
:10908000002820D11F481C238C221D49006801F0B4
:1090900007FC04F0F3F8051E14D0022812D00027B4
:1090A0000126062D12D005A805F0AAF888B1067091
:1090B0000C2D18D2DFE805F0170F170F171617162B
:1090C000171113110B2007B0F0BD11E02670676077
:1090D000BBE70820F7E7077105E0032100E0022164
:1090E000017100E0067105A805F098F805F048F94F
:1090F0000020E8E7C82B0020802C0020100203008D
:10910000483600207801030038B5040014D06946C1
:1091100005F0F4F9A0B1BDF8000000EB80010948AA
:1091200000EB8100C16849B1A17A39B1C168491E1B
:10913000C1600020A07238BD052038BD062038BDB2
:109140000A2038BDD43600201FB501A9684605F0B5
:1091500091F904B010BD07B513460A4669460020D0
:1091600005F088F90EBD07B513460A46002168468A
:1091700005F080F90EBD20B119B10068086000202B
:109180007047052070470000F8B50D46040018D060
:10919000BDB1694605F0B2F9A8B1BDF800000B49B0
:1091A00000EB800001EB800001210C30666801F0CB
:1091B00014FC2E6060680C3068600120A0720020F2
:1091C000F8BD0520F8BD0A20F8BD0000D436002007
:1091D00018B10323002206F0D7BD052070470223F3
:1091E000002206F0D1BD12B1022306F0CDBD05204C
:1091F00070470000084910B50A69042A0AD0074AD6
:10920000096942F8210004480121103001F0E5FB12
:10921000002010BD0C2010BDA82B002038360020E7
:1092200038B5044609480D46007858B164B169461E
:10923000284606F0A3FE002803D1BDF800102180C7
:10924000658038BD022038BD052038BDC82B002000
:1092500010B504460E48007898B1A4B121880229BF
:1092600013D80C4A01EB810002EB8002608852891E
:10927000C31C934209D806F075FE00202080608050
:1092800010BD022010BD052010BD042010BD00003F
:10929000C82B0020D4360020826883881A400368D7
:1092A0009A5C0A708168491C81607047C268838833
:1092B0001A4003689954C168491CC160704743F65D
:1092C000FE71A0F54040884201D80120704700207F
:1092D000704710B504460078182802D1FEF73EFC0E
:1092E000207010BD10B504460078182802D1FEF792
:1092F00035FC207010BD70B50D460446B0F89810CE
:10930000D0F894000122FEF782F900B1057004F153
:109310003C0204F1940104F1540072DF70BD0000BE
:1093200070B51346002206461546862902D011293B
:1093300002D002E0012200E001250D4C73B1A179B9
:10934000FEF730FC2A4661793046FEF72BFC0022FE
:10935000A1783046FEF726FC002203E0A178FEF754
:1093600021FC2A4661783046BDE87040FEF71ABC01
:109370002C2B0020F7B517460E0011D000980025C1
:1093800060B100242146684601F009FB18B1A0B283
:109390003946B0476D1C641C142CF3D32846FEBD1F
:1093A0000020FEBD406804F04BBF00000EB516A1C2
:1093B0009DF8080020F00F00401C20F0F000103055
:1093C0008DF808000F2202A87CDF08B1FDF7AEFD82
:1093D00040F2C33078DF08B1FDF7A8FD002000900F
:1093E00001905021ADF80400ADF800104FF4C870A2
:1093F000A021ADF80600ADF8021068467ADF00281B
:1094000001D0FDF793FD0EBD4E6F726469635F542A
:10941000656D706C6174650070B508B1012070BD38
:109420001B4C0025207B08B1257301E000F0A4F857
:10943000207808282AD2DFE800F02904080C102937
:109440001422BDE8704000F025B8BDE8704000F07F
:1094500081B8BDE8704000F063B8BDE8704000F02E
:109460003FB8062020706088094900EB8000283949
:1094700001EB80004068BDE8704003F0DFBE0720CC
:1094800020706560BDE8704003F0E6BE0F2070BD3F
:10949000FC3600201149F0B48A1C00200346A1F1DB
:1094A00028050C18A67A4EB1A37200EB800405EBD8
:1094B0008404E66816B9247C012C0AD0401C80B2D2
:1094C0000228EED30B704B804B60F0BC41F61D5070
:1094D00070471080F0BC00F03DB80000FC36002062
:1094E0000C48418801EB8102A0F1280101EB8201C7
:1094F000CA6852B1052101700748022181800168C4
:1095000000230122054801F0C7BD0422027049680A
:10951000F6E70000FC360020D02B0020802C002035
:1095200038B50A49084803240B684268898803EB68
:10953000810153880470DB1C00201B0400909B0BEE
:10954000034801F019FF38BDFC360020D02B002065
:10955000802C0020074910B54888091D05F01EF829
:1095600018B1BDE81040FFF7DBBFBDE81040FFF7C2
:10957000B7BF0000FC360020F0B51F481F49012589
:10958000067802248B88A0F12802082E19D2DFE881
:1095900006F00418181B222F2F170189491C01817E
:1095A0000021418080F80C1001EB810312F8233078
:1095B00043B100234418491C89B2A3720229F3D392
:1095C0000570F0BD0123F5E742685288D21C1A44A9
:1095D0008A800470F0BD46880D6806EB860602EBB3
:1095E000860256680E60556013818C80062100E06B
:1095F00007210170F0BD0000FC360020D02B0020B8
:1096000030B501888488224D85B0502924D0522954
:1096100002D0542931D103E0204600F081FE2CE035
:1096200014221C496846FCF723FFADF8024020468F
:1096300000F06AFBADF8040000F022F9002269791D
:109640002046FEF7AFFA002229792046FEF7AAFA53
:109650006846FFF713FC10E0017B01290DD1817AE8
:1096600001290AD10089A0F52451023905D101212F
:10967000204600F089FE06F0D3F900220649E8787A
:10968000FEF744FA05B0BDE8304005F093BA00009B
:10969000EC2A0020640003007173020010B5044638
:1096A000007800280FD1608800F03AFE608800F052
:1096B00081F9002807D00449608801220979BDE8B2
:1096C0001040FEF76FBA10BDEC2A002010B5124C06
:1096D00000202070FEF742FAA070FEF73FFAE0701B
:1096E000FEF73CFA2071FEF739FA6071A17818296B
:1096F0000FD0E17818290CD02179182909D0182821
:1097000007D00121601C04F061FB012020700020C3
:1097100010BD032010BD0000EC2A00207CB50446DB
:10972000007808282FD1607A38BB207A4FF6FF7571
:1097300001280DD0072802D0082824D11EE0A088D7
:1097400000F020FAA8421ED0012100F01DFE1AE010
:10975000A0886A46012103F0B9FE70B9019800782B
:1097600058B1A08800F00EFAA8420CD00849012296
:109770000979FEF717FA05F01DFA04E00448002104
:10978000401C04F05EFBBDE87C4006F049B90000D7
:10979000EC2A002010B504460A4841782046FEF71E
:1097A000E9F968B10848002101EB410200EB8202AF
:1097B0005288A24201D1C8B210BD491C1429F3D36A
:1097C000FF2010BDFE2A0020D831002070B5094DC1
:1097D000094E002404EB440005EB800071784088BA
:1097E000FEF7C8F920B1641C142CF3D3FF2070BD20
:1097F000E0B270BDD8310020FE2A00202DE9F041F2
:109800008046024601200021FCF71FFE1A4F054644
:109810000E467868FDF740FC00280CD1174CD4E9BF
:10982000062110462A4001EA06031A4305D0A84340
:10983000B143C4E90601BDE8F081404602F0AEFE46
:1098400030B1D4E9040128433143C4E9040105E0FF
:10985000D4E90410A943B043C4E90410D4E90601D3
:1098600028433143C4E90601A1687868BDE8F041A6
:109870000022FDF7CDBB00005C010300602B00203F
:109880001CB5054AD2E90212CDE900120022694650
:1098900003F041FE1CBD00007C00030003484FF6AE
:1098A000FF7181800121017000207047F82A00209B
:1098B0002DE9FC41804600F027FA0024032501270A
:1098C000A0F57F412646FF3908D06A46082103F0FB
:1098D000FDFD18B90198841D8688056832462B461F
:1098E00021464046B1DF042804D0082804D00B28C4
:1098F00008D002E0112000E00020002F00D10B2052
:10990000BDE8FC810027A80701D50125E6E734431F
:10991000F5D0002426460325E0E72DE9FC418046EA
:1099200000F0F2F90646A0F57F40FF380ED0012581
:109930002A466D1C0027ADB26B460821304603F065
:10994000EFFD040006D0072C25D025E043F20200ED
:10995000BDE8FC81019903230A1D0B604046891D67
:10996000B2DF040004D00C2C09D0052C09D009E08A
:1099700032460821104603F049FE04460CE0012758
:1099800000E000240821304603F02CFE00B103243F
:10999000002FCDD100E00C242046D9E70448808870
:1099A000A0F57F41FF3901D005F00EB970470000E6
:1099B000F82A00200EB502A9019100F0A5F96A4627
:1099C000012103F083FD08B100200EBD019800784D
:1099D0000EBD00002DE9F04107464FF6FF760A481C
:1099E000B3DF10B10320BDE8F081074C43F203055B
:1099F000A41E324661883846AFDFA842F3D16088A2
:109A0000401C6080F5E70000FA2A0020428800EB45
:109A100082020C328A4201D9022070478188A1F566
:109A20007F42FF3A03D0008808B100207047012030
:109A30007047884204D20068401C01D00120704762
:109A4000002070473EB5027802230C46B3EB520F5C
:109A500017D1B0F80110ADF80010C1788DF80210E0
:109A60008188ADF8041080798DF8060002AA01A95A
:109A70002046FDF79DF9032202A96846FCF723FD65
:109A800008B100203EBD01203EBD000010B50C46CF
:109A9000FFF780FEFF280CD0074900EB400001EBE8
:109AA0008000416821600189A180807AA071002036
:109AB00010BD052010BD0000D831002070B5018810
:109AC00090B0102959D1011D2C226846FCF7D0FC1A
:109AD0009DF804004FF6FF76032134466D46B1EB46
:109AE000500F2AD003F048FE9DF8040040080ED025
:109AF00001280CD0022820D118E00D99281D113121
:109B0000FDF7E9F818B100BFBDF82C4015E00CAA2C
:109B10000BA9072003F004FE0028EED10DE00D99FB
:109B2000281D491CFFF78EFF0028EDD10CAA0BA9B8
:109B3000072003F0F5FD0028F1D1BDF80000291D34
:109B400000F058FEB44218D0BDF80000214600F0E5
:109B5000C5F8BDF80000ADF82E000020ADF830408B
:109B6000074E8DF82C000BAD044600BF56F82410AC
:109B700028468847641C022CF8D310B070BD000042
:109B800090000300094A002101EB410332F8233021
:109B9000834205D101EB410002EB80004088704711
:109BA000491C1429F0D34FF6FF707047D8310020BC
:109BB0003EB50C46054603F0DFFD0BE0BDF80000A6
:109BC000A04207D02846029900F02EF810B1BDF847
:109BD00000003EBD01AA6946072003F0A1FD002850
:109BE000ECD14FF6FF703EBD10B50D4C18200D4A5C
:109BF000607000204FF6FF7100EB400302EB83031F
:109C0000401C59801428F7D3FDF7A8FF607018286E
:109C100003D001202070002010BD032010BD0000E3
:109C2000FE2A0020D83100202DE9F0410C460546DF
:109C300000F1110701F111061022491C401CFCF72C
:109C400042FC48B9681C00F0F9F928B1601C00F02A
:109C5000F5F908B1012400E0002431463846FDF74B
:109C60003AF83B780222B2EB530F0CD00321B1EB50
:109C7000530F08D03378B2EB530F04D0B1EB530F2E
:109C800001D0012100E00021084201D18C4302D023
:109C90000120BDE8F0810020FBE7018811B94218DE
:109CA00092780AB101207047491C0829F7D3002097
:109CB000704710B50C460346FFF7EFFF00280AD0A7
:109CC00018882188884205D10822A11C981CFCF71D
:109CD000FAFB08B1002010BD012010BD03F0ECBE5E
:109CE00070B50446FFF74EFF0546204603F0F1FB32
:109CF0004FF6FF7104468D4203D014B9284603F095
:109D0000DBFE204670BD000010B5FFF743FDFF28C5
:109D100005D0044900EB400031F8200010BD4FF69B
:109D2000FF7010BDD83100203EB5044603F024FD7D
:109D30000EE0019920464631FFF7BBFF28B9019993
:109D400020462A31FFF7B5FF10B1BDF808003EBD2F
:109D50006A4602A9072003F0E3FC0028E9D14FF688
:109D6000FF703EBD10B50A4941600A4800F032FE5E
:109D700058B902F081FA07491C238C220874044860
:109D80008C39001F006800F08BFD002010BD000022
:109D900004020300983700202DE9F0412D4F0025E3
:109DA00018B17D600120BDE8F0810879012258B129
:109DB000294E01280CD0274C4FF002080834022805
:109DC00021D0032842D128E00A7103F045FA3BE094
:109DD0005FF0000000EB800116F82110022908D086
:109DE000401C80B20228F5D33A707D6041F61D50C8
:109DF000D9E700EB800006F8205006EB80004068B1
:109E000003F01CFA20E00D71A4F804800023012265
:109E10001248216801F040F916E00D71206803F046
:109E20000DFA0D4923682831498801EB810206EBC0
:109E30008201D1F804C0C4F800C04B60A3880B8134
:109E4000A4F8048006F822500028ACD07D600E20D3
:109E5000A9E70000C82B0020D4360020802C002069
:109E60000146034802888A4200D000207047000063
:109E7000303100202DE9FC5F0E008346DDE90C4700
:109E8000C6F1000098469246814600D40846012556
:109E900003E000BF90FBFAF06D1C5045FADAA845CC
:109EA00000D9454624B1002E01DB780700D5641E99
:109EB000B80702D5B8F1000F0AD0F80708D13CB1B5
:109EC000A54205D220215846641EFEF7EFFBF6E7B7
:109ED000002E02DA4E462D2102E0780703D52B2111
:109EE0005846FEF7E3FB07F0030002280BD1B8F158
:109EF000000F08D13CB1A54205D230215846641E5E
:109F0000FEF7D4FBF6E7CDE900474346524631461B
:109F1000584605F02BFDBDE8FC9F000070B50D46CE
:109F2000044600684FF4887102F03CFA4FF49071D7
:109F3000206802F037FA4FF49271206802F032FA8A
:109F40004FF4A271206802F02DFA20681249C0F87F
:109F5000041320686907000B40B2090E002806DAD6
:109F600000F00F0000F1E02080F8141D03E000F184
:109F7000E02080F8001420680121000B40B200F0BE
:109F80001F0291404009800000F1E020C0F88012DB
:109F9000C0F8001170BD000010030200024600204E
:109FA0001268930702D0530702D47047500714D5A4
:109FB00002F00300012802D002280CD105E0C2F310
:109FC00083100B68801C184404E00223086803EB2C
:109FD00092521044086001207047086800EB9253C9
:109FE000C2F38910401CEEE70248007A002800D036
:109FF0000120704798370020F0B58488A518944256
:10A0000000D82246A41AC288D6189A4200D813460D
:10A01000D21A4B880788BB420CD34088834209D8A8
:10A020008888A04206D3A84204D8C888904201D3A9
:10A03000B04201D90020F0BD0120F0BD0021425CFA
:10A040000AB101207047491C1029F8D3002070473D
:10A05000800701D000207047012070470A4810B5E2
:10A06000807860B1002401E0022C06D02046FEF783
:10A07000B3F8641C042CF7D310BD0324F6E7BDE845
:10A080001040FEF7C9B80000CC2A0020034801792F
:10A09000C90702D00078FEF7E5B97047CC2A002046
:10A0A000F7210180172141800021017141711B219D
:10A0B0008171C171704700002DE9FE4F2B4D98460C
:10A0C00091460F00824601D000260DE0684600F060
:10A0D000BDFB6A460021504603F067F92878009ED0
:10A0E00010B99DF8090098B14A463146504604F02F
:10A0F00083FF0446014600225046FFF711F90D2C5C
:10A1000032D008DC84B3082C2ED00B2C0BD12BE0E2
:10A110000520BDE8FE8F112C10D0862C1AD0A4F596
:10A120004050023820D00325B8F1000F04D0324649
:10A1300021465046FEF768FE2846EAE73A46297966
:10A140005046FDF72FFD4A46E9785046FDF72AFDB7
:10A150000025E9E73A4629795046FDF723FD4A46AE
:10A16000E9785046FDF71EFD2546DDE72C2B002043
:10A170002DE9F041204F0E46154604463978FDF78B
:10A18000F9FC002835D0204603F006F950B32046EC
:10A19000FFF7BAFD80462046B978FDF7EBFC08B121
:10A1A000012700E00227204603F09EFB00284046DE
:10A1B00002D0FFF795FD0DE0A8F57F41FF3909D0EA
:10A1C000072103F00FFA010004D0052902D0204630
:10A1D00004F0B4FC2B46324639462046BDE8F04137
:10A1E000FEF7DABB2A4631462046BDE8F041FEF7CD
:10A1F0006BBDBDE8F0810000242B002070B5094D37
:10A200000646E978FDF7B6FC044629793046FDF7A5
:10A21000B1FC014622463046BDE870400123FFF7FD
:10A220004BBF00002C2B00202DE9F047394E0027B2
:10A2300080463D46DFF8E090D6F804A057E003D012
:10A240000446D0F81C8035E099F8002002EB42016A
:10A25000521CD2B289F8002009EBC10199F80230F2
:10A26000091D9A4201D189F8005048680A780446CD
:10A27000012A12D0022A02D0032A3BD108E005F0BD
:10A280005FF800B10127257434E00574C06900E06F
:10A2900070680028F9D170602CE0207C50BB886881
:10A2A0006060C868A0600869E0604869A061F078F3
:10A2B00000B165606268B168184B501A20F07F40A9
:10A2C000984202D2A168084406E0881AA16820F0EA
:10A2D0007F40814202D9081A206000E02560656055
:10A2E0000120A56020742046E56105F00BF8B8F167
:10A2F0000000A4D199F8001099F801008142A3D17F
:10A3000017B97168514502D00120BDE8F0870020DF
:10A31000FBE70000802B002014350020FFFF7F00AA
:10A3200030B585B00546002414216846FCF7B9F81D
:10A33000A5F57F40ADF80250FF3815D02846FFF74D
:10A34000B7FA98B10B2815D0112811D0A0F54051BB
:10A35000023903D00146284604F0DCFB09482246B6
:10A36000C1782846FDF71EFC05B030BD0E2002E086
:10A370000124F3E70F208DF800006846FEF77EFD0C
:10A38000ECE70000EC2A00200A4602498978FDF734
:10A3900009BC0000EC2A0020F8B5054600780C4600
:10A3A000002620420FD100208DF800006846FCF7FF
:10A3B00019FF2878204202D12043287001269DF8F9
:10A3C0000000FCF733FF3046F8BD00002DE9FF41E7
:10A3D0000026234800F0FBFA2148001F074600F042
:10A3E000F6FA204C60680090A56800E00098694685
:10A3F000284004EB80000C30FFF7D0FD0028F5D199
:10A4000001AA009901EA050304EB8303491CDB68F8
:10A4100042F82030401C00910228F2D3019800F04D
:10A42000030001280BD0022810D10198032101EB71
:10A4300090500099BDF80A6001EB900005E001988A
:10A44000BDF80A60C0F3831008440090384600F05D
:10A45000BBFA08B10098606004B03046BDE8F081F6
:10A46000F03C0020D8380020ACB018226349684680
:10A47000FBF7FEFF6248069062494FF48070CDE919
:10A48000070109900723604A06A96846FCF72EFEDB
:10A4900008B1FCF74BFD4FF40041002001F098FBA0
:10A4A00008B1FCF743FD01F0B3F9FCF787FD08B1F3
:10A4B000FCF73CFD55490320FDF78AFF08B1FCF786
:10A4C00035FD69460020FDF7CBFE08B1FCF72EFDF7
:10A4D0009DF8000002287DD05FF0000501F096FC99
:10A4E00008B1FCF723FD01F06DFE08B1FCF71EFD7D
:10A4F000002469460120009401F0CAFC08B1FCF771
:10A5000015FD684601F06EFD08B1FCF70FFDFEF782
:10A510004DFF00213E4800F0F0FA08B1FCF706FDBF
:10A52000AC216846FBF7BDFF02208DF8000001203A
:10A530008DF8020006218DF80310ADF810003549A2
:10A540008DF87C0005914FF49670CDE922043248D5
:10A5500029902F4869462030FDF788F808B1FCF7AC
:10A56000E5FC2B4801212030FDF77DF82B480190B8
:10A57000274801A9143000F084FB08B1FCF7D6FC91
:10A580002748009023486946801DFDF76FFD08B1FC
:10A59000FCF7CCFC1C216846FBF783FF4FF420300E
:10A5A000CDE900404FF4702002901E48059003262C
:10A5B0001D488DF80C600690ADF80E408DF81040E7
:10A5C0006846FDF755FA08B1FCF7B0FC03F082FAD3
:10A5D000164800E00FE0008815A106EB004001F0EE
:10A5E00085FA2846FCF7C0FB01F020F90028FBD1D2
:10A5F00001F020FCF8E7012570E70000DCFF020015
:10A60000CC2D0020CC2E002071F502002983020001
:10A61000CC2F0020A62A002021CC020079BE020007
:10A6200041CB02006DCC02004B890200C82C0020F7
:10A6300054656D706C617465206578616D706C65D2
:10A6400020737461727465642E00000070B5144646
:10A6500082880E4605462088111D0144921C9942AD
:10A6600001D8FE2A01D90C2070BD521C325420881A
:10A67000FF21401C80B2208031542088401C80B2D1
:10A6800020808119288805F05BF92188084480B270
:10A690002080AA8842B1A96841B13044FBF7E8FEA6
:10A6A0002088A98808442080002070BD072070BD44
:10A6B0002DE9F047C7880446181D16468946B0FBA9
:10A6C000F7F1B0FBF7F207FB12009A193A44D21CDB
:10A6D000B2FBF7F2DDF820A001E02468491E002952
:10A6E000FBD13D1A8846B54216D818E0BAF1000FE2
:10A6F00005D0211809EB08002A46091D04E0204472
:10A7000009EB08012A46001DFBF7B2FE0020246871
:10A71000761BA844B74201D9354600E03D46002EDD
:10A72000E4D1BDE8F087000030B5024659B101F030
:10A730007BFA0021074C09E004EB810315685B8874
:10A74000AB4202D11160002030BD491C8142F3D3DD
:10A75000052030BD942C0020F8B50F460178144632
:10A760000546012901D1687830B12088821C9A42BF
:10A770002DD8012902D006E00720F8BD69780144F0
:10A78000891C994223D8181A801E86B2ADF8006041
:10A790002188B81C084469467DDF0028EDD128785F
:10A7A000022805D1BDF80010B14201D809210AE004
:10A7B0000821012805D16878B04202D8ADF8000020
:10A7C00001E0ADF80060BDF80000FE2801D90C20C2
:10A7D000F8BD2288401CB8542088401C80B22080DC
:10A7E00039542088401C2080BDF800100844208087
:10A7F0000020F8BD70B505460C004FF0FF0020D0DA
:10A800004FF6FF76B5421CD00E480122417828460B
:10A81000FDF7C8F92846FEF7BDFFFF2803D1FEF774
:10A82000D5FFFF280DD0084B00EB400203EB82015F
:10A830004D8023F8226022684A60A2880A81A279AA
:10A840008A7270BDFE2A0020D8310020034A002100
:10A850009268C0E900218160704700002C2B002025
:10A8600070B54FF6FF750E46A84201D1002000E0FA
:10A87000401C84B208E02146304603F0D6FA08B105
:10A88000204670BD641CA4B2FF2CF4D9284670BDCC
:10A8900010B5FBF70CFD08B1002010BD112010BD54
:10A8A00010B531B1B2FBF3F403FB14241CB1092041
:10A8B00010BD0E2010BD01600021416081608281C9
:10A8C000C381084610BD70B50C460546FBF7A4FCD5
:10A8D000002802D021882868084470BD10B50A8875
:10A8E00049888A4203D1FBF7D9FC012010BD002022
:10A8F00010BD70B50C460546FBF7B3FC002802D02E
:10A9000061882868084470BD10B50A8849888A4261
:10A9100003D1FBF79DFC012010BD002010BD01F00C
:10A920001F0301229A40D243490900EB81001146DE
:10A9300000F059B80A4601F01F030121994010B5F3
:10A9400052090C4600EB820000F05DF8204000D078
:10A95000012010BD2DE9F04180460D460024481E1F
:10A96000012101EB501716E058F82400C04390FA7B
:10A97000A0F0B0FA80F020280CD200EB4416AE42D2
:10A9800008D231464046FFF7D5FF0028ECD13046CB
:10A99000BDE8F081641CA742E6D82846F8E74A09DA
:10A9A00050F8220001F01F0201219140084000D020
:10A9B0000120704701F01F0301229A40490900EB72
:10A9C0008100114600F029B8002100F017B80121DC
:10A9D00000F023B8012100F016B808B56A46FBF76D
:10A9E000B2FC009808BD08B56A46FBF792FC0098D7
:10A9F00008BD08B56A46FBF7A6FC08BD08B56A465F
:10AA0000FBF787FC08BD08B56A46FBF775FC08BD77
:10AA100008B56A46FBF764FC08BD08B56A46FBF753
:10AA20006BFC009808BD08B56A46FBF799FC0098D6
:10AA300008BD38B5044600258DF800506846FCF77F
:10AA4000D1FB21686268086890420ED9401E0860F8
:10AA50000178A38AE26801FB0325227A2168101A93
:10AA6000C0B20A79824200D208719DF80000FCF75A
:10AA7000DDFB284638BD38B5054600208DF80000BE
:10AA80000C466846FCF7AEFBE868A98A201AB0FBC2
:10AA9000F1F12A681068431C136001709DF80000F2
:10AAA000FCF7C4FB38BD10B530B1017A42680368C9
:10AAB000891AC9B21A6006E00E2010BD03681A6830
:10AAC000541C1C601170491EC9B2F7D200680021E5
:10AAD0000171084610BDC20800F007030120895C1F
:10AAE00098400840704710B5C20800F00703885C22
:10AAF00001249C402043885410BD10B560B1016111
:10AB0000F72120F8021B20F8021B1B2100F8021B72
:10AB1000FFF7C6FA002010BD0E2010BD2DE9F0474A
:10AB2000B0F804900C465FEA09025FD10188304E0C
:10AB30004FF0040A24291FD006DC102909D011295E
:10AB40000CD0232931D11CE03A290BD055292CD126
:10AB50000DE00146204602F0CDF826E0A01DFFF7EB
:10AB60009FFA22E00146204602F07EFA1DE00146EF
:10AB7000204602F0D1F918E00146204602F03CF9E7
:10AB800013E0057A3188071D0AEB014004F106083D
:10AB90002B4618A100F0B5FF98F80600A84200D295
:10ABA000054629463888FDF719FFA07A00281DD0F0
:10ABB000E1884846A5DF012560B1112816D001F0D3
:10ABC000D1FB024630881BA105EB0040BDE8F047F1
:10ABD00000F090BF0023A372E5723188E2880AEB8F
:10ABE0000140BDE8F047204900F08BBFBDE8F08789
:10ABF000942C002050656572206F6E20636F6E6E1E
:10AC0000656374696F6E2030782578207265717580
:10AC1000657374656420612064617461206C656E85
:10AC2000677468206F662025752062797465732EBD
:10AC30000000000073645F626C655F676174746339
:10AC40005F65786368616E67655F6D74755F726577
:10AC5000717565737428292072657475726E6564E8
:10AC60002025732E00000000F404030020B10278B8
:10AC7000DE2A03D0082070470E2070474180002054
:10AC8000704760B159B10278DE2A0AD00968416084
:10AC9000DE2101704FF6FF714180002070470E20C9
:10ACA0007047082070477FB5054600294DD0002D1C
:10ACB0004BD008780C46DE2847D1A88861888842A6
:10ACC00002D1204604F0FCFE2888012825D0022865
:10ACD0003BD011283AD0512837D135F8040F61887C
:10ACE000884232D1A978A81C02292ED1017A0429E0
:10ACF00003D0062901D0052927D100210091022285
:10AD00008DF8002001914FF4C07202910391ADF8CB
:10AD10000420007A05280FD010E0297A2046012966
:10AD200013D1A988428891420FD10121017204B048
:10AD3000BDE8704004F0C4BEADF804102888694630
:10AD4000B0DF002801D0616888477FBDA88861888E
:10AD50008842FAD14FF6FF7060807FBD00F18040DD
:10AD60000068002800D00120704708B500F180403D
:10AD7000002101600068009008BD000070B50B4C18
:10AD8000207808B185250FE00020A0606060206178
:10AD9000E060074801F022FB054601F06DFA08B9B2
:10ADA00001F006FB01202070284670BD34340020DD
:10ADB000BD87020038B500258DF800506846FCF7C5
:10ADC00011FA074CE068401EE060E06810B901F03D
:10ADD00015FBA5709DF80000FCF728FA38BD0000AF
:10ADE00034340020F0B505460478154889B016467D
:10ADF00040F82420124A0869121DA2F1080742F8FF
:10AE00002400487F385520226846FBF731FB049424
:10AE10002878385C48B10EB10A4A00E00022694641
:10AE2000281D01F07FFD09B0F0BD0EB1064A00E01B
:10AE30000022694605F10C0001F02AFCF3E700004E
:10AE4000482B00201DF80200C5F6020030B403783C
:10AE5000054CE35C1BB130BC001D01F099BD30BC5A
:10AE60000C3001F07FBC0000442B002030B403788C
:10AE7000054CE35C1BB130BC001D01F00BBE30BCC7
:10AE80000C3001F0E5BC0000442B00200FB408B5E5
:10AE90000399002904D004AA00926A4600F00FF832
:10AEA00001B05DF814FB10B582680446002A05D095
:10AEB000D4E90403216898470020A06010BD2DE963
:10AEC000FC4791460C00804676D014F8011B39B13E
:10AED00025290ED04046FDF7E9FB20780028F4D163
:10AEE00098F80C00002867D04046BDE8FC47FFF703
:10AEF000DABF0020012221782B291BD02D2902D076
:10AF0000302908D102E040F0010001E040F00200E9
:10AF1000641C002AEFD100252A290ED02178A1F146
:10AF200030020A2A11D205EB850201EB4205641CAE
:10AF3000303DF1E740F00400EAE7D9F800100B1DBE
:10AF4000C9F800300968641C0D44217800232E29BB
:10AF50000BD114F8011FA1F130020A2A05D203EB2C
:10AF6000830201EB4203303BF3E76C290DD06829E3
:10AF70000BD0692921D00BDC252918D0582931D0D4
:10AF800063290ED0642915D117E014F8011FECE7EE
:10AF9000702969D0732932D075291BD0782909D13D
:10AFA00020E0D9F80000011DC9F8001001784046E2
:10AFB000FDF77CFB641C90E76CE0D9F800100A1DDB
:10AFC000C9F800200968CDE900500A224046FEF782
:10AFD00051FFEFE7D9F800100A1DC9F800200968F1
:10AFE0000A2206E0D9F800100A1DC9F800200968F5
:10AFF0001022CDE90050404604F0B8FCDAE7D9F859
:10B00000001000270A1DC9F800200E68C00705D1EE
:10B0100012E04046761C7F1CFDF748FB3178002982
:10B02000F7D104E0202140466D1EFDF73FFBBD42F5
:10B03000C0D9002DF6D1BDE74EB13046FBF73CFA42
:10B04000074604E0202140466D1EFDF72FFBBD4260
:10B0500006D9002DF6D103E04046761CFDF726FB0D
:10B0600031780029F8D1A5E7D9F80000011DC9F809
:10B070000010056830214046FDF718FB7821404656
:10B08000FDF714FB08200021CDE900010346102242
:10B090002946B0E7BDE8FC872DE9F84F2B4E0400A8
:10B0A0009A4630884FF001031546894603EB00406D
:10B0B00024D0216800292BD0002D32D06268494667
:10B0C0004FF010071268A2F1010C1CEA090F11D110
:10B0D00098466A432046FBF717FE00282AD02068CE
:10B0E00053462A46066901B049462046B446BDE8A3
:10B0F000F04F6047164B17A2009721E00E210091F8
:10B10000134B1EA21FA100F004FD0E20BDE8F88F16
:10B11000082100910E4B26A21AA100F0FAFC08208B
:10B12000F4E7092100910A4B24A216A100F0F1FCDA
:10B130000920EBE700973188054B214A08EB0140D5
:10B1400010A100F0E6FC1020E0E70000B82C002081
:10B15000EB010300616464725F69735F706167652E
:10B160005F616C69676E656428705F66732C207020
:10B170006167655F6164647229000000705F6673D7
:10B1800000000000257320636865636B20666169B9
:10B190006C656420696E202573282920776974689E
:10B1A0002076616C756520307825782E00000000CF
:10B1B000705F66732D3E705F617069006C656E0034
:10B1C0003406030038B503000F484FF001054FF077
:10B1D0000E04008805EB004009D061B119600C68CD
:10B1E00001B0A446BDE83040114618466047074B01
:10B1F00007A2009402E0054B07A2009408A100F00A
:10B2000088FC0E2038BD0000B82C0020A0010300EF
:10B21000705F667300000000705F6170690000007D
:10B22000257320636865636B206661696C656420C3
:10B23000696E202573282920776974682076616CEF
:10B24000756520307825782E000000002DE9F0414A
:10B2500028B1016819B1C969BDE8F04108470D4D31
:10B260000D480024461B14270DE000BF04EB8400AA
:10B2700005EB8000016829B1C969884710B1012038
:10B28000BDE8F081641CB6FBF7F0A042EED80020C8
:10B29000F6E70000802C0020942C002004480121B7
:10B2A0004174007A08B10020704701207047000007
:10B2B00098370020012801D0032808D10449002232
:10B2C00001284A7400D00020087403F009B87047C0
:10B2D0009837002070B50246022801D0032A45D1D4
:10B2E000234C207A002841D0012833D0022831D1C4
:10B2F00020480023022A006802D0032A2AD11BE03A
:10B30000E360017911B1012924D10DE0D0E905658F
:10B31000711B4FF48056B14200D3314629448161FC
:10B320004569A9420ED015E00169491C01614269D5
:10B3300091420FD1237213E0E168491CE1600829B2
:10B3400008D9E3602372022A0AD00D21FDF732FDED
:10B3500002F06CFF607C28B1BDE8704000F092BF45
:10B360000021F3E7BDE8704002F0BABF70BD0000F5
:10B3700098370020EC2B00202DE9F84F3A4D0400BF
:10B380008B4628884FF00106DDF828A098469146A4
:10B390004FF00E0106EB00401AD0B9F1000F1BD0A0
:10B3A0002168002920D00921B8F1000F25D062685A
:10B3B0005368B8FBF3F703FB1782002A21D02B4B0D
:10B3C0002BA2009135A100F0A4FB0920BDE8F88F65
:10B3D000264B3DA2009102E0244B3DA200912FA1FB
:10B3E00000F097FB0E20F1E7082100911F4B3AA2D5
:10B3F0002AA100F08EFB0820E8E71C4B39A200913F
:10B40000E0E75846FBF77AFC102798B14846FBF76F
:10B4100075FCB0B1424659462046FBF775FCB8B101
:10B42000CDF800A0206843464A46C56859462046E4
:10B43000A847CBE7009728880C4B06EB00402AA2D0
:10B440000CE000972888094B06EB00402CA205E091
:10B4500000972888054B06EB004032A20FA100F0B0
:10B4600058FB1020B2E70000B82C0020D8010300E0
:10B4700021286C656E202520705F66732D3E705FFD
:10B48000666C6173685F696E666F2D3E70726F6780
:10B4900072616D5F756E6974290000002573206309
:10B4A0006865636B206661696C656420696E202540
:10B4B00073282920776974682076616C756520305F
:10B4C0007825782E00000000705F66730000000091
:10B4D000705F737263000000705F66732D3E705F73
:10B4E000617069006C656E00616464725F69735FAE
:10B4F000616C69676E656433322864657374290012
:10B50000616464725F69735F616C69676E656433FF
:10B5100032282875696E7433325F7429705F7372D4
:10B5200063290000616464725F69735F776974689E
:10B53000696E5F626F756E647328705F66732C202E
:10B54000646573742C206C656E29000070B541EA47
:10B550004201DDE904564FF0A04441EA830141EA8B
:10B56000052104EB800041EA0641C0F8001770BDD8
:10B5700070B541EA4201DDE904564FF0A04441EACA
:10B58000830141EA052104EB800041EA0641C0F84D
:10B59000001770BD70B541EA4201DDE904564FF075
:10B5A000A04441EA830141EA052104EB800041EA1D
:10B5B0000641C0F8001770BD70B541EA4201DDE9EF
:10B5C00004564FF0A04441EA830141EA052104EB0F
:10B5D000800041EA0641C0F8001770BD1CB500228A
:10B5E0000B46009211460192FFF7D4FF1CBD1CB51B
:10B5F00000220B46009211460192FFF7DDFF1CBDB1
:10B600001CB5002100910B46012201911146FFF764
:10B61000C1FF1CBD1CB5002100910B460122019108
:10B620001146FFF7C9FF1CBD4FF0A04202EB80009E
:10B63000D0F8002722F44032C0F80027D0F80027C5
:10B6400042EA0141C0F80017704701224FF0A043C1
:10B65000824011B1C3F808257047C3F80C25704724
:10B6600018B5084B6C4601441B68009306E000BF08
:10B6700054F82030D3F81035401C08C28142F7D866
:10B6800018BD000050010300034908B5084400211B
:10B6900001600068009008BD006000400249405809
:10B6A000012800D0002070470060004030B5124BE8
:10B6B00001460020D3F81044224609E0157A85425D
:10B6C00005D1401C0A28F7DB4FF0FF3030BD52682F
:10B6D000002AF3D1421CF9D00872D3F810242AB101
:10B6E00052684A60D3F81024516030BD0022C3F87C
:10B6F00010144A6030BD0000D83800207047FBF7B6
:10B7000069B8704708B5034A00924023024A00F026
:10B7100005F808BD65EB0200D8370020F0B595B0FC
:10B720001C4615460E4608461A9F00F04DFB182190
:10B7300009A8FAF7B6FE0E97CDE9095400230822AE
:10B7400003A9304600F055FB05980690BDF810009F
:10B75000ADF81C00BDF81200ADF81E0000208DF8F9
:10B7600021000399082501F00300012802D00228D6
:10B7700016D02FE0C1F3C200C1F383178C0A8DF8F5
:10B780002000BA002B460FA9304600F032FB09A872
:10B79000009006AB3A460FA9204600F071FA19E076
:10B7A000C1F3C2008C0D8DF82000082C01D2274671
:10B7B00000E008272B463A460FA9304600F019FB57
:10B7C0003D44E41B09AB06AA39460FA800F0AAF9CC
:10B7D000002CEAD1304600F0FDFA15B0F0BD0000B3
:10B7E0000A4A012902EBC00007D0022907D0032929
:10B7F00007D0042907D0002070470220704704209A
:10B80000704700797047407970470000800D030051
:10B8100010B5FFF774FF04210348FFF747FF024903
:10B820000120487210BD00001C2C00202DE9F04FB3
:10B830008DB0FCF74BFF18B100200DB0BDE8F08FC4
:10B84000784C4FF0000BC4F818B4BFF34F8F60680A
:10B850000290A568D846284004EB800008E02168E3
:10B860000298814201D86160E6E7284004EB80003D
:10B870000C3002A9FEF792FB0028F0D109AA029928
:10B8800001EA050304EB8303491CDB6842F820301E
:10B89000401C02910228F2D3099800F0030102290A
:10B8A00002D001294CD0A5E0810D50228946B2EB8F
:10B8B000905F00D850210E4666F39F5009900831E2
:10B8C000594800F038FA070076D000F07DFA434678
:10B8D000082209A9384600F092FA029908F1080AEC
:10B8E0002940681A8000001D864222D94D4D0C3532
:10B8F00030B1C2B204EB8101301A90460C3104E041
:10B900002946F2B2002590462846C6B2534638462C
:10B9100000F075FA0AEB080325B13246294638468D
:10B9200000F06DFA029909F1030001EB900002901A
:10B9300039E004EB81015346324638460C31EFE7DB
:10B94000C0F38311062900D3062161F38910099001
:10B95000C0F38310801C8100334800F0ECF907002D
:10B9600048D000F031FA4346082209A9384600F0D1
:10B9700046FA08F1080800260FE00298434600EA5C
:10B980000501401C04EB81010290042238460C3171
:10B9900000F035FA08F10408761C0998C0F383100A
:10B9A000B042EAD847B1D4F81054D4F8180468B1BA
:10B9B000384600F00FFA2FE01CE0687A012804D125
:10B9C0002A6828463946126890476D68002DF4D1E0
:10B9D000384600F0FFF98DF800B06846FBF702FC2E
:10B9E000D4F8180408B9029860609DF80000FBF7CD
:10B9F0001DFC11E0D4F8104404E021682046896859
:10BA000088476468002CF8D108480221008801EBBF
:10BA1000004007A100F06AF8FCF758FE80F0010032
:10BA20000BE70000D8380020080E0300C82C0020C7
:10BA30004261636B656E647320666C7573686564E0
:10BA4000000000002DE9F84F8146DFF89C80D01CF3
:10BA500015468A46800800226946D8F80860FCF737
:10BA6000DDFDB8B3009CA01C0090D8F80810304051
:10BA7000091A8F003F1DBD4208EB800002D82A46FC
:10BA8000514608E03A4651460C30FAF7F1FC1648A8
:10BA9000EA1B0AEB07010C30FAF7EAFC4FEA1947F8
:10BAA000FDF7E8F847EA0042601C304008EB8000F0
:10BAB000344008EB8401C260C8684FF6C07269F375
:10BAC000C500904365F39F5020F00300801C20F0D8
:10BAD0000400C86098F8200402E000BFFFF7A6FE4B
