:020000041102E7
:1000000003B40148019001BD7511000003B401481B
:10001000019001BD75A9000003B40148019001BD24
:10002000C93E000003B40148019001BD9DA9000034
:1000300003B40148019001BD8944000003B40148A4
:10004000019001BD2144000003B40148019001BDAD
:10005000750F000003B40148019001BD113000008C
:1000600003B40148019001BD53B9000003B4014835
:10007000019001BDB30E000003B40148019001BD21
:100080006189000003B40148019001BD1907010016
:1000900003B40148019001BDA9D8000003B4014890
:1000A000019001BDB352010003B40148019001BDAC
:1000B0000D52010003B40148019001BD8B520100B3
:1000C00003B40148019001BDC1A5000003B401487B
:1000D000019001BD9D6A000003B40148019001BD7B
:1000E000116E000003B40148019001BDE94C01000C
:1000F00003B40148019001BDCD4C010003B4014897
:10010000019001BD51B8000003B40148019001BD48
:1001100085C1000003B40148019001BD2DFC000021
:1001200003B40148019001BD25E7000003B4014874
:10013000019001BDEDB8000003B40148019001BD7C
:100140003148000003B40148019001BDC53F0000E3
:1001500003B40148019001BDF5D5000003B4014886
:10016000019001BDF1FA000003B40148019001BD06
:10017000F146FF1F03B40148019001BD99460000FC
:1001800003B40148019001BD1547000003B40148C4
:10019000019001BDC5F0000003B40148019001BD0C
:1001A00079F4000003B40148019001BD63EC000044
:1001B00003B40148019001BD05FF000003B40148EC
:1001C000019001BD3161000003B40148019001BDFF
:1001D00059E4000003B40148019001BDD5E40000DA
:1001E00003B40148019001BD01BF000003B4014800
:1001F000019001BD21F1000003B40148019001BD4F
:1002000039B8000003B40148019001BD77F1000046
:1002100003B40148019001BDC1E2000003B40148EC
:10022000019001BD154D010003B40148019001BDCD
:100230008DE3000003B40148019001BD5511010098
:1002400003B40148019001BDA5FD000003B40148BD
:10025000019001BD7D37FF1F03B40148019001BD2E
:10026000ADAE000003B40148019001BD456B010033
:1002700003B40148019001BDD952FF1F03B40148E6
:10028000019001BD1D4B010003B40148019001BD67
:10029000090E000003B40148019001BDF54E0100B4
:1002A00003B40148019001BD434D010003B401486E
:1002B000019001BD3153FF1F03B40148019001BDFE
:1002C000D552FF1F03B40148019001BD4551010003
:1002D00003B40148019001BD2526000003B4014884
:1002E000019001BDC94A010003B40148019001BD5C
:1002F0003D4B010003B40148019001BD014C0100D8
:1003000003B40148019001BDF94C010003B4014858
:10031000019001BD691F000003B40148019001BDB7
:100320005D17000003B40148019001BD595201005E
:1003300003B40148019001BD5125000003B40148F8
:10034000019001BD594F010003B40148019001BD66
:100350008D12000003B40148019001BD4D1F000043
:1003600003B40148019001BD5522000003B40148C7
:10037000019001BDDD52010003B40148019001BDAF
:100380001D4D010003B40148019001BD810E000024
:1003900003B40148019001BD017F000003B401488E
:1003A000019001BDE117000003B40148019001BDB7
:1003B0007918000003B40148019001BDD94901003A
:1003C00003B40148019001BDE928000003B40148CD
:1003D000019001BD5549010003B40148019001BDE0
:1003E000C926000003B40148019001BD1DBC0000F6
:1003F00003B40148019001BD6DBC000003B4014885
:10040000019001BD3555000003B40148019001BDC4
:10041000C51D000003B40148019001BDB161000099
:1004200003B40148019001BD315F000003B40148ED
:10043000019001BDDD5E000003B40148019001BDE3
:10044000E943FF1F03B40148019001BD810E000084
:1004500003B40148019001BDD554000003B4014824
:10046000019001BD1955000003B40148019001BD80
:100470008543FF1F03B40148019001BD35190000F9
:1004800003B40148019001BDBD18000003B4014848
:10049000019001BD291C000003B40148019001BD79
:1004A000851F000003B40148019001BDA946010069
:1004B00003B40148019001BD1147010003B4014894
:1004C000019001BD6143FF1F03B40148019001BDCC
:1004D000BF21FF1F03B40148019001BD9921FF1FF7
:1004E00003B40148019001BDB13E000003B40148CE
:1004F000019001BDD325FF1F03B40148019001BD48
:100500002124000003B40148019001BD1126FF1F02
:1005100003B40148019001BDC90E000003B40148B5
:10052000019001BD055E000003B40148019001BDCA
:10053000B11F000003B40148019001BDD91F0000A4
:1005400003B40148019001BDAD21000003B401488E
:10055000019001BDE548000003B40148019001BDD0
:100560002951010003B40148019001BDD91B0000CD
:1005700003B40148019001BD5147010003B4014893
:10058000019001BD0959FF1F38B5044600F0B0F9CC
:100590000146684601704470210A81706A46032151
:1005A0000248FFF72DFD002038BD00001B20000091
:1005B00038B5044600F0C2F901466846017044703F
:1005C000210A81706A4603210248FFF719FD0020C5
:1005D00038BD00001A20000008B5002802D000F045
:1005E0005BFB00E01220694608706A460121024860
:1005F000FFF706FD002008BD0520000070B50C4681
:100600000546FFF703FD21462846FFF705FD044692
:10061000FFF708FD204670BDFFB5064601208007A4
:10062000816881B01D46102211438160554F002022
:1006300038603046D730FFF7FBFC9D208000344601
:100640008059FF36CA3401360028306822462CD043
:100650000121FFF7F3FC4B4F2078F863641C204620
:10066000FFF7F2FC00BA000AE17800020843B86321
:10067000241D2046FFF7E8FC00BA000AE1780002DA
:1006800008437863241D2046FFF7DEFC00BA000A09
:10069000E178000208433863039802990002084396
:1006A000F860039F00243F1D0EE00021D1E72819C8
:1006B000401CFFF7C9FC0102285D014332482018A5
:1006C0000160241DA4B23F1F042FF0DA032F04D0D1
:1006D000022F08D0012F0CD011E02819FFF7B4FC2D
:1006E0000102090A06E0291948780A780102114333
:1006F00000E0295D244820180160241DA4B20021D7
:10070000214F02E0E0190160241DFF2CFADD1D4895
:100710001E4A42600F220261012202604269002AE1
:10072000FCD04269930701D4520708D40120800706
:10073000826810218A438260002005B0F0BD01600C
:100740000020039A11E0C11909682954401C80B2A5
:100750000B0A2B54401C0B0C80B22B54401C80B253
:10076000090E2954401C80B2121F002AEBDC3068AD
:10077000401C306001208007826810218A4382601B
:100780000120DAE70000044000010440080F0000E7
:10079000FFB5054601208007816881B01E46102202
:1007A00011438160504F002038602846D730FFF752
:1007B0003FFC9D2080002C464059CA3480350028DB
:1007C000E86F22462BD00021FFF738FC464F2078F7
:1007D000F863641C2046FFF737FC00BA000AE17892
:1007E00000020843B863241D2046FFF72DFC00BA21
:1007F000000AE178000208437863241D2046FFF7D1
:1008000023FC00BA000AE178000208433863039829
:10081000029900020843F8600024039F0EE00121C2
:10082000D2E73019401CFFF70FFC0102305D014395
:100830002E4820180160241DA4B23F1F042FF0DAB7
:10084000032F04D0022F08D0012F0FD014E030194D
:10085000FFF7FAFB0102090A09E031194878097823
:100860000002084321496118086003E0315D1F4818
:1008700020180160241DA4B200211C4B02E0E018E6
:100880000160241DFF2CFADD0F221748120242607E
:100890000F220261012202604269002AFCD001603D
:1008A000039A0020121D11E0C11809683154401C40
:1008B00080B20C0A3454401C0C0C80B23454401CDE
:1008C00080B2090E3154401C80B2121F002AEBDCAA
:1008D000E86F401CE86701208007826810218A4386
:1008E000826005B0F0BD000000000440000104403B
:1008F00010B5114AA1218900126841438C189D212D
:1009000089000959012901D00C2010BDFFF7A2FB75
:100910000028FAD1E01DF93002790621012A06D01B
:1009200041710D212046FFF79BFB002010BDFF20E9
:10093000213001550221F5E73409FF1F70B50D463E
:10094000134AA1218900126841438C189D21890016
:100950000959012901D00C2070BD002D16D0FFF7D8
:1009600079FB0028F8D110210B1A2A5C1B19E033FF
:10097000401CC0B29A711028F6D30121F82001550D
:1009800005212046FFF76CFB002070BD122070BDD2
:100990003409FF1FF8B5069D079C1746002806D0AE
:1009A000002904D0002C04D0012C04D005E0122032
:1009B000F8BD2A2601E0FF260736134A1770134AAE
:1009C0001060134803701348057013480D460470F7
:1009D0000024B61D14E0A1212046890048430B499C
:1009E000009009684018A1218900FFF73FFB0749E3
:1009F000009809684018FF308130C562AD19641C49
:100A0000BC42E8DB0020F8BD1409FF1F3409FF1FBA
:100A10001509FF1F1609FF1F1709FF1FF8B56B4DBA
:100A20000028AB7916D0012B01D0032B12D16849D5
:100A30000A78FF2A0ED14A78FF2A0BD18A78FF2A3A
:100A400008D1CA78FF2A05D10A79FF2A02D149794B
:100A5000FF2930D05F490A78012A1DD000275E4C5B
:100A60000F70217809296FD00A296DD00B296BD01E
:100A70000C2969D00D2967D0052965D0062963D0D6
:100A8000AA7B002A0AD0012A08D0032A06D0022A0B
:100A900004D0042A0FD101E00C20F8BD002B05D0B2
:100AA000012B03D0022B01D0032B04D14B4E002885
:100AB00069D0012801D01220F8BDA888012843D0B0
:100AC000002917D11300FFF7D7FA050408100C0806
:100AD0002400012020701F200AE002202070202026
:100AE00006E004202070222002E003202070212054
:100AF000FFF7C8FA2078282101280CD002280AD054
:100B0000042808D0032806D007280DD008280BD0C9
:100B10001AE01E20ECE7324807602975FFF7B8FAA3
:100B200000281FD0AF800FE02E488068808D80069F
:100B30000AD52D480278002A06D1AA7B032A05D0BF
:100B4000022A03D0002A01D02120F8BD022202701F
:100B50002975140321463078FFF7A0FA2146307832
:100B6000FFF7A2FA0120A8802048007800282AD0A8
:100B70001F48012102887D20C0004243C90330780C
:100B8000FFF798FA1FE0FFF741FAAF8020780728B7
:100B900008D0082806D027701648FFF791FA1E20C3
:100BA000FFF770FA10480178002905D0077001217D
:100BB00049033078FFF772FAFFF734FA0121C903CD
:100BC0003078FFF76BFA0020F8BD0000A60BFF1F7E
:100BD0006B09FF1F1A09FF1F1C09FF1F1B09FF1FBD
:100BE0004809FF1F4869FF1F2309FF1F2109FF1F35
:100BF0002C09FF1F00100040F0B585B004461648D0
:100C00009C46154600780B9F0C9E0A9B0D9A0490FB
:100C10002046202C00D22020202900D22021009321
:100C200003920197029663462A46FFF74FFA0B4953
:100C3000094A4C8004991170012D01D0042D08D16E
:100C4000074980240978CA0106498B88A3431A43BF
:100C50008A8005B0F0BD00001C09FF1FA60BFF1F16
:100C60007809FF1F6C11FF1F10B5FB2908D8084B2E
:100C70009A4205D81B2903D3FF2349339A4201D254
:100C8000302010BD034B19825A82FFF725FA10BDA0
:100C9000480800008410FF1FF8B53249097801297F
:100CA0002AD0022928D0032926D0042924D00529B6
:100CB00022D0062920D02C49097802291CD00429E9
:100CC0001AD0012918D0032916D0062914D00729D3
:100CD00012D00178254C8C46217046786670837856
:100CE000A370C278E270017921714079204D607162
:100CF000AF79012F02D008E00C20F8BD6746EF71F4
:100D00002E726B72AA72E97228730622E91D1948C5
:100D1000FFF7E8F90622E91D1748FFF7E3F917483E
:100D2000017801290BD12178417061788170A17817
:100D3000C170E17801712179417161798171104847
:100D4000017801290BD12178417061788170A178F7
:100D5000C170E1780171217941716179817100205F
:100D6000F8BD00001C09FF1F2309FF1F6B09FF1FAF
:100D7000A60BFF1F7211FF1F8A13FF1FBC0BFF1F63
:100D8000D40BFF1F70B50446FF30FF300230406FB8
:100D90000D46012812D1282D10D1A420005BE18836
:100DA000401A0B4980B2884208D321466A31052295
:100DB0000E46481FFFF79CF9002804D0294620461C
:100DC000FFF79CF970BD31462046FFF79DF970BDD5
:100DD000FF7F0000F0B5054687B0E030049028465C
:100DE000A030039040380590092080012E46281835
:100DF000FF36E136029030462030EF1DF9372C46A1
:100E00008034019098E1E07A801E0300FFF734F906
:100E10001A0E3822396BF638C13892D1A9383838D1
:100E2000383838F5F4F3F23838F1F038A07A012880
:100E300003D02846FFF76EF912E0C24880780028F8
:100E400001D0162129E1608A401E0004000C608256
:100E50006FD06FE1A07A012804D02846FFF760F92F
:100E6000A07267E1B748C0780028ECD02846FFF7A9
:100E70005DF92A4629462879C832C031FFF75CF966
:100E80005AE1A07A012813D00498C07D012821D00E
:100E90000498007E00287BD02A4629462846D7326F
:100EA000B031E730FFF74EF904990120C87543E1EE
:100EB000A448C078002805D003990120887100203B
:100EC000E0673860B8790128BDD106212846FFF7D0
:100ED0003FF931E12846FFF741F90128B9D1002057
:100EE000B8710120BCE7A07A012803D02846FFF79B
:100EF0003BF9B5E79348C0780028A4D0E88C688413
:100F00002846FFF713F905990120C8762071387932
:100F10000128287909D001220021FFF72BF90020B0
:100F200038713872F871B87106E10021FFF728F9BD
:100F3000F5E7B1E0A07A012805D02846FFF726F9A9
:100F4000012807D0F6E0F8790128BDD12846FFF73F
:100F5000EDF8F1E00020F871039988710120A0728A
:100F6000EAE0A07A012804D079792846FFF714F93D
:100F700076E77448C178002906D0039A0021917160
:100F8000059A0121D176217180780028DED15AE7B7
:100F900087E0A07A012803D02846FFF703F95FE72E
:100FA0006848C0780028F2D001203873E88C688443
:100FB000CCE7A07A012805D00120F8752846FFF774
:100FC000F7F84DE7787D012806D0608A401E0004BE
:100FD000000C608213D0ADE0B87D0128B6D1B88B8B
:100FE00000907B8B3A7E29790020FFF7E7F8ADE788
:100FF00088E06BE03DE02DE01BE009E095E0B88B78
:1010000000907B8B3A7E29792220FFF7D7F843E0C6
:10101000A07A012806D02846FFF7D6F8A072002053
:10102000707487E04748C0780028B0D00120707401
:101030008CE7A07A012803D02846FFF7CBF80FE70A
:101040004048C0780028A2D0002030742879FFF7EB
:10105000C7F87BE7A07A012803D02846FFF7C6F837
:101060002FE03848C078002891D0019901200872FB
:101070006CE7A07A012807D0707FB17F084012D0BA
:10108000410714D5042017E02E48C07800288AD0E4
:1010900001990020C871E8E722212846FFF7ACF843
:1010A000012007B0F0BD707E7075B07E05E080074E
:1010B00001D5022000E001207075B0752846FFF7C9
:1010C000A1F8A07201990020087233E0A07A0128EB
:1010D00007D02846FFF79CF8A072029901200876F5
:1010E00028E01848C0780028A2D1608A401E000479
:1010F000000C60821ED11448042200212818FFF73A
:101100008DF8C9E7A07A012803D02846FFF78CF8AC
:10111000A6E60C48C07800280ED002990020087678
:101120000299C875FFF786F810E72846FFF788F898
:1011300001288ED00020B4E7E07B002800D062E6D2
:10114000AFE70000E010FF1F560200000D480C49F9
:1011500001600D4981600B490C4A40314A610D4BD9
:101160000B4A5A610C4AC2620C4A82630C4A8A607A
:101170000C49416307490C48403908627047000038
:10118000F90B02114000FF1F1D0A0211A951FF1F98
:101190006D4FFF1F4002FF1FBD46FF1FC545FF1FCC
:1011A000850D0211D50D02112548FF1F10488068DA
:1011B0001049421C04D03222D04201DB322800DD2B
:1011C0000020087070470A48C1680B484A1C09D0C3
:1011D0001F2907D8C26BC90652095201C90E0A431A
:1011E000C2637047C16B490949010931C163704746
:1011F00000400011680AFF1F80F00040F8B57E4DE6
:101200007C4900200446A9608200401C8C50FF28C5
:10121000FADDA8687949882211507949C162794973
:101220000978002902D076491131C1620A2101658D
:101230007549097881637549C161FFF707F8A968A5
:101240007348486119208001886108463722803040
:10125000C260082336220B64CA6328224A643622FD
:101260004260322202603B220364C263282242644D
:101270004122C264392282643222436502652822F7
:101280008265022202664222C2651E22836642668F
:101290002822C26620224267422202675A22436104
:1012A00002613C228261AF22D2000A60594A0A637D
:1012B000FF222D32FF258A60F5350D61CA60564A3E
:1012C0008A646A00554EC267CE644A62544A8A6292
:1012D0007322CA6506224A658A65CA1DF932022749
:1012E00013604F664B27FF008F660927CF664D4F6F
:1012F0000F678C674B67BB10CB674B4FFF313E606E
:10130000454E86626E008667642646620526C66282
:1013100002260663C826466384633820506043482B
:10132000106443489061B000D06158101062A8006A
:101330005062D4661E20146790669800906513660C
:1013400053645367D0653B4890673B4881315B00ED
:10135000D0670E1D0B6029C64B20C0000D611063C5
:10136000FF20913048656800C86535483349214AF7
:1013700081603449803A11613149334A80318A624F
:10138000324ACA62324A8261324AC262324A0263D5
:101390002B4A3248403A50633148D0633148C861E3
:1013A000314827499063314840318861314930489C
:1013B0008860234830498038416030494163204982
:1013C0002F4AC039CA60304A2E4B1D4CD3632F4B75
:1013D000403C23632E4B8B622E49C1632E49C16072
:1013E0002E4850632E48E060FEF736FF0120FEF7DE
:1013F00039FFF8BD0004FF1F4869FF1FD88FFF1F8A
:101400006E0400005865FF1F4A0AFF1F3A070000DC
:1014100080C3C9019A02000050C30000280A0000DE
:101420006A180000204E0000F009FF1F0040001164
:1014300068100000DC05000040420F003D4BFF1F1C
:101440000001FF1FB122FF1F2155FF1FF557FF1F8E
:101450009522FF1F91070211190602111D33FF1F6C
:101460005132FF1F6962FF1F6160FF1F1922FF1FBA
:10147000690C02110002FF1FF545FF1F0149FF1F04
:101480008524FF1FFD0502110000FF1F8552FF1F6D
:101490003147FF1F894DFF1F8947FF1F6D24FF1F25
:1014A0000946FF1F0A7802708A7842704A88120A39
:1014B00082700979C170042070470A780270098827
:1014C000090A41700220704710B500220EE0930017
:1014D0005B189C7804705C88521C240A44701C7948
:1014E00084709B88D2B21B0AC370001D0B78934294
:1014F000EDD81806800D10BDF8B50D4606464978A2
:10150000012031700024761C16E06978012917D07B
:101510001221614349198A7832704A88871C120A5D
:101520007270B61C10223046091DFEF7DBFD103725
:10153000B8B21036641CE4B22978A142E5D8F8BDEF
:10154000A10049198A7832704A88871C120A727081
:10155000B61C02223046091DFEF7C4FDBF1CB8B2FE
:10156000B61CE7E710B50C46097801702188090A16
:1015700041706288211D801CFEF7B4FD6088801CCC
:1015800080B210BD10B50C46097801702188090A97
:101590004170A17881706188090AC170A288A11D7B
:1015A000001DFEF79FFDA088001D80B210BD10B584
:1015B0000C460A88891CFEF795FD208810BD10B5E1
:1015C0000B788A7802705343DCB22246401C091D16
:1015D000FEF788FD601C10BD10B50B788A7802708C
:1015E0005343DCB22246401C091DFEF77BFD601C04
:1015F00010BD10B50C460A88891CFEF773FD2088C3
:1016000010BD10B50C460A88891CFEF76BFD2088BA
:1016100010BD7FB515460446022901D0102903D11B
:10162000022B04D0102B02D0002004B070BD9942D0
:1016300002D10A46294607E01029694607D000F082
:101640000DF8102269462846FEF752FDEDE71046D8
:1016500000F004F8102269462046F5E770B50C4604
:1016600005000CD0002C0AD0102206492046FEF7B7
:1016700039FD2878207368786073012070BD0020E0
:1016800070BD0000DCA3021110B50B460122024917
:1016900002F068FE10BD0000A514021170B50646E8
:1016A00008880C46172812D30B46032209493046F6
:1016B00002F058FE050008D10749208809888842B1
:1016C00000D20146304600F0CFF9284670BD022016
:1016D00070BD0000BB140211A869FF1F10B50023E4
:1016E0001922194602F03EFE10BD000010B50A781E
:1016F000002A05D00B460722024902F033FE10BD36
:10170000022010BDC914021110B54A78012A01D077
:10171000022A08D10A78002A05D00B46052203497F
:1017200002F020FE10BD022010BD0000F9140211CD
:10173000024940008968085A704700009C69FF1FF1
:1017400010B50B461D22024902F00CFE10BD000030
:101750006515021110B50B461B22024902F002FE6C
:1017600010BD00006515021110B5064900208968FA
:101770001723054A02E044000B53401C1478A04292
:10178000F9DB10BD9C69FF1F646AFF1F0098022BE4
:1017900001D0042070471178527812028918018014
:1017A000002070470098012B01D004207047117869
:1017B00001700020704770B5049C1E461546062B2C
:1017C0001BD369782878090240182080E978A87826
:1017D00009024018608002222271291D601DFEF757
:1017E00081FCB61FB2B22281F02A06D82046A91D7C
:1017F0000A30FEF777FC002070BD042070BD009811
:10180000042B01D004207047537811781B02C918AB
:1018100001809178D27812028918418000207047A7
:10182000F8B584890D460646002C26D0B268177894
:10183000380620D50C2C20D90C3CA4B210190090ED
:1018400001217088234602F0CFFA002811D002202F
:1018500028707806C00F6870B806800EA870641EE5
:101860002004000CA88001D0B068401CA8600020B3
:10187000F8BD0120ECE70020EAE70120F8BD10B533
:1018800002981146042B14D34C780A7824021219BA
:101890000280CC788A782402121942801B1F9AB2E7
:1018A0008280F22A05D8801D091DFEF71BFC00204E
:1018B00010BD042010BD0098042B01D004207047F7
:1018C000537811781B02C91801809178D2781202DE
:1018D000891841800020704710B502981146062BE8
:1018E00003D0142B03D0042010BD022200E01022EC
:1018F00002714B780A781B02D2180280CB788A7862
:101900001B02D21842800279401D091DFEF7EAFB36
:10191000002010BD30B5039CD80718D1D805010EA2
:10192000022914D30B488088814210D8F620015533
:10193000002008E0557813782D025B194500401C03
:101940006353C0B2921C8842F4D3002030BD0420FF
:1019500030BD00009C69FF1F0098022B01D00420BD
:101960007047117852781202891801800020704760
:1019700070B5144602460498022B18D36678257871
:101980003602AD1905800546E0352A766976002ACB
:101990000BD0E8219B1E9AB242808A4207D8A11C34
:1019A000001DFEF79FFB002070BDF421F2E704202C
:1019B00070BD000010B50B461722024902F0D2FCA0
:1019C00010BD00008515021110B50B460D2202490D
:1019D00002F0C8FC10BD0000AF15021110B50A7866
:1019E000002A05D00B461122024902F0BBFC10BDB3
:1019F000022010BDBF15021110B50A78002A05D0CB
:101A00000B460922024902F0ADFC10BD022010BDB8
:101A1000D915021110B50B460F22024902F0A2FCA3
:101A200010BD0000F315021110B50B460B22024940
:101A300002F098FC10BD000003160211F72800D92F
:101A4000F720084A01461080401EC3179B0F181844
:101A50008003000C5080491EC80F4018C003000CC2
:101A6000908070479C69FF1F034A1388994202D8EF
:101A700092684000115270479C69FF1F10B5002307
:101A80001322194602F06EFC10BD000010B5024989
:101A9000087003F03FF810BDAC65FF1FFFB599B0AB
:101AA00000261F46079607AA089600F025FA054665
:101AB0000A287AD204460620444320462030C0B289
:101AC0006A460E21FEF7D4FB002802D168468089C1
:101AD000C6B21B980990082F14D000201790082F29
:101AE00012D020462130C0B218901C220021684636
:101AF000FEF794FB6A461C211898FEF7B9FB0028F4
:101B000005D010E00120E9E720462230EBE76846E7
:101B1000807EC01F092806D8F107C90F6A46179BA7
:101B2000099800F037FE1422002110A8FEF776FB7A
:101B300020462430C0B210AA1021FEF799FB0028DD
:101B400012D11022FF2110A8FEF798FB00280BD11C
:101B50002534E0B214AA0421FEF78AFBF107C90F6D
:101B600010AA1B9801F07EF87035E8B20BAA10217C
:101B7000FEF77EFB002811D10BA802F0BCFF002469
:101B80000BADA00040190188002903D082781B9872
:101B900001F082FB641CE4B2042CF2D3B00704D53C
:101BA000094801781B9801F065FB042F08D106490C
:101BB0001B98491C085C022802D11B9802F0E2FF26
:101BC00000201DB0F0BD0000AC65FF1F70B5002403
:101BD000054600290BD108491046FEF755FB08467B
:101BE000294600F023FF040003D00121284601F01C
:101BF0005FF8204670BD000040420F0070B50E46F1
:101C00001AA002F0D7FC30042ED51C480078FEF74D
:101C100041FB050024D00446017819A002F0CAFC5B
:101C20002078B02809D0B1280FD0D02815D120466F
:101C300000F02EF8002810D112E020791E280CD1D7
:101C40006088002100F0B4F907E02079002804D171
:101C50002289E188608800F097FA2846FEF720FB89
:101C60000120C003704070BD002070BD426F6E64E3
:101C70002073657470202558200A0000AC65FF1F92
:101C80004F53414C4D7367202558200A0000000037
:101C90007FB50446817875A002F08CFCA078784D61
:101CA000801F0300FEF7E8F90ABCE0E0681B06E0CD
:101CB000E05E79E0E869002808D00668002E05D0CB
:101CC000637B227B6189E01CB047CDE06189A86914
:101CD00000F0ACFE0028F8D0608901219AE060781D
:101CE00000282DD1A079C0072AD0A088644980009F
:101CF00020310858002823D10E2200216846FEF723
:101D00008DFA6169002903D006226846103107E088
:101D1000A08805F0DBFD0028D7D0C11D062268464B
:101D2000FEF7E0F969468889A1794907C90F084398
:101D3000694688812146684602F0A4FC002809D043
:101D4000E8690028C1D04368002BBED06278A08823
:101D5000012158E0A0882246694602F0E5FF0020F4
:101D600004B070BDE86900287ED04368002B7BD0AA
:101D70006278A088022146E0E0780022211D00F070
:101D8000BBF80A2870D20621484325302246C0B24B
:101D90000C320421FEF78AFA66E0687A002805D042
:101DA00038A002F007FCA088A97A33E03449A08863
:101DB000491C095C002928D005F088FD0646A07A58
:101DC000C0070ED0002E4FD0B079002809D0A089CE
:101DD000800506D4B0796A46F11D00F08DF8002820
:101DE0001BD02DA002F0E6FB2246B179A088083274
:101DF00002F006FDE869002836D04368002B33D096
:101E00000022A088114698472EE029A002F0D2FBBC
:101E1000A088052100F04CFF26E0A0880321F9E707
:101E200000F0E4FD00281FD1E87B0026012805D042
:101E3000284D0024285D012809D00CE002F0AEFDF9
:101E4000EE730A2200212348FEF7E8F907E0204656
:101E500002F0B0FD2E55641CE4B20A2CEAD35020E7
:101E6000FEF72AFA02F056FE012079E76761704515
:101E700076656E744864725F74202558200A0000ED
:101E8000AC65FF1F676170426F6E645F4175746F70
:101E90004661696C200A000053656E6420706169B8
:101EA00072696E6720726573706F6E7365200A00C9
:101EB000474150424F4E445F50414952494E475F5F
:101EC0004D4F44455F4E4F5F50414952494E472068
:101ED0000A000000A07FFF1F10B5064CE0612178CA
:101EE000FF2905D0262000F0ADFE207801F072F920
:101EF00010BD0000AC65FF1FF0B50A2485B0164682
:101F00000F46002807D0012805D00A25022810D046
:101F1000032847D11FE0084602F0ACFD04460A281A
:101F200040D2002E3ED0062239463046FEF7DAF87F
:101F300038E01E4F002400910E206043C019062295
:101F4000801D0099FEF7D4F8002823D1641CE4B268
:101F50000A2CF1D31CE000242046062148432330FC
:101F6000C0B26A461021FEF783F900280CD1102276
:101F7000FF216846FEF782F9002805D139466846F8
:101F800000F012FE002805D0641CE4B20A2CE3D352
:101F90002C4607E00A2C05D2002E03D031462046FD
:101FA00002F08EFD204605B0F0BD0000147FFF1F3B
:101FB00070B50E4617491525884212D100243246C5
:101FC0000221204602F0BEFC002800D00025641C3F
:101FD000E4B20A2CF3D3002E1AD00F4805F0E8FC27
:101FE00016E005F073FC040011D0A0790022E11D79
:101FF000FFF782FF0A2804D23246022102F0A2FC37
:102000000025002E04D0204602F0B2FD00E0142589
:10201000284670BDFFFF0000714B0211FEB515464A
:1020200001229202821A00240127544E1300FEF767
:1020300023F8110A151A21282F373E434B767E8547
:102040008D9B9B569B00012970D1297802297FD84E
:102050004A480122401CFEF7E1F88DE0022977D1C1
:102060002888708288E0012972D1287801286FD8E9
:10207000B07081E001296BD12878042868D8F0700D
:102080007AE0012964D12878012861D8307173E0A1
:1020900010295DD1102229463948FEF723F86BE05C
:1020A000012955D12878012852D8707164E001299E
:1020B0004ED12878F0725FE0042949D1314928686F
:1020C000884245D8B06157E0002941D100F08EFC2C
:1020D000002801D0F7734FE002F060FC19E00729F7
:1020E00036D10622691C6846FEF7ECF828780022F3
:1020F0006946FFF701FF05460A280ED200F076FC7C
:10210000002803D01E489C30475535E0284602F091
:1021100051FC5020FEF7D0F823E002242CE00129E6
:1021200016D12878012813D8707225E010E0012913
:102130000ED1287809280BD8B0721DE0012907D1EB
:102140002878C11F092903D8307315E0012901D06F
:10215000182411E0B07B2978B17300280CD1012933
:102160000AD102F0D7FC07E02728D6D20229D4D121
:10217000298800F067FD04462046FEBDAC65FF1FC0
:10218000047FFF1F3F420F00F8B50F461349152586
:10219000164688420DD1002432463946204602F0C8
:1021A00013FD002800D00025641CE4B20A2CF3D3F0
:1021B00012E005F08BFB00280DD08379C11D0022B1
:1021C0001846FFF799FE0A2806D23246394602F031
:1021D000FBFC002500E014252846F8BDFFFF0000A9
:1021E00070B50C460146032000020A1A0025344847
:1021F0001300FDF741FF1D1012151C1F2326282C6C
:10220000303234383A3C3E40424446484A4E5052BE
:102210005A5456585A00C07911E01022294902E058
:102220002849102210312046FDF75CFF45E0C06AC6
:10223000206042E0224906223C31F4E70078207019
:102240003BE0808936E01E4942784231EBE71D4988
:1022500082781F39E7E7007AF1E7407AEFE718491B
:1022600006223031DFE7807AE9E7C07AE7E7C08904
:1022700020E0808A1EE0C0781CE0C08A1AE0008B53
:1022800018E0408B16E0808B14E00D4906223631B1
:10229000C9E7C08B0EE0008C0CE0408C0AE080792E
:1022A000CDE7008A06E0408A04E0272904D20846E8
:1022B00000F024FB208000E00225284670BD0000CD
:1022C0005866FF1FDF7FFF1F70B50E4C0025607141
:1022D000A571691EE18100F061FC0420E07110220B
:1022E00000210948FDF79AFF07481022002110300D
:1022F000FDF794FFE562257265720720A072E57212
:1023000070BD00005866FF1FDF7FFF1FFEB53B4D0D
:102310000C4608040CD56879FDF7BCFF050004D015
:1023200003F052FA2846FDF7BBFF0120C00360E02E
:10233000600403D5012080034840FEBD2F48E1071B
:102340000126807900292AD02978002920D0052863
:1023500021D0297A68460170697A4170274906229E
:102360003031801CFDF7BEFEA97A68460172E97A19
:1023700041726946687900F0D9FA002808D0072030
:10238000A871696A002903D00968002900D088472C
:1023900020467040FEBD032069460870E4E7A107AF
:1023A0000DD5052809D1E889FDF792FFAA8A002AF0
:1023B00003D002216879FDF77DFE022019E0600755
:1023C00004D5002003F058FA042012E0200712D5AB
:1023D0002879012802D002280AD107E00096AB8BA9
:1023E0006A8B298BE88A00F00BF801E000F05AF9BB
:1023F00008206040FEBD0020FEBD00005866FF1FA3
:10240000F8B5134C069EA579052D01D01420F8BD12
:10241000104F851FBD4219D2062917D3BD1DA942F1
:1024200014D2FF27F537BA4210D20A2B0ED3AB4293
:102430000CD2E08221836283A383304603F01CFA2E
:1024400004216079FDF72AFE0020F8BD1820F8BDB0
:102450005866FF1F7A0C0000F7B50D4680490098BA
:10246000164642187F4F00247879B9791300FDF79A
:1024700003FE190E141BE92040455970777E888FA2
:10248000E996A2A9B4BFC8E9E9E9E9D3E900102DAA
:1024900076D11022314674486FE0102D70D1724809
:1024A00010223146103068E0042D69D13068F8629E
:1024B000CEE0012D64D13B7832783A70002B0AD0FF
:1024C000002A07D1022903D0062901D0042901D10D
:1024D00000F0EAF9BCE0002A0AD0012905D003295E
:1024E00003D0052901D0042902D10121FDF7DCFD2B
:1024F000AEE0022D44D13088B881A9E01F2D3FD82D
:1025000058481F2200214230FDF788FE55482A46D0
:1025100031464230FDF7E6FD524B7D7042332A468C
:10252000012112E01F2D7CD84F481F2200211F38A7
:10253000FDF774FE4C482A4631461F38FDF7D2FDA0
:10254000494B2A461F3BBD700021787900F000FC02
:1025500083E0012D65D13078042862D8387277E0A5
:10256000012D5ED1307803285BD8787270E0062D9B
:1025700057D13C48062231463030FDF7B3FD67E0C5
:102580004FE0012D4DD1307807284AD8B8725FE06E
:10259000012D46D13078032843D8F87258E0022D37
:1025A0003FD13288BA82002A52D0052950D1022167
:1025B000FDF780FD4CE0012D33D13078012830D873
:1025C000F87045E03088022D2BD1062829D3192137
:1025D000C901884225D8F8823AE03088022D20D1FE
:1025E00006281ED31921C90188421AD838832FE042
:1025F0003088022D15D1FF21F531884211D2788320
:1026000026E03088022D0CD10A280AD31921C901ED
:10261000884206D8B8831BE03178012D01D1012909
:1026200001D0182414E00821FDF758FE002801D03D
:1026300016240DE0002003F01FF904217879FDF73E
:102640002DFD05E00098272801D2022D02D002249A
:102650002046FEBD318800F0F5FA0446F8E7000098
:10266000FFFCFFFF5866FF1FDF7FFF1F1CB50B4CF1
:10267000A179002901D011201CBD002800D0606282
:10268000064907482C31034601910090103B002277
:10269000E179607900F0C2F800201CBD5866FF1F88
:1026A000EF7FFF1F10B506488179052901D0122060
:1026B00010BDC1891322407900F00AFB10BD000053
:1026C0005866FF1FF8B504462F480F4600780228C9
:1026D00005D0012803D0082803D1002F01D01220F3
:1026E000F8BD002C08D0294D2088EA688100515897
:1026F000002903D01120F8BD0220F8BD05F0E6F84E
:1027000006003BD02C20FDF7EFFD2188EA68890008
:102710005050002834D02C220021FDF77FFD208866
:10272000EA68810051581C2248802088E9688000AE
:102730000858211D001DFDF7D5FC2188EA68890095
:102740005158022008702288E96890000B5870796F
:102750001B1D002816D000200D49097801F0E8FA69
:102760000546002F03D03946304606F053FC002DB5
:1027700002D0208802F052FB2846F8BD1420F8BD94
:102780001320F8BD0120E7E7AD69FF1F106AFF1FA6
:102790003D6AFF1FFFB5204D81B028781E461746C1
:1027A000022823D0012821D0002F22D0019805F043
:1027B0008DF804001FD0606A002801D0FDF79AFD53
:1027C0001C213846FDF79CFD6062011E15D028785B
:1027D000000714D5002E12D0887E00900B461233CD
:1027E0000A8A019806F0F4FE014609E0122005B0BD
:1027F000F0BD0220FBE71420F9E71320F7E70021E2
:102800002079042210432071029A002A02D0022269
:10281000104320710846EAE7AD69FF1FFFB581B09C
:102820001E460D4602240B9F0B00FDF725FC0D1ADA
:102830000B1A1A0B1A1A1A1A1A1A1A081A000AA0CC
:1028400001F0B8FE2946019800F0D4F8040008D140
:102850003A4630460A9900F0ABF900F00BF901F066
:1028600057FA204605B0F0BD4741505F4465766990
:102870006365496E69743A204741505F50524F4634
:10288000494C455F43454E5452414C207C204741C2
:10289000505F50524F46494C455F50455249504851
:1028A0004552414C200A000070B5104C21680029A7
:1028B00004D00978814203D0032070BD122070BD7E
:1028C0000B4D02212878FDF7E9FB0A4800264680D7
:1028D00004212878FDF7E2FB0748068021680320E1
:1028E00048700020FDF712FD70BD00000C6AFF1F4C
:1028F0003D6AFF1F206AFF1FB069FF1F272803D210
:1029000002494000085A704701487047B869FF1FE4
:10291000FFFF000010B5044C6070FDF7FDFC0521C1
:10292000607801F071F810BD3C6AFF1F70B5284E49
:10293000054630680C46002801D0112070BD25489E
:1029400001780520014216D023488068002805D070
:102950000078002802D0C80706D101E0102070BD21
:1029600000F044F8002808D02078032805D0022879
:1029700003D0002801D0122070BD0C20FDF7B4FC5C
:102980003060002820D00570002141700A222146C5
:10299000801CFDF7A7FB03F053F8040002D002F0FF
:1029A00031FA12E00D48007803280ED11D20FFF700
:1029B000A5FF0B490028088007D00B48094A0421CD
:1029C0000078FDF7AFFC00E01324204670BD000046
:1029D0000C6AFF1FAD69FF1F206AFF1FAE69FF1F52
:1029E000B069FF1F60EA00003D6AFF1F10B504F0E8
:1029F000C9FF10BD70B50C4605461C2200210948D0
:102A0000FDF70CFC084805704470FDF791FC054982
:102A1000002803D000200870122070BD01220A7027
:102A200070BD0000348BFF1FAC69FF1F7FB50446EB
:102A30000D46084604F04AFF002805D00C488442A1
:102A400004D9022004B070BD1220FBE7102200213F
:102A50006846FDF7E3FB68460470210A4170210CCB
:102A60008170210EC170294601F0C0F8EAE700002C
:102A70003F420F0070B50F4C0025A068002802D01F
:102A8000FDF738FCA560E068002802D0FDF732FCB5
:102A9000E560094805210078084206D00548103055
:102AA00002F08EFD01F0C4FD70BD002002F088FD33
:102AB000002070BD206AFF1FAD69FF1FFEB5344DB9
:102AC0000C46080419D56878FDF7E4FB0121C90319
:102AD0004C40064600280ED002F092FC002807D198
:102AE0002878FF2804D03146FDF728FC002802D0C2
:102AF0003046FDF7D5FB2046FEBDE0070127002844
:102B00000AD0A868002804D04168002901D000201C
:102B1000884720467840FEBDA00709D56868002890
:102B200004D04168002901D00120884702202AE012
:102B300060072AD5174E308800281FD0401E000499
:102B4000000C30801ED102F0D3F9002809D01248C1
:102B500007706868002804D04168002901D001206E
:102B6000884702F09FF9694600F0BEFF684602F010
:102B700031FC1D20FFF7C2FE308003E0042168789D
:102B8000FDF78CFA04206040FEBD0020FEBD000071
:102B90003C6AFF1FB069FF1FAF69FF1F0149087042
:102BA000704700003C6AFF1F10B501F08BF810BDA4
:102BB00070B50E4C0B46261D07C605461022002197
:102BC0001846FDF75BFB012803D11021A06806F031
:102BD00085F8102200212846FDF750FB012803D17B
:102BE0001021606806F07AF870BD0000348BFF1F7A
:102BF00038B5054610480C460078400701D412202D
:102C000038BD284604F062FE002812D00B48A90007
:102C100000684058002801D0817D00E021466846C8
:102C200006F030FD064B6A460221284606F08CFC71
:102C300038BD142038BD0000AD69FF1F1C6AFF1F9E
:102C4000959B0211272807D2044A914204D0044AD6
:102C5000400011520020704702207047FFFF000023
:102C6000B869FF1F70B50E4610491546097802294C
:102C700016D0012914D0002D14D004F027FE040032
:102C800012D0002E03D02079022108432071102297
:102C90002946A018FDF726FA28692062002070BD99
:102CA000122070BD022070BD142070BDAD69FF1FE1
:102CB00038B50C46054604F009FE002806D06846E3
:102CC00004706946284606F02DFC38BD142038BD36
:102CD000F8B50D4617461D4906461B4A122488685A
:102CE000954208D100282DD00268002A2AD0294612
:102CF0003046904723E0144A521C954213D10028D5
:102D000007D00268002A04D02946304690470400C4
:102D100005D03946304601F065FC040012D10B485D
:102D2000067047700EE0284604F0D0FD002809D058
:102D30000078B04205D139462846FDF705FB044628
:102D400000E003242046F8BDFEFF0000106AFF1FCC
:102D5000F8B50E46014619481546007805221F466B
:102D6000104028D0304326D01548012E1BD0C4680F
:102D7000002C20D01F2D18D8002D01D0002F14D0EA
:102D800001701F220021601CFDF748FA2A463946CF
:102D9000601CFDF7A7F928462570002E07D0611C9E
:102DA000FDF7D8FAF8BD8468E2E70220F8BD611C9F
:102DB000FDF7D6FAF8BD1220F8BD0000AD69FF1F7F
:102DC000206AFF1F014610B50020C90704D0034A3E
:102DD0000421034800F004FA10BD00006CA30211A6
:102DE000DC66FF1F10B5002309E01C012418E4680D
:102DF000944202D11901081810BD5B1C9BB28B4292
:102E0000F3D3002010BD000070B50F4D0F4CA8701B
:102E100029461831204600F01DF8002128460B46AF
:102E20001030CA0084521218491C09065360090E5A
:102E3000F7D0012003F0FAFCA87800F0B9FB0448B1
:102E400004F0D0FD70BD0000BC66FF1FFFFF000056
:102E50004160021170B50A4C0025A04209D1002042
:102E600082008C525218401CC0B295700228F7D3D1
:102E700070BD03F0B4F80028FAD00480857070BDEE
:102E8000FFFF0000F8B50E46074606990024079894
:102E9000002902D00B242046F8BD022B01D00D24BE
:102EA000F9E711785278120289188DB229468143C8
:102EB00001D08024EFE73846F16800F083F9A8429A
:102EC000E9D02A463846F16800F012FA0400E2D14F
:102ED00071892A46384600F0B1F9DCE7FFB50446AF
:102EE000C1B01F4600881E4A00254A9B904233D03D
:102EF000A078002830D00A4619463846FFF772FFFE
:102F0000060029D0174A208812684100515C00232E
:102F1000C91EC9B203AA02320193029100927A89B2
:102F200004AB314600F03CF8002815D170896946A1
:102F30008881A078C00705D0208803A9439A00F0B3
:102F400005FB0546A078800706D5208803A94B9B82
:102F5000439A00F09DFA0543284645B0F0BD0000B5
:102F6000FFFF0000A469FF1F70B50C46080412D5CE
:102F70000A488078FDF78EF9050008D02878B02837
:102F800002D1284603F048F92846FDF789F90120C7
:102F9000C003604070BD002070BD0000BC66FF1F14
:102FA000FFB587B0087A0025109E1C460F46C00664
:102FB0000DD5099803F00CF8030006D00A22394613
:102FC00007989847050035D101E00E2532E03878A2
:102FD00002281DD178682922017840781202000267
:102FE000081880B2811A90427ED009DC7249401ADA
:102FF00023D0012821D0022851D0032808D125E070
:10300000012972D0022971D003296DD004296ED014
:10301000099803F005F80028D7D00568002DD4D012
:10302000129911980191009033462246394607982B
:10303000A847054628460BB0F0BD1198002873D16B
:10304000F868017831800278416897E0119800288B
:103050006AD101203080F8680021007820707889DA
:10306000401C80B200F072F900280FD0318802783D
:103070008918891C3180817A61704189090AA1709F
:1030800002784168E01CFDF72DF8D3E73088042270
:10309000001D30800021601CFDF7C0F8CAE71198C0
:1030A000002872D1F86804A90088009004203080BC
:1030B000009820700098000A6070009800F046F9AF
:1030C000070028D0F86805906846028A03AB3B49A0
:1030D000384600F093F900280FD13B780221384898
:1030E0007A68FEF796FA03E027E031E01DE049E058
:1030F000002802D131486946888105980078022865
:103100000CD1059802224168201DFCF7EBFF3088A6
:10311000801C308002E0694600988881684680897A
:10312000A070000AE07085E72FE0119800282CD1EC
:10313000F968079800F046F804E01198002824D1B7
:10314000F8680088022131802070000A607071E701
:10315000F868FDF70BF91199C0B2814210D881428D
:1031600001D1002206E0129A8918814202D31199F6
:10317000401AC2B23280F96811980918204682E7D5
:10318000072557E71198002801D00B2552E70721A2
:10319000F868318001782170417861708178A17080
:1031A0004188090AE1700179217181796171C088D2
:1031B000000AA0713EE7000000280000FFFF0000A9
:1031C00052A4021110B502F00AFF002800D0807846
:1031D00010BD00000149087070470000BC66FF1F69
:1031E0007CB51446050019D068460195018000F0B1
:1031F000E5F903001DD1002C1BD06D89002D0DD0E9
:103200000C20FDF771F800280AD0002303608580A8
:10321000094A84609168002904D006E0022308E08E
:10322000132306E0906004E011460A68002AFBD1EF
:10323000086018467CBD0000BC66FF1FF8B50C4C4A
:103240000746207815460E46FF280FD00A20FDF7C6
:1032500093F801000AD0B12008700020487008716E
:103260004F80CE800D812078FDF768F8F8BD000012
:10327000BC66FF1F70B50C4605460649FFF7A2FF66
:10328000800704D52146284600F0ECF970BD0120E6
:1032900070BD0000D466FF1F1CB56B461A71120A80
:1032A0005A7100220092022301AA00F001F81CBD0D
:1032B000FFB583B008461F4601A90C9E00F046F8F2
:1032C000050012D06846808802F0AAFE00280AD0C5
:1032D0004468002C07D000963B462946059A03987F
:1032E000A04707B0F0BD0E20FBE70120F9E7000082
:1032F00070B514460E46054602F071FE002806D150
:103300003146054802F06BFE002803D0058084702A
:10331000002070BD112070BDFFFF000010B50178C6
:10332000B0290BD14178002908D10179122906D0A2
:103330001B2903D14088012100F0E2FA10BDFF21D2
:103340000231095C0129F5D010BD0000F0B58C46B2
:1033500010494B6819E09F687C89A04214D39E886D
:103360003119814210D900220CE011017D186989C0
:10337000814205D16046002800D004802846F0BD77
:10338000521C92B29642F0D81B68002BE3D1002069
:10339000F0BD0000486AFF1FFFB5174881B00A9FC3
:1033A000446824E000251EE0A068290146187089C1
:1033B0000199884215D30299884212D804980028AE
:1033C00007D031787068049B039AFEF722F9002831
:1033D00007D0002F02D0A06840893880304605B061
:1033E000F0BD6D1CADB2A088A842DDD82468002CC9
:1033F000D8D10020F3E70000486AFF1FFEB517464A
:1034000000256A469580044640891D4A1E46904222
:1034100008D001AA0092401C237880B26268FFF7AE
:10342000BBFF05462378022116486268FEF7F1F8D3
:10343000002807D12378022113486268FEF7E9F8D3
:10344000002801D060890EE0237802210F486268CD
:10345000FEF7DFF800280DD0002D03D068468088E5
:10346000B84203D0384603F0F5FA04E06889401EFC
:1034700080B200E06089002E00D030802846FEBD7A
:10348000FFFF000050A4021152A4021156A4021121
:10349000FFB581B00F461E4614466946019802F0FA
:1034A000E5FB050018D1002C06D00122102101985F
:1034B00004F0E6F905000FD139460198FEF740F90E
:1034C000050009D1009CFF2E06D021461E22A31C18
:1034D000034803F0CBFAE670284605B0F0BD0000C3
:1034E0005969021110B505490870042100F08CFAE1
:1034F00000F006F8FEF738F910BD0000546AFF1F0F
:10350000F8B50F4D0D4B00206E1C1C78FF2209E012
:103510009F688100C91900280ED00E80CA70401C17
:103520008A70C0B2A042F3D3064802F043FD0648B9
:1035300004F058FA0020F8BD0D80EFE7486AFF1F3D
:10354000FEFF000085690211D9680211F8B50D4629
:1035500014460646694602F089FB17280CD0002C59
:1035600006D001221021304604F08AF9002803D148
:1035700029463046FEF7EEF8F8BD000070B50C465F
:10358000080411D509480078FCF784FE050007D02F
:103590000178A02901D102F0B1FC2846FCF780FE99
:1035A0000120C003604070BD002070BD546AFF1F41
:1035B0000149487070470000486AFF1F70B5054612
:1035C000008800281DD068680221037842682248DC
:1035D000FEF71FF8002808D16868022103784268C6
:1035E0001E48FEF716F800280BD01D4C60880028F6
:1035F00005D0012229881204101A814203D9012022
:1036000070BD022070BD0C20FCF76EFE060001D0DC
:1036100000200BE0132070BD01016B6862880A3145
:103620005A526188491C401C618080B229888142BD
:10363000F2D80020306008222946301DFCF752FDE8
:103640006068002802D1666004E00846016800292D
:10365000FBD10660002070BD50A4021152A40211DB
:10366000486AFF1F70B5BEB00D460646002402230F
:103670000E4A0F4901200094FFF78EFE002812D059
:1036800040896A46108004205080012010715471D6
:10369000FF209071D0712B46002269463046FFF71B
:1036A000F7FE3EB070BD0120FBE700006EA40211E2
:1036B000FFFF00000649496806E08A685289824295
:1036C00001D18888704709680029F6D10020704729
:1036D000486AFF1F10B51422114201D0012202E0F6
:1036E0004A0604D50022102104F0CAF810BDC8070C
:1036F00001D0002010BD022010BD10B514468A066E
:1037000004D50122102104F0BBF810BD882211421B
:103710000ED008220A40102104F0B2F800280BD085
:10372000E034617E0029F0D0217E0129EDD103E053
:10373000880701D4032010BD002010BD014610B53C
:103740000020C90704D0034A07210348FFF748FDBA
:1037500010BD000058A30211E465FF1F70B50D46AF
:10376000164600241D490300FCF786FC08051234A8
:10377000341934222934152D23D816220021184853
:10378000FCF74CFD2A4631461548FCF7ABFC22E01D
:10379000022D16D111491088103908801BE0082D20
:1037A0000FD10E48082231460838FCF7EBFD12E035
:1037B000012D06D1CA6909493078283107E0012D69
:1037C00001D0182407E0CA6B04493078483103F06F
:1037D0000EFA00E00224204670BD0000E465FF1FE1
:1037E000AA7FFF1FF0B5069F099E002833D010283E
:1037F00031D800292FD0002A2DD0002B2BD0002F1C
:1038000029D0079C002C26D0089C002C23D0002E09
:1038100021D00A9C002C1ED0104C051D2070657014
:10382000A26061600E490F4A0B60059911600E4954
:103830000E4A0F60079911600D4A089911600D49F1
:10384000401C08700C490E600C4908700C490A981D
:1038500008600020F0BD1820F0BD0000646AFF1F62
:10386000A86AFF1FA469FF1F1C6AFF1F946AFF1F3D
:10387000986AFF1F886AFF1F8C6AFF1F486AFF1F34
:10388000506AFF1F0B7803700B8802221B0A4370DB
:103890000B88801C012B02D0022B07D011E08A7804
:1038A00002704988090A417004220AE08A7802708D
:1038B0004A88120A42700A7982708988090AC1709E
:1038C000062210467047000008B5044B00931346CB
:1038D0000A46012103F024FF08BD000085380211CB
:1038E0001CB50323019200930A46024B122103F0F8
:1038F00047FF1CBD0170021110B5FCF749FD10BD5A
:1039000013B504480078012803D101AA6946FCF7E1
:1039100045FD1CBD606AFF1F70B51049104A087054
:1039200000210B468C00491CC9B213530429F9D35A
:103930000B4C00211034FF260A460A256A4315194C
:103940006B80491CA354C9B26E720329F4D3FCF7EF
:103950002BFD03F09BFE03F0EFFF70BD616AFF1FBC
:10396000508BFF1F082A01D0012070474B780A783E
:103970001B02D2180280CB788A781B02D2184280B0
:103980004B790A791B02D21882808A79C979090297
:103990005118C1800020704770B50C46080411D53D
:1039A00009480078FCF776FC050007D001789029DB
:1039B00001D103F0CDFD2846FCF772FC0120C003C5
:1039C000604070BD002070BD616AFF1F70B50C497A
:1039D0000978884213D20B4C060160680025855394
:1039E000301885816068301885806068301880687C
:1039F000002804D0FCF7DEFC60683018856070BDDC
:103A0000646AFF1F906AFF1F072907D0052905D0A8
:103A1000042903D0062901D002207047044A8B00F4
:103A20009A181346403B1986203A9074002070473C
:103A3000508BFF1F70B517490978884228D25C2146
:103A4000154C4843A16805464018002640300674CE
:103A5000A068281840304674A068281840300676C0
:103A6000A0682818406D002804D0FCF7A3FCA068CB
:103A7000281846650026A068F100281840184068FC
:103A8000002801D0FCF796FC761CF6B20A2EF2D381
:103A900070BD0000646AFF1F906AFF1F70B50A883E
:103AA0000C460546072A07D0052A05D0042A03D06C
:103AB000062A01D0022070BD012103F0C5FF0028B5
:103AC00004D02146284603F0B1FA70BD142070BD21
:103AD00010B5001D80B2FCF773FC002803D0032151
:103AE000C943FCF773FC10BD38B50C46050014D073
:103AF000002C12D00321684605F0F0F8694688785A
:103B000040218006800E0843694688702246284678
:103B100005F078FE050002D006E0022038BD032241
:103B20006946E01CFCF7DEFA284638BDF7B58EB0D2
:103B30000E9815460E4600282DD0002D2BD0301D96
:103B4000C0B20190FCF7D0FB040039D001F0B6F907
:103B500007463246201D0E99FCF7B4FBF8B20890D8
:103B6000E0703804000E0B90A0703802000E0A902E
:103B700060703F0E277001F09BF90146102202A8E9
:103B8000FCF7A0FB06AB214602A8019A05F090FDC8
:103B9000060003D010E0022011B0F0BD0898287094
:103BA0000B9868700A98A870EF70082206A9281D63
:103BB000FCF788FB01F088F92046FCF79BFB00E04E
:103BC00013263046E8E7000010B5064C2070FCF7DD
:103BD00003FC06212078FFF717FF034803F002FFDC
:103BE00010BD00007C6AFF1F358D0211F8B50E462E
:103BF000214C0146A068B50040590027002807D095
:103C00002422125C022A05D0032A03D0042A01D000
:103C10001220F8BDC288B24201D00220F8BD1022A5
:103C20000C30FCF75FFAA06810214059353005F0E0
:103C300055F8A068415930460B460A4625333532BF
:103C40000C3105F001FEA068022140590278002ADB
:103C5000427807D0032A0BD14170304605F004F8B2
:103C6000074605E0042A02D0032A03D000E0417091
:103C70003846F8BD0521EFE7A06AFF1F70B50C4676
:103C8000080419D50D480078FCF704FB05000FD097
:103C900005F076F9002808D109480078FF2804D0FB
:103CA0002946FCF74BFB002802D02846FCF7F8FA1F
:103CB0000120C003604070BD002070BD7C6AFF1F02
:103CC0003C6AFF1F7CB50C4605001DD0002C1BD0A4
:103CD0000322E11C6846FCF705FA69468878402112
:103CE0008006800E08436946887001AA284605F0C0
:103CF00089FD002807D10322214601A8FCF7F8F925
:103D0000012803D001207CBD02207CBD00207CBDA9
:103D100010B505480078400701D5044800E00020B0
:103D200005F0E2F9002010BDAD69FF1F706AFF1FAA
:103D3000FFB581B000202B4C0090A0689500405941
:103D40001E461746002802D0112005B0F0BD002EF7
:103D50000BD02120FEF7D2FD317E884205D82220EB
:103D6000FEF7CCFD317E884201D20220EDE77820BB
:103D7000FCF7BAFAA1680028485130D07822002117
:103D8000FCF74CFAA068002140594170A2680198E4
:103D900052591070A268029852599070A268FF2080
:103DA0005259D070A0684259D78042599660425902
:103DB00011624059203001710198002803D0384623
:103DC00004F06AFF0090A1680120495948700098EA
:103DD000002802D0384604F011FF0098B5E7132000
:103DE000B3E70000A06AFF1FFFB58DB00F98169CC7
:103DF0000E46002815D0002C13D00D9803F066FD58
:103E0000050011D06178207809024018A178E27885
:103E10000904120689184718286AB84206D3401CBC
:103E200004D0022011B0F0BD1420FBE7002E04D016
:103E30002879800701D40120F4E70822002106A890
:103E4000FCF7ECF91098001DC0B20190FCF74CFA99
:103E5000060017D0301D109A0F99FCF733FA042290
:103E600021463046FCF72EFA1022A91802A8FCF7CA
:103E700029FA06AB314602A8019A05F019FC0500A3
:103E800002D013E01320CDE7082206A908A8FCF70A
:103E900019FA0822211D08A8FCF72AF9012801D0E7
:103EA000012503E039460D9801F024FE3046FCF769
:103EB00021FA2846B6E70000F0B57B4CC1B060722D
:103EC00006211F20FEF7BEFE00256846057201266A
:103ED00006730721017485821821818319277F01C8
:103EE0000784FF218584F531018570A003C8019105
:103EF000009021786846017606AA01216D48FEF7F8
:103F0000ABFA6C486A460621801CFEF7A5FAC3206E
:103F100004AA01218000FEF79FFA664802AA012147
:103F2000001FFEF799FA634805AA0221C01EFEF79A
:103F300093FA21465E31084611223838FCF7D2F850
:103F40002246612024321C21C000FEF785FA594820
:103F5000224640321E21801EFEF77EFA312003AA3F
:103F600001210001FEF778FA524807AA0221083021
:103F7000FEF772FA4F4808AA02210930FEF76CFAE0
:103F80004C4809AA02210A30FEF766FAC5200AAA9F
:103F900002218000FEF760FA22465E3215210020E1
:103FA000FFF7DCFB39460620FEF74CFE39460720BA
:103FB000FEF748FE39460820FEF744FE3946092040
:103FC000FEF740FE3C480090684606710672057395
:103FD000067481206A460421C000FEF71FF8012103
:103FE00001AA8802FEF71AF8324802AA0121F93024
:103FF000FEF714F82F4803AA0121FA30FEF70EF855
:104000002C4804AA0121FD30FEF708F86D1E284651
:10401000FFF794FB2846FEF7D5FE03F0CBFF2846BA
:1040200000F022F90F2168460170002001A901E08B
:10403000062801D2002200E002460A54401CC0B209
:10404000FB28F5D36A460121032000F05BF901AAA1
:10405000FB21042000F056F9184900200854401CA8
:10406000FF28FBDB1048103000F042F9F725012053
:10407000FCF7B8F90120FCF7BBF92846FDF7DEFC98
:1040800029460FA000F096FA0121607AFCF70CF89F
:10409000607AFEF783FD1148FCF7B0F9104800F094
:1040A00089FA41B0F0BD0000B868FF1F01020304A7
:1040B000050600000903000040E201001C88FF1F04
:1040C0005B324D627073207C20444C45207C204D37
:1040D00054552025645D200A000000006086FF1F03
:1040E00038A50211FEB5474C0D46080414D5607A78
:1040F000FCF7D0F804000CD02078912806D1607825
:104100000E2803D1A18840A000F054FA2046FCF705
:10411000C7F80120C00370E0E807012600280CD092
:1041200038481430FEF7A2FA36481C30FDF7D4FEAA
:10413000FCF76AF928467040FEBDA80702D50220A8
:104140004840FEBD280708D5684606706A4601212A
:104150003848FEF781F908204FE068074FD500275F
:10416000354E35E0A089010A31707070002F18D1EA
:1041700069460020FCF74EF901A90020FCF750F930
:1041800002A90020FCF752F968460078707468466E
:104190008088FF38FF3802388010B0746846007A93
:1041A000F0740020FDF7C4FAC01EC1B2224A0520F7
:1041B00004F0BEFBA289010003D020A000F0FAF9B0
:1041C00009E024A000F0F6F9A089401CA0817F1C22
:1041D000A0788742C6DB6289002A07D0E0780028F1
:1041E0000AD10421607AFBF765FF05E00421607ABB
:1041F000FBF754FF0020A08104206840FEBD002092
:10420000FEBD0000B868FF1F3D3D3E204843495FAA
:10421000434F4D4D414E445F434F4D504C455445E7
:104220005F4556454E545F434F44453A2025780A32
:1042300000000000050300001C88FF1F5B4E4F5468
:10424000465F5458204552525D2025303278202553
:1042500034780A005B4E4F54465F54585D20253039
:104260003278202534780A0070B5054600240949C3
:104270000948FEF7EFFD094803F0B4FBE80706D054
:104280000448074A0E210830FEF7AAFF04462046DC
:1042900070BD0000A067FF1FFFFF00000189021131
:1042A000D0A3021170B500240D46032806D00428BF
:1042B00008D006280CD00224204670BD094800789A
:1042C0000870F9E70020FDF733FAC21E064904E042
:1042D0000020FDF72DFA0549C21E2846FBF702FF14
:1042E000EAE700009067FF1F5083FF1F4685FF1F0E
:1042F000002803D002494860002070471120704711
:104300009067FF1F10B500241346032806D0042829
:104310000AD006280ED00224204610BD012911D152
:10432000094910780870F7E7FB290BD80A461946A7
:10433000064804E0FB2905D80A4619460448FBF75D
:10434000D1FEE9E71824E7E79067FF1F5083FF1FBE
:104350004685FF1F0A4610B501460020FCF76CF8A1
:1043600010BD0000FFB50F4683B01C490398896853
:1043700040001646085AFFF7ABFB04002AD001257F
:10438000601C2670002F03D00699B847401C85B2E8
:10439000300610D51021039803F056FB002801D0F9
:1043A000192613E06219E9B22046FFF7BFFB0600A9
:1043B0000CD10C35ADB20421684601800194058111
:1043C00069460398FFF76AFB060004D02046FBF716
:1043D000F1FF00E01326304607B0F0BD9C69FF1FD7
:1043E00010B586B0044614220FA16846FCF72AF8DF
:1043F000124930200870782048700620891C6A46CF
:10440000A41D641E2378401E1B09D35C0B70237807
:1044100000061B071B0FD35C4B70891C000EF0D1EC
:104420000870064806B010BD3031323334353637A7
:104430003839414243444546000000005086FF1F82
:10444000F0B500208BB00990074606460546089057
:10445000079025A000F0AEF828A000F0ABF80024EB
:1044600004A92046FBF7F4FF6846838AC28A018BC1
:10447000408A03936B4607C36846038A428B2146F2
:104480002AA000F097F86846418B0798641C08182A
:1044900080B207906846018A0998E4B2081880B291
:1044A00009906846418A0898081880B208906846C2
:1044B000008B401985B26846C08A801986B268466A
:1044C000808AC01987B2252CCAD323A000F072F8C5
:1044D0006846E0C02CA0089B099A079900F06AF88A
:1044E000FBF7BCFF0BB0F0BD5B504552205354416D
:1044F0005453204E6F746966795D0D002D2D2D2D5E
:104500002D20636820636F6E6E4E2072784E756D3D
:10451000207278437263207278546F4E2074784111
:10452000636B207478527479200D00005B50455203
:104530005D202530326420253035642025303564F7
:104540002025303564202530356420253035642021
:10455000253035640A000000544F54414C206368F4
:1045600020636F6E6E4E2072784E756D20727843A8
:104570007263207278546F4E20747841636B20749C
:1045800078527479200D00000A5B5045525D202D51
:104590002D202530356420253035642025303564C4
:1045A0002025303564202530356420253035640AD7
:1045B000000000000FB410B503AA0448029903F0EC
:1045C00093FA10BC08BC04B0184700005543021110
:1045D00038B5034B00240FCB0094FBF745FF38BDE3
:1045E00040A3021110B50C4603F088F9002804D04E
:1045F00040882146FBF7A8FE10BD122010BD002206
:10460000002913D0002811D0012806D04A7992063B
:10461000920E4A71032805D007E04879C022104362
:10462000487102E0402002434A710122104670475F
:1046300070B5124800250078052108421BD02020C3
:10464000FBF752FE0E4C0028A06013D02022002160
:10465000FBF7E4FD2020FBF747FEE060002804D0D4
:1046600020220021FBF7DAFD05E0A068FBF742FEFF
:104670000020A0601325284670BD0000AD69FF1F13
:10468000206AFF1FF3B588880D4681005A485A4CAE
:1046900040585A4F203C85B0002823D10598002867
:1046A0007ED0002D7CD000F0E5F920740A281CD3C0
:1046B00000260E207043C0190622FF21FBF7DEFD05
:1046C000002804D1761CF6B20A2EF2D30A262674EC
:1046D0000A2E07D1607B0A210646FBF7D5FD21741F
:1046E000761C6673207C0A2861D2A888424E80001E
:1046F000305800285ED082680027002A0BD0207C2A
:10470000062148432130C0B21C21FBF7CFFDA88809
:10471000800030588760A888800030580269002ADD
:104720000BD0207C062148432230C0B21C21FBF76D
:10473000BDFDA888800030580761A88880003058E7
:104740004269002A0BD0207C062148432330C0B2A6
:104750001021FBF7ABFDA888800030584761A8887E
:1047600080003058C268002A18D0207C06214843B7
:104770002430C0B21021FBF799FDA88806218000E3
:104780003058C268207C103248432530C0B2042122
:10479000FBF78CFDA88880003058C760A07B00E044
:1047A00005E0002801D000F0A5FA00F0E7FA0120AA
:1047B00007B0F0BD207C062148432030C0B20E2156
:1047C000059AFBF773FD1022FF216846FBF726FDD3
:1047D000207C6A467030C0B21021FBF767FD207C58
:1047E0000E2148430A46C0190599FBF77BFCA888AF
:1047F000800035500020DBE7CC65FF1F147FFF1FD2
:10480000F0B589B017460E460446202200216846BE
:10481000FBF704FD68460480394C0225E1780171FC
:1048200022794271217B017706984108E07A49009C
:10483000C307DB0F1943069181070029069901DAA6
:10484000294300E0A943069101072E4B069901D5A3
:10485000194300E099430691C1062B4B069901D5F7
:10486000194300E0994306918106284B069901D52A
:10487000194300E099430691400704210028069857
:1048800001DA084300E088430690002A05D001A819
:1048900010221F490230FBF725FC6179002904D062
:1048A000002E02D00698284306906846807D002995
:1048B00000D00121084369468875A178002900D0FD
:1048C0000421084369468875A179002900D0082190
:1048D000084369468875E179002900D01021084312
:1048E00069468875217A002900D02021084369464D
:1048F000887539466846FDF7E5FE09B0F0BD000051
:10490000AC65FF1F00010000000200000004000071
:10491000047FFF1F70B50025094E2C460E20604312
:1049200080190622FF21FBF7A9FC002801D16D1C8C
:10493000EDB2641CE4B20A2CF0D3284670BD00002E
:10494000147FFF1F7FB50C460621484306461546D7
:104950002036F0B26A460E21FBF78AFC002806D109
:104960000622FF216846FBF789FC002802D00020C0
:1049700004B070BD68468189002DC8B202D02043C2
:10498000C0B200E0A043814206D069468881F0B2FF
:104990006A460E21FBF78AFC0120E9E710B50024E6
:1049A000204600F007F8641CE4B20A2C01D200286B
:1049B000F6D010BD70B50546044606204443264691
:1049C00090B02036F0B207AA0E21FBF751FC002868
:1049D00006D10622FF2107A8FBF750FC002802D0D1
:1049E000002010B070BD0E22FF2107A8FBF716FCB7
:1049F0001C22FF216846FBF711FC1022FF210BA8A7
:104A0000FBF70CFCF0B207AA0E21FBF74FFC0646A1
:104A100020462130C0B26A461C21FBF747FC064302
:104A200020462230C0B26A461C21FBF73FFC0643F9
:104A300020462330C0B26A461021FBF737FC0643FC
:104A400020462430C0B26A461021FBF72FFC0643F3
:104A50002534E0B26A460421FBF728FC01463143C5
:104A60000C467035E8B20BAA1021FBF71FFC20435F
:104A7000B7E7000070B50A4D064600240E206043DB
:104A8000401906223146FBF733FB002801D02046AF
:104A900070BD641CE4B20A2CF0D30A2070BD000083
:104AA000147FFF1F00229300CB5A834202D1900053
:104AB00040187047521CD2B2042AF4D30020704729
:104AC0007FB50C460A280CD2002C0AD00621484398
:104AD0002030C0B26A460E21FBF7CAFB050003D0A6
:104AE00007E0022004B070BD062269462046FBF7AD
:104AF000F9FA2846F6E700218A00835A491CDB436D
:104B0000835212189378C9B2DB4393700429F3D30C
:104B10007047000070B5144E00240E2060438219C7
:104B200020460621484320301546C0B20E21FBF72F
:104B30009FFB00280BD028460622FF21FBF76EFBC7
:104B4000A81D0622FF21FBF769FB0020A881641C39
:104B5000E4B20A2CE1D30548807B002801D000F0A4
:104B6000C9F800F00BF970BD147FFF1FAC65FF1F83
:104B700010B5034940880978FEF77CFB10BD0000A2
:104B8000AC65FF1F10B50F494A79002A01D00123F7
:104B900000E000238A78002A00D004221A438B798F
:104BA000002B00D008231343CA79002A00D010221A
:104BB000097A1A43002900D020211143FEF718F882
:104BC00010BD0000AC65FF1F70B50E4604460621FF
:104BD000484388B015462030C0B204AA0E21FBF726
:104BE00047FB002843D10622FF2104A8FBF746FB20
:104BF00000283CD17034E0B26A461021FBF738FB44
:104C0000002831D16846FFF776FF002E06D06946AE
:104C10003046FFF747FF00280DD015E01022002195
:104C20006846FBF72BFB00281ED1102200216846A6
:104C3000FBF7F4FA10E0002D19D069460020FFF7C9
:104C400031FF002813D006808178A9420CD08570EE
:104C5000002D01D1002101806846FFF74CFFE0B232
:104C60006A461021FBF722FB012008B070BD00202E
:104C7000FBE7000070B51C4C0646606A1B4D86B011
:104C8000002809D12046143000900223184A2946F2
:104C90000120FEF781FB20E004A802220021009001
:104CA0000292019103ABA28A3046616AFEF778F95D
:104CB00000280CD16846017B407B000208180204E2
:104CC000120C04D0606A41893046FDF75DFA00237A
:104CD000A28A2946606AFEF791FB60620028DBD158
:104CE000012006B070BD0000AC65FF1FFFFF000093
:104CF0005CA4021170B5FBF7BDFB0A4E00240E2028
:104D00006043801905460622FF21FBF7B7FA002809
:104D100002D12946FBF7B4FB641CE4B20A2CEED3A3
:104D200070BD0000147FFF1F70B50B46044611468E
:104D30001846FFF7A7FC00281DD00F4DA4002859E6
:104D40008088FFF797FF002815D02E46203EF06997
:104D5000002807D04368002B04D0285900228088FF
:104D6000012198472859002803D0FBF799FA002021
:104D700028510A20307470BDCC65FF1F08B5FFF7BD
:104D8000C9FD012801D9022000E00A206946087007
:104D90006A4601210520FEF7E1FC08BD002909D083
:104DA000012807D1497989098901C02902D0402900
:104DB00001D00220704703207047FFB500200E4647
:104DC00008701AE01C5C401CC5B2002C17D02819D2
:104DD000904214D85F5D6D1CEDB2384600F0B3FE12
:104DE000002806D0641EE0B2307000998F4202D1D4
:104DF000581904B0F0BD4019C0B29042E2D300206F
:104E0000F7E7000010B5044C2068002803D0FBF73A
:104E100071FA0020206010BD0C6AFF1F70B5104DA4
:104E20008400E8680059002819D0006A002801D0E1
:104E3000FBF760FAE8680059406A002801D0FBF7E8
:104E400059FAE8680059806A002801D0FBF752FA45
:104E5000E8680059FBF74EFAE9680020085170BD78
:104E6000106AFF1F10B5044C6068002803D0FBF7E0
:104E700041FA0020606010BD106AFF1F011E044847
:104E800005D104498978002901D00248801D704766
:104E9000448BFF1FAC69FF1F0148807870470000FA
:104EA000AC69FF1F0148406870470000348BFF1F4A
:104EB0000148806870470000348BFF1F0148C068BC
:104EC00000687047348BFF1F10B50748C068016841
:104ED000491C016005480078FF2803D0012189039F
:104EE000FBF7E2F810BD0000348BFF1FAC69FF1F19
:104EF00002484068002800D001207047086AFF1F60
:104F0000FFB581B00F460D9E0A9D039802F0DEFCAE
:104F1000040042D0019800283FD120791021084395
:104F200020710499490702D50221084301E0FD21BF
:104F3000084020710B99284608430C9908433043D8
:104F4000207902D00421084301E0FB2108402071B0
:104F5000002E06D03069102220623146A018FBF7DF
:104F6000C1F8002D01D0002F05D00B98002814D0D7
:104F7000012F08D011E0606A002801D0FBF7BAF9D0
:104F80001C21284606E0606A002801D0FBF7B2F930
:104F90001C210B98FBF7B4F960620398274C87003B
:104FA000E068C059002846D0002D11D0006A0028C2
:104FB00007D11C20FBF798F9E1680028C95908625D
:104FC00006D0E0681C22C0592946006AFBF78AF81F
:104FD0000C98002813D0E068C059406A002807D117
:104FE0001620FBF781F9E1680028C959486206D00C
:104FF000E0681622C0590C99406AFBF773F8002E3E
:1050000013D0E068C059806A002807D11420FBF74C
:105010006BF9E1680028C959886206D0E06814225B
:10502000C0593146806AFBF75DF80B9B049A0399DF
:10503000019803F099F905B0F0BD0000106AFF1F58
:10504000F3B581B0019802F041FC050029D00E2093
:10505000FBF792F9040024D02620FDF74FFC060050
:1050600000D12E78D0202070002767700B20A07010
:105070000622E91DE01CFBF735F8019860810298D3
:10508000C1070120002901D0207300E02773029995
:10509000890701D5607300E06773F0B22146FBF722
:1050A0004DF9FEBD10B581881F4B0124CA1A9942E3
:1050B00037D011DC1D4BCA1A994219D007DC1C4AA3
:1050C0008A1810D0022A1ED0032A29D11BE0472AB1
:1050D00027D0482A24D124E01300FAF7CDFF062177
:1050E0002222222222218068007800F0EDFC08E0D4
:1050F0008068827841781202891889B2007800F0BD
:1051000043FD04460DE0094A921E914201D101225D
:1051100000E0002280680178104600F01DFD00E0EC
:105120000024204610BD0000532000000A2000008B
:10513000FADFFFFF70B51A4D1A4A0146002628789B
:105140001268194C01290CD0002A09D01749097896
:10515000490705D50221FAF7A1FF6680FFF752FE45
:1051600070BD6188002903D0114B1B78002B05D03E
:10517000002AF5D01078FDF797FB70BD3C2902D3CB
:105180003C39618070BD0221FAF788FF62887D207A
:10519000C000424302212878FAF78CFF668070BD78
:1051A0003D6AFF1F0C6AFF1F206AFF1FAD69FF1FCA
:1051B000AF69FF1F08B5418900910389C2888188C2
:1051C000C07800F0CDFB08BDF0B504468088A12171
:1051D00089004843304987B009684018FF30FF30E4
:1051E0000230A1794167002C54D02C4D686800280A
:1051F00023D006782A480068002804D04168002996
:1052000001D0002088472146E07908310591FFF759
:10521000C5FDE0710246277D638A218AE0890190FD
:1052200002A88AC0A0880090E0783146059B03F070
:1052300013F9E078002802D00DE01A48D9E7E079A8
:10524000E2896B46059907C3A379A18801223046FC
:1052500002F0EAFAE0706868002811D0FFF702FE59
:10526000287800280CD06978FFF7BCF9002807D00F
:10527000E078A2880346297803F042F900202870DC
:10528000A0881721FCF7F0FBA088FEF79FFBA08801
:10529000FEF7D0FB07B0F0BD3409FF1F106AFF1FF7
:1052A000406AFF1FAC69FF1F70B504460025808867
:1052B00002F00CFB002803D00578A08802F0A8FBC0
:1052C000134E3078002808D0854206D17178FFF758
:1052D00089F9002809D000203070002D05D0A3796D
:1052E000A288A078294603F00BF9A088F268810013
:1052F0005158002901D0FFF791FDA0881721FCF734
:10530000B3FBA088FEF762FBA088FEF793FB70BD9D
:10531000106AFF1F70B58288294D0124531B29494B
:10532000AA4242D019DC284D531BAA4218D00BDCEC
:10533000264BD21826D0254B1033D2181ED0032A64
:1053400017D0042A39D10BE0012B09D0022B07D04A
:10535000032B21D0042B30D11AE0433B072B2CD850
:10536000496800292AD00968002927D088470446BF
:1053700024E08068007800F0ADF81FE0806800F05D
:1053800001F9F4E78068411C007800F0D9F8EEE7F5
:1053900083681B78002B11D0896800290ED00B6818
:1053A00008E0014610469847E1E7094909680029E5
:1053B00004D04B68002BF4D100E00024204670BDDF
:1053C0000E2000003C6AFF1F08200000F7EFFFFFDF
:1053D000186AFF1F10B5094CA17800290CD00146AE
:1053E0000622A01DFAF77EFEA11DA078FFF707F99F
:1053F000A01DFBF7F1F810BD002010BDAC69FF1F28
:105400001CB52F49037801240A68912B02D0A22BE6
:105410002ED13EE04178052909D00E2904D00F296C
:1054200008D03E2924D115E0FFF774FF10E0FFF704
:105430003BFF3AE001468088224B0124C31801D08B
:10544000062B15D1002A30D05268002A2DD0904763
:1054500004462AE081780124032917D004DC0129BD
:1054600011D0022904D105E015291ED016291CD01F
:1054700000241AE014498968002916D049680029D7
:1054800013D0884711E0FFF79FFE0EE0FFF792FE72
:105490000BE00E490978042909D0002A05D052688A
:1054A000002A02D001460A48904720461CBD002130
:1054B0006A46118001794088FEF706FAF5E7000098
:1054C000186AFF1FF3DFFFFF3C6AFF1FAD69FF1F74
:1054D000FFFF0000F8B5164F0646BD1F2878FF28CD
:1054E00014D00A20FAF748FF04000FD0D020207013
:1054F00066700820A070A878E07006223946201D4A
:10550000FAF7F0FD21462878FAF718FFE878012825
:105510000DD108480068002803D08068002800D01A
:1055200080470648044A04210078FAF7FBFEF8BDDC
:10553000B269FF1F406AFF1F60EA00003D6AFF1F5B
:1055400070B500240546002805D1002903D00622A5
:105550000B48FAF7C7FD0A4810380178012907D12E
:105560000124002D06D000210170284600F0D4F956
:10557000204670BD02210170FAF788FFF8E70000AD
:10558000448BFF1F10B50024002813D002780B496C
:10559000002A03D14288CA8202790A760A78022A4E
:1055A00008D102780124002A06D000220A7000786F
:1055B00000F0B2F9204610BD0322F7E7348BFF1F3D
:1055C00001494860704700003C6AFF1FF8B57C4CF9
:1055D00087780146002507266079A2793B00FAF713
:1055E0004BFD0805381C3939619CD23848780028B1
:1055F0005ED1734806223C30C91CFAF773FD0120C6
:10560000A0716278002A07D06D4B01214233607986
:10561000FDF79EFB00284BD1ABE00F4649780029EF
:1056200046D1F978002906D0664BA2780021FDF713
:105630008FFB78700AE0022A0BD00121FAF74EFEA8
:10564000002803D101216079FAF72EFD787800282F
:105650002ED1F8BD497800292AD1032F09D0A2897B
:10566000002A0CD0217800290AD00121FAF722FD66
:1056700006E0052A01D0022012E0062010E0257085
:10568000A079062802D0042802D008E0052007E00F
:105690000120207001466079FAF706FD69E00320D9
:1056A000A07166E048780F46002803D0312832D038
:1056B000A6715EE042480622391D3630FAF712FD27
:1056C0007889E081B8892082F88960820520A071FC
:1056D000A28A002A03D002216079FAF7EBFCB8898C
:1056E000E083F8892084388A6084E07801280AD130
:1056F0001F20FDF703F97D21C9004843024604211C
:105700006079FAF7D7FC7A89F8780423391DFCF719
:10571000C5F925702DE02570C1E729480E460622FF
:1057200000213630FAF77AFDE5832584658404216B
:105730006079FAF7B3FC08216079FAF7AFFCB07929
:1057400008280BD00320A071607800280ED02078A4
:10575000002805D06079FDF7A7F807E00420F2E7FC
:105760000120207001466079FAF79EFC0020C043BA
:10577000E081606A002800D16BE701680029FBD056
:10578000A0798847F8BD0D460821FAF787FC6878AC
:1057900029460028F6D1E888E083288920844889B2
:1057A000608404216079FAF799FD0028EAD1A06AA3
:1057B0000028E7D00368628C218CE08B9847F8BD05
:1057C0005866FF1FC07FFF1F10B50178224C91293A
:1057D00006D0A22926D0D02901D1FFF7F7FE10BDAF
:1057E00041780E29FBD181881C4A91420FD18168F2
:1057F00003200856A1790529F1D17F28EFD0616AED
:105800000029ECD049680029E9D0884710BD144A26
:105810009142FBD1806883784278017811A0FEF72D
:10582000C9FE10BD41791329FBD10089012802D19D
:105830002079022808D00520FDF760F802460821EB
:105840006079FAF737FC10BD08216079FAF726FC79
:10585000FCF728FF10BD00005866FF1F051400006C
:10586000222000005B48434920444C455D256420CC
:1058700025642025640A00007CB5154C0546E08BA4
:10588000E18A88420AD3218B884207D8208C618B19
:10589000884203D1608CA18B884217D00520FDF788
:1058A0002DF80646E18A68460180218B4180618B94
:1058B0008180A18BC18062796946E089FEF710F88A
:1058C0002571324608216079FAF7F4FB7CBD0000AF
:1058D0005866FF1FF8B507460E46084601F0F6FF6A
:1058E000040018D02620FDF709F8050000D125781E
:1058F0000620FAF741FD04000DD006220021FAF738
:105900008DFCD020207067700E20A070A680E8B2B9
:105910002146FAF713FDF8BD70B50F4D06462878FD
:10592000FF2818D00E20FAF727FD040013D0D0204E
:10593000207066700020A07006220849E01CFAF76B
:10594000D1FB06481038C18A6181007E2073214650
:105950002878FAF7F3FC70BDAC69FF1F448BFF1F7A
:10596000FFB581B01E4617460D460C20FAF704FD20
:10597000040013D0284601F0A9FF002810D00078B9
:10598000D0212170019961700721A170A580E78065
:1059900026810A9961812146FAF7D0FC05B0F0BD55
:1059A0000048ECE7AC69FF1F70B50D4D0446286850
:1059B0000E46002812D00620FAF7DEFC010009D0BE
:1059C000D02008704C70032088708E802868007882
:1059D000FAF7B4FC002C01D0FFF714FA70BD0000F8
:1059E0000C6AFF1FFFB581B01F460E46084601F046
:1059F0006DFF050022D01020FAF7BEFC04001DD078
:105A000010220021FAF70AFC2620FCF777FF002875
:105A100000D12878D0212170019961700F21A170E7
:105A2000A6800399217267720A99A1720B99E1729B
:105A30000C99E160C0B22146FAF780FC05B0F0BDD8
:105A4000F0B51F4D85B02868002837D08778FCF75F
:105A5000CDFF002805D00A20FCF750FF04900B2052
:105A60000EE001F09BFA002805D00620FCF746FF67
:105A70000490072004E00820FCF740FF0490092070
:105A8000FCF73CFF04460F480078002814D001269C
:105A90002968C878091DFEF7B2FD29686D46CA7AE3
:105AA0008B7A091D0BC5039233463A46214604986A
:105AB000FAF7F2FC05B0F0BD0026E9E70120F9E7AE
:105AC0000C6AFF1FAE69FF1F10B50949096800295C
:105AD0000CD0002805D101204870FAF717FC0028E7
